ARM GAS  C:\Users\haras\AppData\Local\Temp\ccSR9wHM.s 			page 1


   1              		.syntax unified
   2              		.cpu cortex-m0
   3              		.fpu softvfp
   4              		.eabi_attribute 20, 1
   5              		.eabi_attribute 21, 1
   6              		.eabi_attribute 23, 3
   7              		.eabi_attribute 24, 1
   8              		.eabi_attribute 25, 1
   9              		.eabi_attribute 26, 1
  10              		.eabi_attribute 30, 1
  11              		.eabi_attribute 34, 0
  12              		.eabi_attribute 18, 4
  13              		.thumb
  14              		.syntax unified
  15              		.file	"BLE_1_eventHandler.c"
  16              		.text
  17              	.Ltext0:
  18              		.cfi_sections	.debug_frame
  19              		.section	.text.CyBle_GattDisconnectEventHandler,"ax",%progbits
  20              		.align	2
  21              		.code	16
  22              		.thumb_func
  23              		.type	CyBle_GattDisconnectEventHandler, %function
  24              	CyBle_GattDisconnectEventHandler:
  25              	.LFB4:
  26              		.file 1 "Generated_Source\\PSoC4\\BLE_1_eventHandler.c"
   1:Generated_Source\PSoC4/BLE_1_eventHandler.c **** /***************************************************************************//**
   2:Generated_Source\PSoC4/BLE_1_eventHandler.c **** * \file CYBLE_eventHandler.c
   3:Generated_Source\PSoC4/BLE_1_eventHandler.c **** * \version 3.50
   4:Generated_Source\PSoC4/BLE_1_eventHandler.c **** * 
   5:Generated_Source\PSoC4/BLE_1_eventHandler.c **** * \brief
   6:Generated_Source\PSoC4/BLE_1_eventHandler.c **** *  This file contains the source code for the Event Handler State Machine
   7:Generated_Source\PSoC4/BLE_1_eventHandler.c **** *  of the BLE Component.
   8:Generated_Source\PSoC4/BLE_1_eventHandler.c **** * 
   9:Generated_Source\PSoC4/BLE_1_eventHandler.c **** ********************************************************************************
  10:Generated_Source\PSoC4/BLE_1_eventHandler.c **** * \copyright
  11:Generated_Source\PSoC4/BLE_1_eventHandler.c **** * Copyright 2014-2018, Cypress Semiconductor Corporation.  All rights reserved.
  12:Generated_Source\PSoC4/BLE_1_eventHandler.c **** * You may use this file only in accordance with the license, terms, conditions,
  13:Generated_Source\PSoC4/BLE_1_eventHandler.c **** * disclaimers, and limitations in the end user license agreement accompanying
  14:Generated_Source\PSoC4/BLE_1_eventHandler.c **** * the software package with which this file was provided.
  15:Generated_Source\PSoC4/BLE_1_eventHandler.c **** *******************************************************************************/
  16:Generated_Source\PSoC4/BLE_1_eventHandler.c **** 
  17:Generated_Source\PSoC4/BLE_1_eventHandler.c **** #include "BLE_1_eventHandler.h"
  18:Generated_Source\PSoC4/BLE_1_eventHandler.c **** 
  19:Generated_Source\PSoC4/BLE_1_eventHandler.c **** 
  20:Generated_Source\PSoC4/BLE_1_eventHandler.c **** /***************************************
  21:Generated_Source\PSoC4/BLE_1_eventHandler.c **** * Private Function Prototypes
  22:Generated_Source\PSoC4/BLE_1_eventHandler.c **** ***************************************/
  23:Generated_Source\PSoC4/BLE_1_eventHandler.c **** 
  24:Generated_Source\PSoC4/BLE_1_eventHandler.c **** static void CyBle_GattDisconnectEventHandler(void);
  25:Generated_Source\PSoC4/BLE_1_eventHandler.c **** static void CyBle_TimeOutEventHandler(const CYBLE_TO_REASON_CODE_T *eventParam);
  26:Generated_Source\PSoC4/BLE_1_eventHandler.c **** static void CyBle_GattConnectReqHandler(void);
  27:Generated_Source\PSoC4/BLE_1_eventHandler.c **** static void CyBle_L2Cap_ConnParamUpdateRspEventHandler(uint16 response);
  28:Generated_Source\PSoC4/BLE_1_eventHandler.c **** static void CyBle_GapConnUpdateCompleteEventHandler(const CYBLE_GAP_CONN_PARAM_UPDATED_IN_CONTROLLE
  29:Generated_Source\PSoC4/BLE_1_eventHandler.c **** 
  30:Generated_Source\PSoC4/BLE_1_eventHandler.c **** 
  31:Generated_Source\PSoC4/BLE_1_eventHandler.c **** #if (CYBLE_GATT_ROLE_SERVER)
ARM GAS  C:\Users\haras\AppData\Local\Temp\ccSR9wHM.s 			page 2


  32:Generated_Source\PSoC4/BLE_1_eventHandler.c **** 
  33:Generated_Source\PSoC4/BLE_1_eventHandler.c **** static void CyBle_WriteReqHandler(CYBLE_GATTS_WRITE_REQ_PARAM_T *eventParam);
  34:Generated_Source\PSoC4/BLE_1_eventHandler.c **** static void CyBle_ValueConfirmation(const CYBLE_CONN_HANDLE_T *eventParam);
  35:Generated_Source\PSoC4/BLE_1_eventHandler.c **** 
  36:Generated_Source\PSoC4/BLE_1_eventHandler.c **** #endif /* CYBLE_GATT_ROLE_SERVER */
  37:Generated_Source\PSoC4/BLE_1_eventHandler.c **** 
  38:Generated_Source\PSoC4/BLE_1_eventHandler.c **** #if (CYBLE_GATT_ROLE_CLIENT)
  39:Generated_Source\PSoC4/BLE_1_eventHandler.c **** 
  40:Generated_Source\PSoC4/BLE_1_eventHandler.c **** static void CyBle_GapcDiscoverCharacteristicsEventHandler(CYBLE_DISC_CHAR_INFO_T *discCharInfo);
  41:Generated_Source\PSoC4/BLE_1_eventHandler.c **** static CYBLE_GATT_ATTR_HANDLE_RANGE_T CyBle_GetCharRange(void);
  42:Generated_Source\PSoC4/BLE_1_eventHandler.c **** static void CyBle_GattcWriteResponseEventHandler(const CYBLE_CONN_HANDLE_T *eventParam);
  43:Generated_Source\PSoC4/BLE_1_eventHandler.c **** static void CyBle_NotificationEventHandler(CYBLE_GATTC_HANDLE_VALUE_NTF_PARAM_T *eventParam);
  44:Generated_Source\PSoC4/BLE_1_eventHandler.c **** static void CyBle_IndicationEventHandler(CYBLE_GATTC_HANDLE_VALUE_IND_PARAM_T *eventParam);
  45:Generated_Source\PSoC4/BLE_1_eventHandler.c **** static void CyBle_ReadResponseEventHandler(CYBLE_GATTC_READ_RSP_PARAM_T *eventParam);
  46:Generated_Source\PSoC4/BLE_1_eventHandler.c **** static void CyBle_ReadMultipleResponseEventHandler(CYBLE_GATTC_READ_RSP_PARAM_T *eventParam);
  47:Generated_Source\PSoC4/BLE_1_eventHandler.c **** 
  48:Generated_Source\PSoC4/BLE_1_eventHandler.c **** #endif /* CYBLE_GATT_ROLE_CLIENT */
  49:Generated_Source\PSoC4/BLE_1_eventHandler.c **** 
  50:Generated_Source\PSoC4/BLE_1_eventHandler.c **** 
  51:Generated_Source\PSoC4/BLE_1_eventHandler.c **** /***************************************
  52:Generated_Source\PSoC4/BLE_1_eventHandler.c **** * Global Variables
  53:Generated_Source\PSoC4/BLE_1_eventHandler.c **** ***************************************/
  54:Generated_Source\PSoC4/BLE_1_eventHandler.c **** 
  55:Generated_Source\PSoC4/BLE_1_eventHandler.c **** /* This global variable is initialized after connection with peer device, 
  56:Generated_Source\PSoC4/BLE_1_eventHandler.c ****    after CYBLE_EVT_GATT_CONNECT_IND event, and could be used by application code
  57:Generated_Source\PSoC4/BLE_1_eventHandler.c ****    to send data to peer device. 
  58:Generated_Source\PSoC4/BLE_1_eventHandler.c **** */
  59:Generated_Source\PSoC4/BLE_1_eventHandler.c **** CYBLE_CONN_HANDLE_T cyBle_connHandle;
  60:Generated_Source\PSoC4/BLE_1_eventHandler.c **** 
  61:Generated_Source\PSoC4/BLE_1_eventHandler.c **** volatile uint8 cyBle_eventHandlerFlag;
  62:Generated_Source\PSoC4/BLE_1_eventHandler.c **** volatile uint8 cyBle_busyStatus;
  63:Generated_Source\PSoC4/BLE_1_eventHandler.c **** 
  64:Generated_Source\PSoC4/BLE_1_eventHandler.c **** const CYBLE_GAPS_T cyBle_gaps =
  65:Generated_Source\PSoC4/BLE_1_eventHandler.c **** {
  66:Generated_Source\PSoC4/BLE_1_eventHandler.c ****     0x0001u,    /* Handle of the GAP service */
  67:Generated_Source\PSoC4/BLE_1_eventHandler.c ****     0x0003u,    /* Handle of the Device Name characteristic */
  68:Generated_Source\PSoC4/BLE_1_eventHandler.c ****     0x0005u,    /* Handle of the Appearance characteristic */
  69:Generated_Source\PSoC4/BLE_1_eventHandler.c ****     0x0007u,    /* Handle of the Peripheral Preferred Connection Parameters characteristic */
  70:Generated_Source\PSoC4/BLE_1_eventHandler.c ****     0x0009u,    /* Handle of the Central Address Resolution characteristic */
  71:Generated_Source\PSoC4/BLE_1_eventHandler.c ****     0x000Bu,    /* Handle of the Resolvable Private Address Only characteristic */
  72:Generated_Source\PSoC4/BLE_1_eventHandler.c **** };
  73:Generated_Source\PSoC4/BLE_1_eventHandler.c **** 
  74:Generated_Source\PSoC4/BLE_1_eventHandler.c **** 
  75:Generated_Source\PSoC4/BLE_1_eventHandler.c **** #if(CYBLE_GAP_ROLE_PERIPHERAL || CYBLE_GAP_ROLE_BROADCASTER) 
  76:Generated_Source\PSoC4/BLE_1_eventHandler.c ****     uint8 cyBle_advertisingIntervalType;
  77:Generated_Source\PSoC4/BLE_1_eventHandler.c **** #endif /* CYBLE_GAP_ROLE_PERIPHERAL || CYBLE_GAP_ROLE_BROADCASTER) */
  78:Generated_Source\PSoC4/BLE_1_eventHandler.c **** 
  79:Generated_Source\PSoC4/BLE_1_eventHandler.c **** #if(CYBLE_GAP_ROLE_CENTRAL || CYBLE_GAP_ROLE_OBSERVER) 
  80:Generated_Source\PSoC4/BLE_1_eventHandler.c ****     uint8 cyBle_scanningIntervalType;
  81:Generated_Source\PSoC4/BLE_1_eventHandler.c **** #endif /* CYBLE_GAP_ROLE_CENTRAL || CYBLE_GAP_ROLE_OBSERVER */
  82:Generated_Source\PSoC4/BLE_1_eventHandler.c **** 
  83:Generated_Source\PSoC4/BLE_1_eventHandler.c **** #if(CYBLE_GATT_ROLE_SERVER)
  84:Generated_Source\PSoC4/BLE_1_eventHandler.c **** #if defined CYBLE_CTS_SERVER || defined CYBLE_ESS_SERVER
  85:Generated_Source\PSoC4/BLE_1_eventHandler.c **** CYBLE_GATT_ERR_CODE_T cyBle_gattError;
  86:Generated_Source\PSoC4/BLE_1_eventHandler.c **** #endif /* defined CYBLE_CTS_SERVER || defined CYBLE_ESS_SERVER */
  87:Generated_Source\PSoC4/BLE_1_eventHandler.c **** #endif /* CYBLE_GATT_ROLE_SERVER */
  88:Generated_Source\PSoC4/BLE_1_eventHandler.c **** 
ARM GAS  C:\Users\haras\AppData\Local\Temp\ccSR9wHM.s 			page 3


  89:Generated_Source\PSoC4/BLE_1_eventHandler.c **** #if(CYBLE_GATT_ROLE_CLIENT)
  90:Generated_Source\PSoC4/BLE_1_eventHandler.c **** uint8 cyBle_disCount; /* Counter for discovery procedures */
  91:Generated_Source\PSoC4/BLE_1_eventHandler.c **** 
  92:Generated_Source\PSoC4/BLE_1_eventHandler.c **** #ifdef CYBLE_CUSTOM_CLIENT
  93:Generated_Source\PSoC4/BLE_1_eventHandler.c **** /* Discovery included service information, used for 128-bit UUID read response handle 
  94:Generated_Source\PSoC4/BLE_1_eventHandler.c ****    and for continue discovery. 
  95:Generated_Source\PSoC4/BLE_1_eventHandler.c **** */
  96:Generated_Source\PSoC4/BLE_1_eventHandler.c **** static CYBLE_DISC_INCL_INFO_T cyBle_discInclInfo;
  97:Generated_Source\PSoC4/BLE_1_eventHandler.c **** #endif /* CYBLE_CUSTOM_CLIENT */
  98:Generated_Source\PSoC4/BLE_1_eventHandler.c **** 
  99:Generated_Source\PSoC4/BLE_1_eventHandler.c **** #ifdef CYBLE_HIDS_CLIENT
 100:Generated_Source\PSoC4/BLE_1_eventHandler.c ****     static uint8 disServiceIndex;      /* To discovery descriptors for multiple HID service instanc
 101:Generated_Source\PSoC4/BLE_1_eventHandler.c **** #endif /* CYBLE_HIDS_CLIENT */
 102:Generated_Source\PSoC4/BLE_1_eventHandler.c **** 
 103:Generated_Source\PSoC4/BLE_1_eventHandler.c **** CYBLE_DISC_SRVC_INFO_T cyBle_serverInfo[CYBLE_SRVI_COUNT] = /*3*/
 104:Generated_Source\PSoC4/BLE_1_eventHandler.c **** {
 105:Generated_Source\PSoC4/BLE_1_eventHandler.c ****     {{CYBLE_GATT_INVALID_ATTR_HANDLE_VALUE, CYBLE_GATT_INVALID_ATTR_HANDLE_VALUE}, CYBLE_UUID_GAP_S
 106:Generated_Source\PSoC4/BLE_1_eventHandler.c ****     {{CYBLE_GATT_INVALID_ATTR_HANDLE_VALUE, CYBLE_GATT_INVALID_ATTR_HANDLE_VALUE}, CYBLE_UUID_GATT_
 107:Generated_Source\PSoC4/BLE_1_eventHandler.c **** #ifdef CYBLE_AIOS_CLIENT
 108:Generated_Source\PSoC4/BLE_1_eventHandler.c ****     {{CYBLE_GATT_INVALID_ATTR_HANDLE_VALUE, CYBLE_GATT_INVALID_ATTR_HANDLE_VALUE}, CYBLE_UUID_AUTOM
 109:Generated_Source\PSoC4/BLE_1_eventHandler.c **** #endif /* CYBLE_BCS_CLIENT */
 110:Generated_Source\PSoC4/BLE_1_eventHandler.c **** #ifdef CYBLE_ANCS_CLIENT
 111:Generated_Source\PSoC4/BLE_1_eventHandler.c ****     {{CYBLE_GATT_INVALID_ATTR_HANDLE_VALUE, CYBLE_GATT_INVALID_ATTR_HANDLE_VALUE}, 0x0000u},
 112:Generated_Source\PSoC4/BLE_1_eventHandler.c **** #endif /* CYBLE_ANCS_CLIENT */
 113:Generated_Source\PSoC4/BLE_1_eventHandler.c **** #ifdef CYBLE_ANS_CLIENT
 114:Generated_Source\PSoC4/BLE_1_eventHandler.c ****     {{CYBLE_GATT_INVALID_ATTR_HANDLE_VALUE, CYBLE_GATT_INVALID_ATTR_HANDLE_VALUE}, 
 115:Generated_Source\PSoC4/BLE_1_eventHandler.c ****         CYBLE_UUID_ALERT_NOTIFICATION_SERVICE},
 116:Generated_Source\PSoC4/BLE_1_eventHandler.c **** #endif /* CYBLE_ANS_CLIENT */
 117:Generated_Source\PSoC4/BLE_1_eventHandler.c **** #ifdef CYBLE_BAS_CLIENT
 118:Generated_Source\PSoC4/BLE_1_eventHandler.c ****     {{CYBLE_GATT_INVALID_ATTR_HANDLE_VALUE, CYBLE_GATT_INVALID_ATTR_HANDLE_VALUE}, CYBLE_UUID_BAS_S
 119:Generated_Source\PSoC4/BLE_1_eventHandler.c ****     #if(CYBLE_BASC_SERVICE_COUNT > 1u) /* Generate it by GUI */
 120:Generated_Source\PSoC4/BLE_1_eventHandler.c ****         
 121:Generated_Source\PSoC4/BLE_1_eventHandler.c ****     #endif /* CYBLE_BASC_SERVICE_COUNT > 1u */
 122:Generated_Source\PSoC4/BLE_1_eventHandler.c **** #endif /* CYBLE_BAS_CLIENT */
 123:Generated_Source\PSoC4/BLE_1_eventHandler.c **** #ifdef CYBLE_BCS_CLIENT
 124:Generated_Source\PSoC4/BLE_1_eventHandler.c ****     {{CYBLE_GATT_INVALID_ATTR_HANDLE_VALUE, CYBLE_GATT_INVALID_ATTR_HANDLE_VALUE}, CYBLE_UUID_BODY_
 125:Generated_Source\PSoC4/BLE_1_eventHandler.c **** #endif /* CYBLE_BCS_CLIENT */
 126:Generated_Source\PSoC4/BLE_1_eventHandler.c **** #ifdef CYBLE_BLS_CLIENT
 127:Generated_Source\PSoC4/BLE_1_eventHandler.c ****     {{CYBLE_GATT_INVALID_ATTR_HANDLE_VALUE, CYBLE_GATT_INVALID_ATTR_HANDLE_VALUE}, CYBLE_UUID_BLOOD
 128:Generated_Source\PSoC4/BLE_1_eventHandler.c **** #endif /* CYBLE_BLS_CLIENT */
 129:Generated_Source\PSoC4/BLE_1_eventHandler.c **** #ifdef CYBLE_BMS_CLIENT
 130:Generated_Source\PSoC4/BLE_1_eventHandler.c ****     {{CYBLE_GATT_INVALID_ATTR_HANDLE_VALUE, CYBLE_GATT_INVALID_ATTR_HANDLE_VALUE}, CYBLE_UUID_BOND_
 131:Generated_Source\PSoC4/BLE_1_eventHandler.c **** #endif /* CYBLE_BMS_CLIENT */
 132:Generated_Source\PSoC4/BLE_1_eventHandler.c **** #ifdef CYBLE_CGMS_CLIENT
 133:Generated_Source\PSoC4/BLE_1_eventHandler.c ****     {{CYBLE_GATT_INVALID_ATTR_HANDLE_VALUE, CYBLE_GATT_INVALID_ATTR_HANDLE_VALUE}, CYBLE_UUID_CGM_S
 134:Generated_Source\PSoC4/BLE_1_eventHandler.c **** #endif /* CYBLE_CGMS_CLIENT */
 135:Generated_Source\PSoC4/BLE_1_eventHandler.c **** #ifdef CYBLE_CPS_CLIENT
 136:Generated_Source\PSoC4/BLE_1_eventHandler.c ****     {{CYBLE_GATT_INVALID_ATTR_HANDLE_VALUE, CYBLE_GATT_INVALID_ATTR_HANDLE_VALUE}, CYBLE_UUID_CPS_S
 137:Generated_Source\PSoC4/BLE_1_eventHandler.c **** #endif /* CYBLE_CPS_CLIENT */
 138:Generated_Source\PSoC4/BLE_1_eventHandler.c **** #ifdef CYBLE_CSCS_CLIENT
 139:Generated_Source\PSoC4/BLE_1_eventHandler.c ****     {{CYBLE_GATT_INVALID_ATTR_HANDLE_VALUE, CYBLE_GATT_INVALID_ATTR_HANDLE_VALUE}, 
 140:Generated_Source\PSoC4/BLE_1_eventHandler.c ****         CYBLE_UUID_CYCLING_SPEED_AND_CADENCE_SERVICE},
 141:Generated_Source\PSoC4/BLE_1_eventHandler.c **** #endif /* CYBLE_CSCS_CLIENT */
 142:Generated_Source\PSoC4/BLE_1_eventHandler.c **** #ifdef CYBLE_CTS_CLIENT
 143:Generated_Source\PSoC4/BLE_1_eventHandler.c ****     {{CYBLE_GATT_INVALID_ATTR_HANDLE_VALUE, CYBLE_GATT_INVALID_ATTR_HANDLE_VALUE}, CYBLE_UUID_CURRE
 144:Generated_Source\PSoC4/BLE_1_eventHandler.c **** #endif /* CYBLE_CTS_CLIENT */
 145:Generated_Source\PSoC4/BLE_1_eventHandler.c **** #ifdef CYBLE_CUSTOM_CLIENT
ARM GAS  C:\Users\haras\AppData\Local\Temp\ccSR9wHM.s 			page 4


 146:Generated_Source\PSoC4/BLE_1_eventHandler.c ****     
 147:Generated_Source\PSoC4/BLE_1_eventHandler.c **** #endif /* CYBLE_CUSTOM_CLIENT */
 148:Generated_Source\PSoC4/BLE_1_eventHandler.c **** #ifdef CYBLE_DIS_CLIENT
 149:Generated_Source\PSoC4/BLE_1_eventHandler.c ****     {{CYBLE_GATT_INVALID_ATTR_HANDLE_VALUE, CYBLE_GATT_INVALID_ATTR_HANDLE_VALUE}, CYBLE_UUID_DEVIC
 150:Generated_Source\PSoC4/BLE_1_eventHandler.c **** #endif /* CYBLE_DIS_CLIENT */
 151:Generated_Source\PSoC4/BLE_1_eventHandler.c **** #ifdef CYBLE_ESS_CLIENT
 152:Generated_Source\PSoC4/BLE_1_eventHandler.c ****     {{CYBLE_GATT_INVALID_ATTR_HANDLE_VALUE, CYBLE_GATT_INVALID_ATTR_HANDLE_VALUE}, 
 153:Generated_Source\PSoC4/BLE_1_eventHandler.c ****         CYBLE_UUID_ENVIRONMENTAL_SENSING_SERVICE},
 154:Generated_Source\PSoC4/BLE_1_eventHandler.c **** #endif /* CYBLE_ESS_CLIENT */
 155:Generated_Source\PSoC4/BLE_1_eventHandler.c **** #ifdef CYBLE_GLS_CLIENT
 156:Generated_Source\PSoC4/BLE_1_eventHandler.c ****     {{CYBLE_GATT_INVALID_ATTR_HANDLE_VALUE, CYBLE_GATT_INVALID_ATTR_HANDLE_VALUE}, CYBLE_UUID_GLUCO
 157:Generated_Source\PSoC4/BLE_1_eventHandler.c **** #endif /* CYBLE_GLS_CLIENT */
 158:Generated_Source\PSoC4/BLE_1_eventHandler.c **** #ifdef CYBLE_HIDS_CLIENT
 159:Generated_Source\PSoC4/BLE_1_eventHandler.c ****     {{CYBLE_GATT_INVALID_ATTR_HANDLE_VALUE, CYBLE_GATT_INVALID_ATTR_HANDLE_VALUE}, CYBLE_UUID_HIDS_
 160:Generated_Source\PSoC4/BLE_1_eventHandler.c ****     #if(CYBLE_HIDSC_SERVICE_COUNT > 1u) /* Generate it by GUI */
 161:Generated_Source\PSoC4/BLE_1_eventHandler.c ****         
 162:Generated_Source\PSoC4/BLE_1_eventHandler.c ****     #endif /* CYBLE_HIDSC_SERVICE_COUNT > 1u */
 163:Generated_Source\PSoC4/BLE_1_eventHandler.c **** #endif /* CYBLE_HIDS_CLIENT */
 164:Generated_Source\PSoC4/BLE_1_eventHandler.c **** #ifdef CYBLE_HPS_CLIENT
 165:Generated_Source\PSoC4/BLE_1_eventHandler.c ****     {{CYBLE_GATT_INVALID_ATTR_HANDLE_VALUE, CYBLE_GATT_INVALID_ATTR_HANDLE_VALUE}, CYBLE_UUID_HTTP_
 166:Generated_Source\PSoC4/BLE_1_eventHandler.c **** #endif /* CYBLE_HPS_CLIENT */
 167:Generated_Source\PSoC4/BLE_1_eventHandler.c **** #ifdef CYBLE_HRS_CLIENT
 168:Generated_Source\PSoC4/BLE_1_eventHandler.c ****     {{CYBLE_GATT_INVALID_ATTR_HANDLE_VALUE, CYBLE_GATT_INVALID_ATTR_HANDLE_VALUE}, CYBLE_UUID_HEART
 169:Generated_Source\PSoC4/BLE_1_eventHandler.c **** #endif /* CYBLE_HRS_CLIENT */
 170:Generated_Source\PSoC4/BLE_1_eventHandler.c **** #ifdef CYBLE_HTS_CLIENT
 171:Generated_Source\PSoC4/BLE_1_eventHandler.c ****     {{CYBLE_GATT_INVALID_ATTR_HANDLE_VALUE, CYBLE_GATT_INVALID_ATTR_HANDLE_VALUE}, CYBLE_UUID_HEALT
 172:Generated_Source\PSoC4/BLE_1_eventHandler.c **** #endif /* CYBLE_HTS_CLIENT */
 173:Generated_Source\PSoC4/BLE_1_eventHandler.c **** #ifdef CYBLE_IAS_CLIENT
 174:Generated_Source\PSoC4/BLE_1_eventHandler.c ****     {{CYBLE_GATT_INVALID_ATTR_HANDLE_VALUE, CYBLE_GATT_INVALID_ATTR_HANDLE_VALUE}, CYBLE_UUID_IMMED
 175:Generated_Source\PSoC4/BLE_1_eventHandler.c **** #endif /* CYBLE_IAS_CLIENT */
 176:Generated_Source\PSoC4/BLE_1_eventHandler.c **** #ifdef CYBLE_IPS_CLIENT
 177:Generated_Source\PSoC4/BLE_1_eventHandler.c ****     {{CYBLE_GATT_INVALID_ATTR_HANDLE_VALUE, CYBLE_GATT_INVALID_ATTR_HANDLE_VALUE}, CYBLE_UUID_IPS_S
 178:Generated_Source\PSoC4/BLE_1_eventHandler.c **** #endif /* CYBLE_IPS_CLIENT */
 179:Generated_Source\PSoC4/BLE_1_eventHandler.c **** #ifdef CYBLE_LLS_CLIENT
 180:Generated_Source\PSoC4/BLE_1_eventHandler.c ****     {{CYBLE_GATT_INVALID_ATTR_HANDLE_VALUE, CYBLE_GATT_INVALID_ATTR_HANDLE_VALUE}, CYBLE_UUID_LINK_
 181:Generated_Source\PSoC4/BLE_1_eventHandler.c **** #endif /* CYBLE_LLS_CLIENT */
 182:Generated_Source\PSoC4/BLE_1_eventHandler.c **** #ifdef CYBLE_LNS_CLIENT
 183:Generated_Source\PSoC4/BLE_1_eventHandler.c ****     {{CYBLE_GATT_INVALID_ATTR_HANDLE_VALUE, CYBLE_GATT_INVALID_ATTR_HANDLE_VALUE}, CYBLE_UUID_LOCAT
 184:Generated_Source\PSoC4/BLE_1_eventHandler.c **** #endif /* CYBLE_LNS_CLIENT */
 185:Generated_Source\PSoC4/BLE_1_eventHandler.c **** #ifdef CYBLE_NDCS_CLIENT
 186:Generated_Source\PSoC4/BLE_1_eventHandler.c ****     {{CYBLE_GATT_INVALID_ATTR_HANDLE_VALUE, CYBLE_GATT_INVALID_ATTR_HANDLE_VALUE}, CYBLE_UUID_NEXT_
 187:Generated_Source\PSoC4/BLE_1_eventHandler.c **** #endif /* CYBLE_NDCS_CLIENT */
 188:Generated_Source\PSoC4/BLE_1_eventHandler.c **** #ifdef CYBLE_IPSS_CLIENT
 189:Generated_Source\PSoC4/BLE_1_eventHandler.c ****     {{CYBLE_GATT_INVALID_ATTR_HANDLE_VALUE, CYBLE_GATT_INVALID_ATTR_HANDLE_VALUE}, CYBLE_UUID_INTER
 190:Generated_Source\PSoC4/BLE_1_eventHandler.c **** #endif /* CYBLE_IPSS_CLIENT */
 191:Generated_Source\PSoC4/BLE_1_eventHandler.c **** #ifdef CYBLE_PASS_CLIENT
 192:Generated_Source\PSoC4/BLE_1_eventHandler.c ****     {{CYBLE_GATT_INVALID_ATTR_HANDLE_VALUE, CYBLE_GATT_INVALID_ATTR_HANDLE_VALUE}, CYBLE_UUID_PHONE
 193:Generated_Source\PSoC4/BLE_1_eventHandler.c **** #endif /* CYBLE_PASS_CLIENT */
 194:Generated_Source\PSoC4/BLE_1_eventHandler.c **** #ifdef CYBLE_PLXS_CLIENT
 195:Generated_Source\PSoC4/BLE_1_eventHandler.c ****     {{CYBLE_GATT_INVALID_ATTR_HANDLE_VALUE, CYBLE_GATT_INVALID_ATTR_HANDLE_VALUE}, CYBLE_UUID_PLX_S
 196:Generated_Source\PSoC4/BLE_1_eventHandler.c **** #endif /* CYBLE_PLXS_CLIENT */
 197:Generated_Source\PSoC4/BLE_1_eventHandler.c **** #ifdef CYBLE_RSCS_CLIENT
 198:Generated_Source\PSoC4/BLE_1_eventHandler.c ****     {{CYBLE_GATT_INVALID_ATTR_HANDLE_VALUE, CYBLE_GATT_INVALID_ATTR_HANDLE_VALUE}, CYBLE_UUID_RUNNI
 199:Generated_Source\PSoC4/BLE_1_eventHandler.c **** #endif /* CYBLE_RSCS_CLIENT */
 200:Generated_Source\PSoC4/BLE_1_eventHandler.c **** #ifdef CYBLE_RTUS_CLIENT
 201:Generated_Source\PSoC4/BLE_1_eventHandler.c ****     {{CYBLE_GATT_INVALID_ATTR_HANDLE_VALUE, CYBLE_GATT_INVALID_ATTR_HANDLE_VALUE}, CYBLE_UUID_REF_T
 202:Generated_Source\PSoC4/BLE_1_eventHandler.c **** #endif /* CYBLE_RTUS_CLIENT */
ARM GAS  C:\Users\haras\AppData\Local\Temp\ccSR9wHM.s 			page 5


 203:Generated_Source\PSoC4/BLE_1_eventHandler.c **** #ifdef CYBLE_SCPS_CLIENT
 204:Generated_Source\PSoC4/BLE_1_eventHandler.c ****     {{CYBLE_GATT_INVALID_ATTR_HANDLE_VALUE, CYBLE_GATT_INVALID_ATTR_HANDLE_VALUE}, CYBLE_UUID_SCAN_
 205:Generated_Source\PSoC4/BLE_1_eventHandler.c **** #endif /* CYBLE_SCPS_CLIENT */
 206:Generated_Source\PSoC4/BLE_1_eventHandler.c **** #ifdef CYBLE_TPS_CLIENT
 207:Generated_Source\PSoC4/BLE_1_eventHandler.c ****     {{CYBLE_GATT_INVALID_ATTR_HANDLE_VALUE, CYBLE_GATT_INVALID_ATTR_HANDLE_VALUE}, CYBLE_UUID_TX_PO
 208:Generated_Source\PSoC4/BLE_1_eventHandler.c **** #endif /* CYBLE_TPS_CLIENT */
 209:Generated_Source\PSoC4/BLE_1_eventHandler.c **** #ifdef CYBLE_UDS_CLIENT
 210:Generated_Source\PSoC4/BLE_1_eventHandler.c ****     {{CYBLE_GATT_INVALID_ATTR_HANDLE_VALUE, CYBLE_GATT_INVALID_ATTR_HANDLE_VALUE}, CYBLE_UUID_USER_
 211:Generated_Source\PSoC4/BLE_1_eventHandler.c **** #endif /* CYBLE_UDS_CLIENT */
 212:Generated_Source\PSoC4/BLE_1_eventHandler.c **** #ifdef CYBLE_WSS_CLIENT
 213:Generated_Source\PSoC4/BLE_1_eventHandler.c ****     {{CYBLE_GATT_INVALID_ATTR_HANDLE_VALUE, CYBLE_GATT_INVALID_ATTR_HANDLE_VALUE}, CYBLE_UUID_WEIGH
 214:Generated_Source\PSoC4/BLE_1_eventHandler.c **** #endif /* CYBLE_WSS_CLIENT */
 215:Generated_Source\PSoC4/BLE_1_eventHandler.c **** #ifdef CYBLE_WPTS_CLIENT
 216:Generated_Source\PSoC4/BLE_1_eventHandler.c ****     {{CYBLE_GATT_INVALID_ATTR_HANDLE_VALUE, CYBLE_GATT_INVALID_ATTR_HANDLE_VALUE}, CYBLE_UUID_WIREL
 217:Generated_Source\PSoC4/BLE_1_eventHandler.c **** #endif /* CYBLE_WPTS_CLIENT */
 218:Generated_Source\PSoC4/BLE_1_eventHandler.c **** };
 219:Generated_Source\PSoC4/BLE_1_eventHandler.c **** 
 220:Generated_Source\PSoC4/BLE_1_eventHandler.c **** CYBLE_GAPC_T cyBle_gapc;
 221:Generated_Source\PSoC4/BLE_1_eventHandler.c **** 
 222:Generated_Source\PSoC4/BLE_1_eventHandler.c **** #endif /* CYBLE_GATT_ROLE_CLIENT */
 223:Generated_Source\PSoC4/BLE_1_eventHandler.c **** 
 224:Generated_Source\PSoC4/BLE_1_eventHandler.c **** /* Default device security */
 225:Generated_Source\PSoC4/BLE_1_eventHandler.c **** CYBLE_GAP_AUTH_INFO_T cyBle_authInfo =
 226:Generated_Source\PSoC4/BLE_1_eventHandler.c **** {
 227:Generated_Source\PSoC4/BLE_1_eventHandler.c ****     (CYBLE_GAP_SEC_MODE_1 | CYBLE_GAP_SEC_LEVEL_1 ), /* uint8 security */
 228:Generated_Source\PSoC4/BLE_1_eventHandler.c ****     CYBLE_GAP_BONDING, /* uint8 bonding */
 229:Generated_Source\PSoC4/BLE_1_eventHandler.c ****     0x10u,      /* uint8 ekeySize */
 230:Generated_Source\PSoC4/BLE_1_eventHandler.c ****     CYBLE_GAP_AUTH_ERROR_NONE, /* CYBLE_AUTH_FAILED_REASON_T authErr */
 231:Generated_Source\PSoC4/BLE_1_eventHandler.c ****     0x01u,      /* uint8 pairingProperties */
 232:Generated_Source\PSoC4/BLE_1_eventHandler.c **** };
 233:Generated_Source\PSoC4/BLE_1_eventHandler.c **** 
 234:Generated_Source\PSoC4/BLE_1_eventHandler.c **** #if(CYBLE_GATT_ROLE_SERVER)
 235:Generated_Source\PSoC4/BLE_1_eventHandler.c **** 
 236:Generated_Source\PSoC4/BLE_1_eventHandler.c **** 
 237:Generated_Source\PSoC4/BLE_1_eventHandler.c **** /******************************************************************************    
 238:Generated_Source\PSoC4/BLE_1_eventHandler.c **** * Function Name: CyBle_WriteReqHandler
 239:Generated_Source\PSoC4/BLE_1_eventHandler.c **** ***************************************************************************//**
 240:Generated_Source\PSoC4/BLE_1_eventHandler.c **** * 
 241:Generated_Source\PSoC4/BLE_1_eventHandler.c **** *  Handles the Write Request event from BLE stack.
 242:Generated_Source\PSoC4/BLE_1_eventHandler.c **** * 
 243:Generated_Source\PSoC4/BLE_1_eventHandler.c **** *  CYBLE_GATTS_WRITE_REQ_PARAM_T * eventParam - event parameter
 244:Generated_Source\PSoC4/BLE_1_eventHandler.c **** * 
 245:Generated_Source\PSoC4/BLE_1_eventHandler.c **** * \return
 246:Generated_Source\PSoC4/BLE_1_eventHandler.c **** *  None
 247:Generated_Source\PSoC4/BLE_1_eventHandler.c **** * 
 248:Generated_Source\PSoC4/BLE_1_eventHandler.c **** ******************************************************************************/
 249:Generated_Source\PSoC4/BLE_1_eventHandler.c **** static void CyBle_WriteReqHandler(CYBLE_GATTS_WRITE_REQ_PARAM_T *eventParam)
 250:Generated_Source\PSoC4/BLE_1_eventHandler.c **** {
 251:Generated_Source\PSoC4/BLE_1_eventHandler.c ****     CYBLE_GATT_ERR_CODE_T gattErr;
 252:Generated_Source\PSoC4/BLE_1_eventHandler.c **** #if defined CYBLE_CTS_SERVER || defined CYBLE_ESS_SERVER
 253:Generated_Source\PSoC4/BLE_1_eventHandler.c ****     cyBle_gattError = CYBLE_GATT_ERR_NONE;
 254:Generated_Source\PSoC4/BLE_1_eventHandler.c **** #endif /* defined CYBLE_CTS_SERVER || defined CYBLE_ESS_SERVER */
 255:Generated_Source\PSoC4/BLE_1_eventHandler.c ****     
 256:Generated_Source\PSoC4/BLE_1_eventHandler.c ****     gattErr = CyBle_GattsWriteEventHandler(eventParam);
 257:Generated_Source\PSoC4/BLE_1_eventHandler.c **** #ifdef CYBLE_AIOS_SERVER
 258:Generated_Source\PSoC4/BLE_1_eventHandler.c ****     if(((cyBle_eventHandlerFlag & CYBLE_CALLBACK) != 0u) && (gattErr == CYBLE_GATT_ERR_NONE))
 259:Generated_Source\PSoC4/BLE_1_eventHandler.c ****     {
ARM GAS  C:\Users\haras\AppData\Local\Temp\ccSR9wHM.s 			page 6


 260:Generated_Source\PSoC4/BLE_1_eventHandler.c ****         gattErr = CyBle_AiossWriteEventHandler(eventParam);
 261:Generated_Source\PSoC4/BLE_1_eventHandler.c ****     }
 262:Generated_Source\PSoC4/BLE_1_eventHandler.c **** #endif /* CYBLE_AIOS_SERVER */
 263:Generated_Source\PSoC4/BLE_1_eventHandler.c **** #ifdef CYBLE_ANCS_SERVER
 264:Generated_Source\PSoC4/BLE_1_eventHandler.c ****     if(((cyBle_eventHandlerFlag & CYBLE_CALLBACK) != 0u) && (gattErr == CYBLE_GATT_ERR_NONE))
 265:Generated_Source\PSoC4/BLE_1_eventHandler.c ****     {
 266:Generated_Source\PSoC4/BLE_1_eventHandler.c ****         gattErr = CyBle_AncssWriteEventHandler(eventParam);
 267:Generated_Source\PSoC4/BLE_1_eventHandler.c ****     }
 268:Generated_Source\PSoC4/BLE_1_eventHandler.c **** #endif /* CYBLE_ANCS_SERVER */
 269:Generated_Source\PSoC4/BLE_1_eventHandler.c **** #ifdef CYBLE_ANS_SERVER
 270:Generated_Source\PSoC4/BLE_1_eventHandler.c ****     if(((cyBle_eventHandlerFlag & CYBLE_CALLBACK) != 0u) && (gattErr == CYBLE_GATT_ERR_NONE))
 271:Generated_Source\PSoC4/BLE_1_eventHandler.c ****     {
 272:Generated_Source\PSoC4/BLE_1_eventHandler.c ****         gattErr = CyBle_AnssWriteEventHandler(eventParam);
 273:Generated_Source\PSoC4/BLE_1_eventHandler.c ****     }
 274:Generated_Source\PSoC4/BLE_1_eventHandler.c **** #endif /* CYBLE_ANS_SERVER */
 275:Generated_Source\PSoC4/BLE_1_eventHandler.c **** #ifdef CYBLE_BAS_SERVER
 276:Generated_Source\PSoC4/BLE_1_eventHandler.c ****     if(((cyBle_eventHandlerFlag & CYBLE_CALLBACK) != 0u) && (gattErr == CYBLE_GATT_ERR_NONE))
 277:Generated_Source\PSoC4/BLE_1_eventHandler.c ****     {
 278:Generated_Source\PSoC4/BLE_1_eventHandler.c ****         gattErr = CyBle_BassWriteEventHandler(eventParam);
 279:Generated_Source\PSoC4/BLE_1_eventHandler.c ****     }
 280:Generated_Source\PSoC4/BLE_1_eventHandler.c **** #endif /* CYBLE_BAS_SERVER */
 281:Generated_Source\PSoC4/BLE_1_eventHandler.c **** #ifdef CYBLE_BCS_SERVER
 282:Generated_Source\PSoC4/BLE_1_eventHandler.c ****     if(((cyBle_eventHandlerFlag & CYBLE_CALLBACK) != 0u) && (gattErr == CYBLE_GATT_ERR_NONE))
 283:Generated_Source\PSoC4/BLE_1_eventHandler.c ****     {
 284:Generated_Source\PSoC4/BLE_1_eventHandler.c ****         gattErr = CyBle_BcssWriteEventHandler(eventParam);
 285:Generated_Source\PSoC4/BLE_1_eventHandler.c ****     }
 286:Generated_Source\PSoC4/BLE_1_eventHandler.c **** #endif /* CYBLE_BCS_SERVER */
 287:Generated_Source\PSoC4/BLE_1_eventHandler.c **** #ifdef CYBLE_BLS_SERVER
 288:Generated_Source\PSoC4/BLE_1_eventHandler.c ****     if(((cyBle_eventHandlerFlag & CYBLE_CALLBACK) != 0u) && (gattErr == CYBLE_GATT_ERR_NONE))
 289:Generated_Source\PSoC4/BLE_1_eventHandler.c ****     {
 290:Generated_Source\PSoC4/BLE_1_eventHandler.c ****         gattErr = CyBle_BlssWriteEventHandler(eventParam);
 291:Generated_Source\PSoC4/BLE_1_eventHandler.c ****     }
 292:Generated_Source\PSoC4/BLE_1_eventHandler.c **** #endif /* CYBLE_BLS_SERVER */
 293:Generated_Source\PSoC4/BLE_1_eventHandler.c **** #ifdef CYBLE_BMS_SERVER
 294:Generated_Source\PSoC4/BLE_1_eventHandler.c ****     if(((cyBle_eventHandlerFlag & CYBLE_CALLBACK) != 0u) && (gattErr == CYBLE_GATT_ERR_NONE))
 295:Generated_Source\PSoC4/BLE_1_eventHandler.c ****     {
 296:Generated_Source\PSoC4/BLE_1_eventHandler.c ****         gattErr = CyBle_BmssWriteEventHandler(eventParam);
 297:Generated_Source\PSoC4/BLE_1_eventHandler.c ****     }
 298:Generated_Source\PSoC4/BLE_1_eventHandler.c **** #endif /* CYBLE_BMS_SERVER */
 299:Generated_Source\PSoC4/BLE_1_eventHandler.c **** #ifdef CYBLE_BTS_SERVER
 300:Generated_Source\PSoC4/BLE_1_eventHandler.c ****     if((cyBle_eventHandlerFlag & CYBLE_CALLBACK) != 0u)
 301:Generated_Source\PSoC4/BLE_1_eventHandler.c ****     {
 302:Generated_Source\PSoC4/BLE_1_eventHandler.c ****         gattErr = CyBle_BtsWriteEventHandler(eventParam);
 303:Generated_Source\PSoC4/BLE_1_eventHandler.c ****     }
 304:Generated_Source\PSoC4/BLE_1_eventHandler.c **** #endif /* CYBLE_BTS_SERVER */
 305:Generated_Source\PSoC4/BLE_1_eventHandler.c **** #ifdef CYBLE_CGMS_SERVER
 306:Generated_Source\PSoC4/BLE_1_eventHandler.c ****     if(((cyBle_eventHandlerFlag & CYBLE_CALLBACK) != 0u) && (gattErr == CYBLE_GATT_ERR_NONE))
 307:Generated_Source\PSoC4/BLE_1_eventHandler.c ****     {
 308:Generated_Source\PSoC4/BLE_1_eventHandler.c ****         gattErr = CyBle_CgmssWriteEventHandler(eventParam);
 309:Generated_Source\PSoC4/BLE_1_eventHandler.c ****     }
 310:Generated_Source\PSoC4/BLE_1_eventHandler.c **** #endif /* CYBLE_CGMS_SERVER */
 311:Generated_Source\PSoC4/BLE_1_eventHandler.c **** #ifdef CYBLE_CPS_SERVER
 312:Generated_Source\PSoC4/BLE_1_eventHandler.c ****     if(((cyBle_eventHandlerFlag & CYBLE_CALLBACK) != 0u) && (gattErr == CYBLE_GATT_ERR_NONE))
 313:Generated_Source\PSoC4/BLE_1_eventHandler.c ****     {
 314:Generated_Source\PSoC4/BLE_1_eventHandler.c ****         gattErr = CyBle_CpssWriteEventHandler(eventParam);
 315:Generated_Source\PSoC4/BLE_1_eventHandler.c ****     }
 316:Generated_Source\PSoC4/BLE_1_eventHandler.c **** #endif /* CYBLE_CPS_SERVER */
ARM GAS  C:\Users\haras\AppData\Local\Temp\ccSR9wHM.s 			page 7


 317:Generated_Source\PSoC4/BLE_1_eventHandler.c **** #ifdef CYBLE_CSCS_SERVER
 318:Generated_Source\PSoC4/BLE_1_eventHandler.c ****     if(((cyBle_eventHandlerFlag & CYBLE_CALLBACK) != 0u) && (gattErr == CYBLE_GATT_ERR_NONE))
 319:Generated_Source\PSoC4/BLE_1_eventHandler.c ****     {
 320:Generated_Source\PSoC4/BLE_1_eventHandler.c ****         gattErr = CyBle_CscssWriteEventHandler(eventParam);
 321:Generated_Source\PSoC4/BLE_1_eventHandler.c ****     }
 322:Generated_Source\PSoC4/BLE_1_eventHandler.c **** #endif /* CYBLE_CSCS_SERVER */
 323:Generated_Source\PSoC4/BLE_1_eventHandler.c **** #ifdef CYBLE_CTS_SERVER
 324:Generated_Source\PSoC4/BLE_1_eventHandler.c ****     if(((cyBle_eventHandlerFlag & CYBLE_CALLBACK) != 0u) && (gattErr == CYBLE_GATT_ERR_NONE))
 325:Generated_Source\PSoC4/BLE_1_eventHandler.c ****     {
 326:Generated_Source\PSoC4/BLE_1_eventHandler.c ****         gattErr = CyBle_CtssWriteEventHandler(eventParam);
 327:Generated_Source\PSoC4/BLE_1_eventHandler.c ****     }
 328:Generated_Source\PSoC4/BLE_1_eventHandler.c **** #endif /* CYBLE_CTS_SERVER */
 329:Generated_Source\PSoC4/BLE_1_eventHandler.c **** #ifdef CYBLE_ESS_SERVER
 330:Generated_Source\PSoC4/BLE_1_eventHandler.c ****     if(((cyBle_eventHandlerFlag & CYBLE_CALLBACK) != 0u) && (gattErr == CYBLE_GATT_ERR_NONE))
 331:Generated_Source\PSoC4/BLE_1_eventHandler.c ****     {
 332:Generated_Source\PSoC4/BLE_1_eventHandler.c ****         gattErr = CyBle_EsssWriteEventHandler(eventParam);
 333:Generated_Source\PSoC4/BLE_1_eventHandler.c ****     }
 334:Generated_Source\PSoC4/BLE_1_eventHandler.c **** #endif /* CYBLE_ESS_SERVER */
 335:Generated_Source\PSoC4/BLE_1_eventHandler.c **** #ifdef CYBLE_GLS_SERVER
 336:Generated_Source\PSoC4/BLE_1_eventHandler.c ****     if(((cyBle_eventHandlerFlag & CYBLE_CALLBACK) != 0u) && (gattErr == CYBLE_GATT_ERR_NONE))
 337:Generated_Source\PSoC4/BLE_1_eventHandler.c ****     {
 338:Generated_Source\PSoC4/BLE_1_eventHandler.c ****         gattErr = CyBle_GlssWriteEventHandler(eventParam);
 339:Generated_Source\PSoC4/BLE_1_eventHandler.c ****     }
 340:Generated_Source\PSoC4/BLE_1_eventHandler.c **** #endif /* CYBLE_GLS_SERVER */
 341:Generated_Source\PSoC4/BLE_1_eventHandler.c **** #ifdef CYBLE_HIDS_SERVER
 342:Generated_Source\PSoC4/BLE_1_eventHandler.c ****     if(((cyBle_eventHandlerFlag & CYBLE_CALLBACK) != 0u) && (gattErr == CYBLE_GATT_ERR_NONE))
 343:Generated_Source\PSoC4/BLE_1_eventHandler.c ****     {
 344:Generated_Source\PSoC4/BLE_1_eventHandler.c ****         gattErr = CyBle_HidssWriteEventHandler(eventParam);
 345:Generated_Source\PSoC4/BLE_1_eventHandler.c ****     }
 346:Generated_Source\PSoC4/BLE_1_eventHandler.c **** #endif /* CYBLE_HIDS_SERVER */
 347:Generated_Source\PSoC4/BLE_1_eventHandler.c **** #ifdef CYBLE_HPS_SERVER
 348:Generated_Source\PSoC4/BLE_1_eventHandler.c ****     if(((cyBle_eventHandlerFlag & CYBLE_CALLBACK) != 0u) && (gattErr == CYBLE_GATT_ERR_NONE))
 349:Generated_Source\PSoC4/BLE_1_eventHandler.c ****     {
 350:Generated_Source\PSoC4/BLE_1_eventHandler.c ****         gattErr = CyBle_HpssWriteEventHandler(eventParam);
 351:Generated_Source\PSoC4/BLE_1_eventHandler.c ****     }
 352:Generated_Source\PSoC4/BLE_1_eventHandler.c **** #endif /* CYBLE_HPS_SERVER */
 353:Generated_Source\PSoC4/BLE_1_eventHandler.c **** #ifdef CYBLE_HRS_SERVER
 354:Generated_Source\PSoC4/BLE_1_eventHandler.c ****     if(((cyBle_eventHandlerFlag & CYBLE_CALLBACK) != 0u) && (gattErr == CYBLE_GATT_ERR_NONE))
 355:Generated_Source\PSoC4/BLE_1_eventHandler.c ****     {
 356:Generated_Source\PSoC4/BLE_1_eventHandler.c ****         gattErr = CyBle_HrssWriteEventHandler(eventParam);
 357:Generated_Source\PSoC4/BLE_1_eventHandler.c ****     }
 358:Generated_Source\PSoC4/BLE_1_eventHandler.c **** #endif /* CYBLE_HRS_SERVER */
 359:Generated_Source\PSoC4/BLE_1_eventHandler.c **** #ifdef CYBLE_HTS_SERVER
 360:Generated_Source\PSoC4/BLE_1_eventHandler.c ****     if(((cyBle_eventHandlerFlag & CYBLE_CALLBACK) != 0u) && (gattErr == CYBLE_GATT_ERR_NONE))
 361:Generated_Source\PSoC4/BLE_1_eventHandler.c ****     {
 362:Generated_Source\PSoC4/BLE_1_eventHandler.c ****         gattErr = CyBle_HtssWriteEventHandler(eventParam);
 363:Generated_Source\PSoC4/BLE_1_eventHandler.c ****     }
 364:Generated_Source\PSoC4/BLE_1_eventHandler.c **** #endif /* CYBLE_HTS_SERVER */
 365:Generated_Source\PSoC4/BLE_1_eventHandler.c **** #ifdef CYBLE_IPS_SERVER
 366:Generated_Source\PSoC4/BLE_1_eventHandler.c ****     if(((cyBle_eventHandlerFlag & CYBLE_CALLBACK) != 0u) && (gattErr == CYBLE_GATT_ERR_NONE))
 367:Generated_Source\PSoC4/BLE_1_eventHandler.c ****     {
 368:Generated_Source\PSoC4/BLE_1_eventHandler.c ****         gattErr = CyBle_IpssWriteEventHandler(eventParam);
 369:Generated_Source\PSoC4/BLE_1_eventHandler.c ****     }
 370:Generated_Source\PSoC4/BLE_1_eventHandler.c **** #endif /* CYBLE_IPS_SERVER */
 371:Generated_Source\PSoC4/BLE_1_eventHandler.c **** #ifdef CYBLE_LLS_SERVER
 372:Generated_Source\PSoC4/BLE_1_eventHandler.c ****     if(((cyBle_eventHandlerFlag & CYBLE_CALLBACK) != 0u) && (gattErr == CYBLE_GATT_ERR_NONE))
 373:Generated_Source\PSoC4/BLE_1_eventHandler.c ****     {
ARM GAS  C:\Users\haras\AppData\Local\Temp\ccSR9wHM.s 			page 8


 374:Generated_Source\PSoC4/BLE_1_eventHandler.c ****         gattErr = CyBle_LlssWriteEventHandler(eventParam);
 375:Generated_Source\PSoC4/BLE_1_eventHandler.c ****     }
 376:Generated_Source\PSoC4/BLE_1_eventHandler.c **** #endif /* CYBLE_LLS_SERVER */
 377:Generated_Source\PSoC4/BLE_1_eventHandler.c **** #ifdef CYBLE_LNS_SERVER
 378:Generated_Source\PSoC4/BLE_1_eventHandler.c ****     if(((cyBle_eventHandlerFlag & CYBLE_CALLBACK) != 0u) && (gattErr == CYBLE_GATT_ERR_NONE))
 379:Generated_Source\PSoC4/BLE_1_eventHandler.c ****     {
 380:Generated_Source\PSoC4/BLE_1_eventHandler.c ****         gattErr = CyBle_LnssWriteEventHandler(eventParam);
 381:Generated_Source\PSoC4/BLE_1_eventHandler.c ****     }
 382:Generated_Source\PSoC4/BLE_1_eventHandler.c **** #endif /* CYBLE_LNS_SERVER */
 383:Generated_Source\PSoC4/BLE_1_eventHandler.c **** #ifdef CYBLE_PASS_SERVER
 384:Generated_Source\PSoC4/BLE_1_eventHandler.c ****     if(((cyBle_eventHandlerFlag & CYBLE_CALLBACK) != 0u) && (gattErr == CYBLE_GATT_ERR_NONE))
 385:Generated_Source\PSoC4/BLE_1_eventHandler.c ****     {
 386:Generated_Source\PSoC4/BLE_1_eventHandler.c ****         gattErr = CyBle_PasssWriteEventHandler(eventParam);
 387:Generated_Source\PSoC4/BLE_1_eventHandler.c ****     }
 388:Generated_Source\PSoC4/BLE_1_eventHandler.c **** #endif /* CYBLE_PASS_SERVER */
 389:Generated_Source\PSoC4/BLE_1_eventHandler.c **** #ifdef CYBLE_PLXS_SERVER
 390:Generated_Source\PSoC4/BLE_1_eventHandler.c ****     if(((cyBle_eventHandlerFlag & CYBLE_CALLBACK) != 0u) && (gattErr == CYBLE_GATT_ERR_NONE))
 391:Generated_Source\PSoC4/BLE_1_eventHandler.c ****     {
 392:Generated_Source\PSoC4/BLE_1_eventHandler.c ****         gattErr = CyBle_PlxssWriteEventHandler(eventParam);
 393:Generated_Source\PSoC4/BLE_1_eventHandler.c ****     }
 394:Generated_Source\PSoC4/BLE_1_eventHandler.c **** #endif /* CYBLE_PLXS_SERVER */    
 395:Generated_Source\PSoC4/BLE_1_eventHandler.c **** #ifdef CYBLE_RSCS_SERVER
 396:Generated_Source\PSoC4/BLE_1_eventHandler.c ****     if(((cyBle_eventHandlerFlag & CYBLE_CALLBACK) != 0u) && (gattErr == CYBLE_GATT_ERR_NONE))
 397:Generated_Source\PSoC4/BLE_1_eventHandler.c ****     {
 398:Generated_Source\PSoC4/BLE_1_eventHandler.c ****         gattErr = CyBle_RscssWriteEventHandler(eventParam);
 399:Generated_Source\PSoC4/BLE_1_eventHandler.c ****     }
 400:Generated_Source\PSoC4/BLE_1_eventHandler.c **** #endif /* CYBLE_RSCS_SERVER */
 401:Generated_Source\PSoC4/BLE_1_eventHandler.c **** #ifdef CYBLE_SCPS_SERVER
 402:Generated_Source\PSoC4/BLE_1_eventHandler.c ****     if(((cyBle_eventHandlerFlag & CYBLE_CALLBACK) != 0u) && (gattErr == CYBLE_GATT_ERR_NONE))
 403:Generated_Source\PSoC4/BLE_1_eventHandler.c ****     {
 404:Generated_Source\PSoC4/BLE_1_eventHandler.c ****         gattErr = CyBle_ScpssWriteEventHandler(eventParam);
 405:Generated_Source\PSoC4/BLE_1_eventHandler.c ****     }
 406:Generated_Source\PSoC4/BLE_1_eventHandler.c **** #endif /* CYBLE_SCPS_SERVER */
 407:Generated_Source\PSoC4/BLE_1_eventHandler.c **** #ifdef CYBLE_TPS_SERVER
 408:Generated_Source\PSoC4/BLE_1_eventHandler.c ****     if(((cyBle_eventHandlerFlag & CYBLE_CALLBACK) != 0u) && (gattErr == CYBLE_GATT_ERR_NONE))
 409:Generated_Source\PSoC4/BLE_1_eventHandler.c ****     {
 410:Generated_Source\PSoC4/BLE_1_eventHandler.c ****         gattErr = CyBle_TpssWriteEventHandler(eventParam);
 411:Generated_Source\PSoC4/BLE_1_eventHandler.c ****     }
 412:Generated_Source\PSoC4/BLE_1_eventHandler.c **** #endif /* CYBLE_TPS_SERVER */
 413:Generated_Source\PSoC4/BLE_1_eventHandler.c **** #ifdef CYBLE_UDS_SERVER
 414:Generated_Source\PSoC4/BLE_1_eventHandler.c ****     if(((cyBle_eventHandlerFlag & CYBLE_CALLBACK) != 0u) && (gattErr == CYBLE_GATT_ERR_NONE))
 415:Generated_Source\PSoC4/BLE_1_eventHandler.c ****     {
 416:Generated_Source\PSoC4/BLE_1_eventHandler.c ****         gattErr = CyBle_UdssWriteEventHandler(eventParam);
 417:Generated_Source\PSoC4/BLE_1_eventHandler.c ****     }
 418:Generated_Source\PSoC4/BLE_1_eventHandler.c **** #endif /* CYBLE_UDS_SERVER */
 419:Generated_Source\PSoC4/BLE_1_eventHandler.c **** #ifdef CYBLE_WPTS_SERVER
 420:Generated_Source\PSoC4/BLE_1_eventHandler.c ****     if(((cyBle_eventHandlerFlag & CYBLE_CALLBACK) != 0u) && (gattErr == CYBLE_GATT_ERR_NONE))
 421:Generated_Source\PSoC4/BLE_1_eventHandler.c ****     {
 422:Generated_Source\PSoC4/BLE_1_eventHandler.c ****         gattErr = CyBle_WptssWriteEventHandler(eventParam);
 423:Generated_Source\PSoC4/BLE_1_eventHandler.c ****     }
 424:Generated_Source\PSoC4/BLE_1_eventHandler.c **** #endif /* CYBLE_WPTS_SERVER */
 425:Generated_Source\PSoC4/BLE_1_eventHandler.c **** #ifdef CYBLE_WSS_SERVER
 426:Generated_Source\PSoC4/BLE_1_eventHandler.c ****     if(((cyBle_eventHandlerFlag & CYBLE_CALLBACK) != 0u) && (gattErr == CYBLE_GATT_ERR_NONE))
 427:Generated_Source\PSoC4/BLE_1_eventHandler.c ****     {
 428:Generated_Source\PSoC4/BLE_1_eventHandler.c ****         gattErr = CyBle_WsssWriteEventHandler(eventParam);
 429:Generated_Source\PSoC4/BLE_1_eventHandler.c ****     }
 430:Generated_Source\PSoC4/BLE_1_eventHandler.c **** #endif /* CYBLE_WSS_SERVER */
ARM GAS  C:\Users\haras\AppData\Local\Temp\ccSR9wHM.s 			page 9


 431:Generated_Source\PSoC4/BLE_1_eventHandler.c **** 
 432:Generated_Source\PSoC4/BLE_1_eventHandler.c ****     /* Send response when event was handled by service */
 433:Generated_Source\PSoC4/BLE_1_eventHandler.c ****     if((cyBle_eventHandlerFlag & CYBLE_CALLBACK) == 0u)
 434:Generated_Source\PSoC4/BLE_1_eventHandler.c ****     {
 435:Generated_Source\PSoC4/BLE_1_eventHandler.c ****         if(gattErr != CYBLE_GATT_ERR_NONE)
 436:Generated_Source\PSoC4/BLE_1_eventHandler.c ****         {
 437:Generated_Source\PSoC4/BLE_1_eventHandler.c ****             CYBLE_GATTS_ERR_PARAM_T err_param;
 438:Generated_Source\PSoC4/BLE_1_eventHandler.c ****             
 439:Generated_Source\PSoC4/BLE_1_eventHandler.c ****             err_param.opcode = (uint8) CYBLE_GATT_WRITE_REQ;
 440:Generated_Source\PSoC4/BLE_1_eventHandler.c ****             err_param.attrHandle = eventParam->handleValPair.attrHandle;
 441:Generated_Source\PSoC4/BLE_1_eventHandler.c ****             err_param.errorCode = gattErr;
 442:Generated_Source\PSoC4/BLE_1_eventHandler.c **** 
 443:Generated_Source\PSoC4/BLE_1_eventHandler.c ****             /* Send Error Response */
 444:Generated_Source\PSoC4/BLE_1_eventHandler.c ****             (void)CyBle_GattsErrorRsp(eventParam->connHandle, &err_param);
 445:Generated_Source\PSoC4/BLE_1_eventHandler.c ****         }
 446:Generated_Source\PSoC4/BLE_1_eventHandler.c ****         else
 447:Generated_Source\PSoC4/BLE_1_eventHandler.c ****         {
 448:Generated_Source\PSoC4/BLE_1_eventHandler.c ****             (void)CyBle_GattsWriteRsp(eventParam->connHandle);
 449:Generated_Source\PSoC4/BLE_1_eventHandler.c ****         }
 450:Generated_Source\PSoC4/BLE_1_eventHandler.c ****     }
 451:Generated_Source\PSoC4/BLE_1_eventHandler.c **** }
 452:Generated_Source\PSoC4/BLE_1_eventHandler.c **** 
 453:Generated_Source\PSoC4/BLE_1_eventHandler.c **** 
 454:Generated_Source\PSoC4/BLE_1_eventHandler.c **** /****************************************************************************** 
 455:Generated_Source\PSoC4/BLE_1_eventHandler.c **** * Function Name: CyBle_ValueConfirmation
 456:Generated_Source\PSoC4/BLE_1_eventHandler.c **** ***************************************************************************//**
 457:Generated_Source\PSoC4/BLE_1_eventHandler.c **** * 
 458:Generated_Source\PSoC4/BLE_1_eventHandler.c **** *  Handles the Value Confirmation request event from the BLE stack.
 459:Generated_Source\PSoC4/BLE_1_eventHandler.c **** * 
 460:Generated_Source\PSoC4/BLE_1_eventHandler.c **** *  \param eventParam: Pointer to a structure of type 'CYBLE_CONN_HANDLE_T'
 461:Generated_Source\PSoC4/BLE_1_eventHandler.c **** * 
 462:Generated_Source\PSoC4/BLE_1_eventHandler.c **** * \return
 463:Generated_Source\PSoC4/BLE_1_eventHandler.c **** *  None
 464:Generated_Source\PSoC4/BLE_1_eventHandler.c **** * 
 465:Generated_Source\PSoC4/BLE_1_eventHandler.c **** ******************************************************************************/
 466:Generated_Source\PSoC4/BLE_1_eventHandler.c **** static void CyBle_ValueConfirmation(const CYBLE_CONN_HANDLE_T *eventParam)
 467:Generated_Source\PSoC4/BLE_1_eventHandler.c **** {
 468:Generated_Source\PSoC4/BLE_1_eventHandler.c ****     if(eventParam != NULL)
 469:Generated_Source\PSoC4/BLE_1_eventHandler.c ****     {
 470:Generated_Source\PSoC4/BLE_1_eventHandler.c ****     #ifdef CYBLE_AIOS_SERVER
 471:Generated_Source\PSoC4/BLE_1_eventHandler.c ****         if((cyBle_eventHandlerFlag & CYBLE_CALLBACK) != 0u)
 472:Generated_Source\PSoC4/BLE_1_eventHandler.c ****         {
 473:Generated_Source\PSoC4/BLE_1_eventHandler.c ****             CyBle_AiossConfirmationEventHandler(eventParam);
 474:Generated_Source\PSoC4/BLE_1_eventHandler.c ****         }
 475:Generated_Source\PSoC4/BLE_1_eventHandler.c ****     #endif /* CYBLE_AIOS_SERVER */
 476:Generated_Source\PSoC4/BLE_1_eventHandler.c ****     #ifdef CYBLE_BCS_SERVER
 477:Generated_Source\PSoC4/BLE_1_eventHandler.c ****         CyBle_BcssConfirmationEventHandler(eventParam);
 478:Generated_Source\PSoC4/BLE_1_eventHandler.c ****     #endif /* CYBLE_BCS_SERVER */
 479:Generated_Source\PSoC4/BLE_1_eventHandler.c ****     #ifdef CYBLE_BLS_SERVER
 480:Generated_Source\PSoC4/BLE_1_eventHandler.c ****         if((cyBle_eventHandlerFlag & CYBLE_CALLBACK) != 0u)
 481:Generated_Source\PSoC4/BLE_1_eventHandler.c ****         {
 482:Generated_Source\PSoC4/BLE_1_eventHandler.c ****             CyBle_BlssConfirmationEventHandler(eventParam);
 483:Generated_Source\PSoC4/BLE_1_eventHandler.c ****         }
 484:Generated_Source\PSoC4/BLE_1_eventHandler.c ****     #endif /* CYBLE_BLS_SERVER */
 485:Generated_Source\PSoC4/BLE_1_eventHandler.c ****     
 486:Generated_Source\PSoC4/BLE_1_eventHandler.c ****     #ifdef CYBLE_CGMS_SERVER
 487:Generated_Source\PSoC4/BLE_1_eventHandler.c ****         if((cyBle_eventHandlerFlag & CYBLE_CALLBACK) != 0u)
ARM GAS  C:\Users\haras\AppData\Local\Temp\ccSR9wHM.s 			page 10


 488:Generated_Source\PSoC4/BLE_1_eventHandler.c ****         {
 489:Generated_Source\PSoC4/BLE_1_eventHandler.c ****             CyBle_CgmssConfirmationEventHandler(eventParam);
 490:Generated_Source\PSoC4/BLE_1_eventHandler.c ****         }
 491:Generated_Source\PSoC4/BLE_1_eventHandler.c ****     #endif /* CYBLE_CGMS_SERVER */
 492:Generated_Source\PSoC4/BLE_1_eventHandler.c ****     
 493:Generated_Source\PSoC4/BLE_1_eventHandler.c ****     #ifdef CYBLE_CPS_SERVER
 494:Generated_Source\PSoC4/BLE_1_eventHandler.c ****         if((cyBle_eventHandlerFlag & CYBLE_CALLBACK) != 0u)
 495:Generated_Source\PSoC4/BLE_1_eventHandler.c ****         {
 496:Generated_Source\PSoC4/BLE_1_eventHandler.c ****             CyBle_CpssConfirmationEventHandler(eventParam);
 497:Generated_Source\PSoC4/BLE_1_eventHandler.c ****         }
 498:Generated_Source\PSoC4/BLE_1_eventHandler.c ****     #endif /* CYBLE_CPS_SERVER */
 499:Generated_Source\PSoC4/BLE_1_eventHandler.c ****     
 500:Generated_Source\PSoC4/BLE_1_eventHandler.c ****     #ifdef CYBLE_CSCS_SERVER
 501:Generated_Source\PSoC4/BLE_1_eventHandler.c ****         if((cyBle_eventHandlerFlag & CYBLE_CALLBACK) != 0u)
 502:Generated_Source\PSoC4/BLE_1_eventHandler.c ****         {
 503:Generated_Source\PSoC4/BLE_1_eventHandler.c ****             CyBle_CscssConfirmationEventHandler(eventParam);
 504:Generated_Source\PSoC4/BLE_1_eventHandler.c ****         }
 505:Generated_Source\PSoC4/BLE_1_eventHandler.c ****     #endif /* CYBLE_CSCS_SERVER */
 506:Generated_Source\PSoC4/BLE_1_eventHandler.c ****     
 507:Generated_Source\PSoC4/BLE_1_eventHandler.c ****     #ifdef CYBLE_ESS_SERVER
 508:Generated_Source\PSoC4/BLE_1_eventHandler.c ****         if((cyBle_eventHandlerFlag & CYBLE_CALLBACK) != 0u)
 509:Generated_Source\PSoC4/BLE_1_eventHandler.c ****         {
 510:Generated_Source\PSoC4/BLE_1_eventHandler.c ****             CyBle_EsssConfirmationEventHandler(eventParam);
 511:Generated_Source\PSoC4/BLE_1_eventHandler.c ****         }
 512:Generated_Source\PSoC4/BLE_1_eventHandler.c ****     #endif /* CYBLE_ESS_SERVER */
 513:Generated_Source\PSoC4/BLE_1_eventHandler.c ****     
 514:Generated_Source\PSoC4/BLE_1_eventHandler.c ****     #ifdef CYBLE_GLS_SERVER
 515:Generated_Source\PSoC4/BLE_1_eventHandler.c ****         if((cyBle_eventHandlerFlag & CYBLE_CALLBACK) != 0u)
 516:Generated_Source\PSoC4/BLE_1_eventHandler.c ****         {
 517:Generated_Source\PSoC4/BLE_1_eventHandler.c ****             CyBle_GlssConfirmationEventHandler(eventParam);
 518:Generated_Source\PSoC4/BLE_1_eventHandler.c ****         }
 519:Generated_Source\PSoC4/BLE_1_eventHandler.c ****     #endif /* CYBLE_GLS_SERVER */
 520:Generated_Source\PSoC4/BLE_1_eventHandler.c ****     
 521:Generated_Source\PSoC4/BLE_1_eventHandler.c ****     #ifdef CYBLE_HTS_SERVER
 522:Generated_Source\PSoC4/BLE_1_eventHandler.c ****         if((cyBle_eventHandlerFlag & CYBLE_CALLBACK) != 0u)
 523:Generated_Source\PSoC4/BLE_1_eventHandler.c ****         {
 524:Generated_Source\PSoC4/BLE_1_eventHandler.c ****             CyBle_HtssConfirmationEventHandler(eventParam);
 525:Generated_Source\PSoC4/BLE_1_eventHandler.c ****         }
 526:Generated_Source\PSoC4/BLE_1_eventHandler.c ****     #endif /* CYBLE_HTS_SERVER */
 527:Generated_Source\PSoC4/BLE_1_eventHandler.c **** 
 528:Generated_Source\PSoC4/BLE_1_eventHandler.c ****     #ifdef CYBLE_LNS_SERVER
 529:Generated_Source\PSoC4/BLE_1_eventHandler.c ****         if((cyBle_eventHandlerFlag & CYBLE_CALLBACK) != 0u)
 530:Generated_Source\PSoC4/BLE_1_eventHandler.c ****         {
 531:Generated_Source\PSoC4/BLE_1_eventHandler.c ****             CyBle_LnssConfirmationEventHandler(eventParam);
 532:Generated_Source\PSoC4/BLE_1_eventHandler.c ****         }
 533:Generated_Source\PSoC4/BLE_1_eventHandler.c ****     #endif /* CYBLE_LNS_SERVER */
 534:Generated_Source\PSoC4/BLE_1_eventHandler.c ****     
 535:Generated_Source\PSoC4/BLE_1_eventHandler.c ****     #ifdef CYBLE_PLXS_SERVER
 536:Generated_Source\PSoC4/BLE_1_eventHandler.c ****         if((cyBle_eventHandlerFlag & CYBLE_CALLBACK) != 0u)
 537:Generated_Source\PSoC4/BLE_1_eventHandler.c ****         {
 538:Generated_Source\PSoC4/BLE_1_eventHandler.c ****             CyBle_PlxssConfirmationEventHandler((CYBLE_CONN_HANDLE_T *)eventParam);
 539:Generated_Source\PSoC4/BLE_1_eventHandler.c ****         }
 540:Generated_Source\PSoC4/BLE_1_eventHandler.c ****     #endif /* CYBLE_PLXS_SERVER */
 541:Generated_Source\PSoC4/BLE_1_eventHandler.c ****     
 542:Generated_Source\PSoC4/BLE_1_eventHandler.c ****     #ifdef CYBLE_RSCS_SERVER
 543:Generated_Source\PSoC4/BLE_1_eventHandler.c ****         if((cyBle_eventHandlerFlag & CYBLE_CALLBACK) != 0u)
 544:Generated_Source\PSoC4/BLE_1_eventHandler.c ****         {
ARM GAS  C:\Users\haras\AppData\Local\Temp\ccSR9wHM.s 			page 11


 545:Generated_Source\PSoC4/BLE_1_eventHandler.c ****             CyBle_RscssConfirmationEventHandler(eventParam);
 546:Generated_Source\PSoC4/BLE_1_eventHandler.c ****         }
 547:Generated_Source\PSoC4/BLE_1_eventHandler.c ****     #endif /* CYBLE_RSCS_SERVER */
 548:Generated_Source\PSoC4/BLE_1_eventHandler.c ****     
 549:Generated_Source\PSoC4/BLE_1_eventHandler.c ****     #ifdef CYBLE_UDS_SERVER
 550:Generated_Source\PSoC4/BLE_1_eventHandler.c ****         if((cyBle_eventHandlerFlag & CYBLE_CALLBACK) != 0u)
 551:Generated_Source\PSoC4/BLE_1_eventHandler.c ****         {
 552:Generated_Source\PSoC4/BLE_1_eventHandler.c ****             CyBle_UdssConfirmationEventHandler(eventParam);
 553:Generated_Source\PSoC4/BLE_1_eventHandler.c ****         }
 554:Generated_Source\PSoC4/BLE_1_eventHandler.c ****     #endif /* CYBLE_UDS_SERVER */
 555:Generated_Source\PSoC4/BLE_1_eventHandler.c ****     
 556:Generated_Source\PSoC4/BLE_1_eventHandler.c ****     #ifdef CYBLE_WPTS_SERVER
 557:Generated_Source\PSoC4/BLE_1_eventHandler.c ****         if((cyBle_eventHandlerFlag & CYBLE_CALLBACK) != 0u)
 558:Generated_Source\PSoC4/BLE_1_eventHandler.c ****         {
 559:Generated_Source\PSoC4/BLE_1_eventHandler.c ****             CyBle_WptssConfirmationEventHandler(eventParam);
 560:Generated_Source\PSoC4/BLE_1_eventHandler.c ****         }
 561:Generated_Source\PSoC4/BLE_1_eventHandler.c ****     #endif /* CYBLE_WPTS_SERVER */
 562:Generated_Source\PSoC4/BLE_1_eventHandler.c ****     
 563:Generated_Source\PSoC4/BLE_1_eventHandler.c ****     #ifdef CYBLE_WSS_SERVER
 564:Generated_Source\PSoC4/BLE_1_eventHandler.c ****         if((cyBle_eventHandlerFlag & CYBLE_CALLBACK) != 0u)
 565:Generated_Source\PSoC4/BLE_1_eventHandler.c ****         {
 566:Generated_Source\PSoC4/BLE_1_eventHandler.c ****             CyBle_WsssConfirmationEventHandler(eventParam);
 567:Generated_Source\PSoC4/BLE_1_eventHandler.c ****         }
 568:Generated_Source\PSoC4/BLE_1_eventHandler.c ****     #endif /* CYBLE_WSS_SERVER */
 569:Generated_Source\PSoC4/BLE_1_eventHandler.c ****     }
 570:Generated_Source\PSoC4/BLE_1_eventHandler.c **** }
 571:Generated_Source\PSoC4/BLE_1_eventHandler.c **** 
 572:Generated_Source\PSoC4/BLE_1_eventHandler.c **** #endif /* CYBLE_GATT_ROLE_SERVER */
 573:Generated_Source\PSoC4/BLE_1_eventHandler.c **** 
 574:Generated_Source\PSoC4/BLE_1_eventHandler.c **** 
 575:Generated_Source\PSoC4/BLE_1_eventHandler.c **** #if (CYBLE_GATT_ROLE_CLIENT)
 576:Generated_Source\PSoC4/BLE_1_eventHandler.c **** 
 577:Generated_Source\PSoC4/BLE_1_eventHandler.c **** /****************************************************************************** 
 578:Generated_Source\PSoC4/BLE_1_eventHandler.c **** * Function Name: CyBle_GattcWriteResponseEventHandler
 579:Generated_Source\PSoC4/BLE_1_eventHandler.c **** ***************************************************************************//**
 580:Generated_Source\PSoC4/BLE_1_eventHandler.c **** * 
 581:Generated_Source\PSoC4/BLE_1_eventHandler.c **** *  Handles the Write response event from the BLE stack.
 582:Generated_Source\PSoC4/BLE_1_eventHandler.c **** * 
 583:Generated_Source\PSoC4/BLE_1_eventHandler.c **** *  \param eventParam: Pointer to a structure of type 'CYBLE_CONN_HANDLE_T'
 584:Generated_Source\PSoC4/BLE_1_eventHandler.c **** * 
 585:Generated_Source\PSoC4/BLE_1_eventHandler.c **** * \return
 586:Generated_Source\PSoC4/BLE_1_eventHandler.c **** *  None
 587:Generated_Source\PSoC4/BLE_1_eventHandler.c **** * 
 588:Generated_Source\PSoC4/BLE_1_eventHandler.c **** ******************************************************************************/
 589:Generated_Source\PSoC4/BLE_1_eventHandler.c **** static void CyBle_GattcWriteResponseEventHandler(const CYBLE_CONN_HANDLE_T *eventParam)
 590:Generated_Source\PSoC4/BLE_1_eventHandler.c **** {
 591:Generated_Source\PSoC4/BLE_1_eventHandler.c **** 
 592:Generated_Source\PSoC4/BLE_1_eventHandler.c **** #ifdef CYBLE_AIOS_CLIENT
 593:Generated_Source\PSoC4/BLE_1_eventHandler.c ****     if((cyBle_eventHandlerFlag & CYBLE_CALLBACK) != 0u)
 594:Generated_Source\PSoC4/BLE_1_eventHandler.c ****     {
 595:Generated_Source\PSoC4/BLE_1_eventHandler.c ****         CyBle_AioscWriteResponseEventHandler(eventParam);
 596:Generated_Source\PSoC4/BLE_1_eventHandler.c ****     }
 597:Generated_Source\PSoC4/BLE_1_eventHandler.c **** #endif /* CYBLE_AIOS_CLIENT */
 598:Generated_Source\PSoC4/BLE_1_eventHandler.c **** 
 599:Generated_Source\PSoC4/BLE_1_eventHandler.c **** #ifdef CYBLE_ANCS_CLIENT
 600:Generated_Source\PSoC4/BLE_1_eventHandler.c ****     CyBle_AncscWriteResponseEventHandler(eventParam);
 601:Generated_Source\PSoC4/BLE_1_eventHandler.c **** #endif /* CYBLE_ANCS_CLIENT */
ARM GAS  C:\Users\haras\AppData\Local\Temp\ccSR9wHM.s 			page 12


 602:Generated_Source\PSoC4/BLE_1_eventHandler.c **** 
 603:Generated_Source\PSoC4/BLE_1_eventHandler.c **** #ifdef CYBLE_ANS_CLIENT
 604:Generated_Source\PSoC4/BLE_1_eventHandler.c ****     if((cyBle_eventHandlerFlag & CYBLE_CALLBACK) != 0u)
 605:Generated_Source\PSoC4/BLE_1_eventHandler.c ****     {
 606:Generated_Source\PSoC4/BLE_1_eventHandler.c ****         CyBle_AnscWriteResponseEventHandler(eventParam);
 607:Generated_Source\PSoC4/BLE_1_eventHandler.c ****     }
 608:Generated_Source\PSoC4/BLE_1_eventHandler.c **** #endif /* CYBLE_ANS_CLIENT */
 609:Generated_Source\PSoC4/BLE_1_eventHandler.c **** 
 610:Generated_Source\PSoC4/BLE_1_eventHandler.c **** #ifdef CYBLE_BAS_CLIENT
 611:Generated_Source\PSoC4/BLE_1_eventHandler.c ****     if((cyBle_eventHandlerFlag & CYBLE_CALLBACK) != 0u)
 612:Generated_Source\PSoC4/BLE_1_eventHandler.c ****     {
 613:Generated_Source\PSoC4/BLE_1_eventHandler.c ****         CyBle_BascWriteResponseEventHandler(eventParam);
 614:Generated_Source\PSoC4/BLE_1_eventHandler.c ****     }
 615:Generated_Source\PSoC4/BLE_1_eventHandler.c **** #endif /* CYBLE_BAS_CLIENT */
 616:Generated_Source\PSoC4/BLE_1_eventHandler.c **** 
 617:Generated_Source\PSoC4/BLE_1_eventHandler.c **** #ifdef CYBLE_BCS_CLIENT
 618:Generated_Source\PSoC4/BLE_1_eventHandler.c ****     if((cyBle_eventHandlerFlag & CYBLE_CALLBACK) != 0u)
 619:Generated_Source\PSoC4/BLE_1_eventHandler.c ****     {
 620:Generated_Source\PSoC4/BLE_1_eventHandler.c ****         CyBle_BcscWriteResponseEventHandler(eventParam);
 621:Generated_Source\PSoC4/BLE_1_eventHandler.c ****     }
 622:Generated_Source\PSoC4/BLE_1_eventHandler.c **** #endif /* CYBLE_BCS_CLIENT */
 623:Generated_Source\PSoC4/BLE_1_eventHandler.c **** 
 624:Generated_Source\PSoC4/BLE_1_eventHandler.c **** #ifdef CYBLE_BLS_CLIENT
 625:Generated_Source\PSoC4/BLE_1_eventHandler.c ****     if((cyBle_eventHandlerFlag & CYBLE_CALLBACK) != 0u)
 626:Generated_Source\PSoC4/BLE_1_eventHandler.c ****     {
 627:Generated_Source\PSoC4/BLE_1_eventHandler.c ****         CyBle_BlscWriteResponseEventHandler(eventParam);
 628:Generated_Source\PSoC4/BLE_1_eventHandler.c ****     }
 629:Generated_Source\PSoC4/BLE_1_eventHandler.c **** #endif /* CYBLE_BLS_CLIENT */
 630:Generated_Source\PSoC4/BLE_1_eventHandler.c **** 
 631:Generated_Source\PSoC4/BLE_1_eventHandler.c **** #ifdef CYBLE_BMS_CLIENT
 632:Generated_Source\PSoC4/BLE_1_eventHandler.c ****     if((cyBle_eventHandlerFlag & CYBLE_CALLBACK) != 0u)
 633:Generated_Source\PSoC4/BLE_1_eventHandler.c ****     {
 634:Generated_Source\PSoC4/BLE_1_eventHandler.c ****         CyBle_BmscWriteResponseEventHandler(eventParam);
 635:Generated_Source\PSoC4/BLE_1_eventHandler.c ****     }
 636:Generated_Source\PSoC4/BLE_1_eventHandler.c **** #endif /* CYBLE_BMS_CLIENT */
 637:Generated_Source\PSoC4/BLE_1_eventHandler.c **** 
 638:Generated_Source\PSoC4/BLE_1_eventHandler.c **** #ifdef CYBLE_CGMS_CLIENT
 639:Generated_Source\PSoC4/BLE_1_eventHandler.c ****     if((cyBle_eventHandlerFlag & CYBLE_CALLBACK) != 0u)
 640:Generated_Source\PSoC4/BLE_1_eventHandler.c ****     {
 641:Generated_Source\PSoC4/BLE_1_eventHandler.c ****         CyBle_CgmscWriteResponseEventHandler(eventParam);
 642:Generated_Source\PSoC4/BLE_1_eventHandler.c ****     }
 643:Generated_Source\PSoC4/BLE_1_eventHandler.c **** #endif /* CYBLE_CGMS_CLIENT */
 644:Generated_Source\PSoC4/BLE_1_eventHandler.c **** 
 645:Generated_Source\PSoC4/BLE_1_eventHandler.c **** #ifdef CYBLE_CPS_CLIENT
 646:Generated_Source\PSoC4/BLE_1_eventHandler.c ****     if((cyBle_eventHandlerFlag & CYBLE_CALLBACK) != 0u)
 647:Generated_Source\PSoC4/BLE_1_eventHandler.c ****     {
 648:Generated_Source\PSoC4/BLE_1_eventHandler.c ****         CyBle_CpscWriteResponseEventHandler(eventParam);
 649:Generated_Source\PSoC4/BLE_1_eventHandler.c ****     }
 650:Generated_Source\PSoC4/BLE_1_eventHandler.c **** #endif /* CYBLE_CPS_CLIENT */
 651:Generated_Source\PSoC4/BLE_1_eventHandler.c **** 
 652:Generated_Source\PSoC4/BLE_1_eventHandler.c **** #ifdef CYBLE_CSCS_CLIENT
 653:Generated_Source\PSoC4/BLE_1_eventHandler.c ****     if((cyBle_eventHandlerFlag & CYBLE_CALLBACK) != 0u)
 654:Generated_Source\PSoC4/BLE_1_eventHandler.c ****     {
 655:Generated_Source\PSoC4/BLE_1_eventHandler.c ****         CyBle_CscscWriteResponseEventHandler(eventParam);
 656:Generated_Source\PSoC4/BLE_1_eventHandler.c ****     }
 657:Generated_Source\PSoC4/BLE_1_eventHandler.c **** #endif /* CYBLE_CSCS_CLIENT */
 658:Generated_Source\PSoC4/BLE_1_eventHandler.c **** 
ARM GAS  C:\Users\haras\AppData\Local\Temp\ccSR9wHM.s 			page 13


 659:Generated_Source\PSoC4/BLE_1_eventHandler.c **** #ifdef CYBLE_CTS_CLIENT
 660:Generated_Source\PSoC4/BLE_1_eventHandler.c ****     if((cyBle_eventHandlerFlag & CYBLE_CALLBACK) != 0u)
 661:Generated_Source\PSoC4/BLE_1_eventHandler.c ****     {
 662:Generated_Source\PSoC4/BLE_1_eventHandler.c ****         CyBle_CtscWriteResponseEventHandler(eventParam);
 663:Generated_Source\PSoC4/BLE_1_eventHandler.c ****     }
 664:Generated_Source\PSoC4/BLE_1_eventHandler.c **** #endif /* CYBLE_CTS_CLIENT */
 665:Generated_Source\PSoC4/BLE_1_eventHandler.c **** 
 666:Generated_Source\PSoC4/BLE_1_eventHandler.c **** #ifdef CYBLE_ESS_CLIENT
 667:Generated_Source\PSoC4/BLE_1_eventHandler.c ****     if((cyBle_eventHandlerFlag & CYBLE_CALLBACK) != 0u)
 668:Generated_Source\PSoC4/BLE_1_eventHandler.c ****     {
 669:Generated_Source\PSoC4/BLE_1_eventHandler.c ****         CyBle_EsscWriteResponseEventHandler(eventParam);
 670:Generated_Source\PSoC4/BLE_1_eventHandler.c ****     }
 671:Generated_Source\PSoC4/BLE_1_eventHandler.c **** #endif /* CYBLE_ESS_CLIENT */
 672:Generated_Source\PSoC4/BLE_1_eventHandler.c **** 
 673:Generated_Source\PSoC4/BLE_1_eventHandler.c **** #ifdef CYBLE_GLS_CLIENT
 674:Generated_Source\PSoC4/BLE_1_eventHandler.c ****     if((cyBle_eventHandlerFlag & CYBLE_CALLBACK) != 0u)
 675:Generated_Source\PSoC4/BLE_1_eventHandler.c ****     {
 676:Generated_Source\PSoC4/BLE_1_eventHandler.c ****         CyBle_GlscWriteResponseEventHandler(eventParam);
 677:Generated_Source\PSoC4/BLE_1_eventHandler.c ****     }
 678:Generated_Source\PSoC4/BLE_1_eventHandler.c **** #endif /* CYBLE_GLS_CLIENT */
 679:Generated_Source\PSoC4/BLE_1_eventHandler.c **** 
 680:Generated_Source\PSoC4/BLE_1_eventHandler.c **** #ifdef CYBLE_HIDS_CLIENT
 681:Generated_Source\PSoC4/BLE_1_eventHandler.c ****     if((cyBle_eventHandlerFlag & CYBLE_CALLBACK) != 0u)
 682:Generated_Source\PSoC4/BLE_1_eventHandler.c ****     {
 683:Generated_Source\PSoC4/BLE_1_eventHandler.c ****         CyBle_HidscWriteResponseEventHandler(eventParam);
 684:Generated_Source\PSoC4/BLE_1_eventHandler.c ****     }
 685:Generated_Source\PSoC4/BLE_1_eventHandler.c **** #endif /* CYBLE_HIDS_CLIENT */
 686:Generated_Source\PSoC4/BLE_1_eventHandler.c **** 
 687:Generated_Source\PSoC4/BLE_1_eventHandler.c **** #ifdef CYBLE_HPS_CLIENT
 688:Generated_Source\PSoC4/BLE_1_eventHandler.c ****     if((cyBle_eventHandlerFlag & CYBLE_CALLBACK) != 0u)
 689:Generated_Source\PSoC4/BLE_1_eventHandler.c ****     {
 690:Generated_Source\PSoC4/BLE_1_eventHandler.c ****         CyBle_HpscWriteResponseEventHandler(eventParam);
 691:Generated_Source\PSoC4/BLE_1_eventHandler.c ****     }
 692:Generated_Source\PSoC4/BLE_1_eventHandler.c **** #endif /* CYBLE_HPS_CLIENT */
 693:Generated_Source\PSoC4/BLE_1_eventHandler.c **** 
 694:Generated_Source\PSoC4/BLE_1_eventHandler.c **** #ifdef CYBLE_HRS_CLIENT
 695:Generated_Source\PSoC4/BLE_1_eventHandler.c ****     if((cyBle_eventHandlerFlag & CYBLE_CALLBACK) != 0u)
 696:Generated_Source\PSoC4/BLE_1_eventHandler.c ****     {
 697:Generated_Source\PSoC4/BLE_1_eventHandler.c ****         CyBle_HrscWriteResponseEventHandler(eventParam);
 698:Generated_Source\PSoC4/BLE_1_eventHandler.c ****     }
 699:Generated_Source\PSoC4/BLE_1_eventHandler.c **** #endif /* CYBLE_HRS_CLIENT */
 700:Generated_Source\PSoC4/BLE_1_eventHandler.c **** 
 701:Generated_Source\PSoC4/BLE_1_eventHandler.c **** #ifdef CYBLE_HTS_CLIENT
 702:Generated_Source\PSoC4/BLE_1_eventHandler.c ****     if((cyBle_eventHandlerFlag & CYBLE_CALLBACK) != 0u)
 703:Generated_Source\PSoC4/BLE_1_eventHandler.c ****     {
 704:Generated_Source\PSoC4/BLE_1_eventHandler.c ****         CyBle_HtscWriteResponseEventHandler(eventParam);
 705:Generated_Source\PSoC4/BLE_1_eventHandler.c ****     }
 706:Generated_Source\PSoC4/BLE_1_eventHandler.c **** #endif /* CYBLE_HTS_CLIENT */
 707:Generated_Source\PSoC4/BLE_1_eventHandler.c **** 
 708:Generated_Source\PSoC4/BLE_1_eventHandler.c **** #ifdef CYBLE_IPS_CLIENT
 709:Generated_Source\PSoC4/BLE_1_eventHandler.c ****     if((cyBle_eventHandlerFlag & CYBLE_CALLBACK) != 0u)
 710:Generated_Source\PSoC4/BLE_1_eventHandler.c ****     {
 711:Generated_Source\PSoC4/BLE_1_eventHandler.c ****         CyBle_IpscWriteResponseEventHandler(eventParam);
 712:Generated_Source\PSoC4/BLE_1_eventHandler.c ****     }
 713:Generated_Source\PSoC4/BLE_1_eventHandler.c **** #endif /* CYBLE_IPS_CLIENT */
 714:Generated_Source\PSoC4/BLE_1_eventHandler.c **** 
 715:Generated_Source\PSoC4/BLE_1_eventHandler.c **** #ifdef CYBLE_LLS_CLIENT
ARM GAS  C:\Users\haras\AppData\Local\Temp\ccSR9wHM.s 			page 14


 716:Generated_Source\PSoC4/BLE_1_eventHandler.c ****     if((cyBle_eventHandlerFlag & CYBLE_CALLBACK) != 0u)
 717:Generated_Source\PSoC4/BLE_1_eventHandler.c ****     {
 718:Generated_Source\PSoC4/BLE_1_eventHandler.c ****         CyBle_LlscWriteResponseEventHandler(eventParam);
 719:Generated_Source\PSoC4/BLE_1_eventHandler.c ****     }
 720:Generated_Source\PSoC4/BLE_1_eventHandler.c **** #endif /* CYBLE_LLS_CLIENT */
 721:Generated_Source\PSoC4/BLE_1_eventHandler.c **** 
 722:Generated_Source\PSoC4/BLE_1_eventHandler.c **** #ifdef CYBLE_LNS_CLIENT
 723:Generated_Source\PSoC4/BLE_1_eventHandler.c ****     if((cyBle_eventHandlerFlag & CYBLE_CALLBACK) != 0u)
 724:Generated_Source\PSoC4/BLE_1_eventHandler.c ****     {
 725:Generated_Source\PSoC4/BLE_1_eventHandler.c ****         CyBle_LnscWriteResponseEventHandler(eventParam);
 726:Generated_Source\PSoC4/BLE_1_eventHandler.c ****     }
 727:Generated_Source\PSoC4/BLE_1_eventHandler.c **** #endif /* CYBLE_LNS_CLIENT */
 728:Generated_Source\PSoC4/BLE_1_eventHandler.c **** 
 729:Generated_Source\PSoC4/BLE_1_eventHandler.c **** #ifdef CYBLE_PASS_CLIENT
 730:Generated_Source\PSoC4/BLE_1_eventHandler.c ****     if((cyBle_eventHandlerFlag & CYBLE_CALLBACK) != 0u)
 731:Generated_Source\PSoC4/BLE_1_eventHandler.c ****     {
 732:Generated_Source\PSoC4/BLE_1_eventHandler.c ****         CyBle_PasscWriteResponseEventHandler(eventParam);
 733:Generated_Source\PSoC4/BLE_1_eventHandler.c ****     }
 734:Generated_Source\PSoC4/BLE_1_eventHandler.c **** #endif /* CYBLE_PASS_CLIENT */
 735:Generated_Source\PSoC4/BLE_1_eventHandler.c **** 
 736:Generated_Source\PSoC4/BLE_1_eventHandler.c **** #ifdef CYBLE_PLXS_CLIENT
 737:Generated_Source\PSoC4/BLE_1_eventHandler.c ****     if((cyBle_eventHandlerFlag & CYBLE_CALLBACK) != 0u)
 738:Generated_Source\PSoC4/BLE_1_eventHandler.c ****     {
 739:Generated_Source\PSoC4/BLE_1_eventHandler.c ****         CyBle_PlxscWriteResponseEventHandler(eventParam);
 740:Generated_Source\PSoC4/BLE_1_eventHandler.c ****     }
 741:Generated_Source\PSoC4/BLE_1_eventHandler.c **** #endif /* CYBLE_PASS_CLIENT */
 742:Generated_Source\PSoC4/BLE_1_eventHandler.c **** 
 743:Generated_Source\PSoC4/BLE_1_eventHandler.c **** #ifdef CYBLE_RSCS_CLIENT
 744:Generated_Source\PSoC4/BLE_1_eventHandler.c ****     if((cyBle_eventHandlerFlag & CYBLE_CALLBACK) != 0u)
 745:Generated_Source\PSoC4/BLE_1_eventHandler.c ****     {
 746:Generated_Source\PSoC4/BLE_1_eventHandler.c ****         CyBle_RscscWriteResponseEventHandler(eventParam);
 747:Generated_Source\PSoC4/BLE_1_eventHandler.c ****     }
 748:Generated_Source\PSoC4/BLE_1_eventHandler.c **** #endif /* CYBLE_RSCS_CLIENT */
 749:Generated_Source\PSoC4/BLE_1_eventHandler.c **** 
 750:Generated_Source\PSoC4/BLE_1_eventHandler.c **** #ifdef CYBLE_SCPS_CLIENT
 751:Generated_Source\PSoC4/BLE_1_eventHandler.c ****     if((cyBle_eventHandlerFlag & CYBLE_CALLBACK) != 0u)
 752:Generated_Source\PSoC4/BLE_1_eventHandler.c ****     {
 753:Generated_Source\PSoC4/BLE_1_eventHandler.c ****         CyBle_ScpscWriteResponseEventHandler(eventParam);
 754:Generated_Source\PSoC4/BLE_1_eventHandler.c ****     }
 755:Generated_Source\PSoC4/BLE_1_eventHandler.c **** #endif /* CYBLE_SCPS_CLIENT */
 756:Generated_Source\PSoC4/BLE_1_eventHandler.c **** 
 757:Generated_Source\PSoC4/BLE_1_eventHandler.c **** #ifdef CYBLE_TPS_CLIENT
 758:Generated_Source\PSoC4/BLE_1_eventHandler.c ****     if((cyBle_eventHandlerFlag & CYBLE_CALLBACK) != 0u)
 759:Generated_Source\PSoC4/BLE_1_eventHandler.c ****     {
 760:Generated_Source\PSoC4/BLE_1_eventHandler.c ****         CyBle_TpscWriteResponseEventHandler(eventParam);
 761:Generated_Source\PSoC4/BLE_1_eventHandler.c ****     }
 762:Generated_Source\PSoC4/BLE_1_eventHandler.c **** #endif /* CYBLE_TPS_CLIENT */
 763:Generated_Source\PSoC4/BLE_1_eventHandler.c **** 
 764:Generated_Source\PSoC4/BLE_1_eventHandler.c **** #ifdef CYBLE_UDS_CLIENT
 765:Generated_Source\PSoC4/BLE_1_eventHandler.c ****     if((cyBle_eventHandlerFlag & CYBLE_CALLBACK) != 0u)
 766:Generated_Source\PSoC4/BLE_1_eventHandler.c ****     {
 767:Generated_Source\PSoC4/BLE_1_eventHandler.c ****         CyBle_UdscWriteResponseEventHandler(eventParam);
 768:Generated_Source\PSoC4/BLE_1_eventHandler.c ****     }
 769:Generated_Source\PSoC4/BLE_1_eventHandler.c **** #endif /* CYBLE_UDS_CLIENT */
 770:Generated_Source\PSoC4/BLE_1_eventHandler.c **** #ifdef CYBLE_WPTS_CLIENT
 771:Generated_Source\PSoC4/BLE_1_eventHandler.c ****     if((cyBle_eventHandlerFlag & CYBLE_CALLBACK) != 0u)
 772:Generated_Source\PSoC4/BLE_1_eventHandler.c ****     {
ARM GAS  C:\Users\haras\AppData\Local\Temp\ccSR9wHM.s 			page 15


 773:Generated_Source\PSoC4/BLE_1_eventHandler.c ****         CyBle_WptscWriteResponseEventHandler(eventParam);
 774:Generated_Source\PSoC4/BLE_1_eventHandler.c ****     }
 775:Generated_Source\PSoC4/BLE_1_eventHandler.c **** #endif /* CYBLE_WPTS_CLIENT */
 776:Generated_Source\PSoC4/BLE_1_eventHandler.c **** #ifdef CYBLE_WSS_CLIENT
 777:Generated_Source\PSoC4/BLE_1_eventHandler.c ****     if((cyBle_eventHandlerFlag & CYBLE_CALLBACK) != 0u)
 778:Generated_Source\PSoC4/BLE_1_eventHandler.c ****     {
 779:Generated_Source\PSoC4/BLE_1_eventHandler.c ****         CyBle_WsscWriteResponseEventHandler(eventParam);
 780:Generated_Source\PSoC4/BLE_1_eventHandler.c ****     }
 781:Generated_Source\PSoC4/BLE_1_eventHandler.c **** #endif /* CYBLE_WSS_CLIENT */
 782:Generated_Source\PSoC4/BLE_1_eventHandler.c **** }
 783:Generated_Source\PSoC4/BLE_1_eventHandler.c **** 
 784:Generated_Source\PSoC4/BLE_1_eventHandler.c **** 
 785:Generated_Source\PSoC4/BLE_1_eventHandler.c **** /******************************************************************************    
 786:Generated_Source\PSoC4/BLE_1_eventHandler.c **** * Function Name: CyBle_NotificationEventHandler
 787:Generated_Source\PSoC4/BLE_1_eventHandler.c **** ***************************************************************************//**
 788:Generated_Source\PSoC4/BLE_1_eventHandler.c **** * 
 789:Generated_Source\PSoC4/BLE_1_eventHandler.c **** *  Handles the Notification event from BLE stack.
 790:Generated_Source\PSoC4/BLE_1_eventHandler.c **** * 
 791:Generated_Source\PSoC4/BLE_1_eventHandler.c **** *  \param eventParam: event parameter
 792:Generated_Source\PSoC4/BLE_1_eventHandler.c **** * 
 793:Generated_Source\PSoC4/BLE_1_eventHandler.c **** * \return
 794:Generated_Source\PSoC4/BLE_1_eventHandler.c **** *  None
 795:Generated_Source\PSoC4/BLE_1_eventHandler.c **** * 
 796:Generated_Source\PSoC4/BLE_1_eventHandler.c **** ******************************************************************************/
 797:Generated_Source\PSoC4/BLE_1_eventHandler.c **** static void CyBle_NotificationEventHandler(CYBLE_GATTC_HANDLE_VALUE_NTF_PARAM_T *eventParam)
 798:Generated_Source\PSoC4/BLE_1_eventHandler.c **** {
 799:Generated_Source\PSoC4/BLE_1_eventHandler.c **** #ifdef CYBLE_AIOS_CLIENT
 800:Generated_Source\PSoC4/BLE_1_eventHandler.c ****     if((cyBle_eventHandlerFlag & CYBLE_CALLBACK) != 0u)
 801:Generated_Source\PSoC4/BLE_1_eventHandler.c ****     {
 802:Generated_Source\PSoC4/BLE_1_eventHandler.c ****         CyBle_AioscNotificationEventHandler(eventParam);
 803:Generated_Source\PSoC4/BLE_1_eventHandler.c ****     }
 804:Generated_Source\PSoC4/BLE_1_eventHandler.c **** #endif /* CYBLE_AIOS_CLIENT */
 805:Generated_Source\PSoC4/BLE_1_eventHandler.c **** #ifdef CYBLE_ANCS_CLIENT
 806:Generated_Source\PSoC4/BLE_1_eventHandler.c ****     CyBle_AncscNotificationEventHandler(eventParam);
 807:Generated_Source\PSoC4/BLE_1_eventHandler.c **** #endif /* CYBLE_ANCS_CLIENT */
 808:Generated_Source\PSoC4/BLE_1_eventHandler.c **** #ifdef CYBLE_ANS_CLIENT
 809:Generated_Source\PSoC4/BLE_1_eventHandler.c ****     if((cyBle_eventHandlerFlag & CYBLE_CALLBACK) != 0u)
 810:Generated_Source\PSoC4/BLE_1_eventHandler.c ****     {
 811:Generated_Source\PSoC4/BLE_1_eventHandler.c ****         CyBle_AnscNotificationEventHandler(eventParam);
 812:Generated_Source\PSoC4/BLE_1_eventHandler.c ****     }
 813:Generated_Source\PSoC4/BLE_1_eventHandler.c **** #endif /* CYBLE_ANS_CLIENT */
 814:Generated_Source\PSoC4/BLE_1_eventHandler.c **** #ifdef CYBLE_BAS_CLIENT
 815:Generated_Source\PSoC4/BLE_1_eventHandler.c ****     if((cyBle_eventHandlerFlag & CYBLE_CALLBACK) != 0u)
 816:Generated_Source\PSoC4/BLE_1_eventHandler.c ****     {
 817:Generated_Source\PSoC4/BLE_1_eventHandler.c ****         CyBle_BascNotificationEventHandler(eventParam);
 818:Generated_Source\PSoC4/BLE_1_eventHandler.c ****     }
 819:Generated_Source\PSoC4/BLE_1_eventHandler.c **** #endif /* CYBLE_BAS_CLIENT */
 820:Generated_Source\PSoC4/BLE_1_eventHandler.c **** #ifdef CYBLE_BLS_CLIENT
 821:Generated_Source\PSoC4/BLE_1_eventHandler.c ****     if((cyBle_eventHandlerFlag & CYBLE_CALLBACK) != 0u)
 822:Generated_Source\PSoC4/BLE_1_eventHandler.c ****     {
 823:Generated_Source\PSoC4/BLE_1_eventHandler.c ****         CyBle_BlscNotificationEventHandler(eventParam);
 824:Generated_Source\PSoC4/BLE_1_eventHandler.c ****     }
 825:Generated_Source\PSoC4/BLE_1_eventHandler.c **** #endif /* CYBLE_BLS_CLIENT */
 826:Generated_Source\PSoC4/BLE_1_eventHandler.c **** #ifdef CYBLE_CGMS_CLIENT
 827:Generated_Source\PSoC4/BLE_1_eventHandler.c ****     if((cyBle_eventHandlerFlag & CYBLE_CALLBACK) != 0u)
 828:Generated_Source\PSoC4/BLE_1_eventHandler.c ****     {
 829:Generated_Source\PSoC4/BLE_1_eventHandler.c ****         CyBle_CgmscNotificationEventHandler(eventParam);
ARM GAS  C:\Users\haras\AppData\Local\Temp\ccSR9wHM.s 			page 16


 830:Generated_Source\PSoC4/BLE_1_eventHandler.c ****     }
 831:Generated_Source\PSoC4/BLE_1_eventHandler.c **** #endif /* CYBLE_CGMS_CLIENT */
 832:Generated_Source\PSoC4/BLE_1_eventHandler.c **** #ifdef CYBLE_CPS_CLIENT
 833:Generated_Source\PSoC4/BLE_1_eventHandler.c ****     if((cyBle_eventHandlerFlag & CYBLE_CALLBACK) != 0u)
 834:Generated_Source\PSoC4/BLE_1_eventHandler.c ****     {
 835:Generated_Source\PSoC4/BLE_1_eventHandler.c ****         CyBle_CpscNotificationEventHandler(eventParam);
 836:Generated_Source\PSoC4/BLE_1_eventHandler.c ****     }
 837:Generated_Source\PSoC4/BLE_1_eventHandler.c **** #endif /* CYBLE_CPS_CLIENT */
 838:Generated_Source\PSoC4/BLE_1_eventHandler.c **** #ifdef CYBLE_CSCS_CLIENT
 839:Generated_Source\PSoC4/BLE_1_eventHandler.c ****     if((cyBle_eventHandlerFlag & CYBLE_CALLBACK) != 0u)
 840:Generated_Source\PSoC4/BLE_1_eventHandler.c ****     {
 841:Generated_Source\PSoC4/BLE_1_eventHandler.c ****         CyBle_CscscNotificationEventHandler(eventParam);
 842:Generated_Source\PSoC4/BLE_1_eventHandler.c ****     }
 843:Generated_Source\PSoC4/BLE_1_eventHandler.c **** #endif /* CYBLE_CSCS_CLIENT */
 844:Generated_Source\PSoC4/BLE_1_eventHandler.c **** #ifdef CYBLE_CTS_CLIENT
 845:Generated_Source\PSoC4/BLE_1_eventHandler.c ****     if((cyBle_eventHandlerFlag & CYBLE_CALLBACK) != 0u)
 846:Generated_Source\PSoC4/BLE_1_eventHandler.c ****     {
 847:Generated_Source\PSoC4/BLE_1_eventHandler.c ****         CyBle_CtscNotificationEventHandler(eventParam);
 848:Generated_Source\PSoC4/BLE_1_eventHandler.c ****     }
 849:Generated_Source\PSoC4/BLE_1_eventHandler.c **** #endif /* CYBLE_CTS_CLIENT */
 850:Generated_Source\PSoC4/BLE_1_eventHandler.c **** #ifdef CYBLE_ESS_CLIENT
 851:Generated_Source\PSoC4/BLE_1_eventHandler.c ****     if((cyBle_eventHandlerFlag & CYBLE_CALLBACK) != 0u)
 852:Generated_Source\PSoC4/BLE_1_eventHandler.c ****     {
 853:Generated_Source\PSoC4/BLE_1_eventHandler.c ****         CyBle_EsscNotificationEventHandler(eventParam);
 854:Generated_Source\PSoC4/BLE_1_eventHandler.c ****     }
 855:Generated_Source\PSoC4/BLE_1_eventHandler.c **** #endif /* CYBLE_ESS_CLIENT */
 856:Generated_Source\PSoC4/BLE_1_eventHandler.c **** #ifdef CYBLE_GLS_CLIENT
 857:Generated_Source\PSoC4/BLE_1_eventHandler.c ****     if((cyBle_eventHandlerFlag & CYBLE_CALLBACK) != 0u)
 858:Generated_Source\PSoC4/BLE_1_eventHandler.c ****     {
 859:Generated_Source\PSoC4/BLE_1_eventHandler.c ****         CyBle_GlscNotificationEventHandler(eventParam);
 860:Generated_Source\PSoC4/BLE_1_eventHandler.c ****     }
 861:Generated_Source\PSoC4/BLE_1_eventHandler.c **** #endif /* CYBLE_GLS_CLIENT */
 862:Generated_Source\PSoC4/BLE_1_eventHandler.c **** #ifdef CYBLE_HIDS_CLIENT
 863:Generated_Source\PSoC4/BLE_1_eventHandler.c ****     if((cyBle_eventHandlerFlag & CYBLE_CALLBACK) != 0u)
 864:Generated_Source\PSoC4/BLE_1_eventHandler.c ****     {
 865:Generated_Source\PSoC4/BLE_1_eventHandler.c ****         CyBle_HidscNotificationEventHandler(eventParam);
 866:Generated_Source\PSoC4/BLE_1_eventHandler.c ****     }
 867:Generated_Source\PSoC4/BLE_1_eventHandler.c **** #endif /* CYBLE_HIDS_CLIENT */
 868:Generated_Source\PSoC4/BLE_1_eventHandler.c **** #ifdef CYBLE_HPS_CLIENT
 869:Generated_Source\PSoC4/BLE_1_eventHandler.c ****     if((cyBle_eventHandlerFlag & CYBLE_CALLBACK) != 0u)
 870:Generated_Source\PSoC4/BLE_1_eventHandler.c ****     {
 871:Generated_Source\PSoC4/BLE_1_eventHandler.c ****         CyBle_HpscNotificationEventHandler(eventParam);
 872:Generated_Source\PSoC4/BLE_1_eventHandler.c ****     }
 873:Generated_Source\PSoC4/BLE_1_eventHandler.c **** #endif /* CYBLE_HPS_CLIENT */
 874:Generated_Source\PSoC4/BLE_1_eventHandler.c **** #ifdef CYBLE_HRS_CLIENT
 875:Generated_Source\PSoC4/BLE_1_eventHandler.c ****     if((cyBle_eventHandlerFlag & CYBLE_CALLBACK) != 0u)
 876:Generated_Source\PSoC4/BLE_1_eventHandler.c ****     {
 877:Generated_Source\PSoC4/BLE_1_eventHandler.c ****         CyBle_HrscNotificationEventHandler(eventParam);
 878:Generated_Source\PSoC4/BLE_1_eventHandler.c ****     }
 879:Generated_Source\PSoC4/BLE_1_eventHandler.c **** #endif /* CYBLE_HRS_CLIENT */
 880:Generated_Source\PSoC4/BLE_1_eventHandler.c **** #ifdef CYBLE_HTS_CLIENT
 881:Generated_Source\PSoC4/BLE_1_eventHandler.c ****     if((cyBle_eventHandlerFlag & CYBLE_CALLBACK) != 0u)
 882:Generated_Source\PSoC4/BLE_1_eventHandler.c ****     {
 883:Generated_Source\PSoC4/BLE_1_eventHandler.c ****         CyBle_HtscNotificationEventHandler(eventParam);
 884:Generated_Source\PSoC4/BLE_1_eventHandler.c ****     }
 885:Generated_Source\PSoC4/BLE_1_eventHandler.c **** #endif /* CYBLE_HTS_CLIENT */
 886:Generated_Source\PSoC4/BLE_1_eventHandler.c **** #ifdef CYBLE_LNS_CLIENT
ARM GAS  C:\Users\haras\AppData\Local\Temp\ccSR9wHM.s 			page 17


 887:Generated_Source\PSoC4/BLE_1_eventHandler.c ****     if((cyBle_eventHandlerFlag & CYBLE_CALLBACK) != 0u)
 888:Generated_Source\PSoC4/BLE_1_eventHandler.c ****     {
 889:Generated_Source\PSoC4/BLE_1_eventHandler.c ****         CyBle_LnscNotificationEventHandler(eventParam);
 890:Generated_Source\PSoC4/BLE_1_eventHandler.c ****     }
 891:Generated_Source\PSoC4/BLE_1_eventHandler.c **** #endif /* CYBLE_LNS_CLIENT */
 892:Generated_Source\PSoC4/BLE_1_eventHandler.c **** #ifdef CYBLE_PASS_CLIENT
 893:Generated_Source\PSoC4/BLE_1_eventHandler.c ****     if((cyBle_eventHandlerFlag & CYBLE_CALLBACK) != 0u)
 894:Generated_Source\PSoC4/BLE_1_eventHandler.c ****     {
 895:Generated_Source\PSoC4/BLE_1_eventHandler.c ****         CyBle_PasscNotificationEventHandler(eventParam);
 896:Generated_Source\PSoC4/BLE_1_eventHandler.c ****     }
 897:Generated_Source\PSoC4/BLE_1_eventHandler.c **** #endif /* CYBLE_PASS_CLIENT */
 898:Generated_Source\PSoC4/BLE_1_eventHandler.c **** #ifdef CYBLE_PLXS_CLIENT
 899:Generated_Source\PSoC4/BLE_1_eventHandler.c ****     if((cyBle_eventHandlerFlag & CYBLE_CALLBACK) != 0u)
 900:Generated_Source\PSoC4/BLE_1_eventHandler.c ****     {
 901:Generated_Source\PSoC4/BLE_1_eventHandler.c ****         CyBle_PlxscNotificationEventHandler(eventParam);
 902:Generated_Source\PSoC4/BLE_1_eventHandler.c ****     }
 903:Generated_Source\PSoC4/BLE_1_eventHandler.c **** #endif /* CYBLE_PLXS_CLIENT */
 904:Generated_Source\PSoC4/BLE_1_eventHandler.c **** #ifdef CYBLE_RSCS_CLIENT
 905:Generated_Source\PSoC4/BLE_1_eventHandler.c ****     if((cyBle_eventHandlerFlag & CYBLE_CALLBACK) != 0u)
 906:Generated_Source\PSoC4/BLE_1_eventHandler.c ****     {
 907:Generated_Source\PSoC4/BLE_1_eventHandler.c ****         CyBle_RscscNotificationEventHandler(eventParam);
 908:Generated_Source\PSoC4/BLE_1_eventHandler.c ****     }
 909:Generated_Source\PSoC4/BLE_1_eventHandler.c **** #endif /* CYBLE_RSCS_CLIENT */
 910:Generated_Source\PSoC4/BLE_1_eventHandler.c **** #ifdef CYBLE_SCPS_CLIENT
 911:Generated_Source\PSoC4/BLE_1_eventHandler.c ****     if((cyBle_eventHandlerFlag & CYBLE_CALLBACK) != 0u)
 912:Generated_Source\PSoC4/BLE_1_eventHandler.c ****     {
 913:Generated_Source\PSoC4/BLE_1_eventHandler.c ****         CyBle_ScpscNotificationEventHandler(eventParam);
 914:Generated_Source\PSoC4/BLE_1_eventHandler.c ****     }
 915:Generated_Source\PSoC4/BLE_1_eventHandler.c **** #endif /* CYBLE_SCPS_CLIENT */
 916:Generated_Source\PSoC4/BLE_1_eventHandler.c **** #ifdef CYBLE_TPS_CLIENT
 917:Generated_Source\PSoC4/BLE_1_eventHandler.c ****     if((cyBle_eventHandlerFlag & CYBLE_CALLBACK) != 0u)
 918:Generated_Source\PSoC4/BLE_1_eventHandler.c ****     {
 919:Generated_Source\PSoC4/BLE_1_eventHandler.c ****         CyBle_TpscNotificationEventHandler(eventParam);
 920:Generated_Source\PSoC4/BLE_1_eventHandler.c ****     }
 921:Generated_Source\PSoC4/BLE_1_eventHandler.c **** #endif /* CYBLE_TPS_CLIENT */
 922:Generated_Source\PSoC4/BLE_1_eventHandler.c **** #ifdef CYBLE_UDS_CLIENT
 923:Generated_Source\PSoC4/BLE_1_eventHandler.c ****     if((cyBle_eventHandlerFlag & CYBLE_CALLBACK) != 0u)
 924:Generated_Source\PSoC4/BLE_1_eventHandler.c ****     {
 925:Generated_Source\PSoC4/BLE_1_eventHandler.c ****         CyBle_UdscNotificationEventHandler(eventParam);
 926:Generated_Source\PSoC4/BLE_1_eventHandler.c ****     }
 927:Generated_Source\PSoC4/BLE_1_eventHandler.c **** #endif /* CYBLE_UDS_CLIENT */
 928:Generated_Source\PSoC4/BLE_1_eventHandler.c **** #ifdef CYBLE_WPTS_CLIENT
 929:Generated_Source\PSoC4/BLE_1_eventHandler.c ****     if((cyBle_eventHandlerFlag & CYBLE_CALLBACK) != 0u)
 930:Generated_Source\PSoC4/BLE_1_eventHandler.c ****     {
 931:Generated_Source\PSoC4/BLE_1_eventHandler.c ****         CyBle_WptscNotificationEventHandler(eventParam);
 932:Generated_Source\PSoC4/BLE_1_eventHandler.c ****     }
 933:Generated_Source\PSoC4/BLE_1_eventHandler.c **** #endif /* CYBLE_WPTS_CLIENT */
 934:Generated_Source\PSoC4/BLE_1_eventHandler.c **** }
 935:Generated_Source\PSoC4/BLE_1_eventHandler.c **** 
 936:Generated_Source\PSoC4/BLE_1_eventHandler.c **** 
 937:Generated_Source\PSoC4/BLE_1_eventHandler.c **** /******************************************************************************    
 938:Generated_Source\PSoC4/BLE_1_eventHandler.c **** * Function Name: CyBle_IndicationEventHandler
 939:Generated_Source\PSoC4/BLE_1_eventHandler.c **** ***************************************************************************//**
 940:Generated_Source\PSoC4/BLE_1_eventHandler.c **** * 
 941:Generated_Source\PSoC4/BLE_1_eventHandler.c **** *  Handles the Indication event from BLE stack.
 942:Generated_Source\PSoC4/BLE_1_eventHandler.c **** * 
 943:Generated_Source\PSoC4/BLE_1_eventHandler.c **** *  \param eventParam: event parameter
ARM GAS  C:\Users\haras\AppData\Local\Temp\ccSR9wHM.s 			page 18


 944:Generated_Source\PSoC4/BLE_1_eventHandler.c **** * 
 945:Generated_Source\PSoC4/BLE_1_eventHandler.c **** * \return
 946:Generated_Source\PSoC4/BLE_1_eventHandler.c **** *  None
 947:Generated_Source\PSoC4/BLE_1_eventHandler.c **** * 
 948:Generated_Source\PSoC4/BLE_1_eventHandler.c **** ******************************************************************************/
 949:Generated_Source\PSoC4/BLE_1_eventHandler.c **** static void CyBle_IndicationEventHandler(CYBLE_GATTC_HANDLE_VALUE_IND_PARAM_T *eventParam)
 950:Generated_Source\PSoC4/BLE_1_eventHandler.c **** {
 951:Generated_Source\PSoC4/BLE_1_eventHandler.c **** #ifdef CYBLE_AIOS_CLIENT
 952:Generated_Source\PSoC4/BLE_1_eventHandler.c ****     if((cyBle_eventHandlerFlag & CYBLE_CALLBACK) != 0u)
 953:Generated_Source\PSoC4/BLE_1_eventHandler.c ****     {
 954:Generated_Source\PSoC4/BLE_1_eventHandler.c ****         CyBle_AioscIndicationEventHandler(eventParam);
 955:Generated_Source\PSoC4/BLE_1_eventHandler.c ****     }
 956:Generated_Source\PSoC4/BLE_1_eventHandler.c **** #endif /* CYBLE_AIOS_CLIENT */
 957:Generated_Source\PSoC4/BLE_1_eventHandler.c **** #ifdef CYBLE_BCS_CLIENT
 958:Generated_Source\PSoC4/BLE_1_eventHandler.c ****     if((cyBle_eventHandlerFlag & CYBLE_CALLBACK) != 0u)
 959:Generated_Source\PSoC4/BLE_1_eventHandler.c ****     {
 960:Generated_Source\PSoC4/BLE_1_eventHandler.c ****         CyBle_BcscIndicationEventHandler(eventParam);
 961:Generated_Source\PSoC4/BLE_1_eventHandler.c ****     }
 962:Generated_Source\PSoC4/BLE_1_eventHandler.c **** #endif /* CYBLE_BCS_CLIENT */
 963:Generated_Source\PSoC4/BLE_1_eventHandler.c **** #ifdef CYBLE_BLS_CLIENT
 964:Generated_Source\PSoC4/BLE_1_eventHandler.c ****     if((cyBle_eventHandlerFlag & CYBLE_CALLBACK) != 0u)
 965:Generated_Source\PSoC4/BLE_1_eventHandler.c ****     {
 966:Generated_Source\PSoC4/BLE_1_eventHandler.c ****         CyBle_BlscIndicationEventHandler(eventParam);
 967:Generated_Source\PSoC4/BLE_1_eventHandler.c ****     }
 968:Generated_Source\PSoC4/BLE_1_eventHandler.c **** #endif /* CYBLE_BLS_CLIENT */
 969:Generated_Source\PSoC4/BLE_1_eventHandler.c **** #ifdef CYBLE_CGMS_CLIENT
 970:Generated_Source\PSoC4/BLE_1_eventHandler.c ****     if((cyBle_eventHandlerFlag & CYBLE_CALLBACK) != 0u)
 971:Generated_Source\PSoC4/BLE_1_eventHandler.c ****     {
 972:Generated_Source\PSoC4/BLE_1_eventHandler.c ****         CyBle_CgmscIndicationEventHandler(eventParam);
 973:Generated_Source\PSoC4/BLE_1_eventHandler.c ****     }
 974:Generated_Source\PSoC4/BLE_1_eventHandler.c **** #endif /* CYBLE_CGMS_CLIENT */
 975:Generated_Source\PSoC4/BLE_1_eventHandler.c **** #ifdef CYBLE_CPS_CLIENT
 976:Generated_Source\PSoC4/BLE_1_eventHandler.c ****     if((cyBle_eventHandlerFlag & CYBLE_CALLBACK) != 0u)
 977:Generated_Source\PSoC4/BLE_1_eventHandler.c ****     {
 978:Generated_Source\PSoC4/BLE_1_eventHandler.c ****         CyBle_CpscIndicationEventHandler(eventParam);
 979:Generated_Source\PSoC4/BLE_1_eventHandler.c ****     }
 980:Generated_Source\PSoC4/BLE_1_eventHandler.c **** #endif /* CYBLE_CPS_CLIENT */
 981:Generated_Source\PSoC4/BLE_1_eventHandler.c **** #ifdef CYBLE_CSCS_CLIENT
 982:Generated_Source\PSoC4/BLE_1_eventHandler.c ****     if((cyBle_eventHandlerFlag & CYBLE_CALLBACK) != 0u)
 983:Generated_Source\PSoC4/BLE_1_eventHandler.c ****     {
 984:Generated_Source\PSoC4/BLE_1_eventHandler.c ****         CyBle_CscscIndicationEventHandler(eventParam);
 985:Generated_Source\PSoC4/BLE_1_eventHandler.c ****     }
 986:Generated_Source\PSoC4/BLE_1_eventHandler.c **** #endif /* CYBLE_CSCS_CLIENT */
 987:Generated_Source\PSoC4/BLE_1_eventHandler.c **** #ifdef CYBLE_ESS_CLIENT
 988:Generated_Source\PSoC4/BLE_1_eventHandler.c ****     if((cyBle_eventHandlerFlag & CYBLE_CALLBACK) != 0u)
 989:Generated_Source\PSoC4/BLE_1_eventHandler.c ****     {
 990:Generated_Source\PSoC4/BLE_1_eventHandler.c ****         CyBle_EsscIndicationEventHandler(eventParam);
 991:Generated_Source\PSoC4/BLE_1_eventHandler.c ****     }
 992:Generated_Source\PSoC4/BLE_1_eventHandler.c **** #endif /* CYBLE_ESS_CLIENT */
 993:Generated_Source\PSoC4/BLE_1_eventHandler.c **** #ifdef CYBLE_GLS_CLIENT
 994:Generated_Source\PSoC4/BLE_1_eventHandler.c ****     if((cyBle_eventHandlerFlag & CYBLE_CALLBACK) != 0u)
 995:Generated_Source\PSoC4/BLE_1_eventHandler.c ****     {
 996:Generated_Source\PSoC4/BLE_1_eventHandler.c ****         CyBle_GlscIndicationEventHandler(eventParam);
 997:Generated_Source\PSoC4/BLE_1_eventHandler.c ****     }
 998:Generated_Source\PSoC4/BLE_1_eventHandler.c **** #endif /* CYBLE_GLS_CLIENT */
 999:Generated_Source\PSoC4/BLE_1_eventHandler.c **** #ifdef CYBLE_HTS_CLIENT
1000:Generated_Source\PSoC4/BLE_1_eventHandler.c ****     if((cyBle_eventHandlerFlag & CYBLE_CALLBACK) != 0u)
ARM GAS  C:\Users\haras\AppData\Local\Temp\ccSR9wHM.s 			page 19


1001:Generated_Source\PSoC4/BLE_1_eventHandler.c ****     {
1002:Generated_Source\PSoC4/BLE_1_eventHandler.c ****         CyBle_HtscIndicationEventHandler(eventParam);
1003:Generated_Source\PSoC4/BLE_1_eventHandler.c ****     }
1004:Generated_Source\PSoC4/BLE_1_eventHandler.c **** #endif /* CYBLE_HTS_CLIENT */
1005:Generated_Source\PSoC4/BLE_1_eventHandler.c **** #ifdef CYBLE_LNS_CLIENT
1006:Generated_Source\PSoC4/BLE_1_eventHandler.c ****     if((cyBle_eventHandlerFlag & CYBLE_CALLBACK) != 0u)
1007:Generated_Source\PSoC4/BLE_1_eventHandler.c ****     {
1008:Generated_Source\PSoC4/BLE_1_eventHandler.c ****         CyBle_LnscIndicationEventHandler(eventParam);
1009:Generated_Source\PSoC4/BLE_1_eventHandler.c ****     }
1010:Generated_Source\PSoC4/BLE_1_eventHandler.c **** #endif /* CYBLE_LNS_CLIENT */
1011:Generated_Source\PSoC4/BLE_1_eventHandler.c **** #ifdef CYBLE_PLXS_CLIENT
1012:Generated_Source\PSoC4/BLE_1_eventHandler.c ****     if((cyBle_eventHandlerFlag & CYBLE_CALLBACK) != 0u)
1013:Generated_Source\PSoC4/BLE_1_eventHandler.c ****     {
1014:Generated_Source\PSoC4/BLE_1_eventHandler.c ****         CyBle_PlxscIndicationEventHandler(eventParam);
1015:Generated_Source\PSoC4/BLE_1_eventHandler.c ****     }
1016:Generated_Source\PSoC4/BLE_1_eventHandler.c **** #endif /* CYBLE_PLXS_CLIENT */
1017:Generated_Source\PSoC4/BLE_1_eventHandler.c **** #ifdef CYBLE_RSCS_CLIENT
1018:Generated_Source\PSoC4/BLE_1_eventHandler.c ****     if((cyBle_eventHandlerFlag & CYBLE_CALLBACK) != 0u)
1019:Generated_Source\PSoC4/BLE_1_eventHandler.c ****     {
1020:Generated_Source\PSoC4/BLE_1_eventHandler.c ****         CyBle_RscscIndicationEventHandler(eventParam);
1021:Generated_Source\PSoC4/BLE_1_eventHandler.c ****     }
1022:Generated_Source\PSoC4/BLE_1_eventHandler.c **** #endif /* CYBLE_RSCS_CLIENT */
1023:Generated_Source\PSoC4/BLE_1_eventHandler.c **** #ifdef CYBLE_UDS_CLIENT
1024:Generated_Source\PSoC4/BLE_1_eventHandler.c ****     if((cyBle_eventHandlerFlag & CYBLE_CALLBACK) != 0u)
1025:Generated_Source\PSoC4/BLE_1_eventHandler.c ****     {
1026:Generated_Source\PSoC4/BLE_1_eventHandler.c ****         CyBle_UdscIndicationEventHandler(eventParam);
1027:Generated_Source\PSoC4/BLE_1_eventHandler.c ****     }
1028:Generated_Source\PSoC4/BLE_1_eventHandler.c **** #endif /* CYBLE_UDS_CLIENT */
1029:Generated_Source\PSoC4/BLE_1_eventHandler.c **** #ifdef CYBLE_WPTS_CLIENT
1030:Generated_Source\PSoC4/BLE_1_eventHandler.c ****     if((cyBle_eventHandlerFlag & CYBLE_CALLBACK) != 0u)
1031:Generated_Source\PSoC4/BLE_1_eventHandler.c ****     {
1032:Generated_Source\PSoC4/BLE_1_eventHandler.c ****         CyBle_WptscIndicationEventHandler(eventParam);
1033:Generated_Source\PSoC4/BLE_1_eventHandler.c ****     }
1034:Generated_Source\PSoC4/BLE_1_eventHandler.c **** #endif /* CYBLE_WPTS_CLIENT */
1035:Generated_Source\PSoC4/BLE_1_eventHandler.c **** #ifdef CYBLE_WSS_CLIENT
1036:Generated_Source\PSoC4/BLE_1_eventHandler.c ****     if((cyBle_eventHandlerFlag & CYBLE_CALLBACK) != 0u)
1037:Generated_Source\PSoC4/BLE_1_eventHandler.c ****     {
1038:Generated_Source\PSoC4/BLE_1_eventHandler.c ****         CyBle_WsscIndicationEventHandler(eventParam);
1039:Generated_Source\PSoC4/BLE_1_eventHandler.c ****     }
1040:Generated_Source\PSoC4/BLE_1_eventHandler.c **** #endif /* CYBLE_WSS_CLIENT */
1041:Generated_Source\PSoC4/BLE_1_eventHandler.c **** }
1042:Generated_Source\PSoC4/BLE_1_eventHandler.c **** 
1043:Generated_Source\PSoC4/BLE_1_eventHandler.c **** /******************************************************************************    
1044:Generated_Source\PSoC4/BLE_1_eventHandler.c **** * Function Name: CyBle_ReadResponseEventHandler
1045:Generated_Source\PSoC4/BLE_1_eventHandler.c **** ***************************************************************************//**
1046:Generated_Source\PSoC4/BLE_1_eventHandler.c **** * 
1047:Generated_Source\PSoC4/BLE_1_eventHandler.c **** *  Handles the Read Response event from BLE stack.
1048:Generated_Source\PSoC4/BLE_1_eventHandler.c **** * 
1049:Generated_Source\PSoC4/BLE_1_eventHandler.c **** *  \param eventParam: event parameter
1050:Generated_Source\PSoC4/BLE_1_eventHandler.c **** * 
1051:Generated_Source\PSoC4/BLE_1_eventHandler.c **** * \return
1052:Generated_Source\PSoC4/BLE_1_eventHandler.c **** *  None
1053:Generated_Source\PSoC4/BLE_1_eventHandler.c **** * 
1054:Generated_Source\PSoC4/BLE_1_eventHandler.c **** ******************************************************************************/
1055:Generated_Source\PSoC4/BLE_1_eventHandler.c **** static void CyBle_ReadResponseEventHandler(CYBLE_GATTC_READ_RSP_PARAM_T *eventParam)
1056:Generated_Source\PSoC4/BLE_1_eventHandler.c **** {
1057:Generated_Source\PSoC4/BLE_1_eventHandler.c **** #ifdef CYBLE_CUSTOM_CLIENT
ARM GAS  C:\Users\haras\AppData\Local\Temp\ccSR9wHM.s 			page 20


1058:Generated_Source\PSoC4/BLE_1_eventHandler.c ****     /* Read response with 128-bit included service uuid */
1059:Generated_Source\PSoC4/BLE_1_eventHandler.c ****     if((CyBle_GetClientState() == CYBLE_CLIENT_STATE_INCL_DISCOVERING) &&
1060:Generated_Source\PSoC4/BLE_1_eventHandler.c ****        (cyBle_discInclInfo.inclDefHandle != 0u))
1061:Generated_Source\PSoC4/BLE_1_eventHandler.c ****     {
1062:Generated_Source\PSoC4/BLE_1_eventHandler.c ****         CYBLE_DISC_SRVC128_INFO_T discServInfo;
1063:Generated_Source\PSoC4/BLE_1_eventHandler.c **** 
1064:Generated_Source\PSoC4/BLE_1_eventHandler.c ****         /* Store service range */
1065:Generated_Source\PSoC4/BLE_1_eventHandler.c ****         discServInfo.range = cyBle_discInclInfo.inclHandleRange;
1066:Generated_Source\PSoC4/BLE_1_eventHandler.c ****         (void)memcpy((void *) discServInfo.uuid.uuid128.value, (void *)eventParam->value.val, event
1067:Generated_Source\PSoC4/BLE_1_eventHandler.c ****         CyBle_CustomcDiscoverServiceEventHandler(&discServInfo);
1068:Generated_Source\PSoC4/BLE_1_eventHandler.c ****         
1069:Generated_Source\PSoC4/BLE_1_eventHandler.c ****         /* Re-initiate CyBle_GattcFindIncludedServices function, setting the start
1070:Generated_Source\PSoC4/BLE_1_eventHandler.c ****            handle to the attribute handle which is placed next to the one used in
1071:Generated_Source\PSoC4/BLE_1_eventHandler.c ****            the above step.
1072:Generated_Source\PSoC4/BLE_1_eventHandler.c ****         */
1073:Generated_Source\PSoC4/BLE_1_eventHandler.c ****         discServInfo.range.startHandle = cyBle_discInclInfo.inclDefHandle + 1u;
1074:Generated_Source\PSoC4/BLE_1_eventHandler.c ****         discServInfo.range.endHandle = cyBle_serverInfo[cyBle_disCount].range.endHandle;
1075:Generated_Source\PSoC4/BLE_1_eventHandler.c ****         if(discServInfo.range.startHandle <= discServInfo.range.endHandle)
1076:Generated_Source\PSoC4/BLE_1_eventHandler.c ****         {
1077:Generated_Source\PSoC4/BLE_1_eventHandler.c ****             if(CYBLE_ERROR_OK != CyBle_GattcFindIncludedServices(cyBle_connHandle, &discServInfo.ra
1078:Generated_Source\PSoC4/BLE_1_eventHandler.c ****             {
1079:Generated_Source\PSoC4/BLE_1_eventHandler.c ****                 CyBle_ApplCallback(CYBLE_EVT_GATTC_INCL_DISCOVERY_FAILED, NULL);
1080:Generated_Source\PSoC4/BLE_1_eventHandler.c ****                 cyBle_eventHandlerFlag &= (uint8)~CYBLE_AUTO_DISCOVERY;
1081:Generated_Source\PSoC4/BLE_1_eventHandler.c ****             }
1082:Generated_Source\PSoC4/BLE_1_eventHandler.c ****         }
1083:Generated_Source\PSoC4/BLE_1_eventHandler.c ****         else /* Continue discovery of the following service */
1084:Generated_Source\PSoC4/BLE_1_eventHandler.c ****         {
1085:Generated_Source\PSoC4/BLE_1_eventHandler.c ****             CyBle_NextInclDiscovery(CYBLE_DISCOVERY_CONTINUE);
1086:Generated_Source\PSoC4/BLE_1_eventHandler.c ****         }
1087:Generated_Source\PSoC4/BLE_1_eventHandler.c ****         
1088:Generated_Source\PSoC4/BLE_1_eventHandler.c ****         cyBle_eventHandlerFlag &= (uint8)~CYBLE_CALLBACK;
1089:Generated_Source\PSoC4/BLE_1_eventHandler.c ****     #ifdef CYBLE_CUSTOM_CLIENT
1090:Generated_Source\PSoC4/BLE_1_eventHandler.c ****         cyBle_discInclInfo.inclDefHandle = 0u;
1091:Generated_Source\PSoC4/BLE_1_eventHandler.c ****     #endif /* CYBLE_CUSTOM_CLIENT */
1092:Generated_Source\PSoC4/BLE_1_eventHandler.c ****     }
1093:Generated_Source\PSoC4/BLE_1_eventHandler.c **** #endif /* CYBLE_CUSTOM_CLIENT */
1094:Generated_Source\PSoC4/BLE_1_eventHandler.c **** #ifdef CYBLE_AIOS_CLIENT
1095:Generated_Source\PSoC4/BLE_1_eventHandler.c ****     if((cyBle_eventHandlerFlag & CYBLE_CALLBACK) != 0u)
1096:Generated_Source\PSoC4/BLE_1_eventHandler.c ****     {
1097:Generated_Source\PSoC4/BLE_1_eventHandler.c ****         CyBle_AioscReadResponseEventHandler(eventParam);
1098:Generated_Source\PSoC4/BLE_1_eventHandler.c ****     }
1099:Generated_Source\PSoC4/BLE_1_eventHandler.c **** #endif /* CYBLE_AIOS_CLIENT */
1100:Generated_Source\PSoC4/BLE_1_eventHandler.c **** #ifdef CYBLE_ANCS_CLIENT
1101:Generated_Source\PSoC4/BLE_1_eventHandler.c ****     if((cyBle_eventHandlerFlag & CYBLE_CALLBACK) != 0u)
1102:Generated_Source\PSoC4/BLE_1_eventHandler.c ****     {
1103:Generated_Source\PSoC4/BLE_1_eventHandler.c ****         CyBle_AncscReadResponseEventHandler(eventParam);
1104:Generated_Source\PSoC4/BLE_1_eventHandler.c ****     }
1105:Generated_Source\PSoC4/BLE_1_eventHandler.c **** #endif /* CYBLE_ANCS_CLIENT */
1106:Generated_Source\PSoC4/BLE_1_eventHandler.c **** #ifdef CYBLE_ANS_CLIENT
1107:Generated_Source\PSoC4/BLE_1_eventHandler.c ****     if((cyBle_eventHandlerFlag & CYBLE_CALLBACK) != 0u)
1108:Generated_Source\PSoC4/BLE_1_eventHandler.c ****     {
1109:Generated_Source\PSoC4/BLE_1_eventHandler.c ****         CyBle_AnscReadResponseEventHandler(eventParam);
1110:Generated_Source\PSoC4/BLE_1_eventHandler.c ****     }
1111:Generated_Source\PSoC4/BLE_1_eventHandler.c **** #endif /* CYBLE_ANS_CLIENT */
1112:Generated_Source\PSoC4/BLE_1_eventHandler.c **** #ifdef CYBLE_BAS_CLIENT
1113:Generated_Source\PSoC4/BLE_1_eventHandler.c ****     if((cyBle_eventHandlerFlag & CYBLE_CALLBACK) != 0u)
1114:Generated_Source\PSoC4/BLE_1_eventHandler.c ****     {
ARM GAS  C:\Users\haras\AppData\Local\Temp\ccSR9wHM.s 			page 21


1115:Generated_Source\PSoC4/BLE_1_eventHandler.c ****         CyBle_BascReadResponseEventHandler(eventParam);
1116:Generated_Source\PSoC4/BLE_1_eventHandler.c ****     }
1117:Generated_Source\PSoC4/BLE_1_eventHandler.c **** #endif /* CYBLE_BAS_CLIENT */
1118:Generated_Source\PSoC4/BLE_1_eventHandler.c **** #ifdef CYBLE_BLS_CLIENT
1119:Generated_Source\PSoC4/BLE_1_eventHandler.c ****     if((cyBle_eventHandlerFlag & CYBLE_CALLBACK) != 0u)
1120:Generated_Source\PSoC4/BLE_1_eventHandler.c ****     {
1121:Generated_Source\PSoC4/BLE_1_eventHandler.c ****         CyBle_BlscReadResponseEventHandler(eventParam);
1122:Generated_Source\PSoC4/BLE_1_eventHandler.c ****     }
1123:Generated_Source\PSoC4/BLE_1_eventHandler.c **** #endif /* CYBLE_BLS_CLIENT */
1124:Generated_Source\PSoC4/BLE_1_eventHandler.c **** #ifdef CYBLE_BCS_CLIENT
1125:Generated_Source\PSoC4/BLE_1_eventHandler.c ****     if((cyBle_eventHandlerFlag & CYBLE_CALLBACK) != 0u)
1126:Generated_Source\PSoC4/BLE_1_eventHandler.c ****     {
1127:Generated_Source\PSoC4/BLE_1_eventHandler.c ****         CyBle_BcscReadResponseEventHandler(eventParam);
1128:Generated_Source\PSoC4/BLE_1_eventHandler.c ****     }
1129:Generated_Source\PSoC4/BLE_1_eventHandler.c **** #endif /* CYBLE_BCS_CLIENT */
1130:Generated_Source\PSoC4/BLE_1_eventHandler.c **** #ifdef CYBLE_BMS_CLIENT
1131:Generated_Source\PSoC4/BLE_1_eventHandler.c ****     if((cyBle_eventHandlerFlag & CYBLE_CALLBACK) != 0u)
1132:Generated_Source\PSoC4/BLE_1_eventHandler.c ****     {
1133:Generated_Source\PSoC4/BLE_1_eventHandler.c ****         CyBle_BmscReadResponseEventHandler(eventParam);
1134:Generated_Source\PSoC4/BLE_1_eventHandler.c ****     }
1135:Generated_Source\PSoC4/BLE_1_eventHandler.c **** #endif /* CYBLE_BMS_CLIENT */
1136:Generated_Source\PSoC4/BLE_1_eventHandler.c **** #ifdef CYBLE_CGMS_CLIENT
1137:Generated_Source\PSoC4/BLE_1_eventHandler.c ****     if((cyBle_eventHandlerFlag & CYBLE_CALLBACK) != 0u)
1138:Generated_Source\PSoC4/BLE_1_eventHandler.c ****     {
1139:Generated_Source\PSoC4/BLE_1_eventHandler.c ****         CyBle_CgmscReadResponseEventHandler(eventParam);
1140:Generated_Source\PSoC4/BLE_1_eventHandler.c ****     }
1141:Generated_Source\PSoC4/BLE_1_eventHandler.c **** #endif /* CYBLE_CGMS_CLIENT */
1142:Generated_Source\PSoC4/BLE_1_eventHandler.c **** #ifdef CYBLE_CPS_CLIENT
1143:Generated_Source\PSoC4/BLE_1_eventHandler.c ****     if((cyBle_eventHandlerFlag & CYBLE_CALLBACK) != 0u)
1144:Generated_Source\PSoC4/BLE_1_eventHandler.c ****     {
1145:Generated_Source\PSoC4/BLE_1_eventHandler.c ****         CyBle_CpscReadResponseEventHandler(eventParam);
1146:Generated_Source\PSoC4/BLE_1_eventHandler.c ****     }
1147:Generated_Source\PSoC4/BLE_1_eventHandler.c **** #endif /* CYBLE_CPS_CLIENT */
1148:Generated_Source\PSoC4/BLE_1_eventHandler.c **** #ifdef CYBLE_CSCS_CLIENT
1149:Generated_Source\PSoC4/BLE_1_eventHandler.c ****     if((cyBle_eventHandlerFlag & CYBLE_CALLBACK) != 0u)
1150:Generated_Source\PSoC4/BLE_1_eventHandler.c ****     {
1151:Generated_Source\PSoC4/BLE_1_eventHandler.c ****         CyBle_CscscReadResponseEventHandler(eventParam);
1152:Generated_Source\PSoC4/BLE_1_eventHandler.c ****     }
1153:Generated_Source\PSoC4/BLE_1_eventHandler.c **** #endif /* CYBLE_CSCS_CLIENT */
1154:Generated_Source\PSoC4/BLE_1_eventHandler.c **** #ifdef CYBLE_CTS_CLIENT
1155:Generated_Source\PSoC4/BLE_1_eventHandler.c ****     if((cyBle_eventHandlerFlag & CYBLE_CALLBACK) != 0u)
1156:Generated_Source\PSoC4/BLE_1_eventHandler.c ****     {
1157:Generated_Source\PSoC4/BLE_1_eventHandler.c ****         CyBle_CtscReadResponseEventHandler(eventParam);
1158:Generated_Source\PSoC4/BLE_1_eventHandler.c ****     }
1159:Generated_Source\PSoC4/BLE_1_eventHandler.c **** #endif /* CYBLE_BAS_CLIENT */
1160:Generated_Source\PSoC4/BLE_1_eventHandler.c **** #ifdef CYBLE_DIS_CLIENT
1161:Generated_Source\PSoC4/BLE_1_eventHandler.c ****     if((cyBle_eventHandlerFlag & CYBLE_CALLBACK) != 0u)
1162:Generated_Source\PSoC4/BLE_1_eventHandler.c ****     {
1163:Generated_Source\PSoC4/BLE_1_eventHandler.c ****         CyBle_DiscReadResponseEventHandler(eventParam);
1164:Generated_Source\PSoC4/BLE_1_eventHandler.c ****     }
1165:Generated_Source\PSoC4/BLE_1_eventHandler.c **** #endif /* CYBLE_DIS_CLIENT */
1166:Generated_Source\PSoC4/BLE_1_eventHandler.c **** #ifdef CYBLE_ESS_CLIENT
1167:Generated_Source\PSoC4/BLE_1_eventHandler.c ****     if((cyBle_eventHandlerFlag & CYBLE_CALLBACK) != 0u)
1168:Generated_Source\PSoC4/BLE_1_eventHandler.c ****     {
1169:Generated_Source\PSoC4/BLE_1_eventHandler.c ****         CyBle_EsscReadResponseEventHandler(eventParam);
1170:Generated_Source\PSoC4/BLE_1_eventHandler.c ****     }
1171:Generated_Source\PSoC4/BLE_1_eventHandler.c **** #endif /* CYBLE_ESS_CLIENT */
ARM GAS  C:\Users\haras\AppData\Local\Temp\ccSR9wHM.s 			page 22


1172:Generated_Source\PSoC4/BLE_1_eventHandler.c **** #ifdef CYBLE_GLS_CLIENT
1173:Generated_Source\PSoC4/BLE_1_eventHandler.c ****     if((cyBle_eventHandlerFlag & CYBLE_CALLBACK) != 0u)
1174:Generated_Source\PSoC4/BLE_1_eventHandler.c ****     {
1175:Generated_Source\PSoC4/BLE_1_eventHandler.c ****         CyBle_GlscReadResponseEventHandler(eventParam);
1176:Generated_Source\PSoC4/BLE_1_eventHandler.c ****     }
1177:Generated_Source\PSoC4/BLE_1_eventHandler.c **** #endif /* CYBLE_GLS_CLIENT */
1178:Generated_Source\PSoC4/BLE_1_eventHandler.c **** #ifdef CYBLE_HIDS_CLIENT
1179:Generated_Source\PSoC4/BLE_1_eventHandler.c ****     if((cyBle_eventHandlerFlag & CYBLE_CALLBACK) != 0u)
1180:Generated_Source\PSoC4/BLE_1_eventHandler.c ****     {
1181:Generated_Source\PSoC4/BLE_1_eventHandler.c ****         CyBle_HidscReadResponseEventHandler(eventParam);
1182:Generated_Source\PSoC4/BLE_1_eventHandler.c ****     }
1183:Generated_Source\PSoC4/BLE_1_eventHandler.c **** #endif /* CYBLE_HIDS_CLIENT */
1184:Generated_Source\PSoC4/BLE_1_eventHandler.c **** #ifdef CYBLE_HPS_CLIENT
1185:Generated_Source\PSoC4/BLE_1_eventHandler.c ****     if((cyBle_eventHandlerFlag & CYBLE_CALLBACK) != 0u)
1186:Generated_Source\PSoC4/BLE_1_eventHandler.c ****     {
1187:Generated_Source\PSoC4/BLE_1_eventHandler.c ****         CyBle_HpscReadResponseEventHandler(eventParam);
1188:Generated_Source\PSoC4/BLE_1_eventHandler.c ****     }
1189:Generated_Source\PSoC4/BLE_1_eventHandler.c **** #endif /* CYBLE_HPS_CLIENT */
1190:Generated_Source\PSoC4/BLE_1_eventHandler.c **** #ifdef CYBLE_HRS_CLIENT
1191:Generated_Source\PSoC4/BLE_1_eventHandler.c ****     if((cyBle_eventHandlerFlag & CYBLE_CALLBACK) != 0u)
1192:Generated_Source\PSoC4/BLE_1_eventHandler.c ****     {
1193:Generated_Source\PSoC4/BLE_1_eventHandler.c ****         CyBle_HrscReadResponseEventHandler(eventParam);
1194:Generated_Source\PSoC4/BLE_1_eventHandler.c ****     }
1195:Generated_Source\PSoC4/BLE_1_eventHandler.c **** #endif /* CYBLE_HRS_CLIENT */
1196:Generated_Source\PSoC4/BLE_1_eventHandler.c **** #ifdef CYBLE_HTS_CLIENT
1197:Generated_Source\PSoC4/BLE_1_eventHandler.c ****     if((cyBle_eventHandlerFlag & CYBLE_CALLBACK) != 0u)
1198:Generated_Source\PSoC4/BLE_1_eventHandler.c ****     {
1199:Generated_Source\PSoC4/BLE_1_eventHandler.c ****         CyBle_HtscReadResponseEventHandler(eventParam);
1200:Generated_Source\PSoC4/BLE_1_eventHandler.c ****     }
1201:Generated_Source\PSoC4/BLE_1_eventHandler.c **** #endif /* CYBLE_HTS_CLIENT */
1202:Generated_Source\PSoC4/BLE_1_eventHandler.c **** #ifdef CYBLE_IPS_CLIENT
1203:Generated_Source\PSoC4/BLE_1_eventHandler.c ****     if((cyBle_eventHandlerFlag & CYBLE_CALLBACK) != 0u)
1204:Generated_Source\PSoC4/BLE_1_eventHandler.c ****     {
1205:Generated_Source\PSoC4/BLE_1_eventHandler.c ****         CyBle_IpscReadResponseEventHandler(eventParam);
1206:Generated_Source\PSoC4/BLE_1_eventHandler.c ****     }
1207:Generated_Source\PSoC4/BLE_1_eventHandler.c **** #endif /* CYBLE_IPS_CLIENT */
1208:Generated_Source\PSoC4/BLE_1_eventHandler.c **** #ifdef CYBLE_LLS_CLIENT
1209:Generated_Source\PSoC4/BLE_1_eventHandler.c ****     if((cyBle_eventHandlerFlag & CYBLE_CALLBACK) != 0u)
1210:Generated_Source\PSoC4/BLE_1_eventHandler.c ****     {
1211:Generated_Source\PSoC4/BLE_1_eventHandler.c ****         CyBle_LlscReadResponseEventHandler(eventParam);
1212:Generated_Source\PSoC4/BLE_1_eventHandler.c ****     }
1213:Generated_Source\PSoC4/BLE_1_eventHandler.c **** #endif /* CYBLE_LLS_CLIENT */
1214:Generated_Source\PSoC4/BLE_1_eventHandler.c **** #ifdef CYBLE_LNS_CLIENT
1215:Generated_Source\PSoC4/BLE_1_eventHandler.c ****     if((cyBle_eventHandlerFlag & CYBLE_CALLBACK) != 0u)
1216:Generated_Source\PSoC4/BLE_1_eventHandler.c ****     {
1217:Generated_Source\PSoC4/BLE_1_eventHandler.c ****         CyBle_LnscReadResponseEventHandler(eventParam);
1218:Generated_Source\PSoC4/BLE_1_eventHandler.c ****     }
1219:Generated_Source\PSoC4/BLE_1_eventHandler.c **** #endif /* CYBLE_LNS_CLIENT */
1220:Generated_Source\PSoC4/BLE_1_eventHandler.c **** #ifdef CYBLE_NDCS_CLIENT
1221:Generated_Source\PSoC4/BLE_1_eventHandler.c ****     if((cyBle_eventHandlerFlag & CYBLE_CALLBACK) != 0u)
1222:Generated_Source\PSoC4/BLE_1_eventHandler.c ****     {
1223:Generated_Source\PSoC4/BLE_1_eventHandler.c ****         CyBle_NdcscReadResponseEventHandler(eventParam);
1224:Generated_Source\PSoC4/BLE_1_eventHandler.c ****     }
1225:Generated_Source\PSoC4/BLE_1_eventHandler.c **** #endif /* CYBLE_NDCS_CLIENT */
1226:Generated_Source\PSoC4/BLE_1_eventHandler.c **** #ifdef CYBLE_PASS_CLIENT
1227:Generated_Source\PSoC4/BLE_1_eventHandler.c ****     if((cyBle_eventHandlerFlag & CYBLE_CALLBACK) != 0u)
1228:Generated_Source\PSoC4/BLE_1_eventHandler.c ****     {
ARM GAS  C:\Users\haras\AppData\Local\Temp\ccSR9wHM.s 			page 23


1229:Generated_Source\PSoC4/BLE_1_eventHandler.c ****         CyBle_PasscReadResponseEventHandler(eventParam);
1230:Generated_Source\PSoC4/BLE_1_eventHandler.c ****     }
1231:Generated_Source\PSoC4/BLE_1_eventHandler.c **** #endif /* CYBLE_PASS_CLIENT */
1232:Generated_Source\PSoC4/BLE_1_eventHandler.c **** #ifdef CYBLE_PLXS_CLIENT
1233:Generated_Source\PSoC4/BLE_1_eventHandler.c ****     if((cyBle_eventHandlerFlag & CYBLE_CALLBACK) != 0u)
1234:Generated_Source\PSoC4/BLE_1_eventHandler.c ****     {
1235:Generated_Source\PSoC4/BLE_1_eventHandler.c ****         CyBle_PlxscReadResponseEventHandler(eventParam);
1236:Generated_Source\PSoC4/BLE_1_eventHandler.c ****     }
1237:Generated_Source\PSoC4/BLE_1_eventHandler.c **** #endif /* CYBLE_PLXS_CLIENT */
1238:Generated_Source\PSoC4/BLE_1_eventHandler.c **** #ifdef CYBLE_RSCS_CLIENT
1239:Generated_Source\PSoC4/BLE_1_eventHandler.c ****     if((cyBle_eventHandlerFlag & CYBLE_CALLBACK) != 0u)
1240:Generated_Source\PSoC4/BLE_1_eventHandler.c ****     {
1241:Generated_Source\PSoC4/BLE_1_eventHandler.c ****         CyBle_RscscReadResponseEventHandler(eventParam);
1242:Generated_Source\PSoC4/BLE_1_eventHandler.c ****     }
1243:Generated_Source\PSoC4/BLE_1_eventHandler.c **** #endif /* CYBLE_RSCS_CLIENT */
1244:Generated_Source\PSoC4/BLE_1_eventHandler.c **** #ifdef CYBLE_RTUS_CLIENT
1245:Generated_Source\PSoC4/BLE_1_eventHandler.c ****     if((cyBle_eventHandlerFlag & CYBLE_CALLBACK) != 0u)
1246:Generated_Source\PSoC4/BLE_1_eventHandler.c ****     {
1247:Generated_Source\PSoC4/BLE_1_eventHandler.c ****         CyBle_RtuscReadResponseEventHandler(eventParam);
1248:Generated_Source\PSoC4/BLE_1_eventHandler.c ****     }
1249:Generated_Source\PSoC4/BLE_1_eventHandler.c **** #endif /* CYBLE_RTUS_CLIENT */
1250:Generated_Source\PSoC4/BLE_1_eventHandler.c **** #ifdef CYBLE_SCPS_CLIENT
1251:Generated_Source\PSoC4/BLE_1_eventHandler.c ****     if((cyBle_eventHandlerFlag & CYBLE_CALLBACK) != 0u)
1252:Generated_Source\PSoC4/BLE_1_eventHandler.c ****     {
1253:Generated_Source\PSoC4/BLE_1_eventHandler.c ****         CyBle_ScpscReadResponseEventHandler(eventParam);
1254:Generated_Source\PSoC4/BLE_1_eventHandler.c ****     }
1255:Generated_Source\PSoC4/BLE_1_eventHandler.c **** #endif /* CYBLE_SCPS_CLIENT */
1256:Generated_Source\PSoC4/BLE_1_eventHandler.c **** #ifdef CYBLE_TPS_CLIENT
1257:Generated_Source\PSoC4/BLE_1_eventHandler.c ****     if((cyBle_eventHandlerFlag & CYBLE_CALLBACK) != 0u)
1258:Generated_Source\PSoC4/BLE_1_eventHandler.c ****     {
1259:Generated_Source\PSoC4/BLE_1_eventHandler.c ****         CyBle_TpscReadResponseEventHandler(eventParam);
1260:Generated_Source\PSoC4/BLE_1_eventHandler.c ****     }
1261:Generated_Source\PSoC4/BLE_1_eventHandler.c **** #endif /* CYBLE_TPS_CLIENT */
1262:Generated_Source\PSoC4/BLE_1_eventHandler.c **** #ifdef CYBLE_UDS_CLIENT
1263:Generated_Source\PSoC4/BLE_1_eventHandler.c ****     if((cyBle_eventHandlerFlag & CYBLE_CALLBACK) != 0u)
1264:Generated_Source\PSoC4/BLE_1_eventHandler.c ****     {
1265:Generated_Source\PSoC4/BLE_1_eventHandler.c ****         CyBle_UdscReadResponseEventHandler(eventParam);
1266:Generated_Source\PSoC4/BLE_1_eventHandler.c ****     }
1267:Generated_Source\PSoC4/BLE_1_eventHandler.c **** #endif /* CYBLE_UDS_CLIENT */
1268:Generated_Source\PSoC4/BLE_1_eventHandler.c **** #ifdef CYBLE_WPTS_CLIENT
1269:Generated_Source\PSoC4/BLE_1_eventHandler.c ****     if((cyBle_eventHandlerFlag & CYBLE_CALLBACK) != 0u)
1270:Generated_Source\PSoC4/BLE_1_eventHandler.c ****     {
1271:Generated_Source\PSoC4/BLE_1_eventHandler.c ****         CyBle_WptscReadResponseEventHandler(eventParam);
1272:Generated_Source\PSoC4/BLE_1_eventHandler.c ****     }
1273:Generated_Source\PSoC4/BLE_1_eventHandler.c **** #endif /* CYBLE_WPTS_CLIENT */
1274:Generated_Source\PSoC4/BLE_1_eventHandler.c **** #ifdef CYBLE_WSS_CLIENT
1275:Generated_Source\PSoC4/BLE_1_eventHandler.c ****     if((cyBle_eventHandlerFlag & CYBLE_CALLBACK) != 0u)
1276:Generated_Source\PSoC4/BLE_1_eventHandler.c ****     {
1277:Generated_Source\PSoC4/BLE_1_eventHandler.c ****         CyBle_WsscReadResponseEventHandler(eventParam);
1278:Generated_Source\PSoC4/BLE_1_eventHandler.c ****     }
1279:Generated_Source\PSoC4/BLE_1_eventHandler.c **** #endif /* CYBLE_WSS_CLIENT */
1280:Generated_Source\PSoC4/BLE_1_eventHandler.c **** }
1281:Generated_Source\PSoC4/BLE_1_eventHandler.c **** 
1282:Generated_Source\PSoC4/BLE_1_eventHandler.c **** /******************************************************************************    
1283:Generated_Source\PSoC4/BLE_1_eventHandler.c **** * Function Name: CyBle_ReadMultipleResponseEventHandler
1284:Generated_Source\PSoC4/BLE_1_eventHandler.c **** ***************************************************************************//**
1285:Generated_Source\PSoC4/BLE_1_eventHandler.c **** * 
ARM GAS  C:\Users\haras\AppData\Local\Temp\ccSR9wHM.s 			page 24


1286:Generated_Source\PSoC4/BLE_1_eventHandler.c **** *  Handles the Read Multiple Response event from BLE stack.
1287:Generated_Source\PSoC4/BLE_1_eventHandler.c **** * 
1288:Generated_Source\PSoC4/BLE_1_eventHandler.c **** *  \param eventParam: event parameter
1289:Generated_Source\PSoC4/BLE_1_eventHandler.c **** * 
1290:Generated_Source\PSoC4/BLE_1_eventHandler.c **** * \return
1291:Generated_Source\PSoC4/BLE_1_eventHandler.c **** *  None
1292:Generated_Source\PSoC4/BLE_1_eventHandler.c **** * 
1293:Generated_Source\PSoC4/BLE_1_eventHandler.c **** ******************************************************************************/
1294:Generated_Source\PSoC4/BLE_1_eventHandler.c **** static void CyBle_ReadMultipleResponseEventHandler(CYBLE_GATTC_READ_RSP_PARAM_T *eventParam)
1295:Generated_Source\PSoC4/BLE_1_eventHandler.c **** {
1296:Generated_Source\PSoC4/BLE_1_eventHandler.c **** #ifdef CYBLE_CUSTOM_CLIENT
1297:Generated_Source\PSoC4/BLE_1_eventHandler.c ****     /* Read response with 128-bit included service uuid */
1298:Generated_Source\PSoC4/BLE_1_eventHandler.c ****     if((CYBLE_CLIENT_STATE_INCL_DISCOVERING == CyBle_GetClientState()) &&
1299:Generated_Source\PSoC4/BLE_1_eventHandler.c ****        (cyBle_discInclInfo.inclDefHandle != 0u))
1300:Generated_Source\PSoC4/BLE_1_eventHandler.c ****     {
1301:Generated_Source\PSoC4/BLE_1_eventHandler.c ****         CYBLE_DISC_SRVC128_INFO_T discServInfo;
1302:Generated_Source\PSoC4/BLE_1_eventHandler.c **** 
1303:Generated_Source\PSoC4/BLE_1_eventHandler.c ****         /* Store service range */
1304:Generated_Source\PSoC4/BLE_1_eventHandler.c ****         discServInfo.range = cyBle_discInclInfo.inclHandleRange;
1305:Generated_Source\PSoC4/BLE_1_eventHandler.c ****         (void)memcpy((void *) discServInfo.uuid.uuid128.value, (void *)eventParam->value.val, event
1306:Generated_Source\PSoC4/BLE_1_eventHandler.c ****         CyBle_CustomcDiscoverServiceEventHandler(&discServInfo);
1307:Generated_Source\PSoC4/BLE_1_eventHandler.c ****         
1308:Generated_Source\PSoC4/BLE_1_eventHandler.c ****         /* Re-initiate CyBle_GattcFindIncludedServices function, setting the start
1309:Generated_Source\PSoC4/BLE_1_eventHandler.c ****            handle to the attribute handle which is placed next to the one used in
1310:Generated_Source\PSoC4/BLE_1_eventHandler.c ****            the above step.
1311:Generated_Source\PSoC4/BLE_1_eventHandler.c ****         */
1312:Generated_Source\PSoC4/BLE_1_eventHandler.c ****         discServInfo.range.startHandle = cyBle_discInclInfo.inclDefHandle + 1;
1313:Generated_Source\PSoC4/BLE_1_eventHandler.c ****         discServInfo.range.endHandle = cyBle_serverInfo[cyBle_disCount].range.endHandle;
1314:Generated_Source\PSoC4/BLE_1_eventHandler.c ****         if(discServInfo.range.startHandle <= discServInfo.range.endHandle)
1315:Generated_Source\PSoC4/BLE_1_eventHandler.c ****         {
1316:Generated_Source\PSoC4/BLE_1_eventHandler.c ****             if(CYBLE_ERROR_OK != CyBle_GattcFindIncludedServices(cyBle_connHandle, &discServInfo.ra
1317:Generated_Source\PSoC4/BLE_1_eventHandler.c ****             {
1318:Generated_Source\PSoC4/BLE_1_eventHandler.c ****                 CyBle_ApplCallback(CYBLE_EVT_GATTC_INCL_DISCOVERY_FAILED, NULL);
1319:Generated_Source\PSoC4/BLE_1_eventHandler.c ****                 cyBle_eventHandlerFlag &= (uint8)~CYBLE_AUTO_DISCOVERY;
1320:Generated_Source\PSoC4/BLE_1_eventHandler.c ****             }
1321:Generated_Source\PSoC4/BLE_1_eventHandler.c ****         }
1322:Generated_Source\PSoC4/BLE_1_eventHandler.c ****         else /* Continue discovery of the following service */
1323:Generated_Source\PSoC4/BLE_1_eventHandler.c ****         {
1324:Generated_Source\PSoC4/BLE_1_eventHandler.c ****             CyBle_NextInclDiscovery(CYBLE_DISCOVERY_CONTINUE);
1325:Generated_Source\PSoC4/BLE_1_eventHandler.c ****         }
1326:Generated_Source\PSoC4/BLE_1_eventHandler.c ****         
1327:Generated_Source\PSoC4/BLE_1_eventHandler.c ****         cyBle_eventHandlerFlag &= (uint8)~CYBLE_CALLBACK;
1328:Generated_Source\PSoC4/BLE_1_eventHandler.c ****     #ifdef CYBLE_CUSTOM_CLIENT
1329:Generated_Source\PSoC4/BLE_1_eventHandler.c ****         cyBle_discInclInfo.inclDefHandle = 0u;
1330:Generated_Source\PSoC4/BLE_1_eventHandler.c ****     #endif /* CYBLE_CUSTOM_CLIENT */
1331:Generated_Source\PSoC4/BLE_1_eventHandler.c ****     }
1332:Generated_Source\PSoC4/BLE_1_eventHandler.c **** #endif /* CYBLE_CUSTOM_CLIENT */
1333:Generated_Source\PSoC4/BLE_1_eventHandler.c **** #ifdef CYBLE_IPS_CLIENT
1334:Generated_Source\PSoC4/BLE_1_eventHandler.c ****     if((cyBle_eventHandlerFlag & CYBLE_CALLBACK) != 0u)
1335:Generated_Source\PSoC4/BLE_1_eventHandler.c ****     {
1336:Generated_Source\PSoC4/BLE_1_eventHandler.c ****         CyBle_IpscReadMultipleResponseEventHandler(eventParam);
1337:Generated_Source\PSoC4/BLE_1_eventHandler.c ****     }
1338:Generated_Source\PSoC4/BLE_1_eventHandler.c **** #endif /* CYBLE_IPS_CLIENT */
1339:Generated_Source\PSoC4/BLE_1_eventHandler.c ****     /* MISRA 16.7 violation workaround */
1340:Generated_Source\PSoC4/BLE_1_eventHandler.c ****     eventParam = eventParam;
1341:Generated_Source\PSoC4/BLE_1_eventHandler.c **** }
1342:Generated_Source\PSoC4/BLE_1_eventHandler.c **** #endif /* CYBLE_GATT_ROLE_CLIENT */
ARM GAS  C:\Users\haras\AppData\Local\Temp\ccSR9wHM.s 			page 25


1343:Generated_Source\PSoC4/BLE_1_eventHandler.c **** 
1344:Generated_Source\PSoC4/BLE_1_eventHandler.c **** 
1345:Generated_Source\PSoC4/BLE_1_eventHandler.c **** /****************************************************************************** 
1346:Generated_Source\PSoC4/BLE_1_eventHandler.c **** * Function Name: CyBle_DisconnectEventHandler
1347:Generated_Source\PSoC4/BLE_1_eventHandler.c **** ***************************************************************************//**
1348:Generated_Source\PSoC4/BLE_1_eventHandler.c **** * 
1349:Generated_Source\PSoC4/BLE_1_eventHandler.c **** *  Handles the GATT Disconnection event from the BLE stack.
1350:Generated_Source\PSoC4/BLE_1_eventHandler.c **** * 
1351:Generated_Source\PSoC4/BLE_1_eventHandler.c **** * \return
1352:Generated_Source\PSoC4/BLE_1_eventHandler.c **** *  None
1353:Generated_Source\PSoC4/BLE_1_eventHandler.c **** * 
1354:Generated_Source\PSoC4/BLE_1_eventHandler.c **** ******************************************************************************/
1355:Generated_Source\PSoC4/BLE_1_eventHandler.c **** static void CyBle_GattDisconnectEventHandler(void)
1356:Generated_Source\PSoC4/BLE_1_eventHandler.c **** {
  27              		.loc 1 1356 0
  28              		.cfi_startproc
  29              		@ args = 0, pretend = 0, frame = 0
  30              		@ frame_needed = 0, uses_anonymous_args = 0
  31              		@ link register save eliminated.
1357:Generated_Source\PSoC4/BLE_1_eventHandler.c ****     cyBle_connHandle.attId = 0u;
  32              		.loc 1 1357 0
  33 0000 024B     		ldr	r3, .L2
  34 0002 0022     		movs	r2, #0
  35 0004 5A70     		strb	r2, [r3, #1]
1358:Generated_Source\PSoC4/BLE_1_eventHandler.c ****     cyBle_connHandle.bdHandle = 0u;
  36              		.loc 1 1358 0
  37 0006 1A70     		strb	r2, [r3]
1359:Generated_Source\PSoC4/BLE_1_eventHandler.c ****     
1360:Generated_Source\PSoC4/BLE_1_eventHandler.c ****     #if (CYBLE_GATT_ROLE_CLIENT)
1361:Generated_Source\PSoC4/BLE_1_eventHandler.c ****         if(CyBle_GetClientState() == CYBLE_CLIENT_STATE_DISCOVERED)
1362:Generated_Source\PSoC4/BLE_1_eventHandler.c ****         {
1363:Generated_Source\PSoC4/BLE_1_eventHandler.c ****             CyBle_SetClientState(CYBLE_CLIENT_STATE_DISCONNECTED_DISCOVERED);
1364:Generated_Source\PSoC4/BLE_1_eventHandler.c ****         }
1365:Generated_Source\PSoC4/BLE_1_eventHandler.c ****         else
1366:Generated_Source\PSoC4/BLE_1_eventHandler.c ****         {
1367:Generated_Source\PSoC4/BLE_1_eventHandler.c ****             CyBle_SetClientState(CYBLE_CLIENT_STATE_DISCONNECTED);
1368:Generated_Source\PSoC4/BLE_1_eventHandler.c ****         }
1369:Generated_Source\PSoC4/BLE_1_eventHandler.c ****     #endif /* CYBLE_GATT_ROLE_CLIENT */
1370:Generated_Source\PSoC4/BLE_1_eventHandler.c ****         
1371:Generated_Source\PSoC4/BLE_1_eventHandler.c ****     #ifdef CYBLE_CPS_SERVER
1372:Generated_Source\PSoC4/BLE_1_eventHandler.c ****         #if CYBLE_GAP_ROLE_BROADCASTER
1373:Generated_Source\PSoC4/BLE_1_eventHandler.c ****             CyBle_CpssDisconnectEventHandler();
1374:Generated_Source\PSoC4/BLE_1_eventHandler.c ****         #endif /* CYBLE_GAP_ROLE_BROADCASTER */
1375:Generated_Source\PSoC4/BLE_1_eventHandler.c ****     #endif /* CYBLE_CPS_SERVER */
1376:Generated_Source\PSoC4/BLE_1_eventHandler.c **** 
1377:Generated_Source\PSoC4/BLE_1_eventHandler.c ****     #ifdef CYBLE_CPS_CLIENT
1378:Generated_Source\PSoC4/BLE_1_eventHandler.c ****         CyBle_CpscDisconnectEventHandler();
1379:Generated_Source\PSoC4/BLE_1_eventHandler.c ****     #endif /* CYBLE_CPS_CLIENT */
1380:Generated_Source\PSoC4/BLE_1_eventHandler.c **** 
1381:Generated_Source\PSoC4/BLE_1_eventHandler.c ****     #ifdef CYBLE_IAS_SERVER
1382:Generated_Source\PSoC4/BLE_1_eventHandler.c ****         CyBle_IassDisconnectEventHandler();
1383:Generated_Source\PSoC4/BLE_1_eventHandler.c ****     #endif /* CYBLE_IAS_SERVER */
1384:Generated_Source\PSoC4/BLE_1_eventHandler.c ****     
1385:Generated_Source\PSoC4/BLE_1_eventHandler.c ****     #ifdef CYBLE_GLS_SERVER
1386:Generated_Source\PSoC4/BLE_1_eventHandler.c ****         CyBle_GlsInit();
1387:Generated_Source\PSoC4/BLE_1_eventHandler.c ****     #endif /* CYBLE_GLS_SERVER */
1388:Generated_Source\PSoC4/BLE_1_eventHandler.c ****     
ARM GAS  C:\Users\haras\AppData\Local\Temp\ccSR9wHM.s 			page 26


1389:Generated_Source\PSoC4/BLE_1_eventHandler.c ****     #ifdef CYBLE_LNS_SERVER
1390:Generated_Source\PSoC4/BLE_1_eventHandler.c ****         CyBle_LnsInit();
1391:Generated_Source\PSoC4/BLE_1_eventHandler.c ****     #endif /* CYBLE_LNS_SERVER */
1392:Generated_Source\PSoC4/BLE_1_eventHandler.c ****     
1393:Generated_Source\PSoC4/BLE_1_eventHandler.c ****     #ifdef CYBLE_UDS_SERVER
1394:Generated_Source\PSoC4/BLE_1_eventHandler.c ****         CyBle_UdsInit();
1395:Generated_Source\PSoC4/BLE_1_eventHandler.c ****     #endif /* CYBLE_UDS_SERVER */
1396:Generated_Source\PSoC4/BLE_1_eventHandler.c **** }
  38              		.loc 1 1396 0
  39              		@ sp needed
  40 0008 7047     		bx	lr
  41              	.L3:
  42 000a C046     		.align	2
  43              	.L2:
  44 000c 00000000 		.word	cyBle_connHandle
  45              		.cfi_endproc
  46              	.LFE4:
  47              		.size	CyBle_GattDisconnectEventHandler, .-CyBle_GattDisconnectEventHandler
  48              		.section	.text.CyBle_TimeOutEventHandler,"ax",%progbits
  49              		.align	2
  50              		.code	16
  51              		.thumb_func
  52              		.type	CyBle_TimeOutEventHandler, %function
  53              	CyBle_TimeOutEventHandler:
  54              	.LFB5:
1397:Generated_Source\PSoC4/BLE_1_eventHandler.c **** 
1398:Generated_Source\PSoC4/BLE_1_eventHandler.c **** 
1399:Generated_Source\PSoC4/BLE_1_eventHandler.c **** /****************************************************************************** 
1400:Generated_Source\PSoC4/BLE_1_eventHandler.c **** * Function Name: CyBle_TimeOutEventHandler
1401:Generated_Source\PSoC4/BLE_1_eventHandler.c **** ***************************************************************************//**
1402:Generated_Source\PSoC4/BLE_1_eventHandler.c **** * 
1403:Generated_Source\PSoC4/BLE_1_eventHandler.c **** *  Handles the CYBLE_EVT_TIMEOUT event from the BLE stack.
1404:Generated_Source\PSoC4/BLE_1_eventHandler.c **** * 
1405:Generated_Source\PSoC4/BLE_1_eventHandler.c **** *  \param eventParam: The pointer to a structure of type CYBLE_TO_REASON_CODE_T.
1406:Generated_Source\PSoC4/BLE_1_eventHandler.c **** * 
1407:Generated_Source\PSoC4/BLE_1_eventHandler.c **** * \return
1408:Generated_Source\PSoC4/BLE_1_eventHandler.c **** *  None
1409:Generated_Source\PSoC4/BLE_1_eventHandler.c **** * 
1410:Generated_Source\PSoC4/BLE_1_eventHandler.c **** ******************************************************************************/
1411:Generated_Source\PSoC4/BLE_1_eventHandler.c **** static void CyBle_TimeOutEventHandler(const CYBLE_TO_REASON_CODE_T *eventParam)
1412:Generated_Source\PSoC4/BLE_1_eventHandler.c **** {
  55              		.loc 1 1412 0
  56              		.cfi_startproc
  57              		@ args = 0, pretend = 0, frame = 0
  58              		@ frame_needed = 0, uses_anonymous_args = 0
  59              	.LVL0:
  60 0000 10B5     		push	{r4, lr}
  61              		.cfi_def_cfa_offset 8
  62              		.cfi_offset 4, -8
  63              		.cfi_offset 14, -4
1413:Generated_Source\PSoC4/BLE_1_eventHandler.c ****     if(*eventParam == CYBLE_GATT_RSP_TO)
1414:Generated_Source\PSoC4/BLE_1_eventHandler.c ****     {
1415:Generated_Source\PSoC4/BLE_1_eventHandler.c ****     #if (CYBLE_GATT_ROLE_CLIENT)
1416:Generated_Source\PSoC4/BLE_1_eventHandler.c ****         if((cyBle_eventHandlerFlag & CYBLE_AUTO_DISCOVERY) != 0u)
1417:Generated_Source\PSoC4/BLE_1_eventHandler.c ****         {
1418:Generated_Source\PSoC4/BLE_1_eventHandler.c ****             switch(CyBle_GetClientState())
1419:Generated_Source\PSoC4/BLE_1_eventHandler.c ****             {
ARM GAS  C:\Users\haras\AppData\Local\Temp\ccSR9wHM.s 			page 27


1420:Generated_Source\PSoC4/BLE_1_eventHandler.c ****                 case CYBLE_CLIENT_STATE_SRVC_DISCOVERING:
1421:Generated_Source\PSoC4/BLE_1_eventHandler.c ****                     CyBle_ApplCallback(CYBLE_EVT_GATTC_SRVC_DISCOVERY_FAILED, NULL);
1422:Generated_Source\PSoC4/BLE_1_eventHandler.c ****                     break;
1423:Generated_Source\PSoC4/BLE_1_eventHandler.c ****                 case CYBLE_CLIENT_STATE_INCL_DISCOVERING:
1424:Generated_Source\PSoC4/BLE_1_eventHandler.c ****                     CyBle_ApplCallback(CYBLE_EVT_GATTC_INCL_DISCOVERY_FAILED, NULL);
1425:Generated_Source\PSoC4/BLE_1_eventHandler.c ****                     break;
1426:Generated_Source\PSoC4/BLE_1_eventHandler.c ****                 case CYBLE_CLIENT_STATE_CHAR_DISCOVERING:
1427:Generated_Source\PSoC4/BLE_1_eventHandler.c ****                     CyBle_ApplCallback(CYBLE_EVT_GATTC_CHAR_DISCOVERY_FAILED, NULL);
1428:Generated_Source\PSoC4/BLE_1_eventHandler.c ****                     break;
1429:Generated_Source\PSoC4/BLE_1_eventHandler.c ****                 case CYBLE_CLIENT_STATE_DESCR_DISCOVERING:
1430:Generated_Source\PSoC4/BLE_1_eventHandler.c ****                     CyBle_ApplCallback(CYBLE_EVT_GATTC_DESCR_DISCOVERY_FAILED, NULL);
1431:Generated_Source\PSoC4/BLE_1_eventHandler.c ****                     break;
1432:Generated_Source\PSoC4/BLE_1_eventHandler.c ****                 default:        /* Other states should not be set in Auto discovery mode */
1433:Generated_Source\PSoC4/BLE_1_eventHandler.c ****                     break;
1434:Generated_Source\PSoC4/BLE_1_eventHandler.c ****             }
1435:Generated_Source\PSoC4/BLE_1_eventHandler.c ****             cyBle_eventHandlerFlag &= (uint8)~CYBLE_AUTO_DISCOVERY;
1436:Generated_Source\PSoC4/BLE_1_eventHandler.c ****             CyBle_SetClientState(CYBLE_CLIENT_STATE_CONNECTED);
1437:Generated_Source\PSoC4/BLE_1_eventHandler.c ****         }
1438:Generated_Source\PSoC4/BLE_1_eventHandler.c ****     #endif /* CYBLE_GATT_ROLE_CLIENT */
1439:Generated_Source\PSoC4/BLE_1_eventHandler.c ****     #ifdef CYBLE_CPS_SERVER
1440:Generated_Source\PSoC4/BLE_1_eventHandler.c ****         CyBle_CpssTimeOutEventHandler();
1441:Generated_Source\PSoC4/BLE_1_eventHandler.c ****     #endif /* CYBLE_CPS_SERVER */
1442:Generated_Source\PSoC4/BLE_1_eventHandler.c ****     }
1443:Generated_Source\PSoC4/BLE_1_eventHandler.c ****     
1444:Generated_Source\PSoC4/BLE_1_eventHandler.c ****     /* Connection procedure timeout */
1445:Generated_Source\PSoC4/BLE_1_eventHandler.c ****     if(*eventParam == CYBLE_GENERIC_TO)
  64              		.loc 1 1445 0
  65 0002 0378     		ldrb	r3, [r0]
  66 0004 042B     		cmp	r3, #4
  67 0006 05D1     		bne	.L4
1446:Generated_Source\PSoC4/BLE_1_eventHandler.c ****     {
1447:Generated_Source\PSoC4/BLE_1_eventHandler.c ****     #if(CYBLE_GAP_ROLE_CENTRAL)
1448:Generated_Source\PSoC4/BLE_1_eventHandler.c ****         if(CyBle_GetState() == CYBLE_STATE_CONNECTING)
  68              		.loc 1 1448 0
  69 0008 034B     		ldr	r3, .L6
  70 000a 1B78     		ldrb	r3, [r3]
  71 000c 042B     		cmp	r3, #4
  72 000e 01D1     		bne	.L4
1449:Generated_Source\PSoC4/BLE_1_eventHandler.c ****         {
1450:Generated_Source\PSoC4/BLE_1_eventHandler.c ****             (void)CyBle_GapcCancelDeviceConnection();
  73              		.loc 1 1450 0
  74 0010 FFF7FEFF 		bl	CyBle_GapcCancelDeviceConnection
  75              	.LVL1:
  76              	.L4:
1451:Generated_Source\PSoC4/BLE_1_eventHandler.c ****         }
1452:Generated_Source\PSoC4/BLE_1_eventHandler.c ****     #endif /* CYBLE_GAP_ROLE_CENTRAL */
1453:Generated_Source\PSoC4/BLE_1_eventHandler.c ****     }
1454:Generated_Source\PSoC4/BLE_1_eventHandler.c **** }
  77              		.loc 1 1454 0
  78              		@ sp needed
  79 0014 10BD     		pop	{r4, pc}
  80              	.L7:
  81 0016 C046     		.align	2
  82              	.L6:
  83 0018 00000000 		.word	cyBle_state
  84              		.cfi_endproc
  85              	.LFE5:
ARM GAS  C:\Users\haras\AppData\Local\Temp\ccSR9wHM.s 			page 28


  86              		.size	CyBle_TimeOutEventHandler, .-CyBle_TimeOutEventHandler
  87              		.section	.text.CyBle_WriteReqHandler,"ax",%progbits
  88              		.align	2
  89              		.code	16
  90              		.thumb_func
  91              		.type	CyBle_WriteReqHandler, %function
  92              	CyBle_WriteReqHandler:
  93              	.LFB2:
 250:Generated_Source\PSoC4/BLE_1_eventHandler.c ****     CYBLE_GATT_ERR_CODE_T gattErr;
  94              		.loc 1 250 0
  95              		.cfi_startproc
  96              		@ args = 0, pretend = 0, frame = 8
  97              		@ frame_needed = 0, uses_anonymous_args = 0
  98              	.LVL2:
  99 0000 10B5     		push	{r4, lr}
 100              		.cfi_def_cfa_offset 8
 101              		.cfi_offset 4, -8
 102              		.cfi_offset 14, -4
 103 0002 82B0     		sub	sp, sp, #8
 104              		.cfi_def_cfa_offset 16
 105 0004 0400     		movs	r4, r0
 256:Generated_Source\PSoC4/BLE_1_eventHandler.c **** #ifdef CYBLE_AIOS_SERVER
 106              		.loc 1 256 0
 107 0006 FFF7FEFF 		bl	CyBle_GattsWriteEventHandler
 108              	.LVL3:
 270:Generated_Source\PSoC4/BLE_1_eventHandler.c ****     {
 109              		.loc 1 270 0
 110 000a 0F4B     		ldr	r3, .L12
 111 000c 1B78     		ldrb	r3, [r3]
 112 000e DB07     		lsls	r3, r3, #31
 113 0010 04D5     		bpl	.L9
 270:Generated_Source\PSoC4/BLE_1_eventHandler.c ****     {
 114              		.loc 1 270 0 is_stmt 0 discriminator 1
 115 0012 0028     		cmp	r0, #0
 116 0014 02D1     		bne	.L9
 272:Generated_Source\PSoC4/BLE_1_eventHandler.c ****     }
 117              		.loc 1 272 0 is_stmt 1
 118 0016 2000     		movs	r0, r4
 119              	.LVL4:
 120 0018 FFF7FEFF 		bl	CyBle_AnssWriteEventHandler
 121              	.LVL5:
 122              	.L9:
 433:Generated_Source\PSoC4/BLE_1_eventHandler.c ****     {
 123              		.loc 1 433 0
 124 001c 0A4B     		ldr	r3, .L12
 125 001e 1B78     		ldrb	r3, [r3]
 126 0020 DB07     		lsls	r3, r3, #31
 127 0022 0ED4     		bmi	.L8
 435:Generated_Source\PSoC4/BLE_1_eventHandler.c ****         {
 128              		.loc 1 435 0
 129 0024 0028     		cmp	r0, #0
 130 0026 09D0     		beq	.L11
 131              	.LBB2:
 439:Generated_Source\PSoC4/BLE_1_eventHandler.c ****             err_param.attrHandle = eventParam->handleValPair.attrHandle;
 132              		.loc 1 439 0
 133 0028 01A9     		add	r1, sp, #4
 134 002a 1223     		movs	r3, #18
ARM GAS  C:\Users\haras\AppData\Local\Temp\ccSR9wHM.s 			page 29


 135 002c 8B70     		strb	r3, [r1, #2]
 440:Generated_Source\PSoC4/BLE_1_eventHandler.c ****             err_param.errorCode = gattErr;
 136              		.loc 1 440 0
 137 002e A389     		ldrh	r3, [r4, #12]
 138 0030 0B80     		strh	r3, [r1]
 441:Generated_Source\PSoC4/BLE_1_eventHandler.c **** 
 139              		.loc 1 441 0
 140 0032 C870     		strb	r0, [r1, #3]
 444:Generated_Source\PSoC4/BLE_1_eventHandler.c ****         }
 141              		.loc 1 444 0
 142 0034 2068     		ldr	r0, [r4]
 143              	.LVL6:
 144 0036 FFF7FEFF 		bl	CyBle_GattsErrorRsp
 145              	.LVL7:
 146              	.LBE2:
 147 003a 02E0     		b	.L8
 148              	.LVL8:
 149              	.L11:
 448:Generated_Source\PSoC4/BLE_1_eventHandler.c ****         }
 150              		.loc 1 448 0
 151 003c 2068     		ldr	r0, [r4]
 152              	.LVL9:
 153 003e FFF7FEFF 		bl	CyBle_GattsWriteRsp
 154              	.LVL10:
 155              	.L8:
 451:Generated_Source\PSoC4/BLE_1_eventHandler.c **** 
 156              		.loc 1 451 0
 157 0042 02B0     		add	sp, sp, #8
 158              		@ sp needed
 159              	.LVL11:
 160 0044 10BD     		pop	{r4, pc}
 161              	.L13:
 162 0046 C046     		.align	2
 163              	.L12:
 164 0048 00000000 		.word	cyBle_eventHandlerFlag
 165              		.cfi_endproc
 166              	.LFE2:
 167              		.size	CyBle_WriteReqHandler, .-CyBle_WriteReqHandler
 168              		.section	.text.CyBle_IsDeviceAddressValid,"ax",%progbits
 169              		.align	2
 170              		.global	CyBle_IsDeviceAddressValid
 171              		.code	16
 172              		.thumb_func
 173              		.type	CyBle_IsDeviceAddressValid, %function
 174              	CyBle_IsDeviceAddressValid:
 175              	.LFB7:
1455:Generated_Source\PSoC4/BLE_1_eventHandler.c **** 
1456:Generated_Source\PSoC4/BLE_1_eventHandler.c **** 
1457:Generated_Source\PSoC4/BLE_1_eventHandler.c **** /****************************************************************************** 
1458:Generated_Source\PSoC4/BLE_1_eventHandler.c **** * Function Name: CyBle_GattConnectReqHandler
1459:Generated_Source\PSoC4/BLE_1_eventHandler.c **** ***************************************************************************//**
1460:Generated_Source\PSoC4/BLE_1_eventHandler.c **** * 
1461:Generated_Source\PSoC4/BLE_1_eventHandler.c **** *  Handles the GATT connect event from the BLE stack.
1462:Generated_Source\PSoC4/BLE_1_eventHandler.c **** * 
1463:Generated_Source\PSoC4/BLE_1_eventHandler.c **** * \return
1464:Generated_Source\PSoC4/BLE_1_eventHandler.c **** *  None
1465:Generated_Source\PSoC4/BLE_1_eventHandler.c **** * 
ARM GAS  C:\Users\haras\AppData\Local\Temp\ccSR9wHM.s 			page 30


1466:Generated_Source\PSoC4/BLE_1_eventHandler.c **** ******************************************************************************/
1467:Generated_Source\PSoC4/BLE_1_eventHandler.c **** static void CyBle_GattConnectReqHandler(void)
1468:Generated_Source\PSoC4/BLE_1_eventHandler.c **** {
1469:Generated_Source\PSoC4/BLE_1_eventHandler.c ****     #ifdef CYBLE_CGMS_SERVER
1470:Generated_Source\PSoC4/BLE_1_eventHandler.c ****         CyBle_CgmsInit();
1471:Generated_Source\PSoC4/BLE_1_eventHandler.c ****     #endif /* CYBLE_CGMS_SERVER */
1472:Generated_Source\PSoC4/BLE_1_eventHandler.c ****     
1473:Generated_Source\PSoC4/BLE_1_eventHandler.c ****     #ifdef CYBLE_CPS_SERVER
1474:Generated_Source\PSoC4/BLE_1_eventHandler.c ****         CyBle_CpssConnectEventHandler();
1475:Generated_Source\PSoC4/BLE_1_eventHandler.c ****     #endif /* CYBLE_CPS_SERVER */
1476:Generated_Source\PSoC4/BLE_1_eventHandler.c ****     
1477:Generated_Source\PSoC4/BLE_1_eventHandler.c ****     #ifdef CYBLE_CSCS_SERVER
1478:Generated_Source\PSoC4/BLE_1_eventHandler.c ****             CyBle_CscsInit();
1479:Generated_Source\PSoC4/BLE_1_eventHandler.c ****     #endif /* CYBLE_CSCS_SERVER */
1480:Generated_Source\PSoC4/BLE_1_eventHandler.c ****     
1481:Generated_Source\PSoC4/BLE_1_eventHandler.c ****     #ifdef CYBLE_LLS_SERVER
1482:Generated_Source\PSoC4/BLE_1_eventHandler.c ****         CyBle_LlssConnectEventHandler();
1483:Generated_Source\PSoC4/BLE_1_eventHandler.c ****     #endif /* CYBLE_LLS_SERVER */
1484:Generated_Source\PSoC4/BLE_1_eventHandler.c ****     
1485:Generated_Source\PSoC4/BLE_1_eventHandler.c ****     #ifdef CYBLE_HIDS_SERVER
1486:Generated_Source\PSoC4/BLE_1_eventHandler.c ****         CyBle_HidssOnDeviceConnected();
1487:Generated_Source\PSoC4/BLE_1_eventHandler.c ****     #endif /* CYBLE_HIDS_SERVER */
1488:Generated_Source\PSoC4/BLE_1_eventHandler.c **** 
1489:Generated_Source\PSoC4/BLE_1_eventHandler.c ****     #ifdef CYBLE_RSCS_SERVER
1490:Generated_Source\PSoC4/BLE_1_eventHandler.c ****         CyBle_RscsInit();
1491:Generated_Source\PSoC4/BLE_1_eventHandler.c ****     #endif /* CYBLE_RSCS_SERVER */
1492:Generated_Source\PSoC4/BLE_1_eventHandler.c **** }
1493:Generated_Source\PSoC4/BLE_1_eventHandler.c **** 
1494:Generated_Source\PSoC4/BLE_1_eventHandler.c **** 
1495:Generated_Source\PSoC4/BLE_1_eventHandler.c **** #if (CYBLE_GATT_ROLE_SERVER || CYBLE_GATT_ROLE_CLIENT)
1496:Generated_Source\PSoC4/BLE_1_eventHandler.c **** 
1497:Generated_Source\PSoC4/BLE_1_eventHandler.c **** /****************************************************************************** 
1498:Generated_Source\PSoC4/BLE_1_eventHandler.c **** * Function Name: CyBle_IsDeviceAddressValid
1499:Generated_Source\PSoC4/BLE_1_eventHandler.c **** ***************************************************************************//**
1500:Generated_Source\PSoC4/BLE_1_eventHandler.c **** * 
1501:Generated_Source\PSoC4/BLE_1_eventHandler.c **** *  This function verifies that BLE public address has been programmed to SFLASH 
1502:Generated_Source\PSoC4/BLE_1_eventHandler.c **** *  during manufacture. It could be used to verify if public device address is 
1503:Generated_Source\PSoC4/BLE_1_eventHandler.c **** *  programmed to flash memory.
1504:Generated_Source\PSoC4/BLE_1_eventHandler.c **** * 
1505:Generated_Source\PSoC4/BLE_1_eventHandler.c **** *  \param deviceAddress: the pointer to the BD address of type CYBLE_GAP_BD_ADDR_T. 
1506:Generated_Source\PSoC4/BLE_1_eventHandler.c **** * 
1507:Generated_Source\PSoC4/BLE_1_eventHandler.c **** * \return
1508:Generated_Source\PSoC4/BLE_1_eventHandler.c **** *  Non zero value when a device address differs from the default SFLASH content.
1509:Generated_Source\PSoC4/BLE_1_eventHandler.c **** * 
1510:Generated_Source\PSoC4/BLE_1_eventHandler.c **** ******************************************************************************/
1511:Generated_Source\PSoC4/BLE_1_eventHandler.c **** uint8 CyBle_IsDeviceAddressValid(const CYBLE_GAP_BD_ADDR_T *deviceAddress)
1512:Generated_Source\PSoC4/BLE_1_eventHandler.c **** {
 176              		.loc 1 1512 0
 177              		.cfi_startproc
 178              		@ args = 0, pretend = 0, frame = 0
 179              		@ frame_needed = 0, uses_anonymous_args = 0
 180              		@ link register save eliminated.
 181              	.LVL12:
1513:Generated_Source\PSoC4/BLE_1_eventHandler.c ****     uint8 i;
1514:Generated_Source\PSoC4/BLE_1_eventHandler.c ****     uint8 addressValid = 0u;
1515:Generated_Source\PSoC4/BLE_1_eventHandler.c ****     
1516:Generated_Source\PSoC4/BLE_1_eventHandler.c ****     if(deviceAddress -> type == CYBLE_GAP_ADDR_TYPE_PUBLIC)  
ARM GAS  C:\Users\haras\AppData\Local\Temp\ccSR9wHM.s 			page 31


 182              		.loc 1 1516 0
 183 0000 8379     		ldrb	r3, [r0, #6]
 184 0002 002B     		cmp	r3, #0
 185 0004 07D0     		beq	.L18
1514:Generated_Source\PSoC4/BLE_1_eventHandler.c ****     
 186              		.loc 1 1514 0
 187 0006 0020     		movs	r0, #0
 188              	.LVL13:
 189 0008 0BE0     		b	.L16
 190              	.LVL14:
 191              	.L17:
1517:Generated_Source\PSoC4/BLE_1_eventHandler.c ****     {
1518:Generated_Source\PSoC4/BLE_1_eventHandler.c ****         for(i = 0u; i < CYBLE_GAP_BD_ADDR_SIZE; i++)
1519:Generated_Source\PSoC4/BLE_1_eventHandler.c ****         {
1520:Generated_Source\PSoC4/BLE_1_eventHandler.c ****             if(deviceAddress->bdAddr[i] != 0u)
 192              		.loc 1 1520 0
 193 000a C25C     		ldrb	r2, [r0, r3]
 194 000c 002A     		cmp	r2, #0
 195 000e 07D1     		bne	.L19
1518:Generated_Source\PSoC4/BLE_1_eventHandler.c ****         {
 196              		.loc 1 1518 0 discriminator 2
 197 0010 0133     		adds	r3, r3, #1
 198              	.LVL15:
 199 0012 DBB2     		uxtb	r3, r3
 200              	.LVL16:
 201 0014 00E0     		b	.L15
 202              	.LVL17:
 203              	.L18:
 204 0016 0023     		movs	r3, #0
 205              	.L15:
 206              	.LVL18:
1518:Generated_Source\PSoC4/BLE_1_eventHandler.c ****         {
 207              		.loc 1 1518 0 is_stmt 0 discriminator 1
 208 0018 052B     		cmp	r3, #5
 209 001a F6D9     		bls	.L17
1514:Generated_Source\PSoC4/BLE_1_eventHandler.c ****     
 210              		.loc 1 1514 0 is_stmt 1
 211 001c 0020     		movs	r0, #0
 212              	.LVL19:
 213 001e 00E0     		b	.L16
 214              	.LVL20:
 215              	.L19:
1521:Generated_Source\PSoC4/BLE_1_eventHandler.c ****             {
1522:Generated_Source\PSoC4/BLE_1_eventHandler.c ****                 addressValid = 1u;
 216              		.loc 1 1522 0
 217 0020 0120     		movs	r0, #1
 218              	.LVL21:
 219              	.L16:
1523:Generated_Source\PSoC4/BLE_1_eventHandler.c ****                 break;
1524:Generated_Source\PSoC4/BLE_1_eventHandler.c ****             }
1525:Generated_Source\PSoC4/BLE_1_eventHandler.c ****         }
1526:Generated_Source\PSoC4/BLE_1_eventHandler.c ****     }
1527:Generated_Source\PSoC4/BLE_1_eventHandler.c ****     return (addressValid);
1528:Generated_Source\PSoC4/BLE_1_eventHandler.c **** }
 220              		.loc 1 1528 0
 221              		@ sp needed
 222 0022 7047     		bx	lr
ARM GAS  C:\Users\haras\AppData\Local\Temp\ccSR9wHM.s 			page 32


 223              		.cfi_endproc
 224              	.LFE7:
 225              		.size	CyBle_IsDeviceAddressValid, .-CyBle_IsDeviceAddressValid
 226              		.section	.text.CyBle_EventHandler,"ax",%progbits
 227              		.align	2
 228              		.global	CyBle_EventHandler
 229              		.code	16
 230              		.thumb_func
 231              		.type	CyBle_EventHandler, %function
 232              	CyBle_EventHandler:
 233              	.LFB10:
1529:Generated_Source\PSoC4/BLE_1_eventHandler.c **** #endif /* CYBLE_GATT_ROLE_SERVER || CYBLE_GATT_ROLE_CLIENT */
1530:Generated_Source\PSoC4/BLE_1_eventHandler.c **** 
1531:Generated_Source\PSoC4/BLE_1_eventHandler.c **** 
1532:Generated_Source\PSoC4/BLE_1_eventHandler.c **** /****************************************************************************** 
1533:Generated_Source\PSoC4/BLE_1_eventHandler.c **** * Function Name: CyBle_L2Cap_ConnParamUpdateRspHandler
1534:Generated_Source\PSoC4/BLE_1_eventHandler.c **** ***************************************************************************//**
1535:Generated_Source\PSoC4/BLE_1_eventHandler.c **** * 
1536:Generated_Source\PSoC4/BLE_1_eventHandler.c **** *  Handles the L2CAP connection parameter response event from
1537:Generated_Source\PSoC4/BLE_1_eventHandler.c **** *  the BLE stack.
1538:Generated_Source\PSoC4/BLE_1_eventHandler.c **** * 
1539:Generated_Source\PSoC4/BLE_1_eventHandler.c **** *  \param response:
1540:Generated_Source\PSoC4/BLE_1_eventHandler.c **** *      * Accepted = 0x0000
1541:Generated_Source\PSoC4/BLE_1_eventHandler.c **** *      * Rejected = 0x0001
1542:Generated_Source\PSoC4/BLE_1_eventHandler.c **** * 
1543:Generated_Source\PSoC4/BLE_1_eventHandler.c **** * \return
1544:Generated_Source\PSoC4/BLE_1_eventHandler.c **** *  None
1545:Generated_Source\PSoC4/BLE_1_eventHandler.c **** * 
1546:Generated_Source\PSoC4/BLE_1_eventHandler.c **** ******************************************************************************/
1547:Generated_Source\PSoC4/BLE_1_eventHandler.c **** static void CyBle_L2Cap_ConnParamUpdateRspEventHandler(uint16 response)
1548:Generated_Source\PSoC4/BLE_1_eventHandler.c **** {
1549:Generated_Source\PSoC4/BLE_1_eventHandler.c ****     #ifdef CYBLE_CPS_SERVER
1550:Generated_Source\PSoC4/BLE_1_eventHandler.c ****         CyBle_CpssConnParamUpdateRspEventHandler(response);
1551:Generated_Source\PSoC4/BLE_1_eventHandler.c ****     #endif /* CYBLE_CPS_SERVER */
1552:Generated_Source\PSoC4/BLE_1_eventHandler.c ****     
1553:Generated_Source\PSoC4/BLE_1_eventHandler.c ****     /* Unreferenced variable warning workaround */
1554:Generated_Source\PSoC4/BLE_1_eventHandler.c ****     if(response != 0u)
1555:Generated_Source\PSoC4/BLE_1_eventHandler.c ****     {
1556:Generated_Source\PSoC4/BLE_1_eventHandler.c ****     }
1557:Generated_Source\PSoC4/BLE_1_eventHandler.c **** }
1558:Generated_Source\PSoC4/BLE_1_eventHandler.c **** 
1559:Generated_Source\PSoC4/BLE_1_eventHandler.c **** 
1560:Generated_Source\PSoC4/BLE_1_eventHandler.c **** /****************************************************************************** 
1561:Generated_Source\PSoC4/BLE_1_eventHandler.c **** * Function Name: CyBle_GapConnUpdateCompleteEventHandler
1562:Generated_Source\PSoC4/BLE_1_eventHandler.c **** ***************************************************************************//**
1563:Generated_Source\PSoC4/BLE_1_eventHandler.c **** * 
1564:Generated_Source\PSoC4/BLE_1_eventHandler.c **** *  Handles the CYBLE_EVT_GAP_CONNECTION_UPDATE_COMPLETE event from
1565:Generated_Source\PSoC4/BLE_1_eventHandler.c **** *  the BLE stack.
1566:Generated_Source\PSoC4/BLE_1_eventHandler.c **** * 
1567:Generated_Source\PSoC4/BLE_1_eventHandler.c **** *  \param eventParam: The pointer to the data structure specified by the event.
1568:Generated_Source\PSoC4/BLE_1_eventHandler.c **** * 
1569:Generated_Source\PSoC4/BLE_1_eventHandler.c **** * \return
1570:Generated_Source\PSoC4/BLE_1_eventHandler.c **** *  None
1571:Generated_Source\PSoC4/BLE_1_eventHandler.c **** * 
1572:Generated_Source\PSoC4/BLE_1_eventHandler.c **** ******************************************************************************/
1573:Generated_Source\PSoC4/BLE_1_eventHandler.c **** static void CyBle_GapConnUpdateCompleteEventHandler(const CYBLE_GAP_CONN_PARAM_UPDATED_IN_CONTROLLE
1574:Generated_Source\PSoC4/BLE_1_eventHandler.c **** {
ARM GAS  C:\Users\haras\AppData\Local\Temp\ccSR9wHM.s 			page 33


1575:Generated_Source\PSoC4/BLE_1_eventHandler.c ****     #ifdef CYBLE_CPS_SERVER
1576:Generated_Source\PSoC4/BLE_1_eventHandler.c ****         CyBle_CpssConnUpdateCompleteEventHandler(eventParam);
1577:Generated_Source\PSoC4/BLE_1_eventHandler.c ****     #endif /* CYBLE_CPS_SERVER */
1578:Generated_Source\PSoC4/BLE_1_eventHandler.c ****     
1579:Generated_Source\PSoC4/BLE_1_eventHandler.c ****     /* Unreferenced variable warning workaround */
1580:Generated_Source\PSoC4/BLE_1_eventHandler.c ****     if(eventParam != 0u)
1581:Generated_Source\PSoC4/BLE_1_eventHandler.c ****     {
1582:Generated_Source\PSoC4/BLE_1_eventHandler.c ****     }
1583:Generated_Source\PSoC4/BLE_1_eventHandler.c **** }
1584:Generated_Source\PSoC4/BLE_1_eventHandler.c **** 
1585:Generated_Source\PSoC4/BLE_1_eventHandler.c **** 
1586:Generated_Source\PSoC4/BLE_1_eventHandler.c **** /****************************************************************************** 
1587:Generated_Source\PSoC4/BLE_1_eventHandler.c **** * Function Name: CyBle_EventHandler
1588:Generated_Source\PSoC4/BLE_1_eventHandler.c **** ***************************************************************************//**
1589:Generated_Source\PSoC4/BLE_1_eventHandler.c **** * 
1590:Generated_Source\PSoC4/BLE_1_eventHandler.c **** *  Handles the events from the BLE stack
1591:Generated_Source\PSoC4/BLE_1_eventHandler.c **** * 
1592:Generated_Source\PSoC4/BLE_1_eventHandler.c **** *  \param eventCode:    the event code
1593:Generated_Source\PSoC4/BLE_1_eventHandler.c **** *  \param eventParam:  the event parameters
1594:Generated_Source\PSoC4/BLE_1_eventHandler.c **** * 
1595:Generated_Source\PSoC4/BLE_1_eventHandler.c **** * \return
1596:Generated_Source\PSoC4/BLE_1_eventHandler.c **** *  None.
1597:Generated_Source\PSoC4/BLE_1_eventHandler.c **** * 
1598:Generated_Source\PSoC4/BLE_1_eventHandler.c **** ******************************************************************************/
1599:Generated_Source\PSoC4/BLE_1_eventHandler.c **** void CyBle_EventHandler(uint8 eventCode, void *eventParam)
1600:Generated_Source\PSoC4/BLE_1_eventHandler.c **** {
 234              		.loc 1 1600 0
 235              		.cfi_startproc
 236              		@ args = 0, pretend = 0, frame = 8
 237              		@ frame_needed = 0, uses_anonymous_args = 0
 238              	.LVL22:
 239 0000 F0B5     		push	{r4, r5, r6, r7, lr}
 240              		.cfi_def_cfa_offset 20
 241              		.cfi_offset 4, -20
 242              		.cfi_offset 5, -16
 243              		.cfi_offset 6, -12
 244              		.cfi_offset 7, -8
 245              		.cfi_offset 14, -4
 246 0002 83B0     		sub	sp, sp, #12
 247              		.cfi_def_cfa_offset 32
 248 0004 0400     		movs	r4, r0
 249 0006 0D00     		movs	r5, r1
1601:Generated_Source\PSoC4/BLE_1_eventHandler.c ****     cyBle_eventHandlerFlag |= CYBLE_CALLBACK;
 250              		.loc 1 1601 0
 251 0008 9E4A     		ldr	r2, .L50
 252 000a 1178     		ldrb	r1, [r2]
 253              	.LVL23:
 254 000c 0123     		movs	r3, #1
 255 000e 0B43     		orrs	r3, r1
 256 0010 DBB2     		uxtb	r3, r3
 257 0012 1370     		strb	r3, [r2]
1602:Generated_Source\PSoC4/BLE_1_eventHandler.c **** 
1603:Generated_Source\PSoC4/BLE_1_eventHandler.c ****     /* Common Profile event handling */
1604:Generated_Source\PSoC4/BLE_1_eventHandler.c ****     switch(eventCode)
 258              		.loc 1 1604 0
 259 0014 2828     		cmp	r0, #40
 260 0016 00D1     		bne	.LCB221
ARM GAS  C:\Users\haras\AppData\Local\Temp\ccSR9wHM.s 			page 34


 261 0018 C0E0     		b	.L22	@long jump
 262              	.LCB221:
 263 001a 15D8     		bhi	.L23
 264 001c 0628     		cmp	r0, #6
 265 001e 00D1     		bne	.LCB225
 266 0020 7EE0     		b	.L24	@long jump
 267              	.LCB225:
 268 0022 07D8     		bhi	.L25
 269 0024 0228     		cmp	r0, #2
 270 0026 73D0     		beq	.L26
 271 0028 0528     		cmp	r0, #5
 272 002a 75D0     		beq	.L27
 273 002c 0128     		cmp	r0, #1
 274 002e 00D0     		beq	.LCB233
 275 0030 17E1     		b	.L21	@long jump
 276              	.LCB233:
 277 0032 21E0     		b	.L28
 278              	.L25:
 279 0034 2428     		cmp	r0, #36
 280 0036 00D1     		bne	.LCB239
 281 0038 98E0     		b	.L29	@long jump
 282              	.LCB239:
 283 003a 2728     		cmp	r0, #39
 284 003c 00D1     		bne	.LCB241
 285 003e A3E0     		b	.L30	@long jump
 286              	.LCB241:
 287 0040 2128     		cmp	r0, #33
 288 0042 00D0     		beq	.LCB243
 289 0044 0DE1     		b	.L21	@long jump
 290              	.LCB243:
 291 0046 7FE0     		b	.L31
 292              	.L23:
 293 0048 4228     		cmp	r0, #66
 294 004a 00D1     		bne	.LCB249
 295 004c F5E0     		b	.L32	@long jump
 296              	.LCB249:
 297 004e 09D8     		bhi	.L33
 298 0050 3128     		cmp	r0, #49
 299 0052 00D1     		bne	.LCB253
 300 0054 8EE0     		b	.L34	@long jump
 301              	.LCB253:
 302 0056 4128     		cmp	r0, #65
 303 0058 00D1     		bne	.LCB255
 304 005a D7E0     		b	.L35	@long jump
 305              	.LCB255:
 306 005c 2B28     		cmp	r0, #43
 307 005e 00D0     		beq	.LCB257
 308 0060 FFE0     		b	.L21	@long jump
 309              	.LCB257:
 310 0062 9FE0     		b	.L36
 311              	.L33:
 312 0064 4C28     		cmp	r0, #76
 313 0066 00D1     		bne	.LCB263
 314 0068 F2E0     		b	.L37	@long jump
 315              	.LCB263:
 316 006a FA28     		cmp	r0, #250
 317 006c 00D1     		bne	.LCB265
ARM GAS  C:\Users\haras\AppData\Local\Temp\ccSR9wHM.s 			page 35


 318 006e F3E0     		b	.L38	@long jump
 319              	.LCB265:
 320 0070 4328     		cmp	r0, #67
 321 0072 00D0     		beq	.LCB267
 322 0074 F5E0     		b	.L21	@long jump
 323              	.LCB267:
 324 0076 E3E0     		b	.L39
 325              	.L28:
 326              	.LBB3:
1605:Generated_Source\PSoC4/BLE_1_eventHandler.c ****     {
1606:Generated_Source\PSoC4/BLE_1_eventHandler.c ****         /**********************************************************
1607:Generated_Source\PSoC4/BLE_1_eventHandler.c ****         * General events
1608:Generated_Source\PSoC4/BLE_1_eventHandler.c ****         ************************************************************/
1609:Generated_Source\PSoC4/BLE_1_eventHandler.c ****         case CYBLE_EVT_STACK_ON:
1610:Generated_Source\PSoC4/BLE_1_eventHandler.c ****         #if(CYBLE_MODE_PROFILE)
1611:Generated_Source\PSoC4/BLE_1_eventHandler.c ****         {
1612:Generated_Source\PSoC4/BLE_1_eventHandler.c ****             CYBLE_BLESS_PWR_IN_DB_T bleSsPowerLevel;
1613:Generated_Source\PSoC4/BLE_1_eventHandler.c ****             
1614:Generated_Source\PSoC4/BLE_1_eventHandler.c ****             /* Set Tx Power Level for advertising and connection channels */
1615:Generated_Source\PSoC4/BLE_1_eventHandler.c ****             bleSsPowerLevel.blePwrLevelInDbm = CYBLE_TX_POWER_LEVEL_ADV;
 327              		.loc 1 1615 0
 328 0078 01AE     		add	r6, sp, #4
 329 007a 0727     		movs	r7, #7
 330 007c 3770     		strb	r7, [r6]
1616:Generated_Source\PSoC4/BLE_1_eventHandler.c ****             bleSsPowerLevel.bleSsChId = CYBLE_LL_ADV_CH_TYPE;
 331              		.loc 1 1616 0
 332 007e 0023     		movs	r3, #0
 333 0080 7370     		strb	r3, [r6, #1]
1617:Generated_Source\PSoC4/BLE_1_eventHandler.c ****             (void) CyBle_SetTxPowerLevel (&bleSsPowerLevel);
 334              		.loc 1 1617 0
 335 0082 3000     		movs	r0, r6
 336              	.LVL24:
 337 0084 FFF7FEFF 		bl	CyBle_SetTxPowerLevel
 338              	.LVL25:
1618:Generated_Source\PSoC4/BLE_1_eventHandler.c ****             bleSsPowerLevel.blePwrLevelInDbm = CYBLE_TX_POWER_LEVEL_CONN;
 339              		.loc 1 1618 0
 340 0088 3770     		strb	r7, [r6]
1619:Generated_Source\PSoC4/BLE_1_eventHandler.c ****             bleSsPowerLevel.bleSsChId = CYBLE_LL_CONN_CH_TYPE;
 341              		.loc 1 1619 0
 342 008a 0123     		movs	r3, #1
 343 008c 7370     		strb	r3, [r6, #1]
1620:Generated_Source\PSoC4/BLE_1_eventHandler.c ****             (void) CyBle_SetTxPowerLevel (&bleSsPowerLevel);
 344              		.loc 1 1620 0
 345 008e 3000     		movs	r0, r6
 346 0090 FFF7FEFF 		bl	CyBle_SetTxPowerLevel
 347              	.LVL26:
1621:Generated_Source\PSoC4/BLE_1_eventHandler.c ****             
1622:Generated_Source\PSoC4/BLE_1_eventHandler.c ****             #if (CYBLE_GATT_ROLE_SERVER)
1623:Generated_Source\PSoC4/BLE_1_eventHandler.c ****                 /* As per Privacy Errata a call to CyBle_EnableDefaultDevicePrivacy() is
1624:Generated_Source\PSoC4/BLE_1_eventHandler.c ****                   required to set a device to use device privacy instead of network privacy
1625:Generated_Source\PSoC4/BLE_1_eventHandler.c ****                   that is enabled by default starting from BLE Stack 3.3.
1626:Generated_Source\PSoC4/BLE_1_eventHandler.c ****                 */
1627:Generated_Source\PSoC4/BLE_1_eventHandler.c ****                 if(cyBle_gaps.rpaOnlyCharHandle != CYBLE_GATT_INVALID_ATTR_HANDLE_VALUE)
1628:Generated_Source\PSoC4/BLE_1_eventHandler.c ****                 {
1629:Generated_Source\PSoC4/BLE_1_eventHandler.c ****                     CyBle_EnableDefaultDevicePrivacy();
 348              		.loc 1 1629 0
 349 0094 FFF7FEFF 		bl	CyBle_EnableDefaultDevicePrivacy
ARM GAS  C:\Users\haras\AppData\Local\Temp\ccSR9wHM.s 			page 36


 350              	.LVL27:
 351              	.LBE3:
1630:Generated_Source\PSoC4/BLE_1_eventHandler.c ****                 }
1631:Generated_Source\PSoC4/BLE_1_eventHandler.c ****             #endif /* (CYBLE_GATT_ROLE_SERVER) */
1632:Generated_Source\PSoC4/BLE_1_eventHandler.c ****             
1633:Generated_Source\PSoC4/BLE_1_eventHandler.c ****             #if (CYBLE_STRICT_PAIRING_ENABLED)
1634:Generated_Source\PSoC4/BLE_1_eventHandler.c ****                 (void) CyBle_GapSetSecurityRequirements(CYBLE_STRICT_PAIRING_REQ_VALUE, CYBLE_SECUR
1635:Generated_Source\PSoC4/BLE_1_eventHandler.c ****             #endif /* (CYBLE_STRICT_PAIRING_ENABLED) */
1636:Generated_Source\PSoC4/BLE_1_eventHandler.c ****             
1637:Generated_Source\PSoC4/BLE_1_eventHandler.c ****         }
1638:Generated_Source\PSoC4/BLE_1_eventHandler.c ****         #endif /* CYBLE_MODE_PROFILE */
1639:Generated_Source\PSoC4/BLE_1_eventHandler.c ****         #if (CYBLE_GATT_ROLE_SERVER || CYBLE_GATT_ROLE_CLIENT)
1640:Generated_Source\PSoC4/BLE_1_eventHandler.c ****             /* Set device Address  */
1641:Generated_Source\PSoC4/BLE_1_eventHandler.c ****             if(CyBle_IsDeviceAddressValid(cyBle_sflashDeviceAddress) != 0u)
 352              		.loc 1 1641 0
 353 0098 7B4B     		ldr	r3, .L50+4
 354 009a 1E68     		ldr	r6, [r3]
 355 009c 3000     		movs	r0, r6
 356 009e FFF7FEFF 		bl	CyBle_IsDeviceAddressValid
 357              	.LVL28:
 358 00a2 0028     		cmp	r0, #0
 359 00a4 03D0     		beq	.L40
1642:Generated_Source\PSoC4/BLE_1_eventHandler.c ****             {
1643:Generated_Source\PSoC4/BLE_1_eventHandler.c ****                 (void) CyBle_SetDeviceAddress(cyBle_sflashDeviceAddress);
 360              		.loc 1 1643 0
 361 00a6 3000     		movs	r0, r6
 362 00a8 FFF7FEFF 		bl	CyBle_SetDeviceAddress
 363              	.LVL29:
 364 00ac 21E0     		b	.L41
 365              	.L40:
 366              	.LBB4:
1644:Generated_Source\PSoC4/BLE_1_eventHandler.c ****                 #if(CYBLE_GAP_ROLE_PERIPHERAL || CYBLE_GAP_ROLE_BROADCASTER)
1645:Generated_Source\PSoC4/BLE_1_eventHandler.c ****                     CyBle_ChangeAdDeviceAddress(cyBle_sflashDeviceAddress, 0u);
1646:Generated_Source\PSoC4/BLE_1_eventHandler.c ****                     CyBle_ChangeAdDeviceAddress(cyBle_sflashDeviceAddress, 1u);
1647:Generated_Source\PSoC4/BLE_1_eventHandler.c ****                 #endif /* CYBLE_GAP_ROLE_PERIPHERAL || CYBLE_GAP_ROLE_BROADCASTER */    
1648:Generated_Source\PSoC4/BLE_1_eventHandler.c ****             }
1649:Generated_Source\PSoC4/BLE_1_eventHandler.c ****             else
1650:Generated_Source\PSoC4/BLE_1_eventHandler.c ****             {
1651:Generated_Source\PSoC4/BLE_1_eventHandler.c ****             #if (SILICON_GENERATED_DEVICE_ADDRESS != 0u)
1652:Generated_Source\PSoC4/BLE_1_eventHandler.c ****             {
1653:Generated_Source\PSoC4/BLE_1_eventHandler.c ****                 uint32 bdAddrLoc;
1654:Generated_Source\PSoC4/BLE_1_eventHandler.c ****                 bdAddrLoc = (CYBLE_SFLASH_DIE_X_REG & CYBLE_SFLASH_DIE_X_MASK) |
 367              		.loc 1 1654 0
 368 00ae 774B     		ldr	r3, .L50+8
 369 00b0 1F78     		ldrb	r7, [r3]
1655:Generated_Source\PSoC4/BLE_1_eventHandler.c ****                     ((uint32)(((uint32)CYBLE_SFLASH_DIE_Y_REG) & ((uint32)CYBLE_SFLASH_DIE_Y_MASK))
 370              		.loc 1 1655 0
 371 00b2 774B     		ldr	r3, .L50+12
 372 00b4 1878     		ldrb	r0, [r3]
 373 00b6 8001     		lsls	r0, r0, #6
 374 00b8 FC26     		movs	r6, #252
 375 00ba 3601     		lsls	r6, r6, #4
 376 00bc 0200     		movs	r2, r0
 377 00be 3240     		ands	r2, r6
1654:Generated_Source\PSoC4/BLE_1_eventHandler.c ****                     ((uint32)(((uint32)CYBLE_SFLASH_DIE_Y_REG) & ((uint32)CYBLE_SFLASH_DIE_Y_MASK))
 378              		.loc 1 1654 0
 379 00c0 3F21     		movs	r1, #63
ARM GAS  C:\Users\haras\AppData\Local\Temp\ccSR9wHM.s 			page 37


 380 00c2 3940     		ands	r1, r7
 381 00c4 1143     		orrs	r1, r2
1656:Generated_Source\PSoC4/BLE_1_eventHandler.c ****                         CYBLE_SFLASH_DIE_X_BITS) |
1657:Generated_Source\PSoC4/BLE_1_eventHandler.c ****                     ((uint32)(((uint32)CYBLE_SFLASH_DIE_WAFER_REG) & ((uint32)CYBLE_SFLASH_DIE_WAFE
 382              		.loc 1 1657 0
 383 00c6 734B     		ldr	r3, .L50+16
 384 00c8 1B78     		ldrb	r3, [r3]
 385 00ca 1B03     		lsls	r3, r3, #12
 386 00cc F822     		movs	r2, #248
 387 00ce 5202     		lsls	r2, r2, #9
 388 00d0 1340     		ands	r3, r2
1656:Generated_Source\PSoC4/BLE_1_eventHandler.c ****                         CYBLE_SFLASH_DIE_X_BITS) |
 389              		.loc 1 1656 0
 390 00d2 1943     		orrs	r1, r3
1658:Generated_Source\PSoC4/BLE_1_eventHandler.c ****                         CYBLE_SFLASH_DIE_XY_BITS) |
1659:Generated_Source\PSoC4/BLE_1_eventHandler.c ****                     ((uint32)(((uint32)CYBLE_SFLASH_DIE_LOT_REG) & ((uint32)CYBLE_SFLASH_DIE_LOT_MA
 391              		.loc 1 1659 0
 392 00d4 704B     		ldr	r3, .L50+20
 393 00d6 1B78     		ldrb	r3, [r3]
 394 00d8 5B04     		lsls	r3, r3, #17
 395 00da FE22     		movs	r2, #254
 396 00dc 1204     		lsls	r2, r2, #16
 397 00de 1340     		ands	r3, r2
1654:Generated_Source\PSoC4/BLE_1_eventHandler.c ****                     ((uint32)(((uint32)CYBLE_SFLASH_DIE_Y_REG) & ((uint32)CYBLE_SFLASH_DIE_Y_MASK))
 398              		.loc 1 1654 0
 399 00e0 0B43     		orrs	r3, r1
 400              	.LVL30:
1660:Generated_Source\PSoC4/BLE_1_eventHandler.c ****                         CYBLE_SFLASH_DIE_XYWAFER_BITS);
1661:Generated_Source\PSoC4/BLE_1_eventHandler.c ****                             
1662:Generated_Source\PSoC4/BLE_1_eventHandler.c ****                 cyBle_deviceAddress.bdAddr[0] = (uint8)bdAddrLoc;
 401              		.loc 1 1662 0
 402 00e2 6E48     		ldr	r0, .L50+24
 403 00e4 0370     		strb	r3, [r0]
1663:Generated_Source\PSoC4/BLE_1_eventHandler.c ****                 cyBle_deviceAddress.bdAddr[1] = (uint8)(bdAddrLoc >> 8u);
 404              		.loc 1 1663 0
 405 00e6 1A0A     		lsrs	r2, r3, #8
 406 00e8 4270     		strb	r2, [r0, #1]
1664:Generated_Source\PSoC4/BLE_1_eventHandler.c ****                 cyBle_deviceAddress.bdAddr[2] = (uint8)(bdAddrLoc >> 16u);
 407              		.loc 1 1664 0
 408 00ea 1B0C     		lsrs	r3, r3, #16
 409              	.LVL31:
 410 00ec 8370     		strb	r3, [r0, #2]
 411              	.LBE4:
1665:Generated_Source\PSoC4/BLE_1_eventHandler.c ****             }
1666:Generated_Source\PSoC4/BLE_1_eventHandler.c ****             #endif /* SILICON_GENERATED_DEVICE_ADDRESS != 0u */
1667:Generated_Source\PSoC4/BLE_1_eventHandler.c ****                 (void) CyBle_SetDeviceAddress(&cyBle_deviceAddress);
 412              		.loc 1 1667 0
 413 00ee FFF7FEFF 		bl	CyBle_SetDeviceAddress
 414              	.LVL32:
 415              	.L41:
1668:Generated_Source\PSoC4/BLE_1_eventHandler.c ****                 #if(CYBLE_GAP_ROLE_PERIPHERAL || CYBLE_GAP_ROLE_BROADCASTER)
1669:Generated_Source\PSoC4/BLE_1_eventHandler.c ****                     CyBle_ChangeAdDeviceAddress(&cyBle_deviceAddress, 0u);
1670:Generated_Source\PSoC4/BLE_1_eventHandler.c ****                     CyBle_ChangeAdDeviceAddress(&cyBle_deviceAddress, 1u);
1671:Generated_Source\PSoC4/BLE_1_eventHandler.c ****                 #endif /* CYBLE_GAP_ROLE_PERIPHERAL || CYBLE_GAP_ROLE_BROADCASTER */    
1672:Generated_Source\PSoC4/BLE_1_eventHandler.c ****             }
1673:Generated_Source\PSoC4/BLE_1_eventHandler.c ****             /* Set device IO Capability  */
1674:Generated_Source\PSoC4/BLE_1_eventHandler.c ****             (void) CyBle_GapSetIoCap(CYBLE_IO_CAPABILITY);    
ARM GAS  C:\Users\haras\AppData\Local\Temp\ccSR9wHM.s 			page 38


 416              		.loc 1 1674 0
 417 00f2 0020     		movs	r0, #0
 418 00f4 FFF7FEFF 		bl	CyBle_GapSetIoCap
 419              	.LVL33:
 420              	.LBB5:
1675:Generated_Source\PSoC4/BLE_1_eventHandler.c ****             {
1676:Generated_Source\PSoC4/BLE_1_eventHandler.c ****                 /* Enable all 4.1 events and configured 4.2 events */
1677:Generated_Source\PSoC4/BLE_1_eventHandler.c ****                 uint8 leMask[CYBLE_LE_MASK_LENGTH] = {LO8(CYBLE_LE_MASK), HI8(CYBLE_LE_MASK)};
 421              		.loc 1 1677 0
 422 00f8 0222     		movs	r2, #2
 423 00fa 6949     		ldr	r1, .L50+28
 424 00fc 01A8     		add	r0, sp, #4
 425 00fe FFF7FEFF 		bl	memcpy
 426              	.LVL34:
1678:Generated_Source\PSoC4/BLE_1_eventHandler.c ****                 (void) CyBle_GapSetLeEventMask(leMask);
 427              		.loc 1 1678 0
 428 0102 01A8     		add	r0, sp, #4
 429 0104 FFF7FEFF 		bl	CyBle_GapSetLeEventMask
 430              	.LVL35:
 431              	.LBE5:
1679:Generated_Source\PSoC4/BLE_1_eventHandler.c ****             }
1680:Generated_Source\PSoC4/BLE_1_eventHandler.c ****         #if(CYBLE_DLE_FEATURE_ENABLED)
1681:Generated_Source\PSoC4/BLE_1_eventHandler.c ****         {
1682:Generated_Source\PSoC4/BLE_1_eventHandler.c ****             /* Set maximum suggested TX payload size */
1683:Generated_Source\PSoC4/BLE_1_eventHandler.c ****             uint16 payloadTime = CYBLE_LL_MAX_TX_TIME;
1684:Generated_Source\PSoC4/BLE_1_eventHandler.c ****             (void) CyBle_GapConvertOctetToTime(CYBLE_GAP_PHY_1MBPS, CYBLE_LL_MAX_TX_PAYLOAD_SIZE, &
1685:Generated_Source\PSoC4/BLE_1_eventHandler.c ****             (void) CyBle_GapSetSuggestedDataLength(CYBLE_LL_MAX_TX_PAYLOAD_SIZE, payloadTime); 
1686:Generated_Source\PSoC4/BLE_1_eventHandler.c ****         }
1687:Generated_Source\PSoC4/BLE_1_eventHandler.c ****         #endif /* CYBLE_DLE_FEATURE != 0u */
1688:Generated_Source\PSoC4/BLE_1_eventHandler.c ****         
1689:Generated_Source\PSoC4/BLE_1_eventHandler.c ****         #endif /* CYBLE_GATT_ROLE_SERVER || CYBLE_GATT_ROLE_CLIENT */
1690:Generated_Source\PSoC4/BLE_1_eventHandler.c ****             CyBle_SetState(CYBLE_STATE_DISCONNECTED);
 432              		.loc 1 1690 0
 433 0108 0522     		movs	r2, #5
 434 010a 664B     		ldr	r3, .L50+32
 435 010c 1A70     		strb	r2, [r3]
1691:Generated_Source\PSoC4/BLE_1_eventHandler.c ****             break;
 436              		.loc 1 1691 0
 437 010e A8E0     		b	.L21
 438              	.LVL36:
 439              	.L26:
1692:Generated_Source\PSoC4/BLE_1_eventHandler.c ****         case CYBLE_EVT_TIMEOUT:
1693:Generated_Source\PSoC4/BLE_1_eventHandler.c ****             CyBle_TimeOutEventHandler((CYBLE_TO_REASON_CODE_T *)eventParam);
 440              		.loc 1 1693 0
 441 0110 2800     		movs	r0, r5
 442              	.LVL37:
 443 0112 FFF7FEFF 		bl	CyBle_TimeOutEventHandler
 444              	.LVL38:
1694:Generated_Source\PSoC4/BLE_1_eventHandler.c ****             break;
 445              		.loc 1 1694 0
 446 0116 A4E0     		b	.L21
 447              	.LVL39:
 448              	.L27:
1695:Generated_Source\PSoC4/BLE_1_eventHandler.c ****     	case CYBLE_EVT_STACK_BUSY_STATUS:
1696:Generated_Source\PSoC4/BLE_1_eventHandler.c ****             cyBle_busyStatus = *(uint8 *)eventParam;
 449              		.loc 1 1696 0
 450 0118 2A78     		ldrb	r2, [r5]
ARM GAS  C:\Users\haras\AppData\Local\Temp\ccSR9wHM.s 			page 39


 451 011a 634B     		ldr	r3, .L50+36
 452 011c 1A70     		strb	r2, [r3]
1697:Generated_Source\PSoC4/BLE_1_eventHandler.c ****             break;
 453              		.loc 1 1697 0
 454 011e A0E0     		b	.L21
 455              	.L24:
 456              	.LVL40:
 457              	.LBB6:
1698:Generated_Source\PSoC4/BLE_1_eventHandler.c ****     	case CYBLE_EVT_MEMORY_REQUEST:
1699:Generated_Source\PSoC4/BLE_1_eventHandler.c ****         #if(CYBLE_MODE_PROFILE)
1700:Generated_Source\PSoC4/BLE_1_eventHandler.c ****         {
1701:Generated_Source\PSoC4/BLE_1_eventHandler.c ****             CYBLE_MEMORY_REQUEST_T *memReq = (CYBLE_MEMORY_REQUEST_T *)eventParam;
1702:Generated_Source\PSoC4/BLE_1_eventHandler.c ****             if(memReq->request == CYBLE_PREPARED_WRITE_REQUEST)
 458              		.loc 1 1702 0
 459 0120 2B78     		ldrb	r3, [r5]
 460 0122 002B     		cmp	r3, #0
 461 0124 00D0     		beq	.LCB394
 462 0126 9CE0     		b	.L21	@long jump
 463              	.LCB394:
1703:Generated_Source\PSoC4/BLE_1_eventHandler.c ****             {  
1704:Generated_Source\PSoC4/BLE_1_eventHandler.c ****             #if(CYBLE_GATT_ENABLE_EXTERNAL_PREP_WRITE_BUFF == 0u)
1705:Generated_Source\PSoC4/BLE_1_eventHandler.c ****                 /* Stack requests to provide memory to process remote request */
1706:Generated_Source\PSoC4/BLE_1_eventHandler.c ****                 if(memReq->allocFree == CYBLE_ALLOC_MEMORY)
 464              		.loc 1 1706 0
 465 0128 6B78     		ldrb	r3, [r5, #1]
 466 012a 002B     		cmp	r3, #0
 467 012c 06D1     		bne	.L42
 468              	.LBB7:
1707:Generated_Source\PSoC4/BLE_1_eventHandler.c ****                 {
1708:Generated_Source\PSoC4/BLE_1_eventHandler.c ****                     static CYBLE_PREPARE_WRITE_REQUEST_MEMORY_T gPrepWriteReqMem;
1709:Generated_Source\PSoC4/BLE_1_eventHandler.c ****                     
1710:Generated_Source\PSoC4/BLE_1_eventHandler.c ****                     /* Configure and return statically allocated buffer at the end of cyBle_stackMe
1711:Generated_Source\PSoC4/BLE_1_eventHandler.c ****                     gPrepWriteReqMem.prepareWriteQueueSize = CYBLE_GATT_MAX_PREPARE_BUFF_COUNT;
 469              		.loc 1 1711 0
 470 012e 5F4B     		ldr	r3, .L50+40
 471 0130 0022     		movs	r2, #0
 472 0132 DA80     		strh	r2, [r3, #6]
1712:Generated_Source\PSoC4/BLE_1_eventHandler.c ****                     gPrepWriteReqMem.totalAttrValueLength = CYBLE_GATT_PREPARE_LENGTH_ALIGN;
 473              		.loc 1 1712 0
 474 0134 9A80     		strh	r2, [r3, #4]
1713:Generated_Source\PSoC4/BLE_1_eventHandler.c ****                     gPrepWriteReqMem.queueBuffer = &cyBle_stackMemoryRam[CYBLE_STACK_RAM_SIZE - 
 475              		.loc 1 1713 0
 476 0136 5E4A     		ldr	r2, .L50+44
 477 0138 1A60     		str	r2, [r3]
1714:Generated_Source\PSoC4/BLE_1_eventHandler.c ****                                                                          CYBLE_GATT_PREPARE_WRITE_B
1715:Generated_Source\PSoC4/BLE_1_eventHandler.c ****                     memReq->configMemory = &gPrepWriteReqMem;  
 478              		.loc 1 1715 0
 479 013a 6B60     		str	r3, [r5, #4]
 480              	.L42:
 481              	.LBE7:
1716:Generated_Source\PSoC4/BLE_1_eventHandler.c ****                 }                
1717:Generated_Source\PSoC4/BLE_1_eventHandler.c ****                 /* Clear CYBLE_CALLBACK flag not to provide handled event to application */
1718:Generated_Source\PSoC4/BLE_1_eventHandler.c ****                 cyBle_eventHandlerFlag &= (uint8)~CYBLE_CALLBACK;
 482              		.loc 1 1718 0
 483 013c 514A     		ldr	r2, .L50
 484 013e 1378     		ldrb	r3, [r2]
 485 0140 0121     		movs	r1, #1
ARM GAS  C:\Users\haras\AppData\Local\Temp\ccSR9wHM.s 			page 40


 486 0142 8B43     		bics	r3, r1
 487 0144 1370     		strb	r3, [r2]
 488 0146 8CE0     		b	.L21
 489              	.LVL41:
 490              	.L31:
 491              	.LBE6:
1719:Generated_Source\PSoC4/BLE_1_eventHandler.c ****             #endif  /* CYBLE_GATT_ENABLE_EXTERNAL_PREP_WRITE_BUFF == 0u */
1720:Generated_Source\PSoC4/BLE_1_eventHandler.c ****             }
1721:Generated_Source\PSoC4/BLE_1_eventHandler.c ****         }
1722:Generated_Source\PSoC4/BLE_1_eventHandler.c ****         #endif /* CYBLE_MODE_PROFILE */
1723:Generated_Source\PSoC4/BLE_1_eventHandler.c ****             break;
1724:Generated_Source\PSoC4/BLE_1_eventHandler.c ****         /**********************************************************
1725:Generated_Source\PSoC4/BLE_1_eventHandler.c ****         * GAP events
1726:Generated_Source\PSoC4/BLE_1_eventHandler.c ****         ************************************************************/
1727:Generated_Source\PSoC4/BLE_1_eventHandler.c ****         case CYBLE_EVT_GAP_AUTH_REQ:
1728:Generated_Source\PSoC4/BLE_1_eventHandler.c ****         #if(CYBLE_MODE_PROFILE)
1729:Generated_Source\PSoC4/BLE_1_eventHandler.c ****             if((cyBle_eventHandlerFlag & CYBLE_DISABLE_AUTOMATIC_AUTH) == 0u)
 492              		.loc 1 1729 0
 493 0148 4E4B     		ldr	r3, .L50
 494 014a 1B78     		ldrb	r3, [r3]
 495 014c 9B06     		lsls	r3, r3, #26
 496 014e 00D5     		bpl	.LCB431
 497 0150 87E0     		b	.L21	@long jump
 498              	.LCB431:
1730:Generated_Source\PSoC4/BLE_1_eventHandler.c ****             {
1731:Generated_Source\PSoC4/BLE_1_eventHandler.c ****                 /* If the responding device does not support pairing then the responding 
1732:Generated_Source\PSoC4/BLE_1_eventHandler.c ****                    device shall respond using the Pairing Failed message with the error 
1733:Generated_Source\PSoC4/BLE_1_eventHandler.c ****                    code "Pairing Not Supported" otherwise it responds with a Pairing 
1734:Generated_Source\PSoC4/BLE_1_eventHandler.c ****                    Response message.
1735:Generated_Source\PSoC4/BLE_1_eventHandler.c ****                 */
1736:Generated_Source\PSoC4/BLE_1_eventHandler.c ****                 if(cyBle_authInfo.security == (CYBLE_GAP_SEC_MODE_1 | CYBLE_GAP_SEC_LEVEL_1))
 499              		.loc 1 1736 0
 500 0152 584B     		ldr	r3, .L50+48
 501 0154 1B78     		ldrb	r3, [r3]
 502 0156 102B     		cmp	r3, #16
 503 0158 02D1     		bne	.L43
1737:Generated_Source\PSoC4/BLE_1_eventHandler.c ****                 {
1738:Generated_Source\PSoC4/BLE_1_eventHandler.c ****                     cyBle_authInfo.authErr = CYBLE_GAP_AUTH_ERROR_PAIRING_NOT_SUPPORTED;
 504              		.loc 1 1738 0
 505 015a 0522     		movs	r2, #5
 506 015c 554B     		ldr	r3, .L50+48
 507 015e DA70     		strb	r2, [r3, #3]
 508              	.L43:
1739:Generated_Source\PSoC4/BLE_1_eventHandler.c ****                 }    
1740:Generated_Source\PSoC4/BLE_1_eventHandler.c ****             #if(CYBLE_GAP_ROLE_PERIPHERAL)
1741:Generated_Source\PSoC4/BLE_1_eventHandler.c ****                 {
1742:Generated_Source\PSoC4/BLE_1_eventHandler.c ****                     CYBLE_API_RESULT_T apiResult;
1743:Generated_Source\PSoC4/BLE_1_eventHandler.c ****                     
1744:Generated_Source\PSoC4/BLE_1_eventHandler.c ****                     apiResult = CyBle_GappAuthReqReply(cyBle_connHandle.bdHandle, &cyBle_authInfo);
1745:Generated_Source\PSoC4/BLE_1_eventHandler.c ****                     /* Setting callback flag again as CyBle_GappAuthReqReply() will generate
1746:Generated_Source\PSoC4/BLE_1_eventHandler.c ****                     * CYBLE_EVT_GAP_SMP_NEGOTIATED_AUTH_INFO event which will clear the callback
1747:Generated_Source\PSoC4/BLE_1_eventHandler.c ****                     * flag.
1748:Generated_Source\PSoC4/BLE_1_eventHandler.c ****                     */
1749:Generated_Source\PSoC4/BLE_1_eventHandler.c ****                     if (apiResult != CYBLE_ERROR_OK)
1750:Generated_Source\PSoC4/BLE_1_eventHandler.c ****                     {   
1751:Generated_Source\PSoC4/BLE_1_eventHandler.c ****                         CyBle_ApplCallback(CYBLE_EVT_GAP_AUTH_REQ_REPLY_ERR , &apiResult);
1752:Generated_Source\PSoC4/BLE_1_eventHandler.c ****                     }
ARM GAS  C:\Users\haras\AppData\Local\Temp\ccSR9wHM.s 			page 41


1753:Generated_Source\PSoC4/BLE_1_eventHandler.c ****                     cyBle_eventHandlerFlag |= CYBLE_CALLBACK;
1754:Generated_Source\PSoC4/BLE_1_eventHandler.c ****                 }
1755:Generated_Source\PSoC4/BLE_1_eventHandler.c ****             #endif /* CYBLE_GAP_ROLE_PERIPHERAL */
1756:Generated_Source\PSoC4/BLE_1_eventHandler.c ****             #if (CYBLE_GAP_ROLE_CENTRAL)
1757:Generated_Source\PSoC4/BLE_1_eventHandler.c ****                 (void)CyBle_GapAuthReq(cyBle_connHandle.bdHandle, &cyBle_authInfo);
 509              		.loc 1 1757 0
 510 0160 554B     		ldr	r3, .L50+52
 511 0162 1878     		ldrb	r0, [r3]
 512              	.LVL42:
 513 0164 5349     		ldr	r1, .L50+48
 514 0166 FFF7FEFF 		bl	CyBle_GapAuthReq
 515              	.LVL43:
 516 016a 7AE0     		b	.L21
 517              	.LVL44:
 518              	.L29:
1758:Generated_Source\PSoC4/BLE_1_eventHandler.c ****             #endif /* CYBLE_GAP_ROLE_CENTRAL */
1759:Generated_Source\PSoC4/BLE_1_eventHandler.c ****             }
1760:Generated_Source\PSoC4/BLE_1_eventHandler.c ****         #endif /* CYBLE_MODE_PROFILE */
1761:Generated_Source\PSoC4/BLE_1_eventHandler.c ****             break;
1762:Generated_Source\PSoC4/BLE_1_eventHandler.c ****         
1763:Generated_Source\PSoC4/BLE_1_eventHandler.c ****         case CYBLE_EVT_GAP_AUTH_COMPLETE:
1764:Generated_Source\PSoC4/BLE_1_eventHandler.c ****         #if((CYBLE_GAP_ROLE_PERIPHERAL || CYBLE_GAP_ROLE_CENTRAL) && (CYBLE_BONDING_REQUIREMENT == 
1765:Generated_Source\PSoC4/BLE_1_eventHandler.c ****             cyBle_peerBonding = ((CYBLE_GAP_AUTH_INFO_T *)eventParam)->bonding;
 519              		.loc 1 1765 0
 520 016c 6A78     		ldrb	r2, [r5, #1]
 521 016e 534B     		ldr	r3, .L50+56
 522 0170 1A70     		strb	r2, [r3]
1766:Generated_Source\PSoC4/BLE_1_eventHandler.c ****         #endif  /* CYBLE_BONDING_REQUIREMENT == CYBLE_BONDING_YES */
1767:Generated_Source\PSoC4/BLE_1_eventHandler.c ****             break;
 523              		.loc 1 1767 0
 524 0172 76E0     		b	.L21
 525              	.L34:
 526              	.LVL45:
 527              	.LBB8:
1768:Generated_Source\PSoC4/BLE_1_eventHandler.c ****         
1769:Generated_Source\PSoC4/BLE_1_eventHandler.c ****         case CYBLE_EVT_GAP_CONNECTION_UPDATE_COMPLETE:
1770:Generated_Source\PSoC4/BLE_1_eventHandler.c ****             CyBle_GapConnUpdateCompleteEventHandler((const CYBLE_GAP_CONN_PARAM_UPDATED_IN_CONTROLL
1771:Generated_Source\PSoC4/BLE_1_eventHandler.c ****             break;
1772:Generated_Source\PSoC4/BLE_1_eventHandler.c ****             
1773:Generated_Source\PSoC4/BLE_1_eventHandler.c ****     #if(CYBLE_LL_PRIVACY_FEATURE != 0u)        
1774:Generated_Source\PSoC4/BLE_1_eventHandler.c ****         case CYBLE_EVT_GAP_ENHANCE_CONN_COMPLETE:
1775:Generated_Source\PSoC4/BLE_1_eventHandler.c ****         {
1776:Generated_Source\PSoC4/BLE_1_eventHandler.c ****             CYBLE_GAP_CONN_PARAM_UPDATED_IN_CONTROLLER_T  connCParam;
1777:Generated_Source\PSoC4/BLE_1_eventHandler.c ****             CYBLE_GAP_ENHANCE_CONN_COMPLETE_T *connEnhanceParam;
1778:Generated_Source\PSoC4/BLE_1_eventHandler.c ****             
1779:Generated_Source\PSoC4/BLE_1_eventHandler.c ****             connEnhanceParam = (CYBLE_GAP_ENHANCE_CONN_COMPLETE_T *)eventParam;
1780:Generated_Source\PSoC4/BLE_1_eventHandler.c ****             connCParam.status = connEnhanceParam->status;
1781:Generated_Source\PSoC4/BLE_1_eventHandler.c ****             connCParam.connIntv = connEnhanceParam->connIntv;
1782:Generated_Source\PSoC4/BLE_1_eventHandler.c ****             connCParam.connLatency = connEnhanceParam->connLatency;
1783:Generated_Source\PSoC4/BLE_1_eventHandler.c ****             connCParam.supervisionTO = connEnhanceParam->supervisionTo;
1784:Generated_Source\PSoC4/BLE_1_eventHandler.c ****             CyBle_GapConnUpdateCompleteEventHandler((const CYBLE_GAP_CONN_PARAM_UPDATED_IN_CONTROLL
1785:Generated_Source\PSoC4/BLE_1_eventHandler.c ****             
1786:Generated_Source\PSoC4/BLE_1_eventHandler.c ****             #if(CYBLE_GAP_ROLE_CENTRAL)
1787:Generated_Source\PSoC4/BLE_1_eventHandler.c ****                 if(cyBle_connectingTimeout != 0u)
 528              		.loc 1 1787 0
 529 0174 524B     		ldr	r3, .L50+60
 530 0176 1B88     		ldrh	r3, [r3]
ARM GAS  C:\Users\haras\AppData\Local\Temp\ccSR9wHM.s 			page 42


 531 0178 002B     		cmp	r3, #0
 532 017a 01D0     		beq	.L44
1788:Generated_Source\PSoC4/BLE_1_eventHandler.c ****                 {
1789:Generated_Source\PSoC4/BLE_1_eventHandler.c ****                    (void)CyBle_StopTimer();
 533              		.loc 1 1789 0
 534 017c FFF7FEFF 		bl	CyBle_StopTimer
 535              	.LVL46:
 536              	.L44:
1790:Generated_Source\PSoC4/BLE_1_eventHandler.c ****                 }
1791:Generated_Source\PSoC4/BLE_1_eventHandler.c ****             #endif /* CYBLE_GAP_ROLE_CENTRAL */
1792:Generated_Source\PSoC4/BLE_1_eventHandler.c ****             CyBle_SetState(CYBLE_STATE_CONNECTED);
 537              		.loc 1 1792 0
 538 0180 0222     		movs	r2, #2
 539 0182 484B     		ldr	r3, .L50+32
 540 0184 1A70     		strb	r2, [r3]
 541              	.LBE8:
1793:Generated_Source\PSoC4/BLE_1_eventHandler.c ****         }
1794:Generated_Source\PSoC4/BLE_1_eventHandler.c ****             break;
 542              		.loc 1 1794 0
 543 0186 6CE0     		b	.L21
 544              	.LVL47:
 545              	.L30:
1795:Generated_Source\PSoC4/BLE_1_eventHandler.c ****     #endif /* CYBLE_LL_PRIVACY_FEATURE != 0u */      
1796:Generated_Source\PSoC4/BLE_1_eventHandler.c ****             
1797:Generated_Source\PSoC4/BLE_1_eventHandler.c ****         case CYBLE_EVT_GAP_DEVICE_CONNECTED:
1798:Generated_Source\PSoC4/BLE_1_eventHandler.c ****             CyBle_GapConnUpdateCompleteEventHandler((const CYBLE_GAP_CONN_PARAM_UPDATED_IN_CONTROLL
1799:Generated_Source\PSoC4/BLE_1_eventHandler.c ****             #if(CYBLE_GAP_ROLE_CENTRAL)
1800:Generated_Source\PSoC4/BLE_1_eventHandler.c ****                 if(cyBle_connectingTimeout != 0u)
 546              		.loc 1 1800 0
 547 0188 4D4B     		ldr	r3, .L50+60
 548 018a 1B88     		ldrh	r3, [r3]
 549 018c 002B     		cmp	r3, #0
 550 018e 01D0     		beq	.L45
1801:Generated_Source\PSoC4/BLE_1_eventHandler.c ****                 {
1802:Generated_Source\PSoC4/BLE_1_eventHandler.c ****                    (void)CyBle_StopTimer();
 551              		.loc 1 1802 0
 552 0190 FFF7FEFF 		bl	CyBle_StopTimer
 553              	.LVL48:
 554              	.L45:
1803:Generated_Source\PSoC4/BLE_1_eventHandler.c ****                 }
1804:Generated_Source\PSoC4/BLE_1_eventHandler.c ****             #endif /* CYBLE_GAP_ROLE_CENTRAL */
1805:Generated_Source\PSoC4/BLE_1_eventHandler.c ****             CyBle_SetState(CYBLE_STATE_CONNECTED);
 555              		.loc 1 1805 0
 556 0194 0222     		movs	r2, #2
 557 0196 434B     		ldr	r3, .L50+32
 558 0198 1A70     		strb	r2, [r3]
1806:Generated_Source\PSoC4/BLE_1_eventHandler.c ****             break;
 559              		.loc 1 1806 0
 560 019a 62E0     		b	.L21
 561              	.LVL49:
 562              	.L22:
1807:Generated_Source\PSoC4/BLE_1_eventHandler.c **** 
1808:Generated_Source\PSoC4/BLE_1_eventHandler.c ****         case CYBLE_EVT_GAP_DEVICE_DISCONNECTED:
1809:Generated_Source\PSoC4/BLE_1_eventHandler.c ****             CyBle_SetState(CYBLE_STATE_DISCONNECTED);
 563              		.loc 1 1809 0
 564 019c 0522     		movs	r2, #5
 565 019e 414B     		ldr	r3, .L50+32
ARM GAS  C:\Users\haras\AppData\Local\Temp\ccSR9wHM.s 			page 43


 566 01a0 1A70     		strb	r2, [r3]
1810:Generated_Source\PSoC4/BLE_1_eventHandler.c ****             break;
 567              		.loc 1 1810 0
 568 01a2 5EE0     		b	.L21
 569              	.L36:
1811:Generated_Source\PSoC4/BLE_1_eventHandler.c ****         #if(CYBLE_GAP_ROLE_PERIPHERAL || CYBLE_GAP_ROLE_BROADCASTER)
1812:Generated_Source\PSoC4/BLE_1_eventHandler.c ****             
1813:Generated_Source\PSoC4/BLE_1_eventHandler.c ****         case CYBLE_EVT_GAPP_ADVERTISEMENT_START_STOP:
1814:Generated_Source\PSoC4/BLE_1_eventHandler.c ****             #ifdef CYBLE_CPS_SERVER
1815:Generated_Source\PSoC4/BLE_1_eventHandler.c ****                 #if(CYBLE_GAP_ROLE_BROADCASTER)
1816:Generated_Source\PSoC4/BLE_1_eventHandler.c ****                     CyBle_CpssAdvertisementStartStopEventHandler();
1817:Generated_Source\PSoC4/BLE_1_eventHandler.c ****                 #endif /* CYBLE_GAP_ROLE_BROADCASTER */
1818:Generated_Source\PSoC4/BLE_1_eventHandler.c ****             #endif /* CYBLE_CPS_SERVER */
1819:Generated_Source\PSoC4/BLE_1_eventHandler.c ****             
1820:Generated_Source\PSoC4/BLE_1_eventHandler.c ****             if((CYBLE_STATE_CONNECTED != CyBle_GetState()) && ((cyBle_eventHandlerFlag & CYBLE_CALL
1821:Generated_Source\PSoC4/BLE_1_eventHandler.c ****             {
1822:Generated_Source\PSoC4/BLE_1_eventHandler.c ****                 /* After CyBle_GappStartAdvertisement first event indicates that advertising has be
1823:Generated_Source\PSoC4/BLE_1_eventHandler.c ****                 if(0u != (cyBle_eventHandlerFlag & CYBLE_START_FLAG))
1824:Generated_Source\PSoC4/BLE_1_eventHandler.c ****                 {
1825:Generated_Source\PSoC4/BLE_1_eventHandler.c ****                     CyBle_SetState(CYBLE_STATE_ADVERTISING);
1826:Generated_Source\PSoC4/BLE_1_eventHandler.c ****                     cyBle_eventHandlerFlag &= (uint8)~CYBLE_START_FLAG;
1827:Generated_Source\PSoC4/BLE_1_eventHandler.c ****                 }
1828:Generated_Source\PSoC4/BLE_1_eventHandler.c ****                 /* When application initiated stop advertisement */
1829:Generated_Source\PSoC4/BLE_1_eventHandler.c ****                 else if(0u != (cyBle_eventHandlerFlag & CYBLE_STOP_FLAG))
1830:Generated_Source\PSoC4/BLE_1_eventHandler.c ****                 {
1831:Generated_Source\PSoC4/BLE_1_eventHandler.c ****                     CyBle_SetState(CYBLE_STATE_DISCONNECTED);  
1832:Generated_Source\PSoC4/BLE_1_eventHandler.c ****                     cyBle_eventHandlerFlag &= (uint8)~CYBLE_STOP_FLAG;
1833:Generated_Source\PSoC4/BLE_1_eventHandler.c ****                 }
1834:Generated_Source\PSoC4/BLE_1_eventHandler.c ****                 else /* Following event indicates that advertising has been stopped */
1835:Generated_Source\PSoC4/BLE_1_eventHandler.c ****                 {
1836:Generated_Source\PSoC4/BLE_1_eventHandler.c ****                     if(CyBle_GetState() == CYBLE_STATE_ADVERTISING)
1837:Generated_Source\PSoC4/BLE_1_eventHandler.c ****                     {
1838:Generated_Source\PSoC4/BLE_1_eventHandler.c ****                         CyBle_SetState(CYBLE_STATE_DISCONNECTED);
1839:Generated_Source\PSoC4/BLE_1_eventHandler.c ****                     #if ((CYBLE_SLOW_ADV_ENABLED != 0u) && (CYBLE_FAST_ADV_TIMEOUT != 0u))
1840:Generated_Source\PSoC4/BLE_1_eventHandler.c ****                         if(cyBle_advertisingIntervalType == CYBLE_ADVERTISING_FAST)
1841:Generated_Source\PSoC4/BLE_1_eventHandler.c ****                         {
1842:Generated_Source\PSoC4/BLE_1_eventHandler.c ****                             /* When fast advertising time out occur: Start slow advertising */
1843:Generated_Source\PSoC4/BLE_1_eventHandler.c ****                             if(CyBle_GappStartAdvertisement(CYBLE_ADVERTISING_SLOW) == CYBLE_ERROR_
1844:Generated_Source\PSoC4/BLE_1_eventHandler.c ****                             {
1845:Generated_Source\PSoC4/BLE_1_eventHandler.c ****                                 CyBle_SetState(CYBLE_STATE_ADVERTISING);
1846:Generated_Source\PSoC4/BLE_1_eventHandler.c ****                             }
1847:Generated_Source\PSoC4/BLE_1_eventHandler.c ****                         }
1848:Generated_Source\PSoC4/BLE_1_eventHandler.c ****                     #endif /* CYBLE_SLOW_ADV_ENABLED */
1849:Generated_Source\PSoC4/BLE_1_eventHandler.c ****                     }
1850:Generated_Source\PSoC4/BLE_1_eventHandler.c ****                 }
1851:Generated_Source\PSoC4/BLE_1_eventHandler.c ****             }
1852:Generated_Source\PSoC4/BLE_1_eventHandler.c ****             break;
1853:Generated_Source\PSoC4/BLE_1_eventHandler.c ****         #endif /* CYBLE_GAP_ROLE_PERIPHERAL || CYBLE_GAP_ROLE_BROADCASTER */
1854:Generated_Source\PSoC4/BLE_1_eventHandler.c ****         
1855:Generated_Source\PSoC4/BLE_1_eventHandler.c ****         #if(CYBLE_GAP_ROLE_CENTRAL || CYBLE_GAP_ROLE_OBSERVER)    
1856:Generated_Source\PSoC4/BLE_1_eventHandler.c ****         case CYBLE_EVT_GAPC_SCAN_START_STOP:
1857:Generated_Source\PSoC4/BLE_1_eventHandler.c ****             #ifdef CYBLE_CPS_CLIENT
1858:Generated_Source\PSoC4/BLE_1_eventHandler.c ****                 CyBle_CpscScanStartStopEventHandler();
1859:Generated_Source\PSoC4/BLE_1_eventHandler.c ****             #endif /* CYBLE_CPS_CLIENT */
1860:Generated_Source\PSoC4/BLE_1_eventHandler.c ****             
1861:Generated_Source\PSoC4/BLE_1_eventHandler.c ****             if((CYBLE_STATE_CONNECTED != CyBle_GetState()) && ((cyBle_eventHandlerFlag & CYBLE_CALL
 570              		.loc 1 1861 0
ARM GAS  C:\Users\haras\AppData\Local\Temp\ccSR9wHM.s 			page 44


 571 01a4 3F4B     		ldr	r3, .L50+32
 572 01a6 1B78     		ldrb	r3, [r3]
 573 01a8 022B     		cmp	r3, #2
 574 01aa 5AD0     		beq	.L21
 575              		.loc 1 1861 0 is_stmt 0 discriminator 1
 576 01ac 354A     		ldr	r2, .L50
 577 01ae 1278     		ldrb	r2, [r2]
 578 01b0 D207     		lsls	r2, r2, #31
 579 01b2 56D5     		bpl	.L21
1862:Generated_Source\PSoC4/BLE_1_eventHandler.c ****             {
1863:Generated_Source\PSoC4/BLE_1_eventHandler.c ****                 /* After CyBle_GapcStartScan first event indicates that scanning has been started *
1864:Generated_Source\PSoC4/BLE_1_eventHandler.c ****                 if(0u != (cyBle_eventHandlerFlag & CYBLE_START_FLAG))
 580              		.loc 1 1864 0 is_stmt 1
 581 01b4 334A     		ldr	r2, .L50
 582 01b6 1278     		ldrb	r2, [r2]
 583 01b8 5207     		lsls	r2, r2, #29
 584 01ba 08D5     		bpl	.L46
1865:Generated_Source\PSoC4/BLE_1_eventHandler.c ****                 {
1866:Generated_Source\PSoC4/BLE_1_eventHandler.c ****                     CyBle_SetState(CYBLE_STATE_SCANNING);
 585              		.loc 1 1866 0
 586 01bc 0322     		movs	r2, #3
 587 01be 394B     		ldr	r3, .L50+32
 588 01c0 1A70     		strb	r2, [r3]
1867:Generated_Source\PSoC4/BLE_1_eventHandler.c ****                     cyBle_eventHandlerFlag &= (uint8)~CYBLE_START_FLAG;
 589              		.loc 1 1867 0
 590 01c2 304A     		ldr	r2, .L50
 591 01c4 1378     		ldrb	r3, [r2]
 592 01c6 0421     		movs	r1, #4
 593 01c8 8B43     		bics	r3, r1
 594 01ca 1370     		strb	r3, [r2]
 595 01cc 49E0     		b	.L21
 596              	.L46:
1868:Generated_Source\PSoC4/BLE_1_eventHandler.c ****                 }
1869:Generated_Source\PSoC4/BLE_1_eventHandler.c ****                 /* When application initiated stop scanning */
1870:Generated_Source\PSoC4/BLE_1_eventHandler.c ****                 else if(0u != (cyBle_eventHandlerFlag & CYBLE_STOP_FLAG))
 597              		.loc 1 1870 0
 598 01ce 2D4A     		ldr	r2, .L50
 599 01d0 1278     		ldrb	r2, [r2]
 600 01d2 1207     		lsls	r2, r2, #28
 601 01d4 08D5     		bpl	.L47
1871:Generated_Source\PSoC4/BLE_1_eventHandler.c ****                 {
1872:Generated_Source\PSoC4/BLE_1_eventHandler.c ****                     CyBle_SetState(CYBLE_STATE_DISCONNECTED);  
 602              		.loc 1 1872 0
 603 01d6 0522     		movs	r2, #5
 604 01d8 324B     		ldr	r3, .L50+32
 605 01da 1A70     		strb	r2, [r3]
1873:Generated_Source\PSoC4/BLE_1_eventHandler.c ****                     cyBle_eventHandlerFlag &= (uint8)~CYBLE_STOP_FLAG;
 606              		.loc 1 1873 0
 607 01dc 294A     		ldr	r2, .L50
 608 01de 1378     		ldrb	r3, [r2]
 609 01e0 0821     		movs	r1, #8
 610 01e2 8B43     		bics	r3, r1
 611 01e4 1370     		strb	r3, [r2]
 612 01e6 3CE0     		b	.L21
 613              	.L47:
1874:Generated_Source\PSoC4/BLE_1_eventHandler.c ****                 }
1875:Generated_Source\PSoC4/BLE_1_eventHandler.c ****                 else /* Following event indicates that scanning has been stopped by stack */
ARM GAS  C:\Users\haras\AppData\Local\Temp\ccSR9wHM.s 			page 45


1876:Generated_Source\PSoC4/BLE_1_eventHandler.c ****                 {
1877:Generated_Source\PSoC4/BLE_1_eventHandler.c ****                     if(CyBle_GetState() == CYBLE_STATE_SCANNING)
 614              		.loc 1 1877 0
 615 01e8 032B     		cmp	r3, #3
 616 01ea 3AD1     		bne	.L21
1878:Generated_Source\PSoC4/BLE_1_eventHandler.c ****                     {
1879:Generated_Source\PSoC4/BLE_1_eventHandler.c ****                         CyBle_SetState(CYBLE_STATE_DISCONNECTED);  
 617              		.loc 1 1879 0
 618 01ec 0522     		movs	r2, #5
 619 01ee 2D4B     		ldr	r3, .L50+32
 620 01f0 1A70     		strb	r2, [r3]
1880:Generated_Source\PSoC4/BLE_1_eventHandler.c ****                     #if ((CYBLE_SLOW_SCAN_ENABLED != 0u) && (CYBLE_FAST_SCAN_TIMEOUT != 0u))
1881:Generated_Source\PSoC4/BLE_1_eventHandler.c ****                         if(cyBle_scanningIntervalType == CYBLE_SCANNING_FAST)
 621              		.loc 1 1881 0
 622 01f2 344B     		ldr	r3, .L50+64
 623 01f4 1B78     		ldrb	r3, [r3]
 624 01f6 002B     		cmp	r3, #0
 625 01f8 33D1     		bne	.L21
1882:Generated_Source\PSoC4/BLE_1_eventHandler.c ****                         {
1883:Generated_Source\PSoC4/BLE_1_eventHandler.c ****                             /* When fast scanning time out occur: Start slow scanning */
1884:Generated_Source\PSoC4/BLE_1_eventHandler.c ****                             if(CyBle_GapcStartScan(CYBLE_SCANNING_SLOW) == CYBLE_ERROR_OK)
 626              		.loc 1 1884 0
 627 01fa 0120     		movs	r0, #1
 628              	.LVL50:
 629 01fc FFF7FEFF 		bl	CyBle_GapcStartScan
 630              	.LVL51:
 631 0200 0028     		cmp	r0, #0
 632 0202 2ED1     		bne	.L21
1885:Generated_Source\PSoC4/BLE_1_eventHandler.c ****                             {
1886:Generated_Source\PSoC4/BLE_1_eventHandler.c ****                                 CyBle_SetState(CYBLE_STATE_SCANNING);
 633              		.loc 1 1886 0
 634 0204 0322     		movs	r2, #3
 635 0206 274B     		ldr	r3, .L50+32
 636 0208 1A70     		strb	r2, [r3]
 637 020a 2AE0     		b	.L21
 638              	.LVL52:
 639              	.L35:
1887:Generated_Source\PSoC4/BLE_1_eventHandler.c ****                             }
1888:Generated_Source\PSoC4/BLE_1_eventHandler.c ****                         }
1889:Generated_Source\PSoC4/BLE_1_eventHandler.c ****                     #endif /* CYBLE_SLOW_SCAN_ENABLED */
1890:Generated_Source\PSoC4/BLE_1_eventHandler.c ****                     }
1891:Generated_Source\PSoC4/BLE_1_eventHandler.c ****                 }
1892:Generated_Source\PSoC4/BLE_1_eventHandler.c ****             }
1893:Generated_Source\PSoC4/BLE_1_eventHandler.c ****             break;
1894:Generated_Source\PSoC4/BLE_1_eventHandler.c ****         #endif /* CYBLE_GAP_ROLE_CENTRAL || CYBLE_GAP_ROLE_OBSERVER */
1895:Generated_Source\PSoC4/BLE_1_eventHandler.c **** 
1896:Generated_Source\PSoC4/BLE_1_eventHandler.c ****         /**********************************************************
1897:Generated_Source\PSoC4/BLE_1_eventHandler.c ****         * L2AP events 
1898:Generated_Source\PSoC4/BLE_1_eventHandler.c ****         ************************************************************/
1899:Generated_Source\PSoC4/BLE_1_eventHandler.c ****         case CYBLE_EVT_L2CAP_CONN_PARAM_UPDATE_RSP:
1900:Generated_Source\PSoC4/BLE_1_eventHandler.c ****             CyBle_L2Cap_ConnParamUpdateRspEventHandler(*(uint16 *)eventParam);
1901:Generated_Source\PSoC4/BLE_1_eventHandler.c ****             break;
1902:Generated_Source\PSoC4/BLE_1_eventHandler.c ****         
1903:Generated_Source\PSoC4/BLE_1_eventHandler.c ****         /**********************************************************
1904:Generated_Source\PSoC4/BLE_1_eventHandler.c ****         * GATT events
1905:Generated_Source\PSoC4/BLE_1_eventHandler.c ****         ************************************************************/        
1906:Generated_Source\PSoC4/BLE_1_eventHandler.c ****         case CYBLE_EVT_GATT_CONNECT_IND:
ARM GAS  C:\Users\haras\AppData\Local\Temp\ccSR9wHM.s 			page 46


1907:Generated_Source\PSoC4/BLE_1_eventHandler.c ****             cyBle_connHandle = *(CYBLE_CONN_HANDLE_T *)eventParam;
 640              		.loc 1 1907 0
 641 020c 2A4E     		ldr	r6, .L50+52
 642 020e 0222     		movs	r2, #2
 643 0210 2900     		movs	r1, r5
 644 0212 3000     		movs	r0, r6
 645              	.LVL53:
 646 0214 FFF7FEFF 		bl	memcpy
 647              	.LVL54:
1908:Generated_Source\PSoC4/BLE_1_eventHandler.c ****             cyBle_busyStatus = CYBLE_STACK_STATE_FREE;
 648              		.loc 1 1908 0
 649 0218 0022     		movs	r2, #0
 650 021a 234B     		ldr	r3, .L50+36
 651 021c 1A70     		strb	r2, [r3]
1909:Generated_Source\PSoC4/BLE_1_eventHandler.c ****             
1910:Generated_Source\PSoC4/BLE_1_eventHandler.c ****         #if((CYBLE_GATT_ROLE_SERVER) && (CYBLE_GATT_DB_CCCD_COUNT != 0u) && \
1911:Generated_Source\PSoC4/BLE_1_eventHandler.c ****             (CYBLE_BONDING_REQUIREMENT == CYBLE_BONDING_YES))
1912:Generated_Source\PSoC4/BLE_1_eventHandler.c ****             /* Init CCCD values in RAM when bonding is enabled */
1913:Generated_Source\PSoC4/BLE_1_eventHandler.c ****         	(void) memcpy (cyBle_attValuesCCCD, cyBle_flashStorage.attValuesCCCDFlashMemory[cyBle_conn
 652              		.loc 1 1913 0
 653 021e 3378     		ldrb	r3, [r6]
 654 0220 5A00     		lsls	r2, r3, #1
 655 0222 D218     		adds	r2, r2, r3
 656 0224 5300     		lsls	r3, r2, #1
 657 0226 2849     		ldr	r1, .L50+68
 658 0228 C918     		adds	r1, r1, r3
 659 022a 284B     		ldr	r3, .L50+72
 660 022c 9C46     		mov	ip, r3
 661 022e 6144     		add	r1, r1, ip
 662 0230 0622     		movs	r2, #6
 663 0232 2748     		ldr	r0, .L50+76
 664 0234 FFF7FEFF 		bl	memcpy
 665              	.LVL55:
1914:Generated_Source\PSoC4/BLE_1_eventHandler.c ****                             CYBLE_GATT_DB_CCCD_COUNT);
