ARM GAS  C:\Users\haras\AppData\Local\Temp\ccNMvNjF.s 			page 1


   1              		.syntax unified
   2              		.cpu cortex-m0
   3              		.fpu softvfp
   4              		.eabi_attribute 20, 1
   5              		.eabi_attribute 21, 1
   6              		.eabi_attribute 23, 3
   7              		.eabi_attribute 24, 1
   8              		.eabi_attribute 25, 1
   9              		.eabi_attribute 26, 1
  10              		.eabi_attribute 30, 1
  11              		.eabi_attribute 34, 0
  12              		.eabi_attribute 18, 4
  13              		.thumb
  14              		.syntax unified
  15              		.file	"CyDMA.c"
  16              		.text
  17              	.Ltext0:
  18              		.cfi_sections	.debug_frame
  19              		.section	.text.CyDmaInterrupt,"ax",%progbits
  20              		.align	2
  21              		.global	CyDmaInterrupt
  22              		.code	16
  23              		.thumb_func
  24              		.type	CyDmaInterrupt, %function
  25              	CyDmaInterrupt:
  26              	.LFB16:
  27              		.file 1 "Generated_Source\\PSoC4\\CyDMA.c"
   1:Generated_Source\PSoC4/CyDMA.c **** /*******************************************************************************
   2:Generated_Source\PSoC4/CyDMA.c **** * File Name: CyDMA.c
   3:Generated_Source\PSoC4/CyDMA.c **** * Version 1.10
   4:Generated_Source\PSoC4/CyDMA.c **** *
   5:Generated_Source\PSoC4/CyDMA.c **** * Description:
   6:Generated_Source\PSoC4/CyDMA.c **** *  This file contains all of the global DMA API functions.
   7:Generated_Source\PSoC4/CyDMA.c **** *
   8:Generated_Source\PSoC4/CyDMA.c **** ********************************************************************************
   9:Generated_Source\PSoC4/CyDMA.c **** * Copyright 2015, Cypress Semiconductor Corporation. All rights reserved.
  10:Generated_Source\PSoC4/CyDMA.c **** * You may use this file only in accordance with the license, terms, conditions,
  11:Generated_Source\PSoC4/CyDMA.c **** * disclaimers, and limitations in the end user license agreement accompanying
  12:Generated_Source\PSoC4/CyDMA.c **** * the software package with which this file was provided.
  13:Generated_Source\PSoC4/CyDMA.c **** *******************************************************************************/
  14:Generated_Source\PSoC4/CyDMA.c **** 
  15:Generated_Source\PSoC4/CyDMA.c **** #include "CyDMA.h"
  16:Generated_Source\PSoC4/CyDMA.c **** #include "CyLib.h"
  17:Generated_Source\PSoC4/CyDMA.c **** 
  18:Generated_Source\PSoC4/CyDMA.c **** /* Default callback function. It is invoked if the user callback function is
  19:Generated_Source\PSoC4/CyDMA.c **** * undefined.
  20:Generated_Source\PSoC4/CyDMA.c **** */
  21:Generated_Source\PSoC4/CyDMA.c **** static void CyDmaDefaultInterruptCallback(void);
  22:Generated_Source\PSoC4/CyDMA.c **** 
  23:Generated_Source\PSoC4/CyDMA.c **** /* Array of pointers to user defined callback functions to be called
  24:Generated_Source\PSoC4/CyDMA.c **** * from DMA interrupt.
  25:Generated_Source\PSoC4/CyDMA.c **** */
  26:Generated_Source\PSoC4/CyDMA.c **** static cydma_callback_t CyDmaInterruptCallback[CYDMA_CH_NR] = {
  27:Generated_Source\PSoC4/CyDMA.c ****     &CyDmaDefaultInterruptCallback, &CyDmaDefaultInterruptCallback,
  28:Generated_Source\PSoC4/CyDMA.c ****     &CyDmaDefaultInterruptCallback, &CyDmaDefaultInterruptCallback,
  29:Generated_Source\PSoC4/CyDMA.c ****     &CyDmaDefaultInterruptCallback, &CyDmaDefaultInterruptCallback,
  30:Generated_Source\PSoC4/CyDMA.c ****     &CyDmaDefaultInterruptCallback, &CyDmaDefaultInterruptCallback
ARM GAS  C:\Users\haras\AppData\Local\Temp\ccNMvNjF.s 			page 2


  31:Generated_Source\PSoC4/CyDMA.c **** };
  32:Generated_Source\PSoC4/CyDMA.c **** 
  33:Generated_Source\PSoC4/CyDMA.c **** /* The live status of all DMA channels usage. Bit i is associated to channel i,
  34:Generated_Source\PSoC4/CyDMA.c **** * with i = 0..CYDMA_CH_NR-1. '0' - channel is free. '1' - channel is in use.
  35:Generated_Source\PSoC4/CyDMA.c **** * All the channels allocated for DMA instances placed on a schematic are in use
  36:Generated_Source\PSoC4/CyDMA.c **** * by default and cannot be freed. 
  37:Generated_Source\PSoC4/CyDMA.c **** * DMA_CHANNELS_USED__MASK is generated during the build time and is a bit field
  38:Generated_Source\PSoC4/CyDMA.c **** * corresponding to the DMA channels placed on a design schematic.
  39:Generated_Source\PSoC4/CyDMA.c **** */
  40:Generated_Source\PSoC4/CyDMA.c **** static uint32 CyDmaChannelUsedMask = DMA_CHANNELS_USED__MASK;
  41:Generated_Source\PSoC4/CyDMA.c **** 
  42:Generated_Source\PSoC4/CyDMA.c **** 
  43:Generated_Source\PSoC4/CyDMA.c **** /*******************************************************************************
  44:Generated_Source\PSoC4/CyDMA.c **** * Function Name: CyDmaEnable
  45:Generated_Source\PSoC4/CyDMA.c **** ********************************************************************************
  46:Generated_Source\PSoC4/CyDMA.c **** *
  47:Generated_Source\PSoC4/CyDMA.c **** * Summary:
  48:Generated_Source\PSoC4/CyDMA.c **** *  Sets the default ISR to be called by the DMA interrupt and enables the DMA
  49:Generated_Source\PSoC4/CyDMA.c **** *  transfer engine.
  50:Generated_Source\PSoC4/CyDMA.c **** *
  51:Generated_Source\PSoC4/CyDMA.c **** * Parameters:
  52:Generated_Source\PSoC4/CyDMA.c **** *  None.
  53:Generated_Source\PSoC4/CyDMA.c **** *                   
  54:Generated_Source\PSoC4/CyDMA.c **** * Return:
  55:Generated_Source\PSoC4/CyDMA.c **** *  None.
  56:Generated_Source\PSoC4/CyDMA.c **** *
  57:Generated_Source\PSoC4/CyDMA.c **** * Side effect:
  58:Generated_Source\PSoC4/CyDMA.c **** *  Does not affect the channel enable status. Overrides the interrupt vector
  59:Generated_Source\PSoC4/CyDMA.c **** *  set prior the first time CyDmaEnable() is called.
  60:Generated_Source\PSoC4/CyDMA.c **** *
  61:Generated_Source\PSoC4/CyDMA.c **** *******************************************************************************/
  62:Generated_Source\PSoC4/CyDMA.c **** void CyDmaEnable(void)
  63:Generated_Source\PSoC4/CyDMA.c **** {
  64:Generated_Source\PSoC4/CyDMA.c ****     static uint8 initIntrVector = 0u;
  65:Generated_Source\PSoC4/CyDMA.c **** 
  66:Generated_Source\PSoC4/CyDMA.c ****     if(0u == initIntrVector)
  67:Generated_Source\PSoC4/CyDMA.c ****     {
  68:Generated_Source\PSoC4/CyDMA.c ****         CyDmaSetInterruptVector(&CyDmaInterrupt);
  69:Generated_Source\PSoC4/CyDMA.c ****         CyIntSetPriority(CYDMA_INTR_NUMBER, CYDMA_INTR_PRIO);
  70:Generated_Source\PSoC4/CyDMA.c ****         initIntrVector = 1u;
  71:Generated_Source\PSoC4/CyDMA.c ****     }
  72:Generated_Source\PSoC4/CyDMA.c ****     CYDMA_CTL_REG = CYDMA_ENABLED;
  73:Generated_Source\PSoC4/CyDMA.c **** }
  74:Generated_Source\PSoC4/CyDMA.c **** 
  75:Generated_Source\PSoC4/CyDMA.c **** 
  76:Generated_Source\PSoC4/CyDMA.c **** /*******************************************************************************
  77:Generated_Source\PSoC4/CyDMA.c **** * Function Name: CyDmaDisable
  78:Generated_Source\PSoC4/CyDMA.c **** ********************************************************************************
  79:Generated_Source\PSoC4/CyDMA.c **** *
  80:Generated_Source\PSoC4/CyDMA.c **** * Summary:
  81:Generated_Source\PSoC4/CyDMA.c **** *  Disables the DMA transfer engine.
  82:Generated_Source\PSoC4/CyDMA.c **** *
  83:Generated_Source\PSoC4/CyDMA.c **** * Parameters:
  84:Generated_Source\PSoC4/CyDMA.c **** *  None.
  85:Generated_Source\PSoC4/CyDMA.c **** *                   
  86:Generated_Source\PSoC4/CyDMA.c **** * Return:
  87:Generated_Source\PSoC4/CyDMA.c **** *  None.
ARM GAS  C:\Users\haras\AppData\Local\Temp\ccNMvNjF.s 			page 3


  88:Generated_Source\PSoC4/CyDMA.c **** *
  89:Generated_Source\PSoC4/CyDMA.c **** * Side effect:
  90:Generated_Source\PSoC4/CyDMA.c **** *  Does not affect the channel enable status.
  91:Generated_Source\PSoC4/CyDMA.c **** *
  92:Generated_Source\PSoC4/CyDMA.c **** *******************************************************************************/
  93:Generated_Source\PSoC4/CyDMA.c **** void CyDmaDisable(void)
  94:Generated_Source\PSoC4/CyDMA.c **** {
  95:Generated_Source\PSoC4/CyDMA.c ****     CYDMA_CTL_REG = (uint32)~CYDMA_ENABLED;
  96:Generated_Source\PSoC4/CyDMA.c **** }
  97:Generated_Source\PSoC4/CyDMA.c **** 
  98:Generated_Source\PSoC4/CyDMA.c **** 
  99:Generated_Source\PSoC4/CyDMA.c **** /*******************************************************************************
 100:Generated_Source\PSoC4/CyDMA.c **** * Function Name: CyDmaGetStatus
 101:Generated_Source\PSoC4/CyDMA.c **** ********************************************************************************
 102:Generated_Source\PSoC4/CyDMA.c **** *
 103:Generated_Source\PSoC4/CyDMA.c **** * Summary:
 104:Generated_Source\PSoC4/CyDMA.c **** *  Returns the status of the DMA transfer engine.
 105:Generated_Source\PSoC4/CyDMA.c **** *
 106:Generated_Source\PSoC4/CyDMA.c **** * Parameters:
 107:Generated_Source\PSoC4/CyDMA.c **** *  None.
 108:Generated_Source\PSoC4/CyDMA.c **** *                   
 109:Generated_Source\PSoC4/CyDMA.c **** * Return:
 110:Generated_Source\PSoC4/CyDMA.c **** *  The contents of the DMA status register. Refer to the status register bit
 111:Generated_Source\PSoC4/CyDMA.c **** *  definitions in CyDMA_P4.h or the API description in the DMA channel
 112:Generated_Source\PSoC4/CyDMA.c **** *  datasheet.
 113:Generated_Source\PSoC4/CyDMA.c **** *
 114:Generated_Source\PSoC4/CyDMA.c **** * Side effect:
 115:Generated_Source\PSoC4/CyDMA.c **** *  The series of function calls CyDmaGetActiveSrcAddress(),
 116:Generated_Source\PSoC4/CyDMA.c **** *  CyDmaGetActiveDstAddress(), CyDmaGetStatus() are not atomic, the DMA
 117:Generated_Source\PSoC4/CyDMA.c **** *  engine may have advanced after one or more of these function calls. Meaning
 118:Generated_Source\PSoC4/CyDMA.c **** *  the returns from these three functions may not be related to each other.
 119:Generated_Source\PSoC4/CyDMA.c **** *
 120:Generated_Source\PSoC4/CyDMA.c **** *******************************************************************************/
 121:Generated_Source\PSoC4/CyDMA.c **** uint32 CyDmaGetStatus(void)
 122:Generated_Source\PSoC4/CyDMA.c **** {
 123:Generated_Source\PSoC4/CyDMA.c ****     return (CYDMA_STATUS_REG);
 124:Generated_Source\PSoC4/CyDMA.c **** }
 125:Generated_Source\PSoC4/CyDMA.c **** 
 126:Generated_Source\PSoC4/CyDMA.c **** 
 127:Generated_Source\PSoC4/CyDMA.c **** /*******************************************************************************
 128:Generated_Source\PSoC4/CyDMA.c **** * Function Name: CyDmaGetActiveChannels
 129:Generated_Source\PSoC4/CyDMA.c **** ********************************************************************************
 130:Generated_Source\PSoC4/CyDMA.c **** *
 131:Generated_Source\PSoC4/CyDMA.c **** * Summary:
 132:Generated_Source\PSoC4/CyDMA.c **** *  Returns a bit field of all the DMA channels that are either active or
 133:Generated_Source\PSoC4/CyDMA.c **** *  pending.
 134:Generated_Source\PSoC4/CyDMA.c **** *
 135:Generated_Source\PSoC4/CyDMA.c **** * Parameters:
 136:Generated_Source\PSoC4/CyDMA.c **** *  None.
 137:Generated_Source\PSoC4/CyDMA.c **** *                   
 138:Generated_Source\PSoC4/CyDMA.c **** * Return:
 139:Generated_Source\PSoC4/CyDMA.c **** *  Bit field of active and pending channels. 
 140:Generated_Source\PSoC4/CyDMA.c **** *
 141:Generated_Source\PSoC4/CyDMA.c **** *******************************************************************************/
 142:Generated_Source\PSoC4/CyDMA.c **** uint32 CyDmaGetActiveChannels(void)
 143:Generated_Source\PSoC4/CyDMA.c **** {
 144:Generated_Source\PSoC4/CyDMA.c ****     return (CYDMA_STATUS_CH_ACT_REG);
ARM GAS  C:\Users\haras\AppData\Local\Temp\ccNMvNjF.s 			page 4


 145:Generated_Source\PSoC4/CyDMA.c **** }
 146:Generated_Source\PSoC4/CyDMA.c **** 
 147:Generated_Source\PSoC4/CyDMA.c **** 
 148:Generated_Source\PSoC4/CyDMA.c **** /*******************************************************************************
 149:Generated_Source\PSoC4/CyDMA.c **** * Function Name: CyDmaGetActiveSrcAddress
 150:Generated_Source\PSoC4/CyDMA.c **** ********************************************************************************
 151:Generated_Source\PSoC4/CyDMA.c **** *
 152:Generated_Source\PSoC4/CyDMA.c **** * Summary:
 153:Generated_Source\PSoC4/CyDMA.c **** *  Returns the source address currently being used by the DMA transfer engine.
 154:Generated_Source\PSoC4/CyDMA.c **** *  This function can be used to debug the DMA, or observe where it is at in a
 155:Generated_Source\PSoC4/CyDMA.c **** *  transfer. It will not be used in normal DMA operation.
 156:Generated_Source\PSoC4/CyDMA.c **** *
 157:Generated_Source\PSoC4/CyDMA.c **** * Parameters:
 158:Generated_Source\PSoC4/CyDMA.c **** *  None.
 159:Generated_Source\PSoC4/CyDMA.c **** *                   
 160:Generated_Source\PSoC4/CyDMA.c **** * Return:
 161:Generated_Source\PSoC4/CyDMA.c **** *  Source address currently being used by the DMA transfer engine.
 162:Generated_Source\PSoC4/CyDMA.c **** *
 163:Generated_Source\PSoC4/CyDMA.c **** * Side effect:
 164:Generated_Source\PSoC4/CyDMA.c **** *  The series of function calls CyDmaGetActiveSrcAddress(),
 165:Generated_Source\PSoC4/CyDMA.c **** *  CyDmaGetActiveDstAddress(), CyDmaGetStatus() are not atomic, the DMA
 166:Generated_Source\PSoC4/CyDMA.c **** *  engine may have advanced after one or more of these function calls. Meaning
 167:Generated_Source\PSoC4/CyDMA.c **** *  the returns from these three functions may not be related to each other.
 168:Generated_Source\PSoC4/CyDMA.c **** *
 169:Generated_Source\PSoC4/CyDMA.c **** *******************************************************************************/
 170:Generated_Source\PSoC4/CyDMA.c **** void * CyDmaGetActiveSrcAddress(void)
 171:Generated_Source\PSoC4/CyDMA.c **** {
 172:Generated_Source\PSoC4/CyDMA.c ****     return ((void *)CYDMA_STATUS_SRC_ADDR_REG);
 173:Generated_Source\PSoC4/CyDMA.c **** }
 174:Generated_Source\PSoC4/CyDMA.c **** 
 175:Generated_Source\PSoC4/CyDMA.c **** 
 176:Generated_Source\PSoC4/CyDMA.c **** /*******************************************************************************
 177:Generated_Source\PSoC4/CyDMA.c **** * Function Name: CyDmaGetActiveDstAddress
 178:Generated_Source\PSoC4/CyDMA.c **** ********************************************************************************
 179:Generated_Source\PSoC4/CyDMA.c **** *
 180:Generated_Source\PSoC4/CyDMA.c **** * Summary:
 181:Generated_Source\PSoC4/CyDMA.c **** *  Returns the destination address currently being used by the DMA transfer
 182:Generated_Source\PSoC4/CyDMA.c **** *  engine. This function can be used to debug the DMA, or observe where it is at
 183:Generated_Source\PSoC4/CyDMA.c **** *  in a transfer. It will not be used in normal DMA operation.
 184:Generated_Source\PSoC4/CyDMA.c **** *
 185:Generated_Source\PSoC4/CyDMA.c **** * Parameters:
 186:Generated_Source\PSoC4/CyDMA.c **** *  None.
 187:Generated_Source\PSoC4/CyDMA.c **** *                   
 188:Generated_Source\PSoC4/CyDMA.c **** * Return:
 189:Generated_Source\PSoC4/CyDMA.c **** *  Destination address currently being used by the DMA transfer engine.
 190:Generated_Source\PSoC4/CyDMA.c **** *
 191:Generated_Source\PSoC4/CyDMA.c **** * Side effect:
 192:Generated_Source\PSoC4/CyDMA.c **** *  The series of function calls CyDmaGetActiveSrcAddress(),
 193:Generated_Source\PSoC4/CyDMA.c **** *  CyDmaGetActiveDstAddress(), CyDmaGetStatus() are not atomic, the DMA
 194:Generated_Source\PSoC4/CyDMA.c **** *  engine may have advanced after one or more of these function calls. Meaning
 195:Generated_Source\PSoC4/CyDMA.c **** *  the returns from these three functions may not be related to each other.
 196:Generated_Source\PSoC4/CyDMA.c **** *
 197:Generated_Source\PSoC4/CyDMA.c **** *******************************************************************************/
 198:Generated_Source\PSoC4/CyDMA.c **** void * CyDmaGetActiveDstAddress(void)
 199:Generated_Source\PSoC4/CyDMA.c **** {
 200:Generated_Source\PSoC4/CyDMA.c ****     return ((void *)CYDMA_STATUS_DST_ADDR_REG);
 201:Generated_Source\PSoC4/CyDMA.c **** }
ARM GAS  C:\Users\haras\AppData\Local\Temp\ccNMvNjF.s 			page 5


 202:Generated_Source\PSoC4/CyDMA.c **** 
 203:Generated_Source\PSoC4/CyDMA.c **** 
 204:Generated_Source\PSoC4/CyDMA.c **** /*******************************************************************************
 205:Generated_Source\PSoC4/CyDMA.c **** * Function Name: CyDmaSetInterruptVector
 206:Generated_Source\PSoC4/CyDMA.c **** ********************************************************************************
 207:Generated_Source\PSoC4/CyDMA.c **** *
 208:Generated_Source\PSoC4/CyDMA.c **** * Summary:
 209:Generated_Source\PSoC4/CyDMA.c **** *  Sets the function that will be called by the DMA interrupt. Note, calling
 210:Generated_Source\PSoC4/CyDMA.c **** *  CyDmaEnable() for the first time overrides any effect this API could have.
 211:Generated_Source\PSoC4/CyDMA.c **** *  Call CyDmaSetInterruptVector() after calling CyDmaEnable() to change
 212:Generated_Source\PSoC4/CyDMA.c **** *  the default ISR.
 213:Generated_Source\PSoC4/CyDMA.c **** *
 214:Generated_Source\PSoC4/CyDMA.c **** * Parameters:
 215:Generated_Source\PSoC4/CyDMA.c **** *  interruptVector: Address of the function that will be called by the DMA
 216:Generated_Source\PSoC4/CyDMA.c **** *                   interrupt.
 217:Generated_Source\PSoC4/CyDMA.c **** * Return:
 218:Generated_Source\PSoC4/CyDMA.c **** *  None.
 219:Generated_Source\PSoC4/CyDMA.c **** *
 220:Generated_Source\PSoC4/CyDMA.c **** * Side effect:
 221:Generated_Source\PSoC4/CyDMA.c **** *  Other components that use DMA may register their callback functions to be
 222:Generated_Source\PSoC4/CyDMA.c **** *  called from the default DMA ISR. Therefore, changing the DMA ISR to a user
 223:Generated_Source\PSoC4/CyDMA.c **** *  defined ISR using this API may prevent these other components from
 224:Generated_Source\PSoC4/CyDMA.c **** *  functioning correctly.
 225:Generated_Source\PSoC4/CyDMA.c **** *
 226:Generated_Source\PSoC4/CyDMA.c **** *******************************************************************************/
 227:Generated_Source\PSoC4/CyDMA.c **** void CyDmaSetInterruptVector(cyisraddress interruptVector)
 228:Generated_Source\PSoC4/CyDMA.c **** {
 229:Generated_Source\PSoC4/CyDMA.c ****     (void)CyIntSetVector(CYDMA_INTR_NUMBER, interruptVector);
 230:Generated_Source\PSoC4/CyDMA.c **** }
 231:Generated_Source\PSoC4/CyDMA.c **** 
 232:Generated_Source\PSoC4/CyDMA.c **** 
 233:Generated_Source\PSoC4/CyDMA.c **** /*******************************************************************************
 234:Generated_Source\PSoC4/CyDMA.c **** * Function Name: CyDmaGetInterruptSource
 235:Generated_Source\PSoC4/CyDMA.c **** ********************************************************************************
 236:Generated_Source\PSoC4/CyDMA.c **** *
 237:Generated_Source\PSoC4/CyDMA.c **** * Summary:
 238:Generated_Source\PSoC4/CyDMA.c **** *  Returns the bit field of which channels generated an interrupt request.
 239:Generated_Source\PSoC4/CyDMA.c **** *
 240:Generated_Source\PSoC4/CyDMA.c **** * Parameters:
 241:Generated_Source\PSoC4/CyDMA.c **** *  None.
 242:Generated_Source\PSoC4/CyDMA.c **** *                   
 243:Generated_Source\PSoC4/CyDMA.c **** * Return:
 244:Generated_Source\PSoC4/CyDMA.c **** *  Bit filed of which channels generated an interrupt request.
 245:Generated_Source\PSoC4/CyDMA.c **** *
 246:Generated_Source\PSoC4/CyDMA.c **** *******************************************************************************/
 247:Generated_Source\PSoC4/CyDMA.c **** uint32 CyDmaGetInterruptSource(void)
 248:Generated_Source\PSoC4/CyDMA.c **** {
 249:Generated_Source\PSoC4/CyDMA.c ****     return (CYDMA_INTR_REG);
 250:Generated_Source\PSoC4/CyDMA.c **** }
 251:Generated_Source\PSoC4/CyDMA.c **** 
 252:Generated_Source\PSoC4/CyDMA.c **** 
 253:Generated_Source\PSoC4/CyDMA.c **** /*******************************************************************************
 254:Generated_Source\PSoC4/CyDMA.c **** * Function Name: CyDmaClearInterruptSource
 255:Generated_Source\PSoC4/CyDMA.c **** ********************************************************************************
 256:Generated_Source\PSoC4/CyDMA.c **** *
 257:Generated_Source\PSoC4/CyDMA.c **** * Summary:
 258:Generated_Source\PSoC4/CyDMA.c **** *  Clears the pending interrupts.
ARM GAS  C:\Users\haras\AppData\Local\Temp\ccNMvNjF.s 			page 6


 259:Generated_Source\PSoC4/CyDMA.c **** *
 260:Generated_Source\PSoC4/CyDMA.c **** * Parameters:
 261:Generated_Source\PSoC4/CyDMA.c **** *  interruptMask: Bit field of interrupts to clear.
 262:Generated_Source\PSoC4/CyDMA.c **** *                   
 263:Generated_Source\PSoC4/CyDMA.c **** * Return:
 264:Generated_Source\PSoC4/CyDMA.c **** *  None.
 265:Generated_Source\PSoC4/CyDMA.c **** *
 266:Generated_Source\PSoC4/CyDMA.c **** *******************************************************************************/
 267:Generated_Source\PSoC4/CyDMA.c **** void CyDmaClearInterruptSource(uint32 interruptMask)
 268:Generated_Source\PSoC4/CyDMA.c **** {
 269:Generated_Source\PSoC4/CyDMA.c ****     CYDMA_INTR_REG = interruptMask;
 270:Generated_Source\PSoC4/CyDMA.c **** }
 271:Generated_Source\PSoC4/CyDMA.c **** 
 272:Generated_Source\PSoC4/CyDMA.c **** 
 273:Generated_Source\PSoC4/CyDMA.c **** /*******************************************************************************
 274:Generated_Source\PSoC4/CyDMA.c **** * Function Name: CyDmaSetInterruptSourceMask
 275:Generated_Source\PSoC4/CyDMA.c **** ********************************************************************************
 276:Generated_Source\PSoC4/CyDMA.c **** *
 277:Generated_Source\PSoC4/CyDMA.c **** * Summary:
 278:Generated_Source\PSoC4/CyDMA.c **** *  Sets mask for interrupt source.
 279:Generated_Source\PSoC4/CyDMA.c **** *
 280:Generated_Source\PSoC4/CyDMA.c **** * Parameters:
 281:Generated_Source\PSoC4/CyDMA.c **** *  interruptmask: Mask corresponding to interrupt bit field.
 282:Generated_Source\PSoC4/CyDMA.c **** *                   
 283:Generated_Source\PSoC4/CyDMA.c **** * Return:
 284:Generated_Source\PSoC4/CyDMA.c **** *  None.
 285:Generated_Source\PSoC4/CyDMA.c **** *
 286:Generated_Source\PSoC4/CyDMA.c **** *******************************************************************************/
 287:Generated_Source\PSoC4/CyDMA.c **** void CyDmaSetInterruptSourceMask(uint32 interruptMask)
 288:Generated_Source\PSoC4/CyDMA.c **** {
 289:Generated_Source\PSoC4/CyDMA.c ****     CYDMA_INTR_MASK_REG = interruptMask;
 290:Generated_Source\PSoC4/CyDMA.c **** }
 291:Generated_Source\PSoC4/CyDMA.c **** 
 292:Generated_Source\PSoC4/CyDMA.c **** 
 293:Generated_Source\PSoC4/CyDMA.c **** /*******************************************************************************
 294:Generated_Source\PSoC4/CyDMA.c **** * Function Name: CyDmaGetInterruptSourceMask
 295:Generated_Source\PSoC4/CyDMA.c **** ********************************************************************************
 296:Generated_Source\PSoC4/CyDMA.c **** *
 297:Generated_Source\PSoC4/CyDMA.c **** * Summary:
 298:Generated_Source\PSoC4/CyDMA.c **** *  Returns mask for interrupt source.
 299:Generated_Source\PSoC4/CyDMA.c **** *
 300:Generated_Source\PSoC4/CyDMA.c **** * Parameters:
 301:Generated_Source\PSoC4/CyDMA.c **** *  None.
 302:Generated_Source\PSoC4/CyDMA.c **** *                   
 303:Generated_Source\PSoC4/CyDMA.c **** * Return:
 304:Generated_Source\PSoC4/CyDMA.c **** *  Mask corresponding to interrupt bit field.
 305:Generated_Source\PSoC4/CyDMA.c **** *
 306:Generated_Source\PSoC4/CyDMA.c **** *******************************************************************************/
 307:Generated_Source\PSoC4/CyDMA.c **** uint32 CyDmaGetInterruptSourceMask(void)
 308:Generated_Source\PSoC4/CyDMA.c **** {
 309:Generated_Source\PSoC4/CyDMA.c ****     return (CYDMA_INTR_MASK_REG);
 310:Generated_Source\PSoC4/CyDMA.c **** }
 311:Generated_Source\PSoC4/CyDMA.c **** 
 312:Generated_Source\PSoC4/CyDMA.c **** 
 313:Generated_Source\PSoC4/CyDMA.c **** /*******************************************************************************
 314:Generated_Source\PSoC4/CyDMA.c **** * Function Name: CyDmaGetInterruptSourceMasked
 315:Generated_Source\PSoC4/CyDMA.c **** ********************************************************************************
ARM GAS  C:\Users\haras\AppData\Local\Temp\ccNMvNjF.s 			page 7


 316:Generated_Source\PSoC4/CyDMA.c **** *
 317:Generated_Source\PSoC4/CyDMA.c **** * Summary:
 318:Generated_Source\PSoC4/CyDMA.c **** *  Returns the bitwise AND of the interrupt source and the interrupt mask.
 319:Generated_Source\PSoC4/CyDMA.c **** *
 320:Generated_Source\PSoC4/CyDMA.c **** * Parameters:
 321:Generated_Source\PSoC4/CyDMA.c **** *  None.
 322:Generated_Source\PSoC4/CyDMA.c **** *                   
 323:Generated_Source\PSoC4/CyDMA.c **** * Return:
 324:Generated_Source\PSoC4/CyDMA.c **** *  Bitwise AND of the interrupt source and the interrupt mask.
 325:Generated_Source\PSoC4/CyDMA.c **** *
 326:Generated_Source\PSoC4/CyDMA.c **** *******************************************************************************/
 327:Generated_Source\PSoC4/CyDMA.c **** uint32 CyDmaGetInterruptSourceMasked(void)
 328:Generated_Source\PSoC4/CyDMA.c **** {
 329:Generated_Source\PSoC4/CyDMA.c ****     return (CYDMA_INTR_MASKED_REG);
 330:Generated_Source\PSoC4/CyDMA.c **** }
 331:Generated_Source\PSoC4/CyDMA.c **** 
 332:Generated_Source\PSoC4/CyDMA.c **** 
 333:Generated_Source\PSoC4/CyDMA.c **** /*******************************************************************************
 334:Generated_Source\PSoC4/CyDMA.c **** * Function Name: CyDmaSetInterruptCallback
 335:Generated_Source\PSoC4/CyDMA.c **** ********************************************************************************
 336:Generated_Source\PSoC4/CyDMA.c **** *
 337:Generated_Source\PSoC4/CyDMA.c **** * Summary:
 338:Generated_Source\PSoC4/CyDMA.c **** *  Sets a user defined callback function to be called by the DMA interrupt. The
 339:Generated_Source\PSoC4/CyDMA.c **** *  function should contain code to process the interrupt request for the 
 340:Generated_Source\PSoC4/CyDMA.c **** *  associated DMA channel.
 341:Generated_Source\PSoC4/CyDMA.c **** *
 342:Generated_Source\PSoC4/CyDMA.c **** * Parameters:
 343:Generated_Source\PSoC4/CyDMA.c **** *  channel:  Channel used by this function.
 344:Generated_Source\PSoC4/CyDMA.c **** *  callback: Pointer to the user defined callback function.
 345:Generated_Source\PSoC4/CyDMA.c **** *
 346:Generated_Source\PSoC4/CyDMA.c **** * Return:
 347:Generated_Source\PSoC4/CyDMA.c **** *  Pointer to the function previously set for the specified channel. 
 348:Generated_Source\PSoC4/CyDMA.c **** *
 349:Generated_Source\PSoC4/CyDMA.c **** *******************************************************************************/
 350:Generated_Source\PSoC4/CyDMA.c **** cydma_callback_t CyDmaSetInterruptCallback(int32 channel, cydma_callback_t callback)
 351:Generated_Source\PSoC4/CyDMA.c **** {
 352:Generated_Source\PSoC4/CyDMA.c ****     cydma_callback_t prevCallback;
 353:Generated_Source\PSoC4/CyDMA.c **** 
 354:Generated_Source\PSoC4/CyDMA.c ****     CYASSERT((channel >= 0) && (channel < CYDMA_CH_NR));
 355:Generated_Source\PSoC4/CyDMA.c **** 
 356:Generated_Source\PSoC4/CyDMA.c ****     prevCallback = CyDmaInterruptCallback[channel];
 357:Generated_Source\PSoC4/CyDMA.c ****     CyDmaInterruptCallback[channel] = callback;
 358:Generated_Source\PSoC4/CyDMA.c ****     return (prevCallback);
 359:Generated_Source\PSoC4/CyDMA.c **** }
 360:Generated_Source\PSoC4/CyDMA.c **** 
 361:Generated_Source\PSoC4/CyDMA.c **** 
 362:Generated_Source\PSoC4/CyDMA.c **** /*******************************************************************************
 363:Generated_Source\PSoC4/CyDMA.c **** * Function Name: CyDmaGetInterruptCallback
 364:Generated_Source\PSoC4/CyDMA.c **** ********************************************************************************
 365:Generated_Source\PSoC4/CyDMA.c **** *
 366:Generated_Source\PSoC4/CyDMA.c **** * Summary:
 367:Generated_Source\PSoC4/CyDMA.c **** *  Returns the pointer to the interrupt callback function for the specified DMA
 368:Generated_Source\PSoC4/CyDMA.c **** *  channel.
 369:Generated_Source\PSoC4/CyDMA.c **** *
 370:Generated_Source\PSoC4/CyDMA.c **** * Parameters:
 371:Generated_Source\PSoC4/CyDMA.c **** *  channel: Channel used by this function.
 372:Generated_Source\PSoC4/CyDMA.c **** *
ARM GAS  C:\Users\haras\AppData\Local\Temp\ccNMvNjF.s 			page 8


 373:Generated_Source\PSoC4/CyDMA.c **** * Return:
 374:Generated_Source\PSoC4/CyDMA.c **** *  Callback function pointer for the specified channel.
 375:Generated_Source\PSoC4/CyDMA.c **** *
 376:Generated_Source\PSoC4/CyDMA.c **** *******************************************************************************/
 377:Generated_Source\PSoC4/CyDMA.c **** cydma_callback_t CyDmaGetInterruptCallback(int32 channel)
 378:Generated_Source\PSoC4/CyDMA.c **** {
 379:Generated_Source\PSoC4/CyDMA.c ****     CYASSERT((channel >= 0) && (channel < CYDMA_CH_NR));
 380:Generated_Source\PSoC4/CyDMA.c ****     
 381:Generated_Source\PSoC4/CyDMA.c ****     return (CyDmaInterruptCallback[channel]);
 382:Generated_Source\PSoC4/CyDMA.c **** }
 383:Generated_Source\PSoC4/CyDMA.c **** 
 384:Generated_Source\PSoC4/CyDMA.c **** 
 385:Generated_Source\PSoC4/CyDMA.c **** /*******************************************************************************
 386:Generated_Source\PSoC4/CyDMA.c **** * Function Name: CyDmaInterrupt
 387:Generated_Source\PSoC4/CyDMA.c **** ********************************************************************************
 388:Generated_Source\PSoC4/CyDMA.c **** *
 389:Generated_Source\PSoC4/CyDMA.c **** * Summary:
 390:Generated_Source\PSoC4/CyDMA.c **** *  The default ISR for DMA interrupts. The handler checks which DMA channel has
 391:Generated_Source\PSoC4/CyDMA.c **** *  triggered the interrupt and calls the user defined callback function.
 392:Generated_Source\PSoC4/CyDMA.c **** *  The callback function is set using CyDmaSetInteruptCallback() API.
 393:Generated_Source\PSoC4/CyDMA.c **** *
 394:Generated_Source\PSoC4/CyDMA.c **** * Parameters:
 395:Generated_Source\PSoC4/CyDMA.c **** *  None.
 396:Generated_Source\PSoC4/CyDMA.c **** *
 397:Generated_Source\PSoC4/CyDMA.c **** * Return:
 398:Generated_Source\PSoC4/CyDMA.c **** *  None.
 399:Generated_Source\PSoC4/CyDMA.c **** *
 400:Generated_Source\PSoC4/CyDMA.c **** * Side Effects:
 401:Generated_Source\PSoC4/CyDMA.c **** *  This function clears the pending interrupts.
 402:Generated_Source\PSoC4/CyDMA.c **** *
 403:Generated_Source\PSoC4/CyDMA.c **** *******************************************************************************/
 404:Generated_Source\PSoC4/CyDMA.c **** CY_ISR(CyDmaInterrupt)
 405:Generated_Source\PSoC4/CyDMA.c **** {
  28              		.loc 1 405 0
  29              		.cfi_startproc
  30              		@ args = 0, pretend = 0, frame = 0
  31              		@ frame_needed = 0, uses_anonymous_args = 0
  32 0000 70B5     		push	{r4, r5, r6, lr}
  33              		.cfi_def_cfa_offset 16
  34              		.cfi_offset 4, -16
  35              		.cfi_offset 5, -12
  36              		.cfi_offset 6, -8
  37              		.cfi_offset 14, -4
  38              	.LVL0:
 406:Generated_Source\PSoC4/CyDMA.c ****     uint32 intr;
 407:Generated_Source\PSoC4/CyDMA.c ****     uint32 cbIdx = 0u;
 408:Generated_Source\PSoC4/CyDMA.c **** 
 409:Generated_Source\PSoC4/CyDMA.c ****     /* Get interrupt source. */
 410:Generated_Source\PSoC4/CyDMA.c ****     intr = CYDMA_INTR_MASKED_REG;
  39              		.loc 1 410 0
  40 0002 084B     		ldr	r3, .L5
  41 0004 1C68     		ldr	r4, [r3]
  42              	.LVL1:
 411:Generated_Source\PSoC4/CyDMA.c **** 
 412:Generated_Source\PSoC4/CyDMA.c ****     /* Clear pending interrupts. */
 413:Generated_Source\PSoC4/CyDMA.c ****     CYDMA_INTR_REG = intr;
  43              		.loc 1 413 0
ARM GAS  C:\Users\haras\AppData\Local\Temp\ccNMvNjF.s 			page 9


  44 0006 084B     		ldr	r3, .L5+4
  45 0008 1C60     		str	r4, [r3]
 407:Generated_Source\PSoC4/CyDMA.c **** 
  46              		.loc 1 407 0
  47 000a 0025     		movs	r5, #0
 414:Generated_Source\PSoC4/CyDMA.c **** 
 415:Generated_Source\PSoC4/CyDMA.c ****     /* Call user defined callback functions for triggered interrupt sources. */
 416:Generated_Source\PSoC4/CyDMA.c ****     while(0u != intr)
  48              		.loc 1 416 0
  49 000c 07E0     		b	.L2
  50              	.LVL2:
  51              	.L4:
 417:Generated_Source\PSoC4/CyDMA.c ****     {
 418:Generated_Source\PSoC4/CyDMA.c ****         if(0u != (intr & 0x1u))
  52              		.loc 1 418 0
  53 000e E307     		lsls	r3, r4, #31
  54 0010 03D5     		bpl	.L3
 419:Generated_Source\PSoC4/CyDMA.c ****         {
 420:Generated_Source\PSoC4/CyDMA.c ****             CyDmaInterruptCallback[cbIdx]();
  55              		.loc 1 420 0
  56 0012 AB00     		lsls	r3, r5, #2
  57 0014 054A     		ldr	r2, .L5+8
  58 0016 9B58     		ldr	r3, [r3, r2]
  59 0018 9847     		blx	r3
  60              	.LVL3:
  61              	.L3:
 421:Generated_Source\PSoC4/CyDMA.c ****         }
 422:Generated_Source\PSoC4/CyDMA.c ****         intr >>= 1;
  62              		.loc 1 422 0
  63 001a 6408     		lsrs	r4, r4, #1
  64              	.LVL4:
 423:Generated_Source\PSoC4/CyDMA.c ****         ++cbIdx;
  65              		.loc 1 423 0
  66 001c 0135     		adds	r5, r5, #1
  67              	.LVL5:
  68              	.L2:
 416:Generated_Source\PSoC4/CyDMA.c ****     {
  69              		.loc 1 416 0
  70 001e 002C     		cmp	r4, #0
  71 0020 F5D1     		bne	.L4
 424:Generated_Source\PSoC4/CyDMA.c ****     }
 425:Generated_Source\PSoC4/CyDMA.c **** }
  72              		.loc 1 425 0
  73              		@ sp needed
  74              	.LVL6:
  75              	.LVL7:
  76 0022 70BD     		pop	{r4, r5, r6, pc}
  77              	.L6:
  78              		.align	2
  79              	.L5:
  80 0024 FC171040 		.word	1074796540
  81 0028 F0171040 		.word	1074796528
  82 002c 00000000 		.word	.LANCHOR0
  83              		.cfi_endproc
  84              	.LFE16:
  85              		.size	CyDmaInterrupt, .-CyDmaInterrupt
  86              		.section	.text.CyDmaDefaultInterruptCallback,"ax",%progbits
ARM GAS  C:\Users\haras\AppData\Local\Temp\ccNMvNjF.s 			page 10


  87              		.align	2
  88              		.code	16
  89              		.thumb_func
  90              		.type	CyDmaDefaultInterruptCallback, %function
  91              	CyDmaDefaultInterruptCallback:
  92              	.LFB17:
 426:Generated_Source\PSoC4/CyDMA.c **** 
 427:Generated_Source\PSoC4/CyDMA.c **** 
 428:Generated_Source\PSoC4/CyDMA.c **** /*******************************************************************************
 429:Generated_Source\PSoC4/CyDMA.c **** * Function Name: CyDmaDefaultInterruptCallback
 430:Generated_Source\PSoC4/CyDMA.c **** ********************************************************************************
 431:Generated_Source\PSoC4/CyDMA.c **** *
 432:Generated_Source\PSoC4/CyDMA.c **** * Summary:
 433:Generated_Source\PSoC4/CyDMA.c **** *  This function is invoked when the user defined callback function is undefined
 434:Generated_Source\PSoC4/CyDMA.c **** *  for the interrupt source.
 435:Generated_Source\PSoC4/CyDMA.c **** *
 436:Generated_Source\PSoC4/CyDMA.c **** * Parameters:
 437:Generated_Source\PSoC4/CyDMA.c **** *  None.
 438:Generated_Source\PSoC4/CyDMA.c **** *
 439:Generated_Source\PSoC4/CyDMA.c **** * Return:
 440:Generated_Source\PSoC4/CyDMA.c **** *  None.
 441:Generated_Source\PSoC4/CyDMA.c **** *
 442:Generated_Source\PSoC4/CyDMA.c **** *******************************************************************************/
 443:Generated_Source\PSoC4/CyDMA.c **** static void CyDmaDefaultInterruptCallback(void)
 444:Generated_Source\PSoC4/CyDMA.c **** {
  93              		.loc 1 444 0
  94              		.cfi_startproc
  95              		@ args = 0, pretend = 0, frame = 0
  96              		@ frame_needed = 0, uses_anonymous_args = 0
  97 0000 10B5     		push	{r4, lr}
  98              		.cfi_def_cfa_offset 8
  99              		.cfi_offset 4, -8
 100              		.cfi_offset 14, -4
 445:Generated_Source\PSoC4/CyDMA.c ****     /* Halt CPU in debug mode. We get here because there is no user defined
 446:Generated_Source\PSoC4/CyDMA.c ****     * callback function for the interrupt source. You should either set a
 447:Generated_Source\PSoC4/CyDMA.c ****     * callback function or disable generating an interrupt from this
 448:Generated_Source\PSoC4/CyDMA.c ****     * interrupt source.
 449:Generated_Source\PSoC4/CyDMA.c ****     * To set a callback, use the CyDmaSetInterruptCallback() API function.
 450:Generated_Source\PSoC4/CyDMA.c ****     * To disable interrupt generation, write '0' to the corresponding bit
 451:Generated_Source\PSoC4/CyDMA.c ****     * in the interrupt mask by calling CyDmaSetInterruptSourceMask().
 452:Generated_Source\PSoC4/CyDMA.c ****     */
 453:Generated_Source\PSoC4/CyDMA.c ****     CYASSERT(0 != 0);
 101              		.loc 1 453 0
 102 0002 0020     		movs	r0, #0
 103 0004 FFF7FEFF 		bl	CyHalt
 104              	.LVL8:
 454:Generated_Source\PSoC4/CyDMA.c **** }
 105              		.loc 1 454 0
 106              		@ sp needed
 107 0008 10BD     		pop	{r4, pc}
 108              		.cfi_endproc
 109              	.LFE17:
 110              		.size	CyDmaDefaultInterruptCallback, .-CyDmaDefaultInterruptCallback
 111              		.section	.text.CyDmaDisable,"ax",%progbits
 112              		.align	2
 113              		.global	CyDmaDisable
 114              		.code	16
ARM GAS  C:\Users\haras\AppData\Local\Temp\ccNMvNjF.s 			page 11


 115              		.thumb_func
 116              		.type	CyDmaDisable, %function
 117              	CyDmaDisable:
 118              	.LFB3:
  94:Generated_Source\PSoC4/CyDMA.c ****     CYDMA_CTL_REG = (uint32)~CYDMA_ENABLED;
 119              		.loc 1 94 0
 120              		.cfi_startproc
 121              		@ args = 0, pretend = 0, frame = 0
 122              		@ frame_needed = 0, uses_anonymous_args = 0
 123              		@ link register save eliminated.
  95:Generated_Source\PSoC4/CyDMA.c **** }
 124              		.loc 1 95 0
 125 0000 014A     		ldr	r2, .L9
 126 0002 024B     		ldr	r3, .L9+4
 127 0004 1A60     		str	r2, [r3]
  96:Generated_Source\PSoC4/CyDMA.c **** 
 128              		.loc 1 96 0
 129              		@ sp needed
 130 0006 7047     		bx	lr
 131              	.L10:
 132              		.align	2
 133              	.L9:
 134 0008 FFFFFF7F 		.word	2147483647
 135 000c 00101040 		.word	1074794496
 136              		.cfi_endproc
 137              	.LFE3:
 138              		.size	CyDmaDisable, .-CyDmaDisable
 139              		.section	.text.CyDmaGetStatus,"ax",%progbits
 140              		.align	2
 141              		.global	CyDmaGetStatus
 142              		.code	16
 143              		.thumb_func
 144              		.type	CyDmaGetStatus, %function
 145              	CyDmaGetStatus:
 146              	.LFB4:
 122:Generated_Source\PSoC4/CyDMA.c ****     return (CYDMA_STATUS_REG);
 147              		.loc 1 122 0
 148              		.cfi_startproc
 149              		@ args = 0, pretend = 0, frame = 0
 150              		@ frame_needed = 0, uses_anonymous_args = 0
 151              		@ link register save eliminated.
 123:Generated_Source\PSoC4/CyDMA.c **** }
 152              		.loc 1 123 0
 153 0000 014B     		ldr	r3, .L12
 154 0002 1868     		ldr	r0, [r3]
 124:Generated_Source\PSoC4/CyDMA.c **** 
 155              		.loc 1 124 0
 156              		@ sp needed
 157 0004 7047     		bx	lr
 158              	.L13:
 159 0006 C046     		.align	2
 160              	.L12:
 161 0008 10101040 		.word	1074794512
 162              		.cfi_endproc
 163              	.LFE4:
 164              		.size	CyDmaGetStatus, .-CyDmaGetStatus
 165              		.section	.text.CyDmaGetActiveChannels,"ax",%progbits
ARM GAS  C:\Users\haras\AppData\Local\Temp\ccNMvNjF.s 			page 12


 166              		.align	2
 167              		.global	CyDmaGetActiveChannels
 168              		.code	16
 169              		.thumb_func
 170              		.type	CyDmaGetActiveChannels, %function
 171              	CyDmaGetActiveChannels:
 172              	.LFB5:
 143:Generated_Source\PSoC4/CyDMA.c ****     return (CYDMA_STATUS_CH_ACT_REG);
 173              		.loc 1 143 0
 174              		.cfi_startproc
 175              		@ args = 0, pretend = 0, frame = 0
 176              		@ frame_needed = 0, uses_anonymous_args = 0
 177              		@ link register save eliminated.
 144:Generated_Source\PSoC4/CyDMA.c **** }
 178              		.loc 1 144 0
 179 0000 014B     		ldr	r3, .L15
 180 0002 1868     		ldr	r0, [r3]
 145:Generated_Source\PSoC4/CyDMA.c **** 
 181              		.loc 1 145 0
 182              		@ sp needed
 183 0004 7047     		bx	lr
 184              	.L16:
 185 0006 C046     		.align	2
 186              	.L15:
 187 0008 1C101040 		.word	1074794524
 188              		.cfi_endproc
 189              	.LFE5:
 190              		.size	CyDmaGetActiveChannels, .-CyDmaGetActiveChannels
 191              		.section	.text.CyDmaGetActiveSrcAddress,"ax",%progbits
 192              		.align	2
 193              		.global	CyDmaGetActiveSrcAddress
 194              		.code	16
 195              		.thumb_func
 196              		.type	CyDmaGetActiveSrcAddress, %function
 197              	CyDmaGetActiveSrcAddress:
 198              	.LFB6:
 171:Generated_Source\PSoC4/CyDMA.c ****     return ((void *)CYDMA_STATUS_SRC_ADDR_REG);
 199              		.loc 1 171 0
 200              		.cfi_startproc
 201              		@ args = 0, pretend = 0, frame = 0
 202              		@ frame_needed = 0, uses_anonymous_args = 0
 203              		@ link register save eliminated.
 172:Generated_Source\PSoC4/CyDMA.c **** }
 204              		.loc 1 172 0
 205 0000 014B     		ldr	r3, .L18
 206 0002 1868     		ldr	r0, [r3]
 173:Generated_Source\PSoC4/CyDMA.c **** 
 207              		.loc 1 173 0
 208              		@ sp needed
 209 0004 7047     		bx	lr
 210              	.L19:
 211 0006 C046     		.align	2
 212              	.L18:
 213 0008 14101040 		.word	1074794516
 214              		.cfi_endproc
 215              	.LFE6:
 216              		.size	CyDmaGetActiveSrcAddress, .-CyDmaGetActiveSrcAddress
ARM GAS  C:\Users\haras\AppData\Local\Temp\ccNMvNjF.s 			page 13


 217              		.section	.text.CyDmaGetActiveDstAddress,"ax",%progbits
 218              		.align	2
 219              		.global	CyDmaGetActiveDstAddress
 220              		.code	16
 221              		.thumb_func
 222              		.type	CyDmaGetActiveDstAddress, %function
 223              	CyDmaGetActiveDstAddress:
 224              	.LFB7:
 199:Generated_Source\PSoC4/CyDMA.c ****     return ((void *)CYDMA_STATUS_DST_ADDR_REG);
 225              		.loc 1 199 0
 226              		.cfi_startproc
 227              		@ args = 0, pretend = 0, frame = 0
 228              		@ frame_needed = 0, uses_anonymous_args = 0
 229              		@ link register save eliminated.
 200:Generated_Source\PSoC4/CyDMA.c **** }
 230              		.loc 1 200 0
 231 0000 014B     		ldr	r3, .L21
 232 0002 1868     		ldr	r0, [r3]
 201:Generated_Source\PSoC4/CyDMA.c **** 
 233              		.loc 1 201 0
 234              		@ sp needed
 235 0004 7047     		bx	lr
 236              	.L22:
 237 0006 C046     		.align	2
 238              	.L21:
 239 0008 18101040 		.word	1074794520
 240              		.cfi_endproc
 241              	.LFE7:
 242              		.size	CyDmaGetActiveDstAddress, .-CyDmaGetActiveDstAddress
 243              		.section	.text.CyDmaSetInterruptVector,"ax",%progbits
 244              		.align	2
 245              		.global	CyDmaSetInterruptVector
 246              		.code	16
 247              		.thumb_func
 248              		.type	CyDmaSetInterruptVector, %function
 249              	CyDmaSetInterruptVector:
 250              	.LFB8:
 228:Generated_Source\PSoC4/CyDMA.c ****     (void)CyIntSetVector(CYDMA_INTR_NUMBER, interruptVector);
 251              		.loc 1 228 0
 252              		.cfi_startproc
 253              		@ args = 0, pretend = 0, frame = 0
 254              		@ frame_needed = 0, uses_anonymous_args = 0
 255              	.LVL9:
 256 0000 10B5     		push	{r4, lr}
 257              		.cfi_def_cfa_offset 8
 258              		.cfi_offset 4, -8
 259              		.cfi_offset 14, -4
 260 0002 0100     		movs	r1, r0
 229:Generated_Source\PSoC4/CyDMA.c **** }
 261              		.loc 1 229 0
 262 0004 1520     		movs	r0, #21
 263              	.LVL10:
 264 0006 FFF7FEFF 		bl	CyIntSetVector
 265              	.LVL11:
 230:Generated_Source\PSoC4/CyDMA.c **** 
 266              		.loc 1 230 0
 267              		@ sp needed
ARM GAS  C:\Users\haras\AppData\Local\Temp\ccNMvNjF.s 			page 14


 268 000a 10BD     		pop	{r4, pc}
 269              		.cfi_endproc
 270              	.LFE8:
 271              		.size	CyDmaSetInterruptVector, .-CyDmaSetInterruptVector
 272              		.section	.text.CyDmaEnable,"ax",%progbits
 273              		.align	2
 274              		.global	CyDmaEnable
 275              		.code	16
 276              		.thumb_func
 277              		.type	CyDmaEnable, %function
 278              	CyDmaEnable:
 279              	.LFB2:
  63:Generated_Source\PSoC4/CyDMA.c ****     static uint8 initIntrVector = 0u;
 280              		.loc 1 63 0
 281              		.cfi_startproc
 282              		@ args = 0, pretend = 0, frame = 0
 283              		@ frame_needed = 0, uses_anonymous_args = 0
 284 0000 10B5     		push	{r4, lr}
 285              		.cfi_def_cfa_offset 8
 286              		.cfi_offset 4, -8
 287              		.cfi_offset 14, -4
  66:Generated_Source\PSoC4/CyDMA.c ****     {
 288              		.loc 1 66 0
 289 0002 094B     		ldr	r3, .L26
 290 0004 1B78     		ldrb	r3, [r3]
 291 0006 002B     		cmp	r3, #0
 292 0008 09D1     		bne	.L25
  68:Generated_Source\PSoC4/CyDMA.c ****         CyIntSetPriority(CYDMA_INTR_NUMBER, CYDMA_INTR_PRIO);
 293              		.loc 1 68 0
 294 000a 0848     		ldr	r0, .L26+4
 295 000c FFF7FEFF 		bl	CyDmaSetInterruptVector
 296              	.LVL12:
  69:Generated_Source\PSoC4/CyDMA.c ****         initIntrVector = 1u;
 297              		.loc 1 69 0
 298 0010 0321     		movs	r1, #3
 299 0012 1520     		movs	r0, #21
 300 0014 FFF7FEFF 		bl	CyIntSetPriority
 301              	.LVL13:
  70:Generated_Source\PSoC4/CyDMA.c ****     }
 302              		.loc 1 70 0
 303 0018 0122     		movs	r2, #1
 304 001a 034B     		ldr	r3, .L26
 305 001c 1A70     		strb	r2, [r3]
 306              	.L25:
  72:Generated_Source\PSoC4/CyDMA.c **** }
 307              		.loc 1 72 0
 308 001e 8022     		movs	r2, #128
 309 0020 1206     		lsls	r2, r2, #24
 310 0022 034B     		ldr	r3, .L26+8
 311 0024 1A60     		str	r2, [r3]
  73:Generated_Source\PSoC4/CyDMA.c **** 
 312              		.loc 1 73 0
 313              		@ sp needed
 314 0026 10BD     		pop	{r4, pc}
 315              	.L27:
 316              		.align	2
 317              	.L26:
ARM GAS  C:\Users\haras\AppData\Local\Temp\ccNMvNjF.s 			page 15


 318 0028 00000000 		.word	.LANCHOR1
 319 002c 00000000 		.word	CyDmaInterrupt
 320 0030 00101040 		.word	1074794496
 321              		.cfi_endproc
 322              	.LFE2:
 323              		.size	CyDmaEnable, .-CyDmaEnable
 324              		.section	.text.CyDmaGetInterruptSource,"ax",%progbits
 325              		.align	2
 326              		.global	CyDmaGetInterruptSource
 327              		.code	16
 328              		.thumb_func
 329              		.type	CyDmaGetInterruptSource, %function
 330              	CyDmaGetInterruptSource:
 331              	.LFB9:
 248:Generated_Source\PSoC4/CyDMA.c ****     return (CYDMA_INTR_REG);
 332              		.loc 1 248 0
 333              		.cfi_startproc
 334              		@ args = 0, pretend = 0, frame = 0
 335              		@ frame_needed = 0, uses_anonymous_args = 0
 336              		@ link register save eliminated.
 249:Generated_Source\PSoC4/CyDMA.c **** }
 337              		.loc 1 249 0
 338 0000 014B     		ldr	r3, .L29
 339 0002 1868     		ldr	r0, [r3]
 250:Generated_Source\PSoC4/CyDMA.c **** 
 340              		.loc 1 250 0
 341              		@ sp needed
 342 0004 7047     		bx	lr
 343              	.L30:
 344 0006 C046     		.align	2
 345              	.L29:
 346 0008 F0171040 		.word	1074796528
 347              		.cfi_endproc
 348              	.LFE9:
 349              		.size	CyDmaGetInterruptSource, .-CyDmaGetInterruptSource
 350              		.section	.text.CyDmaClearInterruptSource,"ax",%progbits
 351              		.align	2
 352              		.global	CyDmaClearInterruptSource
 353              		.code	16
 354              		.thumb_func
 355              		.type	CyDmaClearInterruptSource, %function
 356              	CyDmaClearInterruptSource:
 357              	.LFB10:
 268:Generated_Source\PSoC4/CyDMA.c ****     CYDMA_INTR_REG = interruptMask;
 358              		.loc 1 268 0
 359              		.cfi_startproc
 360              		@ args = 0, pretend = 0, frame = 0
 361              		@ frame_needed = 0, uses_anonymous_args = 0
 362              		@ link register save eliminated.
 363              	.LVL14:
 269:Generated_Source\PSoC4/CyDMA.c **** }
 364              		.loc 1 269 0
 365 0000 014B     		ldr	r3, .L32
 366 0002 1860     		str	r0, [r3]
 270:Generated_Source\PSoC4/CyDMA.c **** 
 367              		.loc 1 270 0
 368              		@ sp needed
ARM GAS  C:\Users\haras\AppData\Local\Temp\ccNMvNjF.s 			page 16


 369 0004 7047     		bx	lr
 370              	.L33:
 371 0006 C046     		.align	2
 372              	.L32:
 373 0008 F0171040 		.word	1074796528
 374              		.cfi_endproc
 375              	.LFE10:
 376              		.size	CyDmaClearInterruptSource, .-CyDmaClearInterruptSource
 377              		.section	.text.CyDmaSetInterruptSourceMask,"ax",%progbits
 378              		.align	2
 379              		.global	CyDmaSetInterruptSourceMask
 380              		.code	16
 381              		.thumb_func
 382              		.type	CyDmaSetInterruptSourceMask, %function
 383              	CyDmaSetInterruptSourceMask:
 384              	.LFB11:
 288:Generated_Source\PSoC4/CyDMA.c ****     CYDMA_INTR_MASK_REG = interruptMask;
 385              		.loc 1 288 0
 386              		.cfi_startproc
 387              		@ args = 0, pretend = 0, frame = 0
 388              		@ frame_needed = 0, uses_anonymous_args = 0
 389              		@ link register save eliminated.
 390              	.LVL15:
 289:Generated_Source\PSoC4/CyDMA.c **** }
 391              		.loc 1 289 0
 392 0000 014B     		ldr	r3, .L35
 393 0002 1860     		str	r0, [r3]
 290:Generated_Source\PSoC4/CyDMA.c **** 
 394              		.loc 1 290 0
 395              		@ sp needed
 396 0004 7047     		bx	lr
 397              	.L36:
 398 0006 C046     		.align	2
 399              	.L35:
 400 0008 F8171040 		.word	1074796536
 401              		.cfi_endproc
 402              	.LFE11:
 403              		.size	CyDmaSetInterruptSourceMask, .-CyDmaSetInterruptSourceMask
 404              		.section	.text.CyDmaGetInterruptSourceMask,"ax",%progbits
 405              		.align	2
 406              		.global	CyDmaGetInterruptSourceMask
 407              		.code	16
 408              		.thumb_func
 409              		.type	CyDmaGetInterruptSourceMask, %function
 410              	CyDmaGetInterruptSourceMask:
 411              	.LFB12:
 308:Generated_Source\PSoC4/CyDMA.c ****     return (CYDMA_INTR_MASK_REG);
 412              		.loc 1 308 0
 413              		.cfi_startproc
 414              		@ args = 0, pretend = 0, frame = 0
 415              		@ frame_needed = 0, uses_anonymous_args = 0
 416              		@ link register save eliminated.
 309:Generated_Source\PSoC4/CyDMA.c **** }
 417              		.loc 1 309 0
 418 0000 014B     		ldr	r3, .L38
 419 0002 1868     		ldr	r0, [r3]
 310:Generated_Source\PSoC4/CyDMA.c **** 
ARM GAS  C:\Users\haras\AppData\Local\Temp\ccNMvNjF.s 			page 17


 420              		.loc 1 310 0
 421              		@ sp needed
 422 0004 7047     		bx	lr
 423              	.L39:
 424 0006 C046     		.align	2
 425              	.L38:
 426 0008 F8171040 		.word	1074796536
 427              		.cfi_endproc
 428              	.LFE12:
 429              		.size	CyDmaGetInterruptSourceMask, .-CyDmaGetInterruptSourceMask
 430              		.section	.text.CyDmaGetInterruptSourceMasked,"ax",%progbits
 431              		.align	2
 432              		.global	CyDmaGetInterruptSourceMasked
 433              		.code	16
 434              		.thumb_func
 435              		.type	CyDmaGetInterruptSourceMasked, %function
 436              	CyDmaGetInterruptSourceMasked:
 437              	.LFB13:
 328:Generated_Source\PSoC4/CyDMA.c ****     return (CYDMA_INTR_MASKED_REG);
 438              		.loc 1 328 0
 439              		.cfi_startproc
 440              		@ args = 0, pretend = 0, frame = 0
 441              		@ frame_needed = 0, uses_anonymous_args = 0
 442              		@ link register save eliminated.
 329:Generated_Source\PSoC4/CyDMA.c **** }
 443              		.loc 1 329 0
 444 0000 014B     		ldr	r3, .L41
 445 0002 1868     		ldr	r0, [r3]
 330:Generated_Source\PSoC4/CyDMA.c **** 
 446              		.loc 1 330 0
 447              		@ sp needed
 448 0004 7047     		bx	lr
 449              	.L42:
 450 0006 C046     		.align	2
 451              	.L41:
 452 0008 FC171040 		.word	1074796540
 453              		.cfi_endproc
 454              	.LFE13:
 455              		.size	CyDmaGetInterruptSourceMasked, .-CyDmaGetInterruptSourceMasked
 456              		.section	.text.CyDmaSetInterruptCallback,"ax",%progbits
 457              		.align	2
 458              		.global	CyDmaSetInterruptCallback
 459              		.code	16
 460              		.thumb_func
 461              		.type	CyDmaSetInterruptCallback, %function
 462              	CyDmaSetInterruptCallback:
 463              	.LFB14:
 351:Generated_Source\PSoC4/CyDMA.c ****     cydma_callback_t prevCallback;
 464              		.loc 1 351 0
 465              		.cfi_startproc
 466              		@ args = 0, pretend = 0, frame = 0
 467              		@ frame_needed = 0, uses_anonymous_args = 0
 468              	.LVL16:
 469 0000 70B5     		push	{r4, r5, r6, lr}
 470              		.cfi_def_cfa_offset 16
 471              		.cfi_offset 4, -16
 472              		.cfi_offset 5, -12
ARM GAS  C:\Users\haras\AppData\Local\Temp\ccNMvNjF.s 			page 18


 473              		.cfi_offset 6, -8
 474              		.cfi_offset 14, -4
 475 0002 0400     		movs	r4, r0
 476 0004 0D00     		movs	r5, r1
 354:Generated_Source\PSoC4/CyDMA.c **** 
 477              		.loc 1 354 0
 478 0006 0728     		cmp	r0, #7
 479 0008 02D9     		bls	.L44
 354:Generated_Source\PSoC4/CyDMA.c **** 
 480              		.loc 1 354 0 is_stmt 0 discriminator 1
 481 000a 0020     		movs	r0, #0
 482              	.LVL17:
 483 000c FFF7FEFF 		bl	CyHalt
 484              	.LVL18:
 485              	.L44:
 356:Generated_Source\PSoC4/CyDMA.c ****     CyDmaInterruptCallback[channel] = callback;
 486              		.loc 1 356 0 is_stmt 1
 487 0010 024B     		ldr	r3, .L45
 488 0012 A400     		lsls	r4, r4, #2
 489              	.LVL19:
 490 0014 E058     		ldr	r0, [r4, r3]
 491              	.LVL20:
 357:Generated_Source\PSoC4/CyDMA.c ****     return (prevCallback);
 492              		.loc 1 357 0
 493 0016 E550     		str	r5, [r4, r3]
 359:Generated_Source\PSoC4/CyDMA.c **** 
 494              		.loc 1 359 0
 495              		@ sp needed
 496              	.LVL21:
 497 0018 70BD     		pop	{r4, r5, r6, pc}
 498              	.L46:
 499 001a C046     		.align	2
 500              	.L45:
 501 001c 00000000 		.word	.LANCHOR0
 502              		.cfi_endproc
 503              	.LFE14:
 504              		.size	CyDmaSetInterruptCallback, .-CyDmaSetInterruptCallback
 505              		.section	.text.CyDmaGetInterruptCallback,"ax",%progbits
 506              		.align	2
 507              		.global	CyDmaGetInterruptCallback
 508              		.code	16
 509              		.thumb_func
 510              		.type	CyDmaGetInterruptCallback, %function
 511              	CyDmaGetInterruptCallback:
 512              	.LFB15:
 378:Generated_Source\PSoC4/CyDMA.c ****     CYASSERT((channel >= 0) && (channel < CYDMA_CH_NR));
 513              		.loc 1 378 0
 514              		.cfi_startproc
 515              		@ args = 0, pretend = 0, frame = 0
 516              		@ frame_needed = 0, uses_anonymous_args = 0
 517              	.LVL22:
 518 0000 10B5     		push	{r4, lr}
 519              		.cfi_def_cfa_offset 8
 520              		.cfi_offset 4, -8
 521              		.cfi_offset 14, -4
 522 0002 0400     		movs	r4, r0
 379:Generated_Source\PSoC4/CyDMA.c ****     
ARM GAS  C:\Users\haras\AppData\Local\Temp\ccNMvNjF.s 			page 19


 523              		.loc 1 379 0
 524 0004 0728     		cmp	r0, #7
 525 0006 02D9     		bls	.L48
 379:Generated_Source\PSoC4/CyDMA.c ****     
 526              		.loc 1 379 0 is_stmt 0 discriminator 1
 527 0008 0020     		movs	r0, #0
 528              	.LVL23:
 529 000a FFF7FEFF 		bl	CyHalt
 530              	.LVL24:
 531              	.L48:
 381:Generated_Source\PSoC4/CyDMA.c **** }
 532              		.loc 1 381 0 is_stmt 1
 533 000e A400     		lsls	r4, r4, #2
 534              	.LVL25:
 535 0010 014B     		ldr	r3, .L49
 536 0012 E058     		ldr	r0, [r4, r3]
 382:Generated_Source\PSoC4/CyDMA.c **** 
 537              		.loc 1 382 0
 538              		@ sp needed
 539 0014 10BD     		pop	{r4, pc}
 540              	.L50:
 541 0016 C046     		.align	2
 542              	.L49:
 543 0018 00000000 		.word	.LANCHOR0
 544              		.cfi_endproc
 545              	.LFE15:
 546              		.size	CyDmaGetInterruptCallback, .-CyDmaGetInterruptCallback
 547              		.section	.text.CyDmaChAlloc,"ax",%progbits
 548              		.align	2
 549              		.global	CyDmaChAlloc
 550              		.code	16
 551              		.thumb_func
 552              		.type	CyDmaChAlloc, %function
 553              	CyDmaChAlloc:
 554              	.LFB18:
 455:Generated_Source\PSoC4/CyDMA.c **** 
 456:Generated_Source\PSoC4/CyDMA.c **** 
 457:Generated_Source\PSoC4/CyDMA.c **** /*******************************************************************************
 458:Generated_Source\PSoC4/CyDMA.c **** * Function Name: CyDmaChAlloc
 459:Generated_Source\PSoC4/CyDMA.c **** ********************************************************************************
 460:Generated_Source\PSoC4/CyDMA.c **** *
 461:Generated_Source\PSoC4/CyDMA.c **** * Summary:
 462:Generated_Source\PSoC4/CyDMA.c **** *  Allocates a channel number to use with later DMA functions.
 463:Generated_Source\PSoC4/CyDMA.c **** *
 464:Generated_Source\PSoC4/CyDMA.c **** * Parameters:
 465:Generated_Source\PSoC4/CyDMA.c **** *  None.
 466:Generated_Source\PSoC4/CyDMA.c **** *                   
 467:Generated_Source\PSoC4/CyDMA.c **** * Return:
 468:Generated_Source\PSoC4/CyDMA.c **** *  The allocated channel number. Zero is a valid channel number.
 469:Generated_Source\PSoC4/CyDMA.c **** *  CYDMA_INVALID_CHANNEL is returned if there are no channels available.
 470:Generated_Source\PSoC4/CyDMA.c **** *
 471:Generated_Source\PSoC4/CyDMA.c **** *******************************************************************************/
 472:Generated_Source\PSoC4/CyDMA.c **** int32 CyDmaChAlloc(void)
 473:Generated_Source\PSoC4/CyDMA.c **** {
 555              		.loc 1 473 0
 556              		.cfi_startproc
 557              		@ args = 0, pretend = 0, frame = 0
ARM GAS  C:\Users\haras\AppData\Local\Temp\ccNMvNjF.s 			page 20


 558              		@ frame_needed = 0, uses_anonymous_args = 0
 559              		@ link register save eliminated.
 560              	.LVL26:
 474:Generated_Source\PSoC4/CyDMA.c ****     int32  channel = CYDMA_CH_NR-1;
 475:Generated_Source\PSoC4/CyDMA.c ****     uint32 channelMask = (uint32)(1UL << (CYDMA_CH_NR-1));
 561              		.loc 1 475 0
 562 0000 8023     		movs	r3, #128
 474:Generated_Source\PSoC4/CyDMA.c ****     int32  channel = CYDMA_CH_NR-1;
 563              		.loc 1 474 0
 564 0002 0720     		movs	r0, #7
 476:Generated_Source\PSoC4/CyDMA.c ****     
 477:Generated_Source\PSoC4/CyDMA.c ****     while (channel >= 0)
 565              		.loc 1 477 0
 566 0004 09E0     		b	.L52
 567              	.LVL27:
 568              	.L55:
 478:Generated_Source\PSoC4/CyDMA.c ****     {
 479:Generated_Source\PSoC4/CyDMA.c ****         if(0u == (CyDmaChannelUsedMask & channelMask))
 569              		.loc 1 479 0
 570 0006 064A     		ldr	r2, .L56
 571 0008 126A     		ldr	r2, [r2, #32]
 572 000a 1A42     		tst	r2, r3
 573 000c 03D1     		bne	.L53
 480:Generated_Source\PSoC4/CyDMA.c ****         {
 481:Generated_Source\PSoC4/CyDMA.c ****             /* Mark channel as used and exit loop. */ 
 482:Generated_Source\PSoC4/CyDMA.c ****             CyDmaChannelUsedMask |= channelMask;
 574              		.loc 1 482 0
 575 000e 1343     		orrs	r3, r2
 576              	.LVL28:
 577 0010 034A     		ldr	r2, .L56
 578 0012 1362     		str	r3, [r2, #32]
 483:Generated_Source\PSoC4/CyDMA.c ****             break;
 579              		.loc 1 483 0
 580 0014 03E0     		b	.L54
 581              	.LVL29:
 582              	.L53:
 484:Generated_Source\PSoC4/CyDMA.c ****         }
 485:Generated_Source\PSoC4/CyDMA.c ****         channelMask >>= 1;
 583              		.loc 1 485 0
 584 0016 5B08     		lsrs	r3, r3, #1
 585              	.LVL30:
 486:Generated_Source\PSoC4/CyDMA.c ****         --channel;
 586              		.loc 1 486 0
 587 0018 0138     		subs	r0, r0, #1
 588              	.LVL31:
 589              	.L52:
 477:Generated_Source\PSoC4/CyDMA.c ****     {
 590              		.loc 1 477 0
 591 001a 0028     		cmp	r0, #0
 592 001c F3DA     		bge	.L55
 593              	.LVL32:
 594              	.L54:
 487:Generated_Source\PSoC4/CyDMA.c ****     }
 488:Generated_Source\PSoC4/CyDMA.c ****     return (channel);
 489:Generated_Source\PSoC4/CyDMA.c **** }
 595              		.loc 1 489 0
 596              		@ sp needed
ARM GAS  C:\Users\haras\AppData\Local\Temp\ccNMvNjF.s 			page 21


 597 001e 7047     		bx	lr
 598              	.L57:
 599              		.align	2
 600              	.L56:
 601 0020 00000000 		.word	.LANCHOR0
 602              		.cfi_endproc
 603              	.LFE18:
 604              		.size	CyDmaChAlloc, .-CyDmaChAlloc
 605              		.section	.text.CyDmaChFree,"ax",%progbits
 606              		.align	2
 607              		.global	CyDmaChFree
 608              		.code	16
 609              		.thumb_func
 610              		.type	CyDmaChFree, %function
 611              	CyDmaChFree:
 612              	.LFB19:
 490:Generated_Source\PSoC4/CyDMA.c **** 
 491:Generated_Source\PSoC4/CyDMA.c **** 
 492:Generated_Source\PSoC4/CyDMA.c **** /*******************************************************************************
 493:Generated_Source\PSoC4/CyDMA.c **** * Function Name: CyDmaChFree
 494:Generated_Source\PSoC4/CyDMA.c **** ********************************************************************************
 495:Generated_Source\PSoC4/CyDMA.c **** *
 496:Generated_Source\PSoC4/CyDMA.c **** * Summary:
 497:Generated_Source\PSoC4/CyDMA.c **** *  Frees a channel handle allocated by CyDmaChAlloc(). Channels allocated for
 498:Generated_Source\PSoC4/CyDMA.c **** *  DMA instances placed on a schematic cannot be freed.
 499:Generated_Source\PSoC4/CyDMA.c **** *
 500:Generated_Source\PSoC4/CyDMA.c **** * Parameters:
 501:Generated_Source\PSoC4/CyDMA.c **** *  channel: The handle previously returned by CyDmaChAlloc().
 502:Generated_Source\PSoC4/CyDMA.c **** *                   
 503:Generated_Source\PSoC4/CyDMA.c **** * Return:
 504:Generated_Source\PSoC4/CyDMA.c **** *  CYRET_SUCCESS if successful.
 505:Generated_Source\PSoC4/CyDMA.c **** *  CYRET_BAD_PARAM if channel is invalid.
 506:Generated_Source\PSoC4/CyDMA.c **** *
 507:Generated_Source\PSoC4/CyDMA.c **** *******************************************************************************/
 508:Generated_Source\PSoC4/CyDMA.c **** cystatus CyDmaChFree(int32 channel)
 509:Generated_Source\PSoC4/CyDMA.c **** {
 613              		.loc 1 509 0
 614              		.cfi_startproc
 615              		@ args = 0, pretend = 0, frame = 0
 616              		@ frame_needed = 0, uses_anonymous_args = 0
 617              	.LVL33:
 618 0000 10B5     		push	{r4, lr}
 619              		.cfi_def_cfa_offset 8
 620              		.cfi_offset 4, -8
 621              		.cfi_offset 14, -4
 622 0002 0400     		movs	r4, r0
 623              	.LVL34:
 510:Generated_Source\PSoC4/CyDMA.c ****     uint32   channelMask;
 511:Generated_Source\PSoC4/CyDMA.c ****     cystatus result = CYRET_BAD_PARAM;
 512:Generated_Source\PSoC4/CyDMA.c **** 
 513:Generated_Source\PSoC4/CyDMA.c ****     CYASSERT((channel >= 0) && (channel < CYDMA_CH_NR));
 624              		.loc 1 513 0
 625 0004 0728     		cmp	r0, #7
 626 0006 02D9     		bls	.L59
 627              		.loc 1 513 0 is_stmt 0 discriminator 1
 628 0008 0020     		movs	r0, #0
 629              	.LVL35:
ARM GAS  C:\Users\haras\AppData\Local\Temp\ccNMvNjF.s 			page 22


 630 000a FFF7FEFF 		bl	CyHalt
 631              	.LVL36:
 632              	.L59:
 514:Generated_Source\PSoC4/CyDMA.c ****     
 515:Generated_Source\PSoC4/CyDMA.c ****     channelMask = (uint32)(1UL << channel);
 633              		.loc 1 515 0 is_stmt 1
 634 000e 0123     		movs	r3, #1
 635 0010 A340     		lsls	r3, r3, r4
 636              	.LVL37:
 516:Generated_Source\PSoC4/CyDMA.c **** 
 517:Generated_Source\PSoC4/CyDMA.c ****     /* Check against attempt to free channel allocated for DMA instance
 518:Generated_Source\PSoC4/CyDMA.c ****     * placed on schematic.
 519:Generated_Source\PSoC4/CyDMA.c ****     */
 520:Generated_Source\PSoC4/CyDMA.c ****     if(0u == (channelMask & DMA_CHANNELS_USED__MASK))
 637              		.loc 1 520 0
 638 0012 5A07     		lsls	r2, r3, #29
 639 0014 05D1     		bne	.L61
 521:Generated_Source\PSoC4/CyDMA.c ****     {
 522:Generated_Source\PSoC4/CyDMA.c ****         CyDmaChannelUsedMask &= (uint32)~channelMask;
 640              		.loc 1 522 0
 641 0016 044A     		ldr	r2, .L62
 642 0018 116A     		ldr	r1, [r2, #32]
 643 001a 9943     		bics	r1, r3
 644 001c 1162     		str	r1, [r2, #32]
 645              	.LVL38:
 523:Generated_Source\PSoC4/CyDMA.c ****         result = CYRET_SUCCESS;
 646              		.loc 1 523 0
 647 001e 0020     		movs	r0, #0
 648 0020 00E0     		b	.L60
 649              	.LVL39:
 650              	.L61:
 511:Generated_Source\PSoC4/CyDMA.c **** 
 651              		.loc 1 511 0
 652 0022 0120     		movs	r0, #1
 653              	.LVL40:
 654              	.L60:
 524:Generated_Source\PSoC4/CyDMA.c ****     }
 525:Generated_Source\PSoC4/CyDMA.c ****     
 526:Generated_Source\PSoC4/CyDMA.c ****     return (result);
 527:Generated_Source\PSoC4/CyDMA.c **** }
 655              		.loc 1 527 0
 656              		@ sp needed
 657              	.LVL41:
 658 0024 10BD     		pop	{r4, pc}
 659              	.L63:
 660 0026 C046     		.align	2
 661              	.L62:
 662 0028 00000000 		.word	.LANCHOR0
 663              		.cfi_endproc
 664              	.LFE19:
 665              		.size	CyDmaChFree, .-CyDmaChFree
 666              		.section	.text.CyDmaChEnable,"ax",%progbits
 667              		.align	2
 668              		.global	CyDmaChEnable
 669              		.code	16
 670              		.thumb_func
 671              		.type	CyDmaChEnable, %function
ARM GAS  C:\Users\haras\AppData\Local\Temp\ccNMvNjF.s 			page 23


 672              	CyDmaChEnable:
 673              	.LFB20:
 528:Generated_Source\PSoC4/CyDMA.c **** 
 529:Generated_Source\PSoC4/CyDMA.c **** 
 530:Generated_Source\PSoC4/CyDMA.c **** /*******************************************************************************
 531:Generated_Source\PSoC4/CyDMA.c **** * Function Name: CyDmaChEnable
 532:Generated_Source\PSoC4/CyDMA.c **** ********************************************************************************
 533:Generated_Source\PSoC4/CyDMA.c **** *
 534:Generated_Source\PSoC4/CyDMA.c **** * Summary:
 535:Generated_Source\PSoC4/CyDMA.c **** *  Enables the DMA channel.
 536:Generated_Source\PSoC4/CyDMA.c **** *
 537:Generated_Source\PSoC4/CyDMA.c **** * Parameters:
 538:Generated_Source\PSoC4/CyDMA.c **** *  channel: Channel used by this function.
 539:Generated_Source\PSoC4/CyDMA.c **** *                   
 540:Generated_Source\PSoC4/CyDMA.c **** * Return:
 541:Generated_Source\PSoC4/CyDMA.c **** *  None.
 542:Generated_Source\PSoC4/CyDMA.c **** *
 543:Generated_Source\PSoC4/CyDMA.c **** * Side effect:
 544:Generated_Source\PSoC4/CyDMA.c **** *  If this function is called before CyDmaSetConfiguration(), and
 545:Generated_Source\PSoC4/CyDMA.c **** *  CyDmaSetSrcAddress() and CyDmaSetDstAddress(), the operation of
 546:Generated_Source\PSoC4/CyDMA.c **** *  the DMA is undefined and could result in system data corruption. 
 547:Generated_Source\PSoC4/CyDMA.c **** *
 548:Generated_Source\PSoC4/CyDMA.c **** *******************************************************************************/
 549:Generated_Source\PSoC4/CyDMA.c **** void CyDmaChEnable(int32 channel)
 550:Generated_Source\PSoC4/CyDMA.c **** {
 674              		.loc 1 550 0
 675              		.cfi_startproc
 676              		@ args = 0, pretend = 0, frame = 0
 677              		@ frame_needed = 0, uses_anonymous_args = 0
 678              	.LVL42:
 679 0000 10B5     		push	{r4, lr}
 680              		.cfi_def_cfa_offset 8
 681              		.cfi_offset 4, -8
 682              		.cfi_offset 14, -4
 683 0002 0400     		movs	r4, r0
 551:Generated_Source\PSoC4/CyDMA.c ****     CYASSERT((channel >= 0) && (channel < CYDMA_CH_NR));
 684              		.loc 1 551 0
 685 0004 0728     		cmp	r0, #7
 686 0006 02D9     		bls	.L65
 687              		.loc 1 551 0 is_stmt 0 discriminator 1
 688 0008 0020     		movs	r0, #0
 689              	.LVL43:
 690 000a FFF7FEFF 		bl	CyHalt
 691              	.LVL44:
 692              	.L65:
 552:Generated_Source\PSoC4/CyDMA.c **** 
 553:Generated_Source\PSoC4/CyDMA.c ****     CYDMA_CH_CTL_BASE.ctl[channel] |= CYDMA_ENABLED;
 693              		.loc 1 553 0 is_stmt 1
 694 000e 044A     		ldr	r2, .L66
 695 0010 A400     		lsls	r4, r4, #2
 696              	.LVL45:
 697 0012 A358     		ldr	r3, [r4, r2]
 698 0014 8021     		movs	r1, #128
 699 0016 0906     		lsls	r1, r1, #24
 700 0018 0B43     		orrs	r3, r1
 701 001a A350     		str	r3, [r4, r2]
 554:Generated_Source\PSoC4/CyDMA.c **** }
ARM GAS  C:\Users\haras\AppData\Local\Temp\ccNMvNjF.s 			page 24


 702              		.loc 1 554 0
 703              		@ sp needed
 704 001c 10BD     		pop	{r4, pc}
 705              	.L67:
 706 001e C046     		.align	2
 707              	.L66:
 708 0020 80101040 		.word	1074794624
 709              		.cfi_endproc
 710              	.LFE20:
 711              		.size	CyDmaChEnable, .-CyDmaChEnable
 712              		.section	.text.CyDmaChDisable,"ax",%progbits
 713              		.align	2
 714              		.global	CyDmaChDisable
 715              		.code	16
 716              		.thumb_func
 717              		.type	CyDmaChDisable, %function
 718              	CyDmaChDisable:
 719              	.LFB21:
 555:Generated_Source\PSoC4/CyDMA.c **** 
 556:Generated_Source\PSoC4/CyDMA.c **** 
 557:Generated_Source\PSoC4/CyDMA.c **** /*******************************************************************************
 558:Generated_Source\PSoC4/CyDMA.c **** * Function Name: CyDmaChDisable
 559:Generated_Source\PSoC4/CyDMA.c **** ********************************************************************************
 560:Generated_Source\PSoC4/CyDMA.c **** *
 561:Generated_Source\PSoC4/CyDMA.c **** * Summary:
 562:Generated_Source\PSoC4/CyDMA.c **** *  Disables the DMA channel.
 563:Generated_Source\PSoC4/CyDMA.c **** *
 564:Generated_Source\PSoC4/CyDMA.c **** * Parameters:
 565:Generated_Source\PSoC4/CyDMA.c **** *  channel: Channel used by this function.
 566:Generated_Source\PSoC4/CyDMA.c **** *                   
 567:Generated_Source\PSoC4/CyDMA.c **** * Return:
 568:Generated_Source\PSoC4/CyDMA.c **** *  None.
 569:Generated_Source\PSoC4/CyDMA.c **** *
 570:Generated_Source\PSoC4/CyDMA.c **** * Side effect:
 571:Generated_Source\PSoC4/CyDMA.c **** *  If this function is called during a DMA transfer the transfer is aborted. 
 572:Generated_Source\PSoC4/CyDMA.c **** *
 573:Generated_Source\PSoC4/CyDMA.c **** *******************************************************************************/
 574:Generated_Source\PSoC4/CyDMA.c **** void CyDmaChDisable(int32 channel)
 575:Generated_Source\PSoC4/CyDMA.c **** {
 720              		.loc 1 575 0
 721              		.cfi_startproc
 722              		@ args = 0, pretend = 0, frame = 0
 723              		@ frame_needed = 0, uses_anonymous_args = 0
 724              	.LVL46:
 725 0000 10B5     		push	{r4, lr}
 726              		.cfi_def_cfa_offset 8
 727              		.cfi_offset 4, -8
 728              		.cfi_offset 14, -4
 729 0002 0400     		movs	r4, r0
 576:Generated_Source\PSoC4/CyDMA.c ****     CYASSERT((channel >= 0) && (channel < CYDMA_CH_NR));
 730              		.loc 1 576 0
 731 0004 0728     		cmp	r0, #7
 732 0006 02D9     		bls	.L69
 733              		.loc 1 576 0 is_stmt 0 discriminator 1
 734 0008 0020     		movs	r0, #0
 735              	.LVL47:
 736 000a FFF7FEFF 		bl	CyHalt
ARM GAS  C:\Users\haras\AppData\Local\Temp\ccNMvNjF.s 			page 25


 737              	.LVL48:
 738              	.L69:
 577:Generated_Source\PSoC4/CyDMA.c **** 
 578:Generated_Source\PSoC4/CyDMA.c ****     CYDMA_CH_CTL_BASE.ctl[channel] &= (uint32)~CYDMA_ENABLED;
 739              		.loc 1 578 0 is_stmt 1
 740 000e 034A     		ldr	r2, .L70
 741 0010 A400     		lsls	r4, r4, #2
 742              	.LVL49:
 743 0012 A358     		ldr	r3, [r4, r2]
 744 0014 5B00     		lsls	r3, r3, #1
 745 0016 5B08     		lsrs	r3, r3, #1
 746 0018 A350     		str	r3, [r4, r2]
 579:Generated_Source\PSoC4/CyDMA.c **** }
 747              		.loc 1 579 0
 748              		@ sp needed
 749 001a 10BD     		pop	{r4, pc}
 750              	.L71:
 751              		.align	2
 752              	.L70:
 753 001c 80101040 		.word	1074794624
 754              		.cfi_endproc
 755              	.LFE21:
 756              		.size	CyDmaChDisable, .-CyDmaChDisable
 757              		.section	.text.CyDmaTrigger,"ax",%progbits
 758              		.align	2
 759              		.global	CyDmaTrigger
 760              		.code	16
 761              		.thumb_func
 762              		.type	CyDmaTrigger, %function
 763              	CyDmaTrigger:
 764              	.LFB22:
 580:Generated_Source\PSoC4/CyDMA.c **** 
 581:Generated_Source\PSoC4/CyDMA.c **** 
 582:Generated_Source\PSoC4/CyDMA.c **** /*******************************************************************************
 583:Generated_Source\PSoC4/CyDMA.c **** * Function Name: CyDmaTrigger
 584:Generated_Source\PSoC4/CyDMA.c **** ********************************************************************************
 585:Generated_Source\PSoC4/CyDMA.c **** *
 586:Generated_Source\PSoC4/CyDMA.c **** * Summary:
 587:Generated_Source\PSoC4/CyDMA.c **** *  Triggers the DMA channel, this is useful only for software triggers. This is
 588:Generated_Source\PSoC4/CyDMA.c **** *  not needed when hardware triggers are used.
 589:Generated_Source\PSoC4/CyDMA.c **** *
 590:Generated_Source\PSoC4/CyDMA.c **** * Parameters:
 591:Generated_Source\PSoC4/CyDMA.c **** *  channel: Channel used by this function.
 592:Generated_Source\PSoC4/CyDMA.c **** *                   
 593:Generated_Source\PSoC4/CyDMA.c **** * Return:
 594:Generated_Source\PSoC4/CyDMA.c **** *  None. 
 595:Generated_Source\PSoC4/CyDMA.c **** *
 596:Generated_Source\PSoC4/CyDMA.c **** *******************************************************************************/
 597:Generated_Source\PSoC4/CyDMA.c **** void CyDmaTrigger(int32 channel)
 598:Generated_Source\PSoC4/CyDMA.c **** {
 765              		.loc 1 598 0
 766              		.cfi_startproc
 767              		@ args = 0, pretend = 0, frame = 0
 768              		@ frame_needed = 0, uses_anonymous_args = 0
 769              	.LVL50:
 770 0000 10B5     		push	{r4, lr}
 771              		.cfi_def_cfa_offset 8
ARM GAS  C:\Users\haras\AppData\Local\Temp\ccNMvNjF.s 			page 26


 772              		.cfi_offset 4, -8
 773              		.cfi_offset 14, -4
 774 0002 0400     		movs	r4, r0
 599:Generated_Source\PSoC4/CyDMA.c ****     /* The LUT is device-dependent, thus it is generated during the build process. */
 600:Generated_Source\PSoC4/CyDMA.c ****     static const uint32 trCtlLut[] = {0xC0020000U};
 601:Generated_Source\PSoC4/CyDMA.c **** 
 602:Generated_Source\PSoC4/CyDMA.c ****     CYASSERT((channel >= 0) && (channel < CYDMA_CH_NR));
 775              		.loc 1 602 0
 776 0004 0728     		cmp	r0, #7
 777 0006 02D9     		bls	.L73
 778              		.loc 1 602 0 is_stmt 0 discriminator 1
 779 0008 0020     		movs	r0, #0
 780              	.LVL51:
 781 000a FFF7FEFF 		bl	CyHalt
 782              	.LVL52:
 783              	.L73:
 603:Generated_Source\PSoC4/CyDMA.c **** 
 604:Generated_Source\PSoC4/CyDMA.c ****     CYDMA_TR_CTL_REG = trCtlLut[(uint32)channel >> CYDMA_TR_GROUP_SHR] | ((uint32)channel & CYDMA_T
 784              		.loc 1 604 0 is_stmt 1
 785 000e 0723     		movs	r3, #7
 786 0010 1C40     		ands	r4, r3
 787              	.LVL53:
 788 0012 024B     		ldr	r3, .L74
 789 0014 1C43     		orrs	r4, r3
 790 0016 024B     		ldr	r3, .L74+4
 791 0018 1C60     		str	r4, [r3]
 605:Generated_Source\PSoC4/CyDMA.c **** }
 792              		.loc 1 605 0
 793              		@ sp needed
 794 001a 10BD     		pop	{r4, pc}
 795              	.L75:
 796              		.align	2
 797              	.L74:
 798 001c 000002C0 		.word	-1073610752
 799 0020 00060140 		.word	1073808896
 800              		.cfi_endproc
 801              	.LFE22:
 802              		.size	CyDmaTrigger, .-CyDmaTrigger
 803              		.section	.text.CyDmaSetPriority,"ax",%progbits
 804              		.align	2
 805              		.global	CyDmaSetPriority
 806              		.code	16
 807              		.thumb_func
 808              		.type	CyDmaSetPriority, %function
 809              	CyDmaSetPriority:
 810              	.LFB23:
 606:Generated_Source\PSoC4/CyDMA.c **** 
 607:Generated_Source\PSoC4/CyDMA.c **** 
 608:Generated_Source\PSoC4/CyDMA.c **** /*******************************************************************************
 609:Generated_Source\PSoC4/CyDMA.c **** * Function Name: CyDmaSetPriority
 610:Generated_Source\PSoC4/CyDMA.c **** ********************************************************************************
 611:Generated_Source\PSoC4/CyDMA.c **** *
 612:Generated_Source\PSoC4/CyDMA.c **** * Summary:
 613:Generated_Source\PSoC4/CyDMA.c **** *  Sets the priority for the channel.
 614:Generated_Source\PSoC4/CyDMA.c **** *
 615:Generated_Source\PSoC4/CyDMA.c **** * Parameters:
 616:Generated_Source\PSoC4/CyDMA.c **** *  channel:  Channel used by this function
ARM GAS  C:\Users\haras\AppData\Local\Temp\ccNMvNjF.s 			page 27


 617:Generated_Source\PSoC4/CyDMA.c **** *  priority: Priority for channel. Priority can be 0,1,2, or 3.
 618:Generated_Source\PSoC4/CyDMA.c **** *            0 is the highest priority.
 619:Generated_Source\PSoC4/CyDMA.c **** *                   
 620:Generated_Source\PSoC4/CyDMA.c **** * Return:
 621:Generated_Source\PSoC4/CyDMA.c **** *  None.
 622:Generated_Source\PSoC4/CyDMA.c **** *
 623:Generated_Source\PSoC4/CyDMA.c **** * Side effect:
 624:Generated_Source\PSoC4/CyDMA.c **** *  This function should not be called while the channel is enabled.
 625:Generated_Source\PSoC4/CyDMA.c **** *
 626:Generated_Source\PSoC4/CyDMA.c **** *******************************************************************************/
 627:Generated_Source\PSoC4/CyDMA.c **** void CyDmaSetPriority(int32 channel, int32 priority)
 628:Generated_Source\PSoC4/CyDMA.c **** {
 811              		.loc 1 628 0
 812              		.cfi_startproc
 813              		@ args = 0, pretend = 0, frame = 0
 814              		@ frame_needed = 0, uses_anonymous_args = 0
 815              	.LVL54:
 816 0000 70B5     		push	{r4, r5, r6, lr}
 817              		.cfi_def_cfa_offset 16
 818              		.cfi_offset 4, -16
 819              		.cfi_offset 5, -12
 820              		.cfi_offset 6, -8
 821              		.cfi_offset 14, -4
 822 0002 0500     		movs	r5, r0
 823 0004 0C00     		movs	r4, r1
 629:Generated_Source\PSoC4/CyDMA.c ****     uint32 regValue;
 630:Generated_Source\PSoC4/CyDMA.c **** 
 631:Generated_Source\PSoC4/CyDMA.c ****     CYASSERT((channel  >= 0) && (channel  <  CYDMA_CH_NR));
 824              		.loc 1 631 0
 825 0006 0728     		cmp	r0, #7
 826 0008 02D9     		bls	.L77
 827              		.loc 1 631 0 is_stmt 0 discriminator 1
 828 000a 0020     		movs	r0, #0
 829              	.LVL55:
 830 000c FFF7FEFF 		bl	CyHalt
 831              	.LVL56:
 832              	.L77:
 632:Generated_Source\PSoC4/CyDMA.c ****     CYASSERT((priority >= 0) && (priority <= CY_DMA_MAX_PRIO));
 833              		.loc 1 632 0 is_stmt 1
 834 0010 032C     		cmp	r4, #3
 835 0012 02D9     		bls	.L78
 836              		.loc 1 632 0 is_stmt 0 discriminator 1
 837 0014 0020     		movs	r0, #0
 838 0016 FFF7FEFF 		bl	CyHalt
 839              	.LVL57:
 840              	.L78:
 633:Generated_Source\PSoC4/CyDMA.c **** 
 634:Generated_Source\PSoC4/CyDMA.c ****     regValue = CYDMA_CH_CTL_BASE.ctl[channel] & (uint32)~CYDMA_PRIO;
 841              		.loc 1 634 0 is_stmt 1
 842 001a 044A     		ldr	r2, .L79
 843 001c AD00     		lsls	r5, r5, #2
 844              	.LVL58:
 845 001e A958     		ldr	r1, [r5, r2]
 846 0020 034B     		ldr	r3, .L79+4
 847 0022 0B40     		ands	r3, r1
 848              	.LVL59:
 635:Generated_Source\PSoC4/CyDMA.c ****     CYDMA_CH_CTL_BASE.ctl[channel] = regValue | (uint32)((uint32)priority << CYDMA_PRIO_POS);
ARM GAS  C:\Users\haras\AppData\Local\Temp\ccNMvNjF.s 			page 28


 849              		.loc 1 635 0
 850 0024 2407     		lsls	r4, r4, #28
 851              	.LVL60:
 852 0026 1C43     		orrs	r4, r3
 853 0028 AC50     		str	r4, [r5, r2]
 636:Generated_Source\PSoC4/CyDMA.c **** }
 854              		.loc 1 636 0
 855              		@ sp needed
 856 002a 70BD     		pop	{r4, r5, r6, pc}
 857              	.L80:
 858              		.align	2
 859              	.L79:
 860 002c 80101040 		.word	1074794624
 861 0030 FFFFFFCF 		.word	-805306369
 862              		.cfi_endproc
 863              	.LFE23:
 864              		.size	CyDmaSetPriority, .-CyDmaSetPriority
 865              		.section	.text.CyDmaGetPriority,"ax",%progbits
 866              		.align	2
 867              		.global	CyDmaGetPriority
 868              		.code	16
 869              		.thumb_func
 870              		.type	CyDmaGetPriority, %function
 871              	CyDmaGetPriority:
 872              	.LFB24:
 637:Generated_Source\PSoC4/CyDMA.c **** 
 638:Generated_Source\PSoC4/CyDMA.c **** 
 639:Generated_Source\PSoC4/CyDMA.c **** /*******************************************************************************
 640:Generated_Source\PSoC4/CyDMA.c **** * Function Name: CyDmaGetPriority
 641:Generated_Source\PSoC4/CyDMA.c **** ********************************************************************************
 642:Generated_Source\PSoC4/CyDMA.c **** *
 643:Generated_Source\PSoC4/CyDMA.c **** * Summary:
 644:Generated_Source\PSoC4/CyDMA.c **** *  Gets the priority for the channel.
 645:Generated_Source\PSoC4/CyDMA.c **** *
 646:Generated_Source\PSoC4/CyDMA.c **** * Parameters:
 647:Generated_Source\PSoC4/CyDMA.c **** *  channel: Channel used by this function.
 648:Generated_Source\PSoC4/CyDMA.c **** *                   
 649:Generated_Source\PSoC4/CyDMA.c **** * Return:
 650:Generated_Source\PSoC4/CyDMA.c **** *  Priority for channel. Priority can be 0,1,2, or 3. 0 is the highest priority.
 651:Generated_Source\PSoC4/CyDMA.c **** *
 652:Generated_Source\PSoC4/CyDMA.c **** *******************************************************************************/
 653:Generated_Source\PSoC4/CyDMA.c **** int32 CyDmaGetPriority(int32 channel)
 654:Generated_Source\PSoC4/CyDMA.c **** {
 873              		.loc 1 654 0
 874              		.cfi_startproc
 875              		@ args = 0, pretend = 0, frame = 0
 876              		@ frame_needed = 0, uses_anonymous_args = 0
 877              	.LVL61:
 878 0000 10B5     		push	{r4, lr}
 879              		.cfi_def_cfa_offset 8
 880              		.cfi_offset 4, -8
 881              		.cfi_offset 14, -4
 882 0002 0400     		movs	r4, r0
 655:Generated_Source\PSoC4/CyDMA.c ****     uint32 priority;
 656:Generated_Source\PSoC4/CyDMA.c **** 
 657:Generated_Source\PSoC4/CyDMA.c ****     CYASSERT((channel >= 0) && (channel < CYDMA_CH_NR));
 883              		.loc 1 657 0
ARM GAS  C:\Users\haras\AppData\Local\Temp\ccNMvNjF.s 			page 29


 884 0004 0728     		cmp	r0, #7
 885 0006 02D9     		bls	.L82
 886              		.loc 1 657 0 is_stmt 0 discriminator 1
 887 0008 0020     		movs	r0, #0
 888              	.LVL62:
 889 000a FFF7FEFF 		bl	CyHalt
 890              	.LVL63:
 891              	.L82:
 658:Generated_Source\PSoC4/CyDMA.c **** 
 659:Generated_Source\PSoC4/CyDMA.c ****     priority = (CYDMA_CH_CTL_BASE.ctl[channel] & CYDMA_PRIO) >> CYDMA_PRIO_POS;
 892              		.loc 1 659 0 is_stmt 1
 893 000e A400     		lsls	r4, r4, #2
 894              	.LVL64:
 895 0010 024B     		ldr	r3, .L83
 896 0012 E058     		ldr	r0, [r4, r3]
 897 0014 000F     		lsrs	r0, r0, #28
 898 0016 0323     		movs	r3, #3
 899 0018 1840     		ands	r0, r3
 900              	.LVL65:
 660:Generated_Source\PSoC4/CyDMA.c ****     return ((int32)priority);
 661:Generated_Source\PSoC4/CyDMA.c **** }
 901              		.loc 1 661 0
 902              		@ sp needed
 903 001a 10BD     		pop	{r4, pc}
 904              	.L84:
 905              		.align	2
 906              	.L83:
 907 001c 80101040 		.word	1074794624
 908              		.cfi_endproc
 909              	.LFE24:
 910              		.size	CyDmaGetPriority, .-CyDmaGetPriority
 911              		.section	.text.CyDmaSetNextDescriptor,"ax",%progbits
 912              		.align	2
 913              		.global	CyDmaSetNextDescriptor
 914              		.code	16
 915              		.thumb_func
 916              		.type	CyDmaSetNextDescriptor, %function
 917              	CyDmaSetNextDescriptor:
 918              	.LFB25:
 662:Generated_Source\PSoC4/CyDMA.c **** 
 663:Generated_Source\PSoC4/CyDMA.c **** 
 664:Generated_Source\PSoC4/CyDMA.c **** /*******************************************************************************
 665:Generated_Source\PSoC4/CyDMA.c **** * Function Name: CyDmaSetNextDescriptor
 666:Generated_Source\PSoC4/CyDMA.c **** ********************************************************************************
 667:Generated_Source\PSoC4/CyDMA.c **** *
 668:Generated_Source\PSoC4/CyDMA.c **** * Summary:
 669:Generated_Source\PSoC4/CyDMA.c **** *  Sets the descriptor that should be run the next time the channel is
 670:Generated_Source\PSoC4/CyDMA.c **** *  triggered.
 671:Generated_Source\PSoC4/CyDMA.c **** *
 672:Generated_Source\PSoC4/CyDMA.c **** * Parameters:
 673:Generated_Source\PSoC4/CyDMA.c **** *  channel:    Channel used by this function.
 674:Generated_Source\PSoC4/CyDMA.c **** *  descriptor: Next Descriptor to run (0 or 1).
 675:Generated_Source\PSoC4/CyDMA.c **** *
 676:Generated_Source\PSoC4/CyDMA.c **** * Return:
 677:Generated_Source\PSoC4/CyDMA.c **** *  None.
 678:Generated_Source\PSoC4/CyDMA.c **** *                   
 679:Generated_Source\PSoC4/CyDMA.c **** * Side effect:
ARM GAS  C:\Users\haras\AppData\Local\Temp\ccNMvNjF.s 			page 30


 680:Generated_Source\PSoC4/CyDMA.c **** *  This function should not be called while the channel is enabled.
 681:Generated_Source\PSoC4/CyDMA.c **** *
 682:Generated_Source\PSoC4/CyDMA.c **** *******************************************************************************/
 683:Generated_Source\PSoC4/CyDMA.c **** void CyDmaSetNextDescriptor(int32 channel, int32 descriptor)
 684:Generated_Source\PSoC4/CyDMA.c **** {
 919              		.loc 1 684 0
 920              		.cfi_startproc
 921              		@ args = 0, pretend = 0, frame = 0
 922              		@ frame_needed = 0, uses_anonymous_args = 0
 923              	.LVL66:
 924 0000 70B5     		push	{r4, r5, r6, lr}
 925              		.cfi_def_cfa_offset 16
 926              		.cfi_offset 4, -16
 927              		.cfi_offset 5, -12
 928              		.cfi_offset 6, -8
 929              		.cfi_offset 14, -4
 930 0002 0500     		movs	r5, r0
 931 0004 0C00     		movs	r4, r1
 685:Generated_Source\PSoC4/CyDMA.c ****     uint32 regValue;
 686:Generated_Source\PSoC4/CyDMA.c **** 
 687:Generated_Source\PSoC4/CyDMA.c ****     CYASSERT((channel    >= 0) && (channel    < CYDMA_CH_NR));
 932              		.loc 1 687 0
 933 0006 0728     		cmp	r0, #7
 934 0008 02D9     		bls	.L86
 935              		.loc 1 687 0 is_stmt 0 discriminator 1
 936 000a 0020     		movs	r0, #0
 937              	.LVL67:
 938 000c FFF7FEFF 		bl	CyHalt
 939              	.LVL68:
 940              	.L86:
 688:Generated_Source\PSoC4/CyDMA.c ****     CYASSERT((descriptor >= 0) && (descriptor < CYDMA_DESCR_NR));
 941              		.loc 1 688 0 is_stmt 1
 942 0010 012C     		cmp	r4, #1
 943 0012 02D9     		bls	.L87
 944              		.loc 1 688 0 is_stmt 0 discriminator 1
 945 0014 0020     		movs	r0, #0
 946 0016 FFF7FEFF 		bl	CyHalt
 947              	.LVL69:
 948              	.L87:
 689:Generated_Source\PSoC4/CyDMA.c **** 
 690:Generated_Source\PSoC4/CyDMA.c ****     regValue = CYDMA_CH_CTL_BASE.ctl[channel] & (uint32)~CYDMA_DESCRIPTOR;
 949              		.loc 1 690 0 is_stmt 1
 950 001a 044A     		ldr	r2, .L88
 951 001c AD00     		lsls	r5, r5, #2
 952              	.LVL70:
 953 001e A958     		ldr	r1, [r5, r2]
 954 0020 034B     		ldr	r3, .L88+4
 955 0022 0B40     		ands	r3, r1
 956              	.LVL71:
 691:Generated_Source\PSoC4/CyDMA.c ****     CYDMA_CH_CTL_BASE.ctl[channel] = regValue | (uint32)((uint32)descriptor << CYDMA_DESCRIPTOR_POS
 957              		.loc 1 691 0
 958 0024 A407     		lsls	r4, r4, #30
 959              	.LVL72:
 960 0026 1C43     		orrs	r4, r3
 961 0028 AC50     		str	r4, [r5, r2]
 692:Generated_Source\PSoC4/CyDMA.c **** }
 962              		.loc 1 692 0
ARM GAS  C:\Users\haras\AppData\Local\Temp\ccNMvNjF.s 			page 31


 963              		@ sp needed
 964 002a 70BD     		pop	{r4, r5, r6, pc}
 965              	.L89:
 966              		.align	2
 967              	.L88:
 968 002c 80101040 		.word	1074794624
 969 0030 FFFFFFBF 		.word	-1073741825
 970              		.cfi_endproc
 971              	.LFE25:
 972              		.size	CyDmaSetNextDescriptor, .-CyDmaSetNextDescriptor
 973              		.section	.text.CyDmaGetNextDescriptor,"ax",%progbits
 974              		.align	2
 975              		.global	CyDmaGetNextDescriptor
 976              		.code	16
 977              		.thumb_func
 978              		.type	CyDmaGetNextDescriptor, %function
 979              	CyDmaGetNextDescriptor:
 980              	.LFB26:
 693:Generated_Source\PSoC4/CyDMA.c **** 
 694:Generated_Source\PSoC4/CyDMA.c **** 
 695:Generated_Source\PSoC4/CyDMA.c **** /*******************************************************************************
 696:Generated_Source\PSoC4/CyDMA.c **** * Function Name: CyDmaGetNextDescriptor
 697:Generated_Source\PSoC4/CyDMA.c **** ********************************************************************************
 698:Generated_Source\PSoC4/CyDMA.c **** *
 699:Generated_Source\PSoC4/CyDMA.c **** * Summary:
 700:Generated_Source\PSoC4/CyDMA.c **** *  Returns the next descriptor that should be run, as set by 
 701:Generated_Source\PSoC4/CyDMA.c **** *  CyDmaSetNextDescriptor().
 702:Generated_Source\PSoC4/CyDMA.c **** *
 703:Generated_Source\PSoC4/CyDMA.c **** * Parameters:
 704:Generated_Source\PSoC4/CyDMA.c **** *  channel: channel used by this function.
 705:Generated_Source\PSoC4/CyDMA.c **** *                   
 706:Generated_Source\PSoC4/CyDMA.c **** * Return:
 707:Generated_Source\PSoC4/CyDMA.c **** *  Next Descriptor to run (0 or 1).
 708:Generated_Source\PSoC4/CyDMA.c **** *
 709:Generated_Source\PSoC4/CyDMA.c **** *******************************************************************************/
 710:Generated_Source\PSoC4/CyDMA.c **** int32 CyDmaGetNextDescriptor(int32 channel)
 711:Generated_Source\PSoC4/CyDMA.c **** {
 981              		.loc 1 711 0
 982              		.cfi_startproc
 983              		@ args = 0, pretend = 0, frame = 0
 984              		@ frame_needed = 0, uses_anonymous_args = 0
 985              	.LVL73:
 986 0000 10B5     		push	{r4, lr}
 987              		.cfi_def_cfa_offset 8
 988              		.cfi_offset 4, -8
 989              		.cfi_offset 14, -4
 990 0002 0400     		movs	r4, r0
 712:Generated_Source\PSoC4/CyDMA.c ****     uint32 nextDescriptor;
 713:Generated_Source\PSoC4/CyDMA.c **** 
 714:Generated_Source\PSoC4/CyDMA.c ****     CYASSERT((channel >= 0) && (channel < CYDMA_CH_NR));
 991              		.loc 1 714 0
 992 0004 0728     		cmp	r0, #7
 993 0006 02D9     		bls	.L91
 994              		.loc 1 714 0 is_stmt 0 discriminator 1
 995 0008 0020     		movs	r0, #0
 996              	.LVL74:
 997 000a FFF7FEFF 		bl	CyHalt
ARM GAS  C:\Users\haras\AppData\Local\Temp\ccNMvNjF.s 			page 32


 998              	.LVL75:
 999              	.L91:
 715:Generated_Source\PSoC4/CyDMA.c **** 
 716:Generated_Source\PSoC4/CyDMA.c ****     nextDescriptor = (CYDMA_CH_CTL_BASE.ctl[channel] & CYDMA_DESCRIPTOR) >> CYDMA_DESCRIPTOR_POS;
 1000              		.loc 1 716 0 is_stmt 1
 1001 000e A400     		lsls	r4, r4, #2
 1002              	.LVL76:
 1003 0010 024B     		ldr	r3, .L92
 1004 0012 E058     		ldr	r0, [r4, r3]
 1005 0014 800F     		lsrs	r0, r0, #30
 1006 0016 0123     		movs	r3, #1
 1007 0018 1840     		ands	r0, r3
 1008              	.LVL77:
 717:Generated_Source\PSoC4/CyDMA.c ****     return ((int32)nextDescriptor);
 718:Generated_Source\PSoC4/CyDMA.c **** }
 1009              		.loc 1 718 0
 1010              		@ sp needed
 1011 001a 10BD     		pop	{r4, pc}
 1012              	.L93:
 1013              		.align	2
 1014              	.L92:
 1015 001c 80101040 		.word	1074794624
 1016              		.cfi_endproc
 1017              	.LFE26:
 1018              		.size	CyDmaGetNextDescriptor, .-CyDmaGetNextDescriptor
 1019              		.section	.text.CyDmaSetConfiguration,"ax",%progbits
 1020              		.align	2
 1021              		.global	CyDmaSetConfiguration
 1022              		.code	16
 1023              		.thumb_func
 1024              		.type	CyDmaSetConfiguration, %function
 1025              	CyDmaSetConfiguration:
 1026              	.LFB27:
 719:Generated_Source\PSoC4/CyDMA.c **** 
 720:Generated_Source\PSoC4/CyDMA.c **** 
 721:Generated_Source\PSoC4/CyDMA.c **** /*******************************************************************************
 722:Generated_Source\PSoC4/CyDMA.c **** * Function Name: CyDmaSetConfiguration
 723:Generated_Source\PSoC4/CyDMA.c **** ********************************************************************************
 724:Generated_Source\PSoC4/CyDMA.c **** *
 725:Generated_Source\PSoC4/CyDMA.c **** * Summary:
 726:Generated_Source\PSoC4/CyDMA.c **** *  Sets configuration information for the specified descriptor.
 727:Generated_Source\PSoC4/CyDMA.c **** *
 728:Generated_Source\PSoC4/CyDMA.c **** * Parameters:
 729:Generated_Source\PSoC4/CyDMA.c **** *  channel:    DMA channel modified by this function.
 730:Generated_Source\PSoC4/CyDMA.c **** *  descriptor: Descriptor (0 or 1) modified by this function.
 731:Generated_Source\PSoC4/CyDMA.c **** *  config:     Pointer to a configuration structure. Refer to cydma_init_struct
 732:Generated_Source\PSoC4/CyDMA.c **** *              structure definition in CyDMA_P4.h and/or DMA channel datasheet
 733:Generated_Source\PSoC4/CyDMA.c **** *              for more information.
 734:Generated_Source\PSoC4/CyDMA.c **** *                   
 735:Generated_Source\PSoC4/CyDMA.c **** * Return:
 736:Generated_Source\PSoC4/CyDMA.c **** *  None.
 737:Generated_Source\PSoC4/CyDMA.c **** *
 738:Generated_Source\PSoC4/CyDMA.c **** * Side effect:
 739:Generated_Source\PSoC4/CyDMA.c **** *  The status register associated with the specified descriptor is reset to
 740:Generated_Source\PSoC4/CyDMA.c **** *  zero after this function call. This function also validates the descriptor.
 741:Generated_Source\PSoC4/CyDMA.c **** *  This function should not be called while the descriptor is active.
 742:Generated_Source\PSoC4/CyDMA.c **** *  This can be checked by calling CyDmaGetStatus().
ARM GAS  C:\Users\haras\AppData\Local\Temp\ccNMvNjF.s 			page 33


 743:Generated_Source\PSoC4/CyDMA.c **** *
 744:Generated_Source\PSoC4/CyDMA.c **** *******************************************************************************/
 745:Generated_Source\PSoC4/CyDMA.c **** void CyDmaSetConfiguration(int32 channel, int32 descriptor, const cydma_init_struct * config)
 746:Generated_Source\PSoC4/CyDMA.c **** {  
 1027              		.loc 1 746 0
 1028              		.cfi_startproc
 1029              		@ args = 0, pretend = 0, frame = 0
 1030              		@ frame_needed = 0, uses_anonymous_args = 0
 1031              	.LVL78:
 1032 0000 70B5     		push	{r4, r5, r6, lr}
 1033              		.cfi_def_cfa_offset 16
 1034              		.cfi_offset 4, -16
 1035              		.cfi_offset 5, -12
 1036              		.cfi_offset 6, -8
 1037              		.cfi_offset 14, -4
 1038 0002 0600     		movs	r6, r0
 1039 0004 0D00     		movs	r5, r1
 1040 0006 1400     		movs	r4, r2
 747:Generated_Source\PSoC4/CyDMA.c ****     CYASSERT((channel        >= 0) && (channel         < CYDMA_CH_NR));
 1041              		.loc 1 747 0
 1042 0008 0728     		cmp	r0, #7
 1043 000a 02D9     		bls	.L95
 1044              		.loc 1 747 0 is_stmt 0 discriminator 1
 1045 000c 0020     		movs	r0, #0
 1046              	.LVL79:
 1047 000e FFF7FEFF 		bl	CyHalt
 1048              	.LVL80:
 1049              	.L95:
 748:Generated_Source\PSoC4/CyDMA.c ****     CYASSERT((descriptor     >= 0) && (descriptor      < CYDMA_DESCR_NR));
 1050              		.loc 1 748 0 is_stmt 1
 1051 0012 012D     		cmp	r5, #1
 1052 0014 02D9     		bls	.L96
 1053              		.loc 1 748 0 is_stmt 0 discriminator 1
 1054 0016 0020     		movs	r0, #0
 1055 0018 FFF7FEFF 		bl	CyHalt
 1056              	.LVL81:
 1057              	.L96:
 749:Generated_Source\PSoC4/CyDMA.c **** 
 750:Generated_Source\PSoC4/CyDMA.c ****     CYASSERT(0u == (config->dataElementSize     & (uint32)~CYDMA_DATA_SIZE));   
 1058              		.loc 1 750 0 is_stmt 1
 1059 001c 294B     		ldr	r3, .L105
 1060 001e 2268     		ldr	r2, [r4]
 1061 0020 1A42     		tst	r2, r3
 1062 0022 02D0     		beq	.L97
 1063              		.loc 1 750 0 is_stmt 0 discriminator 1
 1064 0024 0020     		movs	r0, #0
 1065 0026 FFF7FEFF 		bl	CyHalt
 1066              	.LVL82:
 1067              	.L97:
 751:Generated_Source\PSoC4/CyDMA.c ****     CYASSERT((config->numDataElements > 0)     && (config->numDataElements <= CYDMA_MAX_DATA_NR));
 1068              		.loc 1 751 0 is_stmt 1
 1069 002a 6368     		ldr	r3, [r4, #4]
 1070 002c 013B     		subs	r3, r3, #1
 1071 002e 264A     		ldr	r2, .L105+4
 1072 0030 9342     		cmp	r3, r2
 1073 0032 02D9     		bls	.L98
 1074              		.loc 1 751 0 is_stmt 0 discriminator 1
ARM GAS  C:\Users\haras\AppData\Local\Temp\ccNMvNjF.s 			page 34


 1075 0034 0020     		movs	r0, #0
 1076 0036 FFF7FEFF 		bl	CyHalt
 1077              	.LVL83:
 1078              	.L98:
 752:Generated_Source\PSoC4/CyDMA.c ****     CYASSERT(0u == (config->srcDstTransferWidth & (uint32)~CYDMA_TRANSFER_WIDTH));
 1079              		.loc 1 752 0 is_stmt 1
 1080 003a 244B     		ldr	r3, .L105+8
 1081 003c A268     		ldr	r2, [r4, #8]
 1082 003e 1A42     		tst	r2, r3
 1083 0040 02D0     		beq	.L99
 1084              		.loc 1 752 0 is_stmt 0 discriminator 1
 1085 0042 0020     		movs	r0, #0
 1086 0044 FFF7FEFF 		bl	CyHalt
 1087              	.LVL84:
 1088              	.L99:
 753:Generated_Source\PSoC4/CyDMA.c ****     CYASSERT(0u == (config->addressIncrement    & (uint32)~CYDMA_ADDR_INCR));
 1089              		.loc 1 753 0 is_stmt 1
 1090 0048 214B     		ldr	r3, .L105+12
 1091 004a E268     		ldr	r2, [r4, #12]
 1092 004c 1A42     		tst	r2, r3
 1093 004e 02D0     		beq	.L100
 1094              		.loc 1 753 0 is_stmt 0 discriminator 1
 1095 0050 0020     		movs	r0, #0
 1096 0052 FFF7FEFF 		bl	CyHalt
 1097              	.LVL85:
 1098              	.L100:
 754:Generated_Source\PSoC4/CyDMA.c ****     CYASSERT(0u == (config->triggerType         & (uint32)~CYDMA_TRIGGER_TYPE));
 1099              		.loc 1 754 0 is_stmt 1
 1100 0056 1F4B     		ldr	r3, .L105+16
 1101 0058 2269     		ldr	r2, [r4, #16]
 1102 005a 1A42     		tst	r2, r3
 1103 005c 02D0     		beq	.L101
 1104              		.loc 1 754 0 is_stmt 0 discriminator 1
 1105 005e 0020     		movs	r0, #0
 1106 0060 FFF7FEFF 		bl	CyHalt
 1107              	.LVL86:
 1108              	.L101:
 755:Generated_Source\PSoC4/CyDMA.c ****     CYASSERT(0u == (config->transferMode        & (uint32)~CYDMA_TRANSFER_MODE));
 1109              		.loc 1 755 0 is_stmt 1
 1110 0064 6369     		ldr	r3, [r4, #20]
 1111 0066 9B00     		lsls	r3, r3, #2
 1112 0068 02D0     		beq	.L102
 1113              		.loc 1 755 0 is_stmt 0 discriminator 1
 1114 006a 0020     		movs	r0, #0
 1115 006c FFF7FEFF 		bl	CyHalt
 1116              	.LVL87:
 1117              	.L102:
 756:Generated_Source\PSoC4/CyDMA.c ****     CYASSERT(0u == (config->preemptable         & (uint32)~CYDMA_PREEMPTABLE));
 1118              		.loc 1 756 0 is_stmt 1
 1119 0070 194B     		ldr	r3, .L105+20
 1120 0072 A269     		ldr	r2, [r4, #24]
 1121 0074 1A42     		tst	r2, r3
 1122 0076 02D0     		beq	.L103
 1123              		.loc 1 756 0 is_stmt 0 discriminator 1
 1124 0078 0020     		movs	r0, #0
 1125 007a FFF7FEFF 		bl	CyHalt
 1126              	.LVL88:
ARM GAS  C:\Users\haras\AppData\Local\Temp\ccNMvNjF.s 			page 35


 1127              	.L103:
 757:Generated_Source\PSoC4/CyDMA.c ****     CYASSERT(0u == (config->actions             & (uint32)~CYDMA_POST_COMPLETE_ACTIONS));
 1128              		.loc 1 757 0 is_stmt 1
 1129 007e 174B     		ldr	r3, .L105+24
 1130 0080 E269     		ldr	r2, [r4, #28]
 1131 0082 1A42     		tst	r2, r3
 1132 0084 02D0     		beq	.L104
 1133              		.loc 1 757 0 is_stmt 0 discriminator 1
 1134 0086 0020     		movs	r0, #0
 1135 0088 FFF7FEFF 		bl	CyHalt
 1136              	.LVL89:
 1137              	.L104:
 758:Generated_Source\PSoC4/CyDMA.c ****     
 759:Generated_Source\PSoC4/CyDMA.c ****     CYDMA_DESCR_BASE.descriptor[channel][descriptor].ctl = config->dataElementSize     |
 760:Generated_Source\PSoC4/CyDMA.c ****                                                   ((uint32)config->numDataElements-1u) |
 1138              		.loc 1 760 0 is_stmt 1
 1139 008c 6368     		ldr	r3, [r4, #4]
 1140 008e 013B     		subs	r3, r3, #1
 759:Generated_Source\PSoC4/CyDMA.c ****                                                   ((uint32)config->numDataElements-1u) |
 1141              		.loc 1 759 0
 1142 0090 2268     		ldr	r2, [r4]
 1143 0092 1343     		orrs	r3, r2
 1144              		.loc 1 760 0
 1145 0094 A268     		ldr	r2, [r4, #8]
 1146 0096 1343     		orrs	r3, r2
 761:Generated_Source\PSoC4/CyDMA.c ****                                                            config->srcDstTransferWidth |
 1147              		.loc 1 761 0
 1148 0098 E268     		ldr	r2, [r4, #12]
 1149 009a 1343     		orrs	r3, r2
 762:Generated_Source\PSoC4/CyDMA.c ****                                                            config->addressIncrement    |
 1150              		.loc 1 762 0
 1151 009c 2269     		ldr	r2, [r4, #16]
 1152 009e 1343     		orrs	r3, r2
 763:Generated_Source\PSoC4/CyDMA.c ****                                                            config->triggerType         |
 1153              		.loc 1 763 0
 1154 00a0 6269     		ldr	r2, [r4, #20]
 1155 00a2 1343     		orrs	r3, r2
 764:Generated_Source\PSoC4/CyDMA.c ****                                                            config->transferMode        |
 1156              		.loc 1 764 0
 1157 00a4 A269     		ldr	r2, [r4, #24]
 1158 00a6 1343     		orrs	r3, r2
 765:Generated_Source\PSoC4/CyDMA.c ****                                                            config->preemptable         |
 766:Generated_Source\PSoC4/CyDMA.c ****                                                            config->actions;
 1159              		.loc 1 766 0
 1160 00a8 E269     		ldr	r2, [r4, #28]
 765:Generated_Source\PSoC4/CyDMA.c ****                                                            config->preemptable         |
 1161              		.loc 1 765 0
 1162 00aa 1343     		orrs	r3, r2
 759:Generated_Source\PSoC4/CyDMA.c ****                                                   ((uint32)config->numDataElements-1u) |
 1163              		.loc 1 759 0
 1164 00ac 7600     		lsls	r6, r6, #1
 1165              	.LVL90:
 1166 00ae 7519     		adds	r5, r6, r5
 1167              	.LVL91:
 1168 00b0 2D01     		lsls	r5, r5, #4
 1169 00b2 0B4A     		ldr	r2, .L105+28
 1170 00b4 9446     		mov	ip, r2
ARM GAS  C:\Users\haras\AppData\Local\Temp\ccNMvNjF.s 			page 36


 1171 00b6 6544     		add	r5, r5, ip
 1172 00b8 AB60     		str	r3, [r5, #8]
 767:Generated_Source\PSoC4/CyDMA.c **** 
 768:Generated_Source\PSoC4/CyDMA.c ****     CYDMA_DESCR_BASE.descriptor[channel][descriptor].status = CYDMA_VALID;
 1173              		.loc 1 768 0
 1174 00ba 8023     		movs	r3, #128
 1175 00bc 1B06     		lsls	r3, r3, #24
 1176 00be EB60     		str	r3, [r5, #12]
 769:Generated_Source\PSoC4/CyDMA.c **** }
 1177              		.loc 1 769 0
 1178              		@ sp needed
 1179              	.LVL92:
 1180 00c0 70BD     		pop	{r4, r5, r6, pc}
 1181              	.L106:
 1182 00c2 C046     		.align	2
 1183              	.L105:
 1184 00c4 FFFFFCFF 		.word	-196609
 1185 00c8 FFFF0000 		.word	65535
 1186 00cc FFFFAFFF 		.word	-5242881
 1187 00d0 FFFF5FFF 		.word	-10485761
 1188 00d4 FFFFFFFC 		.word	-50331649
 1189 00d8 FFFFFFEF 		.word	-268435457
 1190 00dc FFFFFFD3 		.word	-738197505
 1191 00e0 00181040 		.word	1074796544
 1192              		.cfi_endproc
 1193              	.LFE27:
 1194              		.size	CyDmaSetConfiguration, .-CyDmaSetConfiguration
 1195              		.section	.text.CyDmaValidateDescriptor,"ax",%progbits
 1196              		.align	2
 1197              		.global	CyDmaValidateDescriptor
 1198              		.code	16
 1199              		.thumb_func
 1200              		.type	CyDmaValidateDescriptor, %function
 1201              	CyDmaValidateDescriptor:
 1202              	.LFB28:
 770:Generated_Source\PSoC4/CyDMA.c **** 
 771:Generated_Source\PSoC4/CyDMA.c **** 
 772:Generated_Source\PSoC4/CyDMA.c **** /*******************************************************************************
 773:Generated_Source\PSoC4/CyDMA.c **** * Function Name: CyDmaValidateDescriptor
 774:Generated_Source\PSoC4/CyDMA.c **** ********************************************************************************
 775:Generated_Source\PSoC4/CyDMA.c **** *
 776:Generated_Source\PSoC4/CyDMA.c **** * Summary:
 777:Generated_Source\PSoC4/CyDMA.c **** *  Validates the specified descriptor after it has been invalidated.
 778:Generated_Source\PSoC4/CyDMA.c **** *
 779:Generated_Source\PSoC4/CyDMA.c **** * Parameters:
 780:Generated_Source\PSoC4/CyDMA.c **** *  channel:    Channel used by this function.
 781:Generated_Source\PSoC4/CyDMA.c **** *  descriptor: Descriptor (0 or 1) modified by this function.
 782:Generated_Source\PSoC4/CyDMA.c **** *                   
 783:Generated_Source\PSoC4/CyDMA.c **** * Return:
 784:Generated_Source\PSoC4/CyDMA.c **** *  None. 
 785:Generated_Source\PSoC4/CyDMA.c **** *
 786:Generated_Source\PSoC4/CyDMA.c **** * Side effect:
 787:Generated_Source\PSoC4/CyDMA.c **** *  The status register associated with the specified descriptor is reset to
 788:Generated_Source\PSoC4/CyDMA.c **** *  zero after this function call.
 789:Generated_Source\PSoC4/CyDMA.c **** *  This function should not be called when the specified descriptor is active
 790:Generated_Source\PSoC4/CyDMA.c **** *  in the DMA transfer engine. This can be checked by calling CyDmaGetStatus().
 791:Generated_Source\PSoC4/CyDMA.c **** *
ARM GAS  C:\Users\haras\AppData\Local\Temp\ccNMvNjF.s 			page 37


 792:Generated_Source\PSoC4/CyDMA.c **** *******************************************************************************/
 793:Generated_Source\PSoC4/CyDMA.c **** void CyDmaValidateDescriptor(int32 channel, int32 descriptor)
 794:Generated_Source\PSoC4/CyDMA.c **** {
 1203              		.loc 1 794 0
 1204              		.cfi_startproc
 1205              		@ args = 0, pretend = 0, frame = 0
 1206              		@ frame_needed = 0, uses_anonymous_args = 0
 1207              	.LVL93:
 1208 0000 70B5     		push	{r4, r5, r6, lr}
 1209              		.cfi_def_cfa_offset 16
 1210              		.cfi_offset 4, -16
 1211              		.cfi_offset 5, -12
 1212              		.cfi_offset 6, -8
 1213              		.cfi_offset 14, -4
 1214 0002 0500     		movs	r5, r0
 1215 0004 0C00     		movs	r4, r1
 795:Generated_Source\PSoC4/CyDMA.c ****     CYASSERT((channel    >= 0) && (channel    < CYDMA_CH_NR));
 1216              		.loc 1 795 0
 1217 0006 0728     		cmp	r0, #7
 1218 0008 02D9     		bls	.L108
 1219              		.loc 1 795 0 is_stmt 0 discriminator 1
 1220 000a 0020     		movs	r0, #0
 1221              	.LVL94:
 1222 000c FFF7FEFF 		bl	CyHalt
 1223              	.LVL95:
 1224              	.L108:
 796:Generated_Source\PSoC4/CyDMA.c ****     CYASSERT((descriptor >= 0) && (descriptor < CYDMA_DESCR_NR));
 1225              		.loc 1 796 0 is_stmt 1
 1226 0010 012C     		cmp	r4, #1
 1227 0012 02D9     		bls	.L109
 1228              		.loc 1 796 0 is_stmt 0 discriminator 1
 1229 0014 0020     		movs	r0, #0
 1230 0016 FFF7FEFF 		bl	CyHalt
 1231              	.LVL96:
 1232              	.L109:
 797:Generated_Source\PSoC4/CyDMA.c **** 
 798:Generated_Source\PSoC4/CyDMA.c ****     CYDMA_DESCR_BASE.descriptor[channel][descriptor].status = CYDMA_VALID;
 1233              		.loc 1 798 0 is_stmt 1
 1234 001a 6D00     		lsls	r5, r5, #1
 1235              	.LVL97:
 1236 001c 2C19     		adds	r4, r5, r4
 1237              	.LVL98:
 1238 001e 2401     		lsls	r4, r4, #4
 1239 0020 034B     		ldr	r3, .L110
 1240 0022 9C46     		mov	ip, r3
 1241 0024 6444     		add	r4, r4, ip
 1242 0026 8023     		movs	r3, #128
 1243 0028 1B06     		lsls	r3, r3, #24
 1244 002a E360     		str	r3, [r4, #12]
 799:Generated_Source\PSoC4/CyDMA.c **** }
 1245              		.loc 1 799 0
 1246              		@ sp needed
 1247 002c 70BD     		pop	{r4, r5, r6, pc}
 1248              	.L111:
 1249 002e C046     		.align	2
 1250              	.L110:
 1251 0030 00181040 		.word	1074796544
ARM GAS  C:\Users\haras\AppData\Local\Temp\ccNMvNjF.s 			page 38


 1252              		.cfi_endproc
 1253              	.LFE28:
 1254              		.size	CyDmaValidateDescriptor, .-CyDmaValidateDescriptor
 1255              		.section	.text.CyDmaGetDescriptorStatus,"ax",%progbits
 1256              		.align	2
 1257              		.global	CyDmaGetDescriptorStatus
 1258              		.code	16
 1259              		.thumb_func
 1260              		.type	CyDmaGetDescriptorStatus, %function
 1261              	CyDmaGetDescriptorStatus:
 1262              	.LFB29:
 800:Generated_Source\PSoC4/CyDMA.c **** 
 801:Generated_Source\PSoC4/CyDMA.c **** 
 802:Generated_Source\PSoC4/CyDMA.c **** /*******************************************************************************
 803:Generated_Source\PSoC4/CyDMA.c **** * Function Name: CyDmaGetDescriptorStatus
 804:Generated_Source\PSoC4/CyDMA.c **** ********************************************************************************
 805:Generated_Source\PSoC4/CyDMA.c **** *
 806:Generated_Source\PSoC4/CyDMA.c **** * Summary:
 807:Generated_Source\PSoC4/CyDMA.c **** *  Returns the status of the specified descriptor.
 808:Generated_Source\PSoC4/CyDMA.c **** *
 809:Generated_Source\PSoC4/CyDMA.c **** * Parameters:
 810:Generated_Source\PSoC4/CyDMA.c **** *  channel:    Channel used by this function.
 811:Generated_Source\PSoC4/CyDMA.c **** *  descriptor: Descriptor (0 or 1) modified by this function.
 812:Generated_Source\PSoC4/CyDMA.c **** *                   
 813:Generated_Source\PSoC4/CyDMA.c **** * Return:
 814:Generated_Source\PSoC4/CyDMA.c **** *  Returns the contents of the specified descriptors status register. Refer to 
 815:Generated_Source\PSoC4/CyDMA.c **** *  descriptor status register bit definitions in CyDMA_P4.h or the API
 816:Generated_Source\PSoC4/CyDMA.c **** *  description in the DMA channel datasheet for more information.
 817:Generated_Source\PSoC4/CyDMA.c **** *
 818:Generated_Source\PSoC4/CyDMA.c **** *******************************************************************************/
 819:Generated_Source\PSoC4/CyDMA.c **** uint32 CyDmaGetDescriptorStatus(int32 channel, int32 descriptor)
 820:Generated_Source\PSoC4/CyDMA.c **** {
 1263              		.loc 1 820 0
 1264              		.cfi_startproc
 1265              		@ args = 0, pretend = 0, frame = 0
 1266              		@ frame_needed = 0, uses_anonymous_args = 0
 1267              	.LVL99:
 1268 0000 70B5     		push	{r4, r5, r6, lr}
 1269              		.cfi_def_cfa_offset 16
 1270              		.cfi_offset 4, -16
 1271              		.cfi_offset 5, -12
 1272              		.cfi_offset 6, -8
 1273              		.cfi_offset 14, -4
 1274 0002 0500     		movs	r5, r0
 1275 0004 0C00     		movs	r4, r1
 821:Generated_Source\PSoC4/CyDMA.c ****     CYASSERT((channel    >= 0) && (channel    < CYDMA_CH_NR));
 1276              		.loc 1 821 0
 1277 0006 0728     		cmp	r0, #7
 1278 0008 02D9     		bls	.L113
 1279              		.loc 1 821 0 is_stmt 0 discriminator 1
 1280 000a 0020     		movs	r0, #0
 1281              	.LVL100:
 1282 000c FFF7FEFF 		bl	CyHalt
 1283              	.LVL101:
 1284              	.L113:
 822:Generated_Source\PSoC4/CyDMA.c ****     CYASSERT((descriptor >= 0) && (descriptor < CYDMA_DESCR_NR));
 1285              		.loc 1 822 0 is_stmt 1
ARM GAS  C:\Users\haras\AppData\Local\Temp\ccNMvNjF.s 			page 39


 1286 0010 012C     		cmp	r4, #1
 1287 0012 02D9     		bls	.L114
 1288              		.loc 1 822 0 is_stmt 0 discriminator 1
 1289 0014 0020     		movs	r0, #0
 1290 0016 FFF7FEFF 		bl	CyHalt
 1291              	.LVL102:
 1292              	.L114:
 823:Generated_Source\PSoC4/CyDMA.c **** 
 824:Generated_Source\PSoC4/CyDMA.c ****     return (CYDMA_DESCR_BASE.descriptor[channel][descriptor].status);
 1293              		.loc 1 824 0 is_stmt 1
 1294 001a 6D00     		lsls	r5, r5, #1
 1295              	.LVL103:
 1296 001c 2C19     		adds	r4, r5, r4
 1297              	.LVL104:
 1298 001e 2401     		lsls	r4, r4, #4
 1299 0020 024B     		ldr	r3, .L115
 1300 0022 9C46     		mov	ip, r3
 1301 0024 6444     		add	r4, r4, ip
 1302 0026 E068     		ldr	r0, [r4, #12]
 825:Generated_Source\PSoC4/CyDMA.c **** }
 1303              		.loc 1 825 0
 1304              		@ sp needed
 1305 0028 70BD     		pop	{r4, r5, r6, pc}
 1306              	.L116:
 1307 002a C046     		.align	2
 1308              	.L115:
 1309 002c 00181040 		.word	1074796544
 1310              		.cfi_endproc
 1311              	.LFE29:
 1312              		.size	CyDmaGetDescriptorStatus, .-CyDmaGetDescriptorStatus
 1313              		.section	.text.CyDmaSetSrcAddress,"ax",%progbits
 1314              		.align	2
 1315              		.global	CyDmaSetSrcAddress
 1316              		.code	16
 1317              		.thumb_func
 1318              		.type	CyDmaSetSrcAddress, %function
 1319              	CyDmaSetSrcAddress:
 1320              	.LFB30:
 826:Generated_Source\PSoC4/CyDMA.c **** 
 827:Generated_Source\PSoC4/CyDMA.c **** 
 828:Generated_Source\PSoC4/CyDMA.c **** /*******************************************************************************
 829:Generated_Source\PSoC4/CyDMA.c **** * Function Name: CyDmaSetSrcAddress
 830:Generated_Source\PSoC4/CyDMA.c **** ********************************************************************************
 831:Generated_Source\PSoC4/CyDMA.c **** *
 832:Generated_Source\PSoC4/CyDMA.c **** * Summary:
 833:Generated_Source\PSoC4/CyDMA.c **** *  Configures the source address for the specified descriptor.
 834:Generated_Source\PSoC4/CyDMA.c **** *
 835:Generated_Source\PSoC4/CyDMA.c **** * Parameters:
 836:Generated_Source\PSoC4/CyDMA.c **** *  channel:    Channel used by this function.
 837:Generated_Source\PSoC4/CyDMA.c **** *  descriptor: Descriptor (0 or 1) modified by this function.
 838:Generated_Source\PSoC4/CyDMA.c **** *  srcAddress: Address of DMA transfer source.
 839:Generated_Source\PSoC4/CyDMA.c **** *                   
 840:Generated_Source\PSoC4/CyDMA.c **** * Return:
 841:Generated_Source\PSoC4/CyDMA.c **** *  None.
 842:Generated_Source\PSoC4/CyDMA.c **** *
 843:Generated_Source\PSoC4/CyDMA.c **** * Side effect:
 844:Generated_Source\PSoC4/CyDMA.c **** *  This function should not be called when the specified descriptor is active
ARM GAS  C:\Users\haras\AppData\Local\Temp\ccNMvNjF.s 			page 40


 845:Generated_Source\PSoC4/CyDMA.c **** *  in the DMA transfer engine. This can be checked by calling CyDmaGetStatus(). 
 846:Generated_Source\PSoC4/CyDMA.c **** *
 847:Generated_Source\PSoC4/CyDMA.c **** *******************************************************************************/
 848:Generated_Source\PSoC4/CyDMA.c **** void CyDmaSetSrcAddress(int32 channel, int32 descriptor, void * srcAddress)
 849:Generated_Source\PSoC4/CyDMA.c **** {
 1321              		.loc 1 849 0
 1322              		.cfi_startproc
 1323              		@ args = 0, pretend = 0, frame = 0
 1324              		@ frame_needed = 0, uses_anonymous_args = 0
 1325              	.LVL105:
 1326 0000 70B5     		push	{r4, r5, r6, lr}
 1327              		.cfi_def_cfa_offset 16
 1328              		.cfi_offset 4, -16
 1329              		.cfi_offset 5, -12
 1330              		.cfi_offset 6, -8
 1331              		.cfi_offset 14, -4
 1332 0002 0500     		movs	r5, r0
 1333 0004 0C00     		movs	r4, r1
 1334 0006 1600     		movs	r6, r2
 850:Generated_Source\PSoC4/CyDMA.c ****     CYASSERT((channel    >= 0) && (channel    < CYDMA_CH_NR));
 1335              		.loc 1 850 0
 1336 0008 0728     		cmp	r0, #7
 1337 000a 02D9     		bls	.L118
 1338              		.loc 1 850 0 is_stmt 0 discriminator 1
 1339 000c 0020     		movs	r0, #0
 1340              	.LVL106:
 1341 000e FFF7FEFF 		bl	CyHalt
 1342              	.LVL107:
 1343              	.L118:
 851:Generated_Source\PSoC4/CyDMA.c ****     CYASSERT((descriptor >= 0) && (descriptor < CYDMA_DESCR_NR));
 1344              		.loc 1 851 0 is_stmt 1
 1345 0012 012C     		cmp	r4, #1
 1346 0014 02D9     		bls	.L119
 1347              		.loc 1 851 0 is_stmt 0 discriminator 1
 1348 0016 0020     		movs	r0, #0
 1349 0018 FFF7FEFF 		bl	CyHalt
 1350              	.LVL108:
 1351              	.L119:
 852:Generated_Source\PSoC4/CyDMA.c **** 
 853:Generated_Source\PSoC4/CyDMA.c ****     CYDMA_DESCR_BASE.descriptor[channel][descriptor].src = srcAddress;
 1352              		.loc 1 853 0 is_stmt 1
 1353 001c 6D00     		lsls	r5, r5, #1
 1354              	.LVL109:
 1355 001e 2C19     		adds	r4, r5, r4
 1356              	.LVL110:
 1357 0020 2401     		lsls	r4, r4, #4
 1358 0022 014B     		ldr	r3, .L120
 1359 0024 E650     		str	r6, [r4, r3]
 854:Generated_Source\PSoC4/CyDMA.c **** }
 1360              		.loc 1 854 0
 1361              		@ sp needed
 1362              	.LVL111:
 1363 0026 70BD     		pop	{r4, r5, r6, pc}
 1364              	.L121:
 1365              		.align	2
 1366              	.L120:
 1367 0028 00181040 		.word	1074796544
ARM GAS  C:\Users\haras\AppData\Local\Temp\ccNMvNjF.s 			page 41


 1368              		.cfi_endproc
 1369              	.LFE30:
 1370              		.size	CyDmaSetSrcAddress, .-CyDmaSetSrcAddress
 1371              		.section	.text.CyDmaGetSrcAddress,"ax",%progbits
 1372              		.align	2
 1373              		.global	CyDmaGetSrcAddress
 1374              		.code	16
 1375              		.thumb_func
 1376              		.type	CyDmaGetSrcAddress, %function
 1377              	CyDmaGetSrcAddress:
 1378              	.LFB31:
 855:Generated_Source\PSoC4/CyDMA.c **** 
 856:Generated_Source\PSoC4/CyDMA.c **** 
 857:Generated_Source\PSoC4/CyDMA.c **** /*******************************************************************************
 858:Generated_Source\PSoC4/CyDMA.c **** * Function Name: CyDmaGetSrcAddress
 859:Generated_Source\PSoC4/CyDMA.c **** ********************************************************************************
 860:Generated_Source\PSoC4/CyDMA.c **** *
 861:Generated_Source\PSoC4/CyDMA.c **** * Summary:
 862:Generated_Source\PSoC4/CyDMA.c **** *  Returns the source address for the specified descriptor, set by 
 863:Generated_Source\PSoC4/CyDMA.c **** *  CyDmaSetSrcAddress().
 864:Generated_Source\PSoC4/CyDMA.c **** *
 865:Generated_Source\PSoC4/CyDMA.c **** * Parameters:
 866:Generated_Source\PSoC4/CyDMA.c **** *  channel:    Channel used by this function.
 867:Generated_Source\PSoC4/CyDMA.c **** *  descriptor: Specifies descriptor (0 or 1) used by this function.
 868:Generated_Source\PSoC4/CyDMA.c **** *                   
 869:Generated_Source\PSoC4/CyDMA.c **** * Return:
 870:Generated_Source\PSoC4/CyDMA.c **** *  Source address written to specified descriptor.
 871:Generated_Source\PSoC4/CyDMA.c **** *
 872:Generated_Source\PSoC4/CyDMA.c **** *******************************************************************************/
 873:Generated_Source\PSoC4/CyDMA.c **** void * CyDmaGetSrcAddress(int32 channel, int32 descriptor)
 874:Generated_Source\PSoC4/CyDMA.c **** {
 1379              		.loc 1 874 0
 1380              		.cfi_startproc
 1381              		@ args = 0, pretend = 0, frame = 0
 1382              		@ frame_needed = 0, uses_anonymous_args = 0
 1383              	.LVL112:
 1384 0000 70B5     		push	{r4, r5, r6, lr}
 1385              		.cfi_def_cfa_offset 16
 1386              		.cfi_offset 4, -16
 1387              		.cfi_offset 5, -12
 1388              		.cfi_offset 6, -8
 1389              		.cfi_offset 14, -4
 1390 0002 0500     		movs	r5, r0
 1391 0004 0C00     		movs	r4, r1
 875:Generated_Source\PSoC4/CyDMA.c ****     CYASSERT((channel    >= 0) && (channel    < CYDMA_CH_NR));
 1392              		.loc 1 875 0
 1393 0006 0728     		cmp	r0, #7
 1394 0008 02D9     		bls	.L123
 1395              		.loc 1 875 0 is_stmt 0 discriminator 1
 1396 000a 0020     		movs	r0, #0
 1397              	.LVL113:
 1398 000c FFF7FEFF 		bl	CyHalt
 1399              	.LVL114:
 1400              	.L123:
 876:Generated_Source\PSoC4/CyDMA.c ****     CYASSERT((descriptor >= 0) && (descriptor < CYDMA_DESCR_NR));
 1401              		.loc 1 876 0 is_stmt 1
 1402 0010 012C     		cmp	r4, #1
ARM GAS  C:\Users\haras\AppData\Local\Temp\ccNMvNjF.s 			page 42


 1403 0012 02D9     		bls	.L124
 1404              		.loc 1 876 0 is_stmt 0 discriminator 1
 1405 0014 0020     		movs	r0, #0
 1406 0016 FFF7FEFF 		bl	CyHalt
 1407              	.LVL115:
 1408              	.L124:
 877:Generated_Source\PSoC4/CyDMA.c **** 
 878:Generated_Source\PSoC4/CyDMA.c ****     return (CYDMA_DESCR_BASE.descriptor[channel][descriptor].src);
 1409              		.loc 1 878 0 is_stmt 1
 1410 001a 6D00     		lsls	r5, r5, #1
 1411              	.LVL116:
 1412 001c 2C19     		adds	r4, r5, r4
 1413              	.LVL117:
 1414 001e 2401     		lsls	r4, r4, #4
 1415 0020 014B     		ldr	r3, .L125
 1416 0022 E058     		ldr	r0, [r4, r3]
 879:Generated_Source\PSoC4/CyDMA.c **** }
 1417              		.loc 1 879 0
 1418              		@ sp needed
 1419 0024 70BD     		pop	{r4, r5, r6, pc}
 1420              	.L126:
 1421 0026 C046     		.align	2
 1422              	.L125:
 1423 0028 00181040 		.word	1074796544
 1424              		.cfi_endproc
 1425              	.LFE31:
 1426              		.size	CyDmaGetSrcAddress, .-CyDmaGetSrcAddress
 1427              		.section	.text.CyDmaSetDstAddress,"ax",%progbits
 1428              		.align	2
 1429              		.global	CyDmaSetDstAddress
 1430              		.code	16
 1431              		.thumb_func
 1432              		.type	CyDmaSetDstAddress, %function
 1433              	CyDmaSetDstAddress:
 1434              	.LFB32:
 880:Generated_Source\PSoC4/CyDMA.c **** 
 881:Generated_Source\PSoC4/CyDMA.c **** 
 882:Generated_Source\PSoC4/CyDMA.c **** /*******************************************************************************
 883:Generated_Source\PSoC4/CyDMA.c **** * Function Name: CyDmaSetDstAddress
 884:Generated_Source\PSoC4/CyDMA.c **** ********************************************************************************
 885:Generated_Source\PSoC4/CyDMA.c **** *
 886:Generated_Source\PSoC4/CyDMA.c **** * Summary:
 887:Generated_Source\PSoC4/CyDMA.c **** *  Configures the destination address for the specified descriptor.
 888:Generated_Source\PSoC4/CyDMA.c **** *
 889:Generated_Source\PSoC4/CyDMA.c **** * Parameters:
 890:Generated_Source\PSoC4/CyDMA.c **** *  channel:    Channel used by this function.
 891:Generated_Source\PSoC4/CyDMA.c **** *  descriptor: Descriptor (0 or 1) modified by this function.
 892:Generated_Source\PSoC4/CyDMA.c **** *  dstAddress: Address of DMA transfer destination.
 893:Generated_Source\PSoC4/CyDMA.c **** *                   
 894:Generated_Source\PSoC4/CyDMA.c **** * Return:
 895:Generated_Source\PSoC4/CyDMA.c **** *  None.
 896:Generated_Source\PSoC4/CyDMA.c **** *
 897:Generated_Source\PSoC4/CyDMA.c **** * Side effect:
 898:Generated_Source\PSoC4/CyDMA.c **** *  This function should not be called when the specified descriptor is active
 899:Generated_Source\PSoC4/CyDMA.c **** *  in the DMA transfer engine. This can be checked by calling CyDmaGetStatus(). 
 900:Generated_Source\PSoC4/CyDMA.c **** *
 901:Generated_Source\PSoC4/CyDMA.c **** *******************************************************************************/
ARM GAS  C:\Users\haras\AppData\Local\Temp\ccNMvNjF.s 			page 43


 902:Generated_Source\PSoC4/CyDMA.c **** void CyDmaSetDstAddress(int32 channel, int32 descriptor, void * dstAddress)
 903:Generated_Source\PSoC4/CyDMA.c **** {
 1435              		.loc 1 903 0
 1436              		.cfi_startproc
 1437              		@ args = 0, pretend = 0, frame = 0
 1438              		@ frame_needed = 0, uses_anonymous_args = 0
 1439              	.LVL118:
 1440 0000 70B5     		push	{r4, r5, r6, lr}
 1441              		.cfi_def_cfa_offset 16
 1442              		.cfi_offset 4, -16
 1443              		.cfi_offset 5, -12
 1444              		.cfi_offset 6, -8
 1445              		.cfi_offset 14, -4
 1446 0002 0500     		movs	r5, r0
 1447 0004 0C00     		movs	r4, r1
 1448 0006 1600     		movs	r6, r2
 904:Generated_Source\PSoC4/CyDMA.c ****     CYASSERT((channel    >= 0) && (channel    < CYDMA_CH_NR));
 1449              		.loc 1 904 0
 1450 0008 0728     		cmp	r0, #7
 1451 000a 02D9     		bls	.L128
 1452              		.loc 1 904 0 is_stmt 0 discriminator 1
 1453 000c 0020     		movs	r0, #0
 1454              	.LVL119:
 1455 000e FFF7FEFF 		bl	CyHalt
 1456              	.LVL120:
 1457              	.L128:
 905:Generated_Source\PSoC4/CyDMA.c ****     CYASSERT((descriptor >= 0) && (descriptor < CYDMA_DESCR_NR));
 1458              		.loc 1 905 0 is_stmt 1
 1459 0012 012C     		cmp	r4, #1
 1460 0014 02D9     		bls	.L129
 1461              		.loc 1 905 0 is_stmt 0 discriminator 1
 1462 0016 0020     		movs	r0, #0
 1463 0018 FFF7FEFF 		bl	CyHalt
 1464              	.LVL121:
 1465              	.L129:
 906:Generated_Source\PSoC4/CyDMA.c **** 
 907:Generated_Source\PSoC4/CyDMA.c ****     CYDMA_DESCR_BASE.descriptor[channel][descriptor].dst = dstAddress;
 1466              		.loc 1 907 0 is_stmt 1
 1467 001c 6D00     		lsls	r5, r5, #1
 1468              	.LVL122:
 1469 001e 2C19     		adds	r4, r5, r4
 1470              	.LVL123:
 1471 0020 2401     		lsls	r4, r4, #4
 1472 0022 024B     		ldr	r3, .L130
 1473 0024 9C46     		mov	ip, r3
 1474 0026 6444     		add	r4, r4, ip
 1475 0028 6660     		str	r6, [r4, #4]
 908:Generated_Source\PSoC4/CyDMA.c **** }
 1476              		.loc 1 908 0
 1477              		@ sp needed
 1478              	.LVL124:
 1479 002a 70BD     		pop	{r4, r5, r6, pc}
 1480              	.L131:
 1481              		.align	2
 1482              	.L130:
 1483 002c 00181040 		.word	1074796544
 1484              		.cfi_endproc
ARM GAS  C:\Users\haras\AppData\Local\Temp\ccNMvNjF.s 			page 44


 1485              	.LFE32:
 1486              		.size	CyDmaSetDstAddress, .-CyDmaSetDstAddress
 1487              		.section	.text.CyDmaGetDstAddress,"ax",%progbits
 1488              		.align	2
 1489              		.global	CyDmaGetDstAddress
 1490              		.code	16
 1491              		.thumb_func
 1492              		.type	CyDmaGetDstAddress, %function
 1493              	CyDmaGetDstAddress:
 1494              	.LFB33:
 909:Generated_Source\PSoC4/CyDMA.c **** 
 910:Generated_Source\PSoC4/CyDMA.c **** 
 911:Generated_Source\PSoC4/CyDMA.c **** /*******************************************************************************
 912:Generated_Source\PSoC4/CyDMA.c **** * Function Name: CyDmaGetDstAddress
 913:Generated_Source\PSoC4/CyDMA.c **** ********************************************************************************
 914:Generated_Source\PSoC4/CyDMA.c **** *
 915:Generated_Source\PSoC4/CyDMA.c **** * Summary:
 916:Generated_Source\PSoC4/CyDMA.c **** *  Returns the destination address for the specified descriptor, set by 
 917:Generated_Source\PSoC4/CyDMA.c **** *  CyDmaSetDstAddress().
 918:Generated_Source\PSoC4/CyDMA.c **** *
 919:Generated_Source\PSoC4/CyDMA.c **** * Parameters:
 920:Generated_Source\PSoC4/CyDMA.c **** *  channel:    Channel used by this function.
 921:Generated_Source\PSoC4/CyDMA.c **** *  descriptor: Specifies descriptor (0 or 1) used by this function.
 922:Generated_Source\PSoC4/CyDMA.c **** *                   
 923:Generated_Source\PSoC4/CyDMA.c **** * Return:
 924:Generated_Source\PSoC4/CyDMA.c **** *  Destination address written to specified descriptor.
 925:Generated_Source\PSoC4/CyDMA.c **** *
 926:Generated_Source\PSoC4/CyDMA.c **** *******************************************************************************/
 927:Generated_Source\PSoC4/CyDMA.c **** void * CyDmaGetDstAddress(int32 channel, int32 descriptor)
 928:Generated_Source\PSoC4/CyDMA.c **** {
 1495              		.loc 1 928 0
 1496              		.cfi_startproc
 1497              		@ args = 0, pretend = 0, frame = 0
 1498              		@ frame_needed = 0, uses_anonymous_args = 0
 1499              	.LVL125:
 1500 0000 70B5     		push	{r4, r5, r6, lr}
 1501              		.cfi_def_cfa_offset 16
 1502              		.cfi_offset 4, -16
 1503              		.cfi_offset 5, -12
 1504              		.cfi_offset 6, -8
 1505              		.cfi_offset 14, -4
 1506 0002 0500     		movs	r5, r0
 1507 0004 0C00     		movs	r4, r1
 929:Generated_Source\PSoC4/CyDMA.c ****     CYASSERT((channel    >= 0) && (channel    < CYDMA_CH_NR));
 1508              		.loc 1 929 0
 1509 0006 0728     		cmp	r0, #7
 1510 0008 02D9     		bls	.L133
 1511              		.loc 1 929 0 is_stmt 0 discriminator 1
 1512 000a 0020     		movs	r0, #0
 1513              	.LVL126:
 1514 000c FFF7FEFF 		bl	CyHalt
 1515              	.LVL127:
 1516              	.L133:
 930:Generated_Source\PSoC4/CyDMA.c ****     CYASSERT((descriptor >= 0) && (descriptor < CYDMA_DESCR_NR));
 1517              		.loc 1 930 0 is_stmt 1
 1518 0010 012C     		cmp	r4, #1
 1519 0012 02D9     		bls	.L134
ARM GAS  C:\Users\haras\AppData\Local\Temp\ccNMvNjF.s 			page 45


 1520              		.loc 1 930 0 is_stmt 0 discriminator 1
 1521 0014 0020     		movs	r0, #0
 1522 0016 FFF7FEFF 		bl	CyHalt
 1523              	.LVL128:
 1524              	.L134:
 931:Generated_Source\PSoC4/CyDMA.c **** 
 932:Generated_Source\PSoC4/CyDMA.c ****     return (CYDMA_DESCR_BASE.descriptor[channel][descriptor].dst);
 1525              		.loc 1 932 0 is_stmt 1
 1526 001a 6D00     		lsls	r5, r5, #1
 1527              	.LVL129:
 1528 001c 2C19     		adds	r4, r5, r4
 1529              	.LVL130:
 1530 001e 2401     		lsls	r4, r4, #4
 1531 0020 024B     		ldr	r3, .L135
 1532 0022 9C46     		mov	ip, r3
 1533 0024 6444     		add	r4, r4, ip
 1534 0026 6068     		ldr	r0, [r4, #4]
 933:Generated_Source\PSoC4/CyDMA.c **** }
 1535              		.loc 1 933 0
 1536              		@ sp needed
 1537 0028 70BD     		pop	{r4, r5, r6, pc}
 1538              	.L136:
 1539 002a C046     		.align	2
 1540              	.L135:
 1541 002c 00181040 		.word	1074796544
 1542              		.cfi_endproc
 1543              	.LFE33:
 1544              		.size	CyDmaGetDstAddress, .-CyDmaGetDstAddress
 1545              		.section	.text.CyDmaSetDataElementSize,"ax",%progbits
 1546              		.align	2
 1547              		.global	CyDmaSetDataElementSize
 1548              		.code	16
 1549              		.thumb_func
 1550              		.type	CyDmaSetDataElementSize, %function
 1551              	CyDmaSetDataElementSize:
 1552              	.LFB34:
 934:Generated_Source\PSoC4/CyDMA.c **** 
 935:Generated_Source\PSoC4/CyDMA.c **** /*******************************************************************************
 936:Generated_Source\PSoC4/CyDMA.c **** * Function Name: CyDmaSetDataElementSize
 937:Generated_Source\PSoC4/CyDMA.c **** ********************************************************************************
 938:Generated_Source\PSoC4/CyDMA.c **** *
 939:Generated_Source\PSoC4/CyDMA.c **** * Summary:
 940:Generated_Source\PSoC4/CyDMA.c **** *  Sets the data element size for the specified descriptor.
 941:Generated_Source\PSoC4/CyDMA.c **** *
 942:Generated_Source\PSoC4/CyDMA.c **** * Parameters:
 943:Generated_Source\PSoC4/CyDMA.c **** *  channel:         Channel used by this function.
 944:Generated_Source\PSoC4/CyDMA.c **** *  descriptor:      Descriptor (0 or 1) modified by this function.
 945:Generated_Source\PSoC4/CyDMA.c **** *  dataElementSize: Specifies the size of the data element. The DMA transfer
 946:Generated_Source\PSoC4/CyDMA.c **** *                   engine transfers one data element at a time. How these
 947:Generated_Source\PSoC4/CyDMA.c **** *                   transfers occur is controlled by the transfer mode.
 948:Generated_Source\PSoC4/CyDMA.c **** *                   Refer to the API bit field definitions in CyDMA_P4.h
 949:Generated_Source\PSoC4/CyDMA.c **** *                   or API description in the DMA channel datasheet for the 
 950:Generated_Source\PSoC4/CyDMA.c **** *                   parameter options.
 951:Generated_Source\PSoC4/CyDMA.c **** *
 952:Generated_Source\PSoC4/CyDMA.c **** * Return:
 953:Generated_Source\PSoC4/CyDMA.c **** *  None.
 954:Generated_Source\PSoC4/CyDMA.c **** *
ARM GAS  C:\Users\haras\AppData\Local\Temp\ccNMvNjF.s 			page 46


 955:Generated_Source\PSoC4/CyDMA.c **** * Side effect:
 956:Generated_Source\PSoC4/CyDMA.c **** *  This function should not be called when the specified descriptor is active
 957:Generated_Source\PSoC4/CyDMA.c **** *  in the DMA transfer engine. This can be checked by calling CyDmaGetStatus(). 
 958:Generated_Source\PSoC4/CyDMA.c **** *
 959:Generated_Source\PSoC4/CyDMA.c **** *******************************************************************************/
 960:Generated_Source\PSoC4/CyDMA.c **** void CyDmaSetDataElementSize(int32 channel, int32 descriptor, uint32 dataElementSize)
 961:Generated_Source\PSoC4/CyDMA.c **** {
 1553              		.loc 1 961 0
 1554              		.cfi_startproc
 1555              		@ args = 0, pretend = 0, frame = 0
 1556              		@ frame_needed = 0, uses_anonymous_args = 0
 1557              	.LVL131:
 1558 0000 70B5     		push	{r4, r5, r6, lr}
 1559              		.cfi_def_cfa_offset 16
 1560              		.cfi_offset 4, -16
 1561              		.cfi_offset 5, -12
 1562              		.cfi_offset 6, -8
 1563              		.cfi_offset 14, -4
 1564 0002 0500     		movs	r5, r0
 1565 0004 0C00     		movs	r4, r1
 1566 0006 1600     		movs	r6, r2
 962:Generated_Source\PSoC4/CyDMA.c ****     uint32 regValue;
 963:Generated_Source\PSoC4/CyDMA.c ****     
 964:Generated_Source\PSoC4/CyDMA.c ****     CYASSERT((channel    >= 0) && (channel    < CYDMA_CH_NR));
 1567              		.loc 1 964 0
 1568 0008 0728     		cmp	r0, #7
 1569 000a 02D9     		bls	.L138
 1570              		.loc 1 964 0 is_stmt 0 discriminator 1
 1571 000c 0020     		movs	r0, #0
 1572              	.LVL132:
 1573 000e FFF7FEFF 		bl	CyHalt
 1574              	.LVL133:
 1575              	.L138:
 965:Generated_Source\PSoC4/CyDMA.c ****     CYASSERT((descriptor >= 0) && (descriptor < CYDMA_DESCR_NR));
 1576              		.loc 1 965 0 is_stmt 1
 1577 0012 012C     		cmp	r4, #1
 1578 0014 02D9     		bls	.L139
 1579              		.loc 1 965 0 is_stmt 0 discriminator 1
 1580 0016 0020     		movs	r0, #0
 1581 0018 FFF7FEFF 		bl	CyHalt
 1582              	.LVL134:
 1583              	.L139:
 966:Generated_Source\PSoC4/CyDMA.c ****     CYASSERT(0u == (dataElementSize & (uint32)~CYDMA_DATA_SIZE));
 1584              		.loc 1 966 0 is_stmt 1
 1585 001c 084B     		ldr	r3, .L141
 1586 001e 1E42     		tst	r6, r3
 1587 0020 02D0     		beq	.L140
 1588              		.loc 1 966 0 is_stmt 0 discriminator 1
 1589 0022 0020     		movs	r0, #0
 1590 0024 FFF7FEFF 		bl	CyHalt
 1591              	.LVL135:
 1592              	.L140:
 967:Generated_Source\PSoC4/CyDMA.c **** 
 968:Generated_Source\PSoC4/CyDMA.c ****     regValue = CYDMA_DESCR_BASE.descriptor[channel][descriptor].ctl & (uint32)~CYDMA_DATA_SIZE;
 1593              		.loc 1 968 0 is_stmt 1
 1594 0028 6D00     		lsls	r5, r5, #1
 1595              	.LVL136:
ARM GAS  C:\Users\haras\AppData\Local\Temp\ccNMvNjF.s 			page 47


 1596 002a 2C19     		adds	r4, r5, r4
 1597              	.LVL137:
 1598 002c 2401     		lsls	r4, r4, #4
 1599 002e 054B     		ldr	r3, .L141+4
 1600 0030 9C46     		mov	ip, r3
 1601 0032 6444     		add	r4, r4, ip
 1602 0034 A268     		ldr	r2, [r4, #8]
 1603 0036 024B     		ldr	r3, .L141
 1604 0038 1A40     		ands	r2, r3
 1605              	.LVL138:
 969:Generated_Source\PSoC4/CyDMA.c ****     CYDMA_DESCR_BASE.descriptor[channel][descriptor].ctl = regValue | dataElementSize;
 1606              		.loc 1 969 0
 1607 003a 3243     		orrs	r2, r6
 1608              	.LVL139:
 1609 003c A260     		str	r2, [r4, #8]
 970:Generated_Source\PSoC4/CyDMA.c **** }
 1610              		.loc 1 970 0
 1611              		@ sp needed
 1612              	.LVL140:
 1613 003e 70BD     		pop	{r4, r5, r6, pc}
 1614              	.L142:
 1615              		.align	2
 1616              	.L141:
 1617 0040 FFFFFCFF 		.word	-196609
 1618 0044 00181040 		.word	1074796544
 1619              		.cfi_endproc
 1620              	.LFE34:
 1621              		.size	CyDmaSetDataElementSize, .-CyDmaSetDataElementSize
 1622              		.section	.text.CyDmaGetDataElementSize,"ax",%progbits
 1623              		.align	2
 1624              		.global	CyDmaGetDataElementSize
 1625              		.code	16
 1626              		.thumb_func
 1627              		.type	CyDmaGetDataElementSize, %function
 1628              	CyDmaGetDataElementSize:
 1629              	.LFB35:
 971:Generated_Source\PSoC4/CyDMA.c **** 
 972:Generated_Source\PSoC4/CyDMA.c **** 
 973:Generated_Source\PSoC4/CyDMA.c **** /*******************************************************************************
 974:Generated_Source\PSoC4/CyDMA.c **** * Function Name: CyDmaGetDataElementSize
 975:Generated_Source\PSoC4/CyDMA.c **** ********************************************************************************
 976:Generated_Source\PSoC4/CyDMA.c **** *
 977:Generated_Source\PSoC4/CyDMA.c **** * Summary:
 978:Generated_Source\PSoC4/CyDMA.c **** *  Returns the data element size configured for the specified descriptor, set by
 979:Generated_Source\PSoC4/CyDMA.c **** *  CyDmaSetDataElementSize() or CyDmaSetConfiguration.
 980:Generated_Source\PSoC4/CyDMA.c **** *
 981:Generated_Source\PSoC4/CyDMA.c **** * Parameters:
 982:Generated_Source\PSoC4/CyDMA.c **** *  channel:    Channel used by this function.
 983:Generated_Source\PSoC4/CyDMA.c **** *  descriptor: Descriptor (0 or 1) modified by this function.
 984:Generated_Source\PSoC4/CyDMA.c **** *                   
 985:Generated_Source\PSoC4/CyDMA.c **** * Return:
 986:Generated_Source\PSoC4/CyDMA.c **** *  The size of the data element. The DMA transfer engine transfers one data
 987:Generated_Source\PSoC4/CyDMA.c **** *  element at a time. How these transfers occur is controlled by the transfer
 988:Generated_Source\PSoC4/CyDMA.c **** *  mode. Refer to the API bit field definitions in CyDMA_P4.h or the API 
 989:Generated_Source\PSoC4/CyDMA.c **** *  description in the DMA channel datasheet for more information.
 990:Generated_Source\PSoC4/CyDMA.c **** *
 991:Generated_Source\PSoC4/CyDMA.c **** * Note:
ARM GAS  C:\Users\haras\AppData\Local\Temp\ccNMvNjF.s 			page 48


 992:Generated_Source\PSoC4/CyDMA.c **** *  The size of the source and destination can be configured to use the
 993:Generated_Source\PSoC4/CyDMA.c **** *  data element size, or a Word, this is set in CyDmaSetSrcDstTransferWidth().
 994:Generated_Source\PSoC4/CyDMA.c **** *
 995:Generated_Source\PSoC4/CyDMA.c **** *******************************************************************************/
 996:Generated_Source\PSoC4/CyDMA.c **** uint32 CyDmaGetDataElementSize(int32 channel, int32 descriptor)
 997:Generated_Source\PSoC4/CyDMA.c **** {
 1630              		.loc 1 997 0
 1631              		.cfi_startproc
 1632              		@ args = 0, pretend = 0, frame = 0
 1633              		@ frame_needed = 0, uses_anonymous_args = 0
 1634              	.LVL141:
 1635 0000 70B5     		push	{r4, r5, r6, lr}
 1636              		.cfi_def_cfa_offset 16
 1637              		.cfi_offset 4, -16
 1638              		.cfi_offset 5, -12
 1639              		.cfi_offset 6, -8
 1640              		.cfi_offset 14, -4
 1641 0002 0500     		movs	r5, r0
 1642 0004 0C00     		movs	r4, r1
 998:Generated_Source\PSoC4/CyDMA.c ****     CYASSERT((channel    >= 0) && (channel    < CYDMA_CH_NR));
 1643              		.loc 1 998 0
 1644 0006 0728     		cmp	r0, #7
 1645 0008 02D9     		bls	.L144
 1646              		.loc 1 998 0 is_stmt 0 discriminator 1
 1647 000a 0020     		movs	r0, #0
 1648              	.LVL142:
 1649 000c FFF7FEFF 		bl	CyHalt
 1650              	.LVL143:
 1651              	.L144:
 999:Generated_Source\PSoC4/CyDMA.c ****     CYASSERT((descriptor >= 0) && (descriptor < CYDMA_DESCR_NR));
 1652              		.loc 1 999 0 is_stmt 1
 1653 0010 012C     		cmp	r4, #1
 1654 0012 02D9     		bls	.L145
 1655              		.loc 1 999 0 is_stmt 0 discriminator 1
 1656 0014 0020     		movs	r0, #0
 1657 0016 FFF7FEFF 		bl	CyHalt
 1658              	.LVL144:
 1659              	.L145:
1000:Generated_Source\PSoC4/CyDMA.c **** 
1001:Generated_Source\PSoC4/CyDMA.c ****     return (CYDMA_DESCR_BASE.descriptor[channel][descriptor].ctl & CYDMA_DATA_SIZE);
 1660              		.loc 1 1001 0 is_stmt 1
 1661 001a 6D00     		lsls	r5, r5, #1
 1662              	.LVL145:
 1663 001c 2C19     		adds	r4, r5, r4
 1664              	.LVL146:
 1665 001e 2401     		lsls	r4, r4, #4
 1666 0020 034B     		ldr	r3, .L146
 1667 0022 9C46     		mov	ip, r3
 1668 0024 6444     		add	r4, r4, ip
 1669 0026 A068     		ldr	r0, [r4, #8]
 1670 0028 C023     		movs	r3, #192
 1671 002a 9B02     		lsls	r3, r3, #10
 1672 002c 1840     		ands	r0, r3
1002:Generated_Source\PSoC4/CyDMA.c **** }
 1673              		.loc 1 1002 0
 1674              		@ sp needed
 1675 002e 70BD     		pop	{r4, r5, r6, pc}
ARM GAS  C:\Users\haras\AppData\Local\Temp\ccNMvNjF.s 			page 49


 1676              	.L147:
 1677              		.align	2
 1678              	.L146:
 1679 0030 00181040 		.word	1074796544
 1680              		.cfi_endproc
 1681              	.LFE35:
 1682              		.size	CyDmaGetDataElementSize, .-CyDmaGetDataElementSize
 1683              		.section	.text.CyDmaSetNumDataElements,"ax",%progbits
 1684              		.align	2
 1685              		.global	CyDmaSetNumDataElements
 1686              		.code	16
 1687              		.thumb_func
 1688              		.type	CyDmaSetNumDataElements, %function
 1689              	CyDmaSetNumDataElements:
 1690              	.LFB36:
1003:Generated_Source\PSoC4/CyDMA.c **** 
1004:Generated_Source\PSoC4/CyDMA.c **** 
1005:Generated_Source\PSoC4/CyDMA.c **** /*******************************************************************************
1006:Generated_Source\PSoC4/CyDMA.c **** * Function Name: CyDmaSetNumDataElements
1007:Generated_Source\PSoC4/CyDMA.c **** ********************************************************************************
1008:Generated_Source\PSoC4/CyDMA.c **** *
1009:Generated_Source\PSoC4/CyDMA.c **** * Summary:
1010:Generated_Source\PSoC4/CyDMA.c **** *  Sets the number of data elements to transfer for specified descriptor.
1011:Generated_Source\PSoC4/CyDMA.c **** *
1012:Generated_Source\PSoC4/CyDMA.c **** * Parameters:
1013:Generated_Source\PSoC4/CyDMA.c **** *  channel:         Channel used by this function.
1014:Generated_Source\PSoC4/CyDMA.c **** *  descriptor:      Descriptor (0 or 1) modified by this function.
1015:Generated_Source\PSoC4/CyDMA.c **** *  numDataElements: Total number of data elements this descriptor transfers.
1016:Generated_Source\PSoC4/CyDMA.c **** *                   Valid ranges are 1 to 65536.
1017:Generated_Source\PSoC4/CyDMA.c **** *                   
1018:Generated_Source\PSoC4/CyDMA.c **** * Return:
1019:Generated_Source\PSoC4/CyDMA.c **** *  None.
1020:Generated_Source\PSoC4/CyDMA.c **** *
1021:Generated_Source\PSoC4/CyDMA.c **** * Side effect:
1022:Generated_Source\PSoC4/CyDMA.c **** *  This function should not be called when the specified descriptor is active
1023:Generated_Source\PSoC4/CyDMA.c **** *  in the DMA transfer engine. This can be checked by calling CyDmaGetStatus(). 
1024:Generated_Source\PSoC4/CyDMA.c **** *
1025:Generated_Source\PSoC4/CyDMA.c **** *******************************************************************************/
1026:Generated_Source\PSoC4/CyDMA.c **** void CyDmaSetNumDataElements(int32 channel, int32 descriptor, int32 numDataElements)
1027:Generated_Source\PSoC4/CyDMA.c **** {
 1691              		.loc 1 1027 0
 1692              		.cfi_startproc
 1693              		@ args = 0, pretend = 0, frame = 0
 1694              		@ frame_needed = 0, uses_anonymous_args = 0
 1695              	.LVL147:
 1696 0000 70B5     		push	{r4, r5, r6, lr}
 1697              		.cfi_def_cfa_offset 16
 1698              		.cfi_offset 4, -16
 1699              		.cfi_offset 5, -12
 1700              		.cfi_offset 6, -8
 1701              		.cfi_offset 14, -4
 1702 0002 0600     		movs	r6, r0
 1703 0004 0C00     		movs	r4, r1
 1704 0006 1500     		movs	r5, r2
1028:Generated_Source\PSoC4/CyDMA.c ****     uint32 regValue;
1029:Generated_Source\PSoC4/CyDMA.c ****     
1030:Generated_Source\PSoC4/CyDMA.c ****     CYASSERT((channel        >= 0) && (channel         <  CYDMA_CH_NR));
ARM GAS  C:\Users\haras\AppData\Local\Temp\ccNMvNjF.s 			page 50


 1705              		.loc 1 1030 0
 1706 0008 0728     		cmp	r0, #7
 1707 000a 02D9     		bls	.L149
 1708              		.loc 1 1030 0 is_stmt 0 discriminator 1
 1709 000c 0020     		movs	r0, #0
 1710              	.LVL148:
 1711 000e FFF7FEFF 		bl	CyHalt
 1712              	.LVL149:
 1713              	.L149:
1031:Generated_Source\PSoC4/CyDMA.c ****     CYASSERT((descriptor     >= 0) && (descriptor      <  CYDMA_DESCR_NR));
 1714              		.loc 1 1031 0 is_stmt 1
 1715 0012 012C     		cmp	r4, #1
 1716 0014 02D9     		bls	.L150
 1717              		.loc 1 1031 0 is_stmt 0 discriminator 1
 1718 0016 0020     		movs	r0, #0
 1719 0018 FFF7FEFF 		bl	CyHalt
 1720              	.LVL150:
 1721              	.L150:
1032:Generated_Source\PSoC4/CyDMA.c ****     CYASSERT((numDataElements > 0) && (numDataElements <= CYDMA_MAX_DATA_NR));
 1722              		.loc 1 1032 0 is_stmt 1
 1723 001c 6B1E     		subs	r3, r5, #1
 1724 001e 094A     		ldr	r2, .L152
 1725 0020 9342     		cmp	r3, r2
 1726 0022 02D9     		bls	.L151
 1727              		.loc 1 1032 0 is_stmt 0 discriminator 1
 1728 0024 0020     		movs	r0, #0
 1729 0026 FFF7FEFF 		bl	CyHalt
 1730              	.LVL151:
 1731              	.L151:
1033:Generated_Source\PSoC4/CyDMA.c ****     
1034:Generated_Source\PSoC4/CyDMA.c ****     --numDataElements;
 1732              		.loc 1 1034 0 is_stmt 1
 1733 002a 013D     		subs	r5, r5, #1
 1734              	.LVL152:
1035:Generated_Source\PSoC4/CyDMA.c ****     regValue = CYDMA_DESCR_BASE.descriptor[channel][descriptor].ctl & (uint32)~CYDMA_DATA_NR;
 1735              		.loc 1 1035 0
 1736 002c 7600     		lsls	r6, r6, #1
 1737              	.LVL153:
 1738 002e 3419     		adds	r4, r6, r4
 1739              	.LVL154:
 1740 0030 2401     		lsls	r4, r4, #4
 1741 0032 054B     		ldr	r3, .L152+4
 1742 0034 9C46     		mov	ip, r3
 1743 0036 6444     		add	r4, r4, ip
 1744 0038 A368     		ldr	r3, [r4, #8]
 1745 003a 1B0C     		lsrs	r3, r3, #16
 1746 003c 1B04     		lsls	r3, r3, #16
 1747              	.LVL155:
1036:Generated_Source\PSoC4/CyDMA.c ****     CYDMA_DESCR_BASE.descriptor[channel][descriptor].ctl = regValue | (uint32)numDataElements;
 1748              		.loc 1 1036 0
 1749 003e 1D43     		orrs	r5, r3
 1750              	.LVL156:
 1751 0040 A560     		str	r5, [r4, #8]
1037:Generated_Source\PSoC4/CyDMA.c **** }
 1752              		.loc 1 1037 0
 1753              		@ sp needed
 1754 0042 70BD     		pop	{r4, r5, r6, pc}
ARM GAS  C:\Users\haras\AppData\Local\Temp\ccNMvNjF.s 			page 51


 1755              	.L153:
 1756              		.align	2
 1757              	.L152:
 1758 0044 FFFF0000 		.word	65535
 1759 0048 00181040 		.word	1074796544
 1760              		.cfi_endproc
 1761              	.LFE36:
 1762              		.size	CyDmaSetNumDataElements, .-CyDmaSetNumDataElements
 1763              		.section	.text.CyDmaGetNumDataElements,"ax",%progbits
 1764              		.align	2
 1765              		.global	CyDmaGetNumDataElements
 1766              		.code	16
 1767              		.thumb_func
 1768              		.type	CyDmaGetNumDataElements, %function
 1769              	CyDmaGetNumDataElements:
 1770              	.LFB37:
1038:Generated_Source\PSoC4/CyDMA.c **** 
1039:Generated_Source\PSoC4/CyDMA.c **** 
1040:Generated_Source\PSoC4/CyDMA.c **** /*******************************************************************************
1041:Generated_Source\PSoC4/CyDMA.c **** * Function Name: CyDmaGetNumDataElements
1042:Generated_Source\PSoC4/CyDMA.c **** ********************************************************************************
1043:Generated_Source\PSoC4/CyDMA.c **** *
1044:Generated_Source\PSoC4/CyDMA.c **** * Summary:
1045:Generated_Source\PSoC4/CyDMA.c **** *  Returns the number of data elements to be transferred. Only reflects the
1046:Generated_Source\PSoC4/CyDMA.c **** *  value written by CyDmaSetNumDataElements() or CyDmaSetConfiguration(). This
1047:Generated_Source\PSoC4/CyDMA.c **** *  does not reflect how many elements have been transferred. For that
1048:Generated_Source\PSoC4/CyDMA.c **** *  information use the CyDmaGetDescriptorStatus() function.
1049:Generated_Source\PSoC4/CyDMA.c **** *
1050:Generated_Source\PSoC4/CyDMA.c **** * Parameters:
1051:Generated_Source\PSoC4/CyDMA.c **** *  channel:    Channel used by this function.
1052:Generated_Source\PSoC4/CyDMA.c **** *  descriptor: Descriptor (0 or 1) modified by this function.
1053:Generated_Source\PSoC4/CyDMA.c **** *                   
1054:Generated_Source\PSoC4/CyDMA.c **** * Return:
1055:Generated_Source\PSoC4/CyDMA.c **** *  Number of data elements to transfer.
1056:Generated_Source\PSoC4/CyDMA.c **** *
1057:Generated_Source\PSoC4/CyDMA.c **** *******************************************************************************/
1058:Generated_Source\PSoC4/CyDMA.c **** int32 CyDmaGetNumDataElements(int32 channel, int32 descriptor)
1059:Generated_Source\PSoC4/CyDMA.c **** {
 1771              		.loc 1 1059 0
 1772              		.cfi_startproc
 1773              		@ args = 0, pretend = 0, frame = 0
 1774              		@ frame_needed = 0, uses_anonymous_args = 0
 1775              	.LVL157:
 1776 0000 70B5     		push	{r4, r5, r6, lr}
 1777              		.cfi_def_cfa_offset 16
 1778              		.cfi_offset 4, -16
 1779              		.cfi_offset 5, -12
 1780              		.cfi_offset 6, -8
 1781              		.cfi_offset 14, -4
 1782 0002 0500     		movs	r5, r0
 1783 0004 0C00     		movs	r4, r1
1060:Generated_Source\PSoC4/CyDMA.c ****     uint32 numElements;
1061:Generated_Source\PSoC4/CyDMA.c **** 
1062:Generated_Source\PSoC4/CyDMA.c ****     CYASSERT((channel    >= 0) && (channel    < CYDMA_CH_NR));
 1784              		.loc 1 1062 0
 1785 0006 0728     		cmp	r0, #7
 1786 0008 02D9     		bls	.L155
ARM GAS  C:\Users\haras\AppData\Local\Temp\ccNMvNjF.s 			page 52


 1787              		.loc 1 1062 0 is_stmt 0 discriminator 1
 1788 000a 0020     		movs	r0, #0
 1789              	.LVL158:
 1790 000c FFF7FEFF 		bl	CyHalt
 1791              	.LVL159:
 1792              	.L155:
1063:Generated_Source\PSoC4/CyDMA.c ****     CYASSERT((descriptor >= 0) && (descriptor < CYDMA_DESCR_NR));
 1793              		.loc 1 1063 0 is_stmt 1
 1794 0010 012C     		cmp	r4, #1
 1795 0012 02D9     		bls	.L156
 1796              		.loc 1 1063 0 is_stmt 0 discriminator 1
 1797 0014 0020     		movs	r0, #0
 1798 0016 FFF7FEFF 		bl	CyHalt
 1799              	.LVL160:
 1800              	.L156:
1064:Generated_Source\PSoC4/CyDMA.c ****     
1065:Generated_Source\PSoC4/CyDMA.c ****     numElements = (CYDMA_DESCR_BASE.descriptor[channel][descriptor].ctl & CYDMA_DATA_NR) + 1u;
 1801              		.loc 1 1065 0 is_stmt 1
 1802 001a 6D00     		lsls	r5, r5, #1
 1803              	.LVL161:
 1804 001c 2C19     		adds	r4, r5, r4
 1805              	.LVL162:
 1806 001e 2401     		lsls	r4, r4, #4
 1807 0020 034B     		ldr	r3, .L157
 1808 0022 9C46     		mov	ip, r3
 1809 0024 6444     		add	r4, r4, ip
 1810 0026 A068     		ldr	r0, [r4, #8]
 1811 0028 0004     		lsls	r0, r0, #16
 1812 002a 000C     		lsrs	r0, r0, #16
 1813 002c 0130     		adds	r0, r0, #1
 1814              	.LVL163:
1066:Generated_Source\PSoC4/CyDMA.c ****     return ((int32)numElements);
1067:Generated_Source\PSoC4/CyDMA.c **** }
 1815              		.loc 1 1067 0
 1816              		@ sp needed
 1817 002e 70BD     		pop	{r4, r5, r6, pc}
 1818              	.L158:
 1819              		.align	2
 1820              	.L157:
 1821 0030 00181040 		.word	1074796544
 1822              		.cfi_endproc
 1823              	.LFE37:
 1824              		.size	CyDmaGetNumDataElements, .-CyDmaGetNumDataElements
 1825              		.section	.text.CyDmaSetSrcDstTransferWidth,"ax",%progbits
 1826              		.align	2
 1827              		.global	CyDmaSetSrcDstTransferWidth
 1828              		.code	16
 1829              		.thumb_func
 1830              		.type	CyDmaSetSrcDstTransferWidth, %function
 1831              	CyDmaSetSrcDstTransferWidth:
 1832              	.LFB38:
1068:Generated_Source\PSoC4/CyDMA.c **** 
1069:Generated_Source\PSoC4/CyDMA.c **** 
1070:Generated_Source\PSoC4/CyDMA.c **** /*******************************************************************************
1071:Generated_Source\PSoC4/CyDMA.c **** * Function Name: CyDmaSetSrcDstTransferWidth
1072:Generated_Source\PSoC4/CyDMA.c **** ********************************************************************************
1073:Generated_Source\PSoC4/CyDMA.c **** *
ARM GAS  C:\Users\haras\AppData\Local\Temp\ccNMvNjF.s 			page 53


1074:Generated_Source\PSoC4/CyDMA.c **** * Summary:
1075:Generated_Source\PSoC4/CyDMA.c **** *  Sets the width of the source and destination. The DMA can either read and
1076:Generated_Source\PSoC4/CyDMA.c **** *  write data from the source and destination at the size specified by
1077:Generated_Source\PSoC4/CyDMA.c **** *  CyDmaSetDataElementSize() or by a word (4bytes). This also determines how
1078:Generated_Source\PSoC4/CyDMA.c **** *  many bytes the addresses are incremented if increment source and destination
1079:Generated_Source\PSoC4/CyDMA.c **** *  address are turned on.
1080:Generated_Source\PSoC4/CyDMA.c **** *
1081:Generated_Source\PSoC4/CyDMA.c **** * Parameters:
1082:Generated_Source\PSoC4/CyDMA.c **** *  channel:       Channel used by this function.
1083:Generated_Source\PSoC4/CyDMA.c **** *  descriptor:    Descriptor (0 or 1) modified by this function.
1084:Generated_Source\PSoC4/CyDMA.c **** *  transferWidth: Specifies the source and destination widths. Refer to 
1085:Generated_Source\PSoC4/CyDMA.c **** *                 the API bit field definitions in CyDMA_P4.h or the API
1086:Generated_Source\PSoC4/CyDMA.c **** *                 description in the DMA channel datasheet for the parameter
1087:Generated_Source\PSoC4/CyDMA.c **** *                 options.
1088:Generated_Source\PSoC4/CyDMA.c **** *                   
1089:Generated_Source\PSoC4/CyDMA.c **** * Return:
1090:Generated_Source\PSoC4/CyDMA.c **** *  None.
1091:Generated_Source\PSoC4/CyDMA.c **** *
1092:Generated_Source\PSoC4/CyDMA.c **** * Side effect:
1093:Generated_Source\PSoC4/CyDMA.c **** *  This function should not be called when the specified descriptor is active
1094:Generated_Source\PSoC4/CyDMA.c **** *  in the DMA transfer engine. This can be checked by calling CyDmaGetStatus(). 
1095:Generated_Source\PSoC4/CyDMA.c **** *
1096:Generated_Source\PSoC4/CyDMA.c **** *******************************************************************************/
1097:Generated_Source\PSoC4/CyDMA.c **** void CyDmaSetSrcDstTransferWidth(int32 channel, int32 descriptor, uint32 transferWidth)
1098:Generated_Source\PSoC4/CyDMA.c **** {
 1833              		.loc 1 1098 0
 1834              		.cfi_startproc
 1835              		@ args = 0, pretend = 0, frame = 0
 1836              		@ frame_needed = 0, uses_anonymous_args = 0
 1837              	.LVL164:
 1838 0000 70B5     		push	{r4, r5, r6, lr}
 1839              		.cfi_def_cfa_offset 16
 1840              		.cfi_offset 4, -16
 1841              		.cfi_offset 5, -12
 1842              		.cfi_offset 6, -8
 1843              		.cfi_offset 14, -4
 1844 0002 0500     		movs	r5, r0
 1845 0004 0C00     		movs	r4, r1
 1846 0006 1600     		movs	r6, r2
1099:Generated_Source\PSoC4/CyDMA.c ****     uint32 regValue;
1100:Generated_Source\PSoC4/CyDMA.c **** 
1101:Generated_Source\PSoC4/CyDMA.c ****     CYASSERT((channel    >= 0) && (channel    < CYDMA_CH_NR));
 1847              		.loc 1 1101 0
 1848 0008 0728     		cmp	r0, #7
 1849 000a 02D9     		bls	.L160
 1850              		.loc 1 1101 0 is_stmt 0 discriminator 1
 1851 000c 0020     		movs	r0, #0
 1852              	.LVL165:
 1853 000e FFF7FEFF 		bl	CyHalt
 1854              	.LVL166:
 1855              	.L160:
1102:Generated_Source\PSoC4/CyDMA.c ****     CYASSERT((descriptor >= 0) && (descriptor < CYDMA_DESCR_NR));
 1856              		.loc 1 1102 0 is_stmt 1
 1857 0012 012C     		cmp	r4, #1
 1858 0014 02D9     		bls	.L161
 1859              		.loc 1 1102 0 is_stmt 0 discriminator 1
 1860 0016 0020     		movs	r0, #0
ARM GAS  C:\Users\haras\AppData\Local\Temp\ccNMvNjF.s 			page 54


 1861 0018 FFF7FEFF 		bl	CyHalt
 1862              	.LVL167:
 1863              	.L161:
1103:Generated_Source\PSoC4/CyDMA.c ****     CYASSERT(0u == (transferWidth & (uint32)~CYDMA_TRANSFER_WIDTH));
 1864              		.loc 1 1103 0 is_stmt 1
 1865 001c 084B     		ldr	r3, .L163
 1866 001e 1E42     		tst	r6, r3
 1867 0020 02D0     		beq	.L162
 1868              		.loc 1 1103 0 is_stmt 0 discriminator 1
 1869 0022 0020     		movs	r0, #0
 1870 0024 FFF7FEFF 		bl	CyHalt
 1871              	.LVL168:
 1872              	.L162:
1104:Generated_Source\PSoC4/CyDMA.c **** 
1105:Generated_Source\PSoC4/CyDMA.c ****     regValue = CYDMA_DESCR_BASE.descriptor[channel][descriptor].ctl & (uint32)~CYDMA_TRANSFER_WIDTH
 1873              		.loc 1 1105 0 is_stmt 1
 1874 0028 6D00     		lsls	r5, r5, #1
 1875              	.LVL169:
 1876 002a 2C19     		adds	r4, r5, r4
 1877              	.LVL170:
 1878 002c 2401     		lsls	r4, r4, #4
 1879 002e 054B     		ldr	r3, .L163+4
 1880 0030 9C46     		mov	ip, r3
 1881 0032 6444     		add	r4, r4, ip
 1882 0034 A268     		ldr	r2, [r4, #8]
 1883 0036 024B     		ldr	r3, .L163
 1884 0038 1A40     		ands	r2, r3
 1885              	.LVL171:
1106:Generated_Source\PSoC4/CyDMA.c ****     CYDMA_DESCR_BASE.descriptor[channel][descriptor].ctl = regValue | transferWidth;
 1886              		.loc 1 1106 0
 1887 003a 3243     		orrs	r2, r6
 1888              	.LVL172:
 1889 003c A260     		str	r2, [r4, #8]
1107:Generated_Source\PSoC4/CyDMA.c **** }
 1890              		.loc 1 1107 0
 1891              		@ sp needed
 1892              	.LVL173:
 1893 003e 70BD     		pop	{r4, r5, r6, pc}
 1894              	.L164:
 1895              		.align	2
 1896              	.L163:
 1897 0040 FFFFAFFF 		.word	-5242881
 1898 0044 00181040 		.word	1074796544
 1899              		.cfi_endproc
 1900              	.LFE38:
 1901              		.size	CyDmaSetSrcDstTransferWidth, .-CyDmaSetSrcDstTransferWidth
 1902              		.section	.text.CyDmaGetSrcDstTransferWidth,"ax",%progbits
 1903              		.align	2
 1904              		.global	CyDmaGetSrcDstTransferWidth
 1905              		.code	16
 1906              		.thumb_func
 1907              		.type	CyDmaGetSrcDstTransferWidth, %function
 1908              	CyDmaGetSrcDstTransferWidth:
 1909              	.LFB39:
1108:Generated_Source\PSoC4/CyDMA.c **** 
1109:Generated_Source\PSoC4/CyDMA.c **** 
1110:Generated_Source\PSoC4/CyDMA.c **** /*******************************************************************************
ARM GAS  C:\Users\haras\AppData\Local\Temp\ccNMvNjF.s 			page 55


1111:Generated_Source\PSoC4/CyDMA.c **** * Function Name: CyDmaGetSrcDstTransferWidth
1112:Generated_Source\PSoC4/CyDMA.c **** ********************************************************************************
1113:Generated_Source\PSoC4/CyDMA.c **** *
1114:Generated_Source\PSoC4/CyDMA.c **** * Summary:
1115:Generated_Source\PSoC4/CyDMA.c **** *  Returns the width of the source and destination, as set by 
1116:Generated_Source\PSoC4/CyDMA.c **** *  CyDmaSetSrcDstTransferWidth() or CyDmaSetConfiguration().
1117:Generated_Source\PSoC4/CyDMA.c **** *
1118:Generated_Source\PSoC4/CyDMA.c **** * Parameters:
1119:Generated_Source\PSoC4/CyDMA.c **** *  channel:    Channel used by this function.
1120:Generated_Source\PSoC4/CyDMA.c **** *  descriptor: Descriptor (0 or 1) modified by this function.
1121:Generated_Source\PSoC4/CyDMA.c **** *                   
1122:Generated_Source\PSoC4/CyDMA.c **** * Return:
1123:Generated_Source\PSoC4/CyDMA.c **** *  Width of source and destination. Refer to the API bit field definitions in
1124:Generated_Source\PSoC4/CyDMA.c **** *  CyDMA_P4.h or the API description in the DMA channel datasheet for more
1125:Generated_Source\PSoC4/CyDMA.c **** *  information.
1126:Generated_Source\PSoC4/CyDMA.c **** *
1127:Generated_Source\PSoC4/CyDMA.c **** *******************************************************************************/
1128:Generated_Source\PSoC4/CyDMA.c **** uint32 CyDmaGetSrcDstTransferWidth(int32 channel, int32 descriptor)
1129:Generated_Source\PSoC4/CyDMA.c **** {
 1910              		.loc 1 1129 0
 1911              		.cfi_startproc
 1912              		@ args = 0, pretend = 0, frame = 0
 1913              		@ frame_needed = 0, uses_anonymous_args = 0
 1914              	.LVL174:
 1915 0000 70B5     		push	{r4, r5, r6, lr}
 1916              		.cfi_def_cfa_offset 16
 1917              		.cfi_offset 4, -16
 1918              		.cfi_offset 5, -12
 1919              		.cfi_offset 6, -8
 1920              		.cfi_offset 14, -4
 1921 0002 0500     		movs	r5, r0
 1922 0004 0C00     		movs	r4, r1
1130:Generated_Source\PSoC4/CyDMA.c ****     CYASSERT((channel    >= 0) && (channel    < CYDMA_CH_NR));
 1923              		.loc 1 1130 0
 1924 0006 0728     		cmp	r0, #7
 1925 0008 02D9     		bls	.L166
 1926              		.loc 1 1130 0 is_stmt 0 discriminator 1
 1927 000a 0020     		movs	r0, #0
 1928              	.LVL175:
 1929 000c FFF7FEFF 		bl	CyHalt
 1930              	.LVL176:
 1931              	.L166:
1131:Generated_Source\PSoC4/CyDMA.c ****     CYASSERT((descriptor >= 0) && (descriptor < CYDMA_DESCR_NR));
 1932              		.loc 1 1131 0 is_stmt 1
 1933 0010 012C     		cmp	r4, #1
 1934 0012 02D9     		bls	.L167
 1935              		.loc 1 1131 0 is_stmt 0 discriminator 1
 1936 0014 0020     		movs	r0, #0
 1937 0016 FFF7FEFF 		bl	CyHalt
 1938              	.LVL177:
 1939              	.L167:
1132:Generated_Source\PSoC4/CyDMA.c ****     return (CYDMA_DESCR_BASE.descriptor[channel][descriptor].ctl & CYDMA_TRANSFER_WIDTH);
 1940              		.loc 1 1132 0 is_stmt 1
 1941 001a 6D00     		lsls	r5, r5, #1
 1942              	.LVL178:
 1943 001c 2C19     		adds	r4, r5, r4
 1944              	.LVL179:
ARM GAS  C:\Users\haras\AppData\Local\Temp\ccNMvNjF.s 			page 56


 1945 001e 2401     		lsls	r4, r4, #4
 1946 0020 034B     		ldr	r3, .L168
 1947 0022 9C46     		mov	ip, r3
 1948 0024 6444     		add	r4, r4, ip
 1949 0026 A068     		ldr	r0, [r4, #8]
 1950 0028 A023     		movs	r3, #160
 1951 002a DB03     		lsls	r3, r3, #15
 1952 002c 1840     		ands	r0, r3
1133:Generated_Source\PSoC4/CyDMA.c **** }
 1953              		.loc 1 1133 0
 1954              		@ sp needed
 1955 002e 70BD     		pop	{r4, r5, r6, pc}
 1956              	.L169:
 1957              		.align	2
 1958              	.L168:
 1959 0030 00181040 		.word	1074796544
 1960              		.cfi_endproc
 1961              	.LFE39:
 1962              		.size	CyDmaGetSrcDstTransferWidth, .-CyDmaGetSrcDstTransferWidth
 1963              		.section	.text.CyDmaSetAddressIncrement,"ax",%progbits
 1964              		.align	2
 1965              		.global	CyDmaSetAddressIncrement
 1966              		.code	16
 1967              		.thumb_func
 1968              		.type	CyDmaSetAddressIncrement, %function
 1969              	CyDmaSetAddressIncrement:
 1970              	.LFB40:
1134:Generated_Source\PSoC4/CyDMA.c **** 
1135:Generated_Source\PSoC4/CyDMA.c **** 
1136:Generated_Source\PSoC4/CyDMA.c **** /*******************************************************************************
1137:Generated_Source\PSoC4/CyDMA.c **** * Function Name: CyDmaSetAddressIncrement
1138:Generated_Source\PSoC4/CyDMA.c **** ********************************************************************************
1139:Generated_Source\PSoC4/CyDMA.c **** *
1140:Generated_Source\PSoC4/CyDMA.c **** * Summary:
1141:Generated_Source\PSoC4/CyDMA.c **** *  Sets whether the source or destination addresses are incremented after the
1142:Generated_Source\PSoC4/CyDMA.c **** *  transfer of each data element. The amount that the source and destination
1143:Generated_Source\PSoC4/CyDMA.c **** *  address are incremented is determined by the CyDmaSetSrcDstTransferWidth()
1144:Generated_Source\PSoC4/CyDMA.c **** *  function. The addresses will either be incremented by the data element size
1145:Generated_Source\PSoC4/CyDMA.c **** *  or by a word (4 bytes).
1146:Generated_Source\PSoC4/CyDMA.c **** *
1147:Generated_Source\PSoC4/CyDMA.c **** * Parameters:
1148:Generated_Source\PSoC4/CyDMA.c **** *  channel:          Channel used by this function.
1149:Generated_Source\PSoC4/CyDMA.c **** *  descriptor:       Descriptor (0 or 1) modified by this function.
1150:Generated_Source\PSoC4/CyDMA.c **** *  addressIncrement: Address increment settings. Refer to the API bit fields 
1151:Generated_Source\PSoC4/CyDMA.c **** *                    definition in CyDMA_P4.h or the API description in the DMA
1152:Generated_Source\PSoC4/CyDMA.c **** *                    channel datasheet for the parameter options.
1153:Generated_Source\PSoC4/CyDMA.c **** *    
1154:Generated_Source\PSoC4/CyDMA.c **** * Return:
1155:Generated_Source\PSoC4/CyDMA.c **** *  None.
1156:Generated_Source\PSoC4/CyDMA.c **** *
1157:Generated_Source\PSoC4/CyDMA.c **** * Side effect:
1158:Generated_Source\PSoC4/CyDMA.c **** *  This function should not be called when the specified descriptor is active
1159:Generated_Source\PSoC4/CyDMA.c **** *  in the DMA transfer engine. This can be checked by calling CyDmaGetStatus(). 
1160:Generated_Source\PSoC4/CyDMA.c **** *
1161:Generated_Source\PSoC4/CyDMA.c **** *******************************************************************************/
1162:Generated_Source\PSoC4/CyDMA.c **** void CyDmaSetAddressIncrement(int32 channel, int32 descriptor, uint32 addressIncrement)
1163:Generated_Source\PSoC4/CyDMA.c **** {
ARM GAS  C:\Users\haras\AppData\Local\Temp\ccNMvNjF.s 			page 57


 1971              		.loc 1 1163 0
 1972              		.cfi_startproc
 1973              		@ args = 0, pretend = 0, frame = 0
 1974              		@ frame_needed = 0, uses_anonymous_args = 0
 1975              	.LVL180:
 1976 0000 70B5     		push	{r4, r5, r6, lr}
 1977              		.cfi_def_cfa_offset 16
 1978              		.cfi_offset 4, -16
 1979              		.cfi_offset 5, -12
 1980              		.cfi_offset 6, -8
 1981              		.cfi_offset 14, -4
 1982 0002 0500     		movs	r5, r0
 1983 0004 0C00     		movs	r4, r1
 1984 0006 1600     		movs	r6, r2
1164:Generated_Source\PSoC4/CyDMA.c ****     uint32 regValue;
1165:Generated_Source\PSoC4/CyDMA.c **** 
1166:Generated_Source\PSoC4/CyDMA.c ****     CYASSERT((channel    >= 0) && (channel    < CYDMA_CH_NR));
 1985              		.loc 1 1166 0
 1986 0008 0728     		cmp	r0, #7
 1987 000a 02D9     		bls	.L171
 1988              		.loc 1 1166 0 is_stmt 0 discriminator 1
 1989 000c 0020     		movs	r0, #0
 1990              	.LVL181:
 1991 000e FFF7FEFF 		bl	CyHalt
 1992              	.LVL182:
 1993              	.L171:
1167:Generated_Source\PSoC4/CyDMA.c ****     CYASSERT((descriptor >= 0) && (descriptor < CYDMA_DESCR_NR));
 1994              		.loc 1 1167 0 is_stmt 1
 1995 0012 012C     		cmp	r4, #1
 1996 0014 02D9     		bls	.L172
 1997              		.loc 1 1167 0 is_stmt 0 discriminator 1
 1998 0016 0020     		movs	r0, #0
 1999 0018 FFF7FEFF 		bl	CyHalt
 2000              	.LVL183:
 2001              	.L172:
1168:Generated_Source\PSoC4/CyDMA.c ****     CYASSERT(0u == (addressIncrement & (uint32)~CYDMA_ADDR_INCR));
 2002              		.loc 1 1168 0 is_stmt 1
 2003 001c 084B     		ldr	r3, .L174
 2004 001e 1E42     		tst	r6, r3
 2005 0020 02D0     		beq	.L173
 2006              		.loc 1 1168 0 is_stmt 0 discriminator 1
 2007 0022 0020     		movs	r0, #0
 2008 0024 FFF7FEFF 		bl	CyHalt
 2009              	.LVL184:
 2010              	.L173:
1169:Generated_Source\PSoC4/CyDMA.c **** 
1170:Generated_Source\PSoC4/CyDMA.c ****     regValue = CYDMA_DESCR_BASE.descriptor[channel][descriptor].ctl & (uint32)~CYDMA_ADDR_INCR;
 2011              		.loc 1 1170 0 is_stmt 1
 2012 0028 6D00     		lsls	r5, r5, #1
 2013              	.LVL185:
 2014 002a 2C19     		adds	r4, r5, r4
 2015              	.LVL186:
 2016 002c 2401     		lsls	r4, r4, #4
 2017 002e 054B     		ldr	r3, .L174+4
 2018 0030 9C46     		mov	ip, r3
 2019 0032 6444     		add	r4, r4, ip
 2020 0034 A268     		ldr	r2, [r4, #8]
ARM GAS  C:\Users\haras\AppData\Local\Temp\ccNMvNjF.s 			page 58


 2021 0036 024B     		ldr	r3, .L174
 2022 0038 1A40     		ands	r2, r3
 2023              	.LVL187:
1171:Generated_Source\PSoC4/CyDMA.c ****     CYDMA_DESCR_BASE.descriptor[channel][descriptor].ctl = regValue | addressIncrement;
 2024              		.loc 1 1171 0
 2025 003a 3243     		orrs	r2, r6
 2026              	.LVL188:
 2027 003c A260     		str	r2, [r4, #8]
1172:Generated_Source\PSoC4/CyDMA.c **** }
 2028              		.loc 1 1172 0
 2029              		@ sp needed
 2030              	.LVL189:
 2031 003e 70BD     		pop	{r4, r5, r6, pc}
 2032              	.L175:
 2033              		.align	2
 2034              	.L174:
 2035 0040 FFFF5FFF 		.word	-10485761
 2036 0044 00181040 		.word	1074796544
 2037              		.cfi_endproc
 2038              	.LFE40:
 2039              		.size	CyDmaSetAddressIncrement, .-CyDmaSetAddressIncrement
 2040              		.section	.text.CyDmaGetAddressIncrement,"ax",%progbits
 2041              		.align	2
 2042              		.global	CyDmaGetAddressIncrement
 2043              		.code	16
 2044              		.thumb_func
 2045              		.type	CyDmaGetAddressIncrement, %function
 2046              	CyDmaGetAddressIncrement:
 2047              	.LFB41:
1173:Generated_Source\PSoC4/CyDMA.c **** 
1174:Generated_Source\PSoC4/CyDMA.c **** 
1175:Generated_Source\PSoC4/CyDMA.c **** /*******************************************************************************
1176:Generated_Source\PSoC4/CyDMA.c **** * Function Name: CyDmaGetAddressIncrement
1177:Generated_Source\PSoC4/CyDMA.c **** ********************************************************************************
1178:Generated_Source\PSoC4/CyDMA.c **** *
1179:Generated_Source\PSoC4/CyDMA.c **** * Summary:
1180:Generated_Source\PSoC4/CyDMA.c **** *  Returns address increment settings as set by CyDmaSetAddressIncrement() or
1181:Generated_Source\PSoC4/CyDMA.c **** *  CyDmaSetConfiguration().
1182:Generated_Source\PSoC4/CyDMA.c **** *
1183:Generated_Source\PSoC4/CyDMA.c **** * Parameters:
1184:Generated_Source\PSoC4/CyDMA.c **** *  channel:    Channel used by this function.
1185:Generated_Source\PSoC4/CyDMA.c **** *  descriptor: Descriptor (0 or 1) modified by this function.
1186:Generated_Source\PSoC4/CyDMA.c **** *                   
1187:Generated_Source\PSoC4/CyDMA.c **** * Return:
1188:Generated_Source\PSoC4/CyDMA.c **** *  Address increment settings. Refer to the API bit field definitions in
1189:Generated_Source\PSoC4/CyDMA.c **** *  CyDMA_P4.h or the API description in the DMA channel datasheet for more
1190:Generated_Source\PSoC4/CyDMA.c **** *  information.
1191:Generated_Source\PSoC4/CyDMA.c **** *
1192:Generated_Source\PSoC4/CyDMA.c **** *******************************************************************************/
1193:Generated_Source\PSoC4/CyDMA.c **** uint32 CyDmaGetAddressIncrement(int32 channel, int32 descriptor)
1194:Generated_Source\PSoC4/CyDMA.c **** {
 2048              		.loc 1 1194 0
 2049              		.cfi_startproc
 2050              		@ args = 0, pretend = 0, frame = 0
 2051              		@ frame_needed = 0, uses_anonymous_args = 0
 2052              	.LVL190:
 2053 0000 70B5     		push	{r4, r5, r6, lr}
ARM GAS  C:\Users\haras\AppData\Local\Temp\ccNMvNjF.s 			page 59


 2054              		.cfi_def_cfa_offset 16
 2055              		.cfi_offset 4, -16
 2056              		.cfi_offset 5, -12
 2057              		.cfi_offset 6, -8
 2058              		.cfi_offset 14, -4
 2059 0002 0500     		movs	r5, r0
 2060 0004 0C00     		movs	r4, r1
1195:Generated_Source\PSoC4/CyDMA.c ****     CYASSERT((channel    >= 0) && (channel    < CYDMA_CH_NR));
 2061              		.loc 1 1195 0
 2062 0006 0728     		cmp	r0, #7
 2063 0008 02D9     		bls	.L177
 2064              		.loc 1 1195 0 is_stmt 0 discriminator 1
 2065 000a 0020     		movs	r0, #0
 2066              	.LVL191:
 2067 000c FFF7FEFF 		bl	CyHalt
 2068              	.LVL192:
 2069              	.L177:
1196:Generated_Source\PSoC4/CyDMA.c ****     CYASSERT((descriptor >= 0) && (descriptor < CYDMA_DESCR_NR));
 2070              		.loc 1 1196 0 is_stmt 1
 2071 0010 012C     		cmp	r4, #1
 2072 0012 02D9     		bls	.L178
 2073              		.loc 1 1196 0 is_stmt 0 discriminator 1
 2074 0014 0020     		movs	r0, #0
 2075 0016 FFF7FEFF 		bl	CyHalt
 2076              	.LVL193:
 2077              	.L178:
1197:Generated_Source\PSoC4/CyDMA.c **** 
1198:Generated_Source\PSoC4/CyDMA.c ****     return (CYDMA_DESCR_BASE.descriptor[channel][descriptor].ctl & CYDMA_ADDR_INCR);
 2078              		.loc 1 1198 0 is_stmt 1
 2079 001a 6D00     		lsls	r5, r5, #1
 2080              	.LVL194:
 2081 001c 2C19     		adds	r4, r5, r4
 2082              	.LVL195:
 2083 001e 2401     		lsls	r4, r4, #4
 2084 0020 034B     		ldr	r3, .L179
 2085 0022 9C46     		mov	ip, r3
 2086 0024 6444     		add	r4, r4, ip
 2087 0026 A068     		ldr	r0, [r4, #8]
 2088 0028 A023     		movs	r3, #160
 2089 002a 1B04     		lsls	r3, r3, #16
 2090 002c 1840     		ands	r0, r3
1199:Generated_Source\PSoC4/CyDMA.c **** }
 2091              		.loc 1 1199 0
 2092              		@ sp needed
 2093 002e 70BD     		pop	{r4, r5, r6, pc}
 2094              	.L180:
 2095              		.align	2
 2096              	.L179:
 2097 0030 00181040 		.word	1074796544
 2098              		.cfi_endproc
 2099              	.LFE41:
 2100              		.size	CyDmaGetAddressIncrement, .-CyDmaGetAddressIncrement
 2101              		.section	.text.CyDmaSetTriggerType,"ax",%progbits
 2102              		.align	2
 2103              		.global	CyDmaSetTriggerType
 2104              		.code	16
 2105              		.thumb_func
ARM GAS  C:\Users\haras\AppData\Local\Temp\ccNMvNjF.s 			page 60


 2106              		.type	CyDmaSetTriggerType, %function
 2107              	CyDmaSetTriggerType:
 2108              	.LFB42:
1200:Generated_Source\PSoC4/CyDMA.c **** 
1201:Generated_Source\PSoC4/CyDMA.c **** 
1202:Generated_Source\PSoC4/CyDMA.c **** /*******************************************************************************
1203:Generated_Source\PSoC4/CyDMA.c **** * Function Name: CyDmaSetTriggerType
1204:Generated_Source\PSoC4/CyDMA.c **** ********************************************************************************
1205:Generated_Source\PSoC4/CyDMA.c **** *
1206:Generated_Source\PSoC4/CyDMA.c **** * Summary:
1207:Generated_Source\PSoC4/CyDMA.c **** *  Sets the type of input trigger for the DMA For level sensitive triggers sets
1208:Generated_Source\PSoC4/CyDMA.c **** *  how long the DMA waits for the trigger to go low (deactivate) before
1209:Generated_Source\PSoC4/CyDMA.c **** *  triggering the channel again.
1210:Generated_Source\PSoC4/CyDMA.c **** *
1211:Generated_Source\PSoC4/CyDMA.c **** * Parameters:
1212:Generated_Source\PSoC4/CyDMA.c **** *  channel:     Channel used by this function.
1213:Generated_Source\PSoC4/CyDMA.c **** *  descriptor:  Descriptor (0 or 1) modified by this function.
1214:Generated_Source\PSoC4/CyDMA.c **** *  triggerType: Type of DMA trigger. Refer to the API bit field definitions
1215:Generated_Source\PSoC4/CyDMA.c **** *               in CyDMA_P4.h or the API description in the DMA channel
1216:Generated_Source\PSoC4/CyDMA.c **** *               datasheet for the parameter options.
1217:Generated_Source\PSoC4/CyDMA.c **** *                   
1218:Generated_Source\PSoC4/CyDMA.c **** * Return:
1219:Generated_Source\PSoC4/CyDMA.c **** *  None.
1220:Generated_Source\PSoC4/CyDMA.c **** *
1221:Generated_Source\PSoC4/CyDMA.c **** * Side effect:
1222:Generated_Source\PSoC4/CyDMA.c **** *  This function should not be called when the specified descriptor is active
1223:Generated_Source\PSoC4/CyDMA.c **** *  in the DMA transfer engine. This can be checked by calling CyDmaGetStatus(). 
1224:Generated_Source\PSoC4/CyDMA.c **** *
1225:Generated_Source\PSoC4/CyDMA.c **** *******************************************************************************/
1226:Generated_Source\PSoC4/CyDMA.c **** void CyDmaSetTriggerType(int32 channel, int32 descriptor, uint32 triggerType)
1227:Generated_Source\PSoC4/CyDMA.c **** {
 2109              		.loc 1 1227 0
 2110              		.cfi_startproc
 2111              		@ args = 0, pretend = 0, frame = 0
 2112              		@ frame_needed = 0, uses_anonymous_args = 0
 2113              	.LVL196:
 2114 0000 70B5     		push	{r4, r5, r6, lr}
 2115              		.cfi_def_cfa_offset 16
 2116              		.cfi_offset 4, -16
 2117              		.cfi_offset 5, -12
 2118              		.cfi_offset 6, -8
 2119              		.cfi_offset 14, -4
 2120 0002 0500     		movs	r5, r0
 2121 0004 0C00     		movs	r4, r1
 2122 0006 1600     		movs	r6, r2
1228:Generated_Source\PSoC4/CyDMA.c ****     uint32 regValue;
1229:Generated_Source\PSoC4/CyDMA.c **** 
1230:Generated_Source\PSoC4/CyDMA.c ****     CYASSERT((channel    >= 0) && (channel    < CYDMA_CH_NR));
 2123              		.loc 1 1230 0
 2124 0008 0728     		cmp	r0, #7
 2125 000a 02D9     		bls	.L182
 2126              		.loc 1 1230 0 is_stmt 0 discriminator 1
 2127 000c 0020     		movs	r0, #0
 2128              	.LVL197:
 2129 000e FFF7FEFF 		bl	CyHalt
 2130              	.LVL198:
 2131              	.L182:
ARM GAS  C:\Users\haras\AppData\Local\Temp\ccNMvNjF.s 			page 61


1231:Generated_Source\PSoC4/CyDMA.c ****     CYASSERT((descriptor >= 0) && (descriptor < CYDMA_DESCR_NR));
 2132              		.loc 1 1231 0 is_stmt 1
 2133 0012 012C     		cmp	r4, #1
 2134 0014 02D9     		bls	.L183
 2135              		.loc 1 1231 0 is_stmt 0 discriminator 1
 2136 0016 0020     		movs	r0, #0
 2137 0018 FFF7FEFF 		bl	CyHalt
 2138              	.LVL199:
 2139              	.L183:
1232:Generated_Source\PSoC4/CyDMA.c ****     CYASSERT(0u == (triggerType & (uint32)~CYDMA_TRIGGER_TYPE));
 2140              		.loc 1 1232 0 is_stmt 1
 2141 001c 084B     		ldr	r3, .L185
 2142 001e 1E42     		tst	r6, r3
 2143 0020 02D0     		beq	.L184
 2144              		.loc 1 1232 0 is_stmt 0 discriminator 1
 2145 0022 0020     		movs	r0, #0
 2146 0024 FFF7FEFF 		bl	CyHalt
 2147              	.LVL200:
 2148              	.L184:
1233:Generated_Source\PSoC4/CyDMA.c **** 
1234:Generated_Source\PSoC4/CyDMA.c ****     regValue = CYDMA_DESCR_BASE.descriptor[channel][descriptor].ctl & (uint32)~CYDMA_TRIGGER_TYPE;
 2149              		.loc 1 1234 0 is_stmt 1
 2150 0028 6D00     		lsls	r5, r5, #1
 2151              	.LVL201:
 2152 002a 2C19     		adds	r4, r5, r4
 2153              	.LVL202:
 2154 002c 2401     		lsls	r4, r4, #4
 2155 002e 054B     		ldr	r3, .L185+4
 2156 0030 9C46     		mov	ip, r3
 2157 0032 6444     		add	r4, r4, ip
 2158 0034 A268     		ldr	r2, [r4, #8]
 2159 0036 024B     		ldr	r3, .L185
 2160 0038 1A40     		ands	r2, r3
 2161              	.LVL203:
1235:Generated_Source\PSoC4/CyDMA.c ****     CYDMA_DESCR_BASE.descriptor[channel][descriptor].ctl = regValue | triggerType;
 2162              		.loc 1 1235 0
 2163 003a 3243     		orrs	r2, r6
 2164              	.LVL204:
 2165 003c A260     		str	r2, [r4, #8]
1236:Generated_Source\PSoC4/CyDMA.c **** }
 2166              		.loc 1 1236 0
 2167              		@ sp needed
 2168              	.LVL205:
 2169 003e 70BD     		pop	{r4, r5, r6, pc}
 2170              	.L186:
 2171              		.align	2
 2172              	.L185:
 2173 0040 FFFFFFFC 		.word	-50331649
 2174 0044 00181040 		.word	1074796544
 2175              		.cfi_endproc
 2176              	.LFE42:
 2177              		.size	CyDmaSetTriggerType, .-CyDmaSetTriggerType
 2178              		.section	.text.CyDmaGetTriggerType,"ax",%progbits
 2179              		.align	2
 2180              		.global	CyDmaGetTriggerType
 2181              		.code	16
 2182              		.thumb_func
ARM GAS  C:\Users\haras\AppData\Local\Temp\ccNMvNjF.s 			page 62


 2183              		.type	CyDmaGetTriggerType, %function
 2184              	CyDmaGetTriggerType:
 2185              	.LFB43:
1237:Generated_Source\PSoC4/CyDMA.c **** 
1238:Generated_Source\PSoC4/CyDMA.c **** 
1239:Generated_Source\PSoC4/CyDMA.c **** /*******************************************************************************
1240:Generated_Source\PSoC4/CyDMA.c **** * Function Name: CyDmaGetTriggerType
1241:Generated_Source\PSoC4/CyDMA.c **** ********************************************************************************
1242:Generated_Source\PSoC4/CyDMA.c **** *
1243:Generated_Source\PSoC4/CyDMA.c **** * Summary:
1244:Generated_Source\PSoC4/CyDMA.c **** *  Returns the trigger deactivation settings as set by CyDmaSetTriggerType() or
1245:Generated_Source\PSoC4/CyDMA.c **** *  CyDmaSetConfiguration().
1246:Generated_Source\PSoC4/CyDMA.c **** *
1247:Generated_Source\PSoC4/CyDMA.c **** * Parameters:
1248:Generated_Source\PSoC4/CyDMA.c **** *  channel:    Channel used by this function.
1249:Generated_Source\PSoC4/CyDMA.c **** *  descriptor: Descriptor (0 or 1) modified by this function.
1250:Generated_Source\PSoC4/CyDMA.c **** *                   
1251:Generated_Source\PSoC4/CyDMA.c **** * Return:
1252:Generated_Source\PSoC4/CyDMA.c **** *  Trigger deactivation settings. Refer to the API bit field definitions in
1253:Generated_Source\PSoC4/CyDMA.c **** *  CyDMA_P4.h or the API description in the DMA channel datasheet for more
1254:Generated_Source\PSoC4/CyDMA.c **** *  information.
1255:Generated_Source\PSoC4/CyDMA.c **** *
1256:Generated_Source\PSoC4/CyDMA.c **** *******************************************************************************/
1257:Generated_Source\PSoC4/CyDMA.c **** uint32 CyDmaGetTriggerType(int32 channel, int32 descriptor)
1258:Generated_Source\PSoC4/CyDMA.c **** {
 2186              		.loc 1 1258 0
 2187              		.cfi_startproc
 2188              		@ args = 0, pretend = 0, frame = 0
 2189              		@ frame_needed = 0, uses_anonymous_args = 0
 2190              	.LVL206:
 2191 0000 70B5     		push	{r4, r5, r6, lr}
 2192              		.cfi_def_cfa_offset 16
 2193              		.cfi_offset 4, -16
 2194              		.cfi_offset 5, -12
 2195              		.cfi_offset 6, -8
 2196              		.cfi_offset 14, -4
 2197 0002 0500     		movs	r5, r0
 2198 0004 0C00     		movs	r4, r1
1259:Generated_Source\PSoC4/CyDMA.c ****     CYASSERT((channel    >= 0) && (channel    < CYDMA_CH_NR));
 2199              		.loc 1 1259 0
 2200 0006 0728     		cmp	r0, #7
 2201 0008 02D9     		bls	.L188
 2202              		.loc 1 1259 0 is_stmt 0 discriminator 1
 2203 000a 0020     		movs	r0, #0
 2204              	.LVL207:
 2205 000c FFF7FEFF 		bl	CyHalt
 2206              	.LVL208:
 2207              	.L188:
1260:Generated_Source\PSoC4/CyDMA.c ****     CYASSERT((descriptor >= 0) && (descriptor < CYDMA_DESCR_NR));
 2208              		.loc 1 1260 0 is_stmt 1
 2209 0010 012C     		cmp	r4, #1
 2210 0012 02D9     		bls	.L189
 2211              		.loc 1 1260 0 is_stmt 0 discriminator 1
 2212 0014 0020     		movs	r0, #0
 2213 0016 FFF7FEFF 		bl	CyHalt
 2214              	.LVL209:
 2215              	.L189:
ARM GAS  C:\Users\haras\AppData\Local\Temp\ccNMvNjF.s 			page 63


1261:Generated_Source\PSoC4/CyDMA.c **** 
1262:Generated_Source\PSoC4/CyDMA.c ****     return (CYDMA_DESCR_BASE.descriptor[channel][descriptor].ctl & CYDMA_TRIGGER_TYPE);
 2216              		.loc 1 1262 0 is_stmt 1
 2217 001a 6D00     		lsls	r5, r5, #1
 2218              	.LVL210:
 2219 001c 2C19     		adds	r4, r5, r4
 2220              	.LVL211:
 2221 001e 2401     		lsls	r4, r4, #4
 2222 0020 034B     		ldr	r3, .L190
 2223 0022 9C46     		mov	ip, r3
 2224 0024 6444     		add	r4, r4, ip
 2225 0026 A068     		ldr	r0, [r4, #8]
 2226 0028 C023     		movs	r3, #192
 2227 002a 9B04     		lsls	r3, r3, #18
 2228 002c 1840     		ands	r0, r3
1263:Generated_Source\PSoC4/CyDMA.c **** }
 2229              		.loc 1 1263 0
 2230              		@ sp needed
 2231 002e 70BD     		pop	{r4, r5, r6, pc}
 2232              	.L191:
 2233              		.align	2
 2234              	.L190:
 2235 0030 00181040 		.word	1074796544
 2236              		.cfi_endproc
 2237              	.LFE43:
 2238              		.size	CyDmaGetTriggerType, .-CyDmaGetTriggerType
 2239              		.section	.text.CyDmaSetTransferMode,"ax",%progbits
 2240              		.align	2
 2241              		.global	CyDmaSetTransferMode
 2242              		.code	16
 2243              		.thumb_func
 2244              		.type	CyDmaSetTransferMode, %function
 2245              	CyDmaSetTransferMode:
 2246              	.LFB44:
1264:Generated_Source\PSoC4/CyDMA.c **** 
1265:Generated_Source\PSoC4/CyDMA.c **** 
1266:Generated_Source\PSoC4/CyDMA.c **** /*******************************************************************************
1267:Generated_Source\PSoC4/CyDMA.c **** * Function Name: CyDmaSetTransferMode
1268:Generated_Source\PSoC4/CyDMA.c **** ********************************************************************************
1269:Generated_Source\PSoC4/CyDMA.c **** *
1270:Generated_Source\PSoC4/CyDMA.c **** * Summary:
1271:Generated_Source\PSoC4/CyDMA.c **** *  Sets the DMA transfer mode. This determines how the DMA reacts to each trigger
1272:Generated_Source\PSoC4/CyDMA.c **** *  event.
1273:Generated_Source\PSoC4/CyDMA.c **** *
1274:Generated_Source\PSoC4/CyDMA.c **** * Parameters:
1275:Generated_Source\PSoC4/CyDMA.c **** *  channel:      Channel used by this function.
1276:Generated_Source\PSoC4/CyDMA.c **** *  descriptor:   Descriptor (0 or 1) modified by this function.
1277:Generated_Source\PSoC4/CyDMA.c **** *  transferMode: Specifies the DMA transfer mode settings. Refer to the API bit
1278:Generated_Source\PSoC4/CyDMA.c **** *                field definitions in CyDMA_P4.h or the API description in the
1279:Generated_Source\PSoC4/CyDMA.c **** *                DMA channel datasheet for the parameter options.
1280:Generated_Source\PSoC4/CyDMA.c **** *                   
1281:Generated_Source\PSoC4/CyDMA.c **** * Return:
1282:Generated_Source\PSoC4/CyDMA.c **** *  None.
1283:Generated_Source\PSoC4/CyDMA.c **** *
1284:Generated_Source\PSoC4/CyDMA.c **** * Side effect:
1285:Generated_Source\PSoC4/CyDMA.c **** *  This function should not be called when the specified descriptor is active
1286:Generated_Source\PSoC4/CyDMA.c **** *  in the DMA transfer engine. This can be checked by calling CyDmaGetStatus(). 
ARM GAS  C:\Users\haras\AppData\Local\Temp\ccNMvNjF.s 			page 64


1287:Generated_Source\PSoC4/CyDMA.c **** *
1288:Generated_Source\PSoC4/CyDMA.c **** *******************************************************************************/
1289:Generated_Source\PSoC4/CyDMA.c **** void CyDmaSetTransferMode(int32 channel, int32 descriptor, uint32 transferMode)
1290:Generated_Source\PSoC4/CyDMA.c **** {
 2247              		.loc 1 1290 0
 2248              		.cfi_startproc
 2249              		@ args = 0, pretend = 0, frame = 0
 2250              		@ frame_needed = 0, uses_anonymous_args = 0
 2251              	.LVL212:
 2252 0000 70B5     		push	{r4, r5, r6, lr}
 2253              		.cfi_def_cfa_offset 16
 2254              		.cfi_offset 4, -16
 2255              		.cfi_offset 5, -12
 2256              		.cfi_offset 6, -8
 2257              		.cfi_offset 14, -4
 2258 0002 0600     		movs	r6, r0
 2259 0004 0C00     		movs	r4, r1
 2260 0006 1500     		movs	r5, r2
1291:Generated_Source\PSoC4/CyDMA.c ****     uint32 regValue;
1292:Generated_Source\PSoC4/CyDMA.c **** 
1293:Generated_Source\PSoC4/CyDMA.c ****     CYASSERT((channel    >= 0) && (channel    < CYDMA_CH_NR));
 2261              		.loc 1 1293 0
 2262 0008 0728     		cmp	r0, #7
 2263 000a 02D9     		bls	.L193
 2264              		.loc 1 1293 0 is_stmt 0 discriminator 1
 2265 000c 0020     		movs	r0, #0
 2266              	.LVL213:
 2267 000e FFF7FEFF 		bl	CyHalt
 2268              	.LVL214:
 2269              	.L193:
1294:Generated_Source\PSoC4/CyDMA.c ****     CYASSERT((descriptor >= 0) && (descriptor < CYDMA_DESCR_NR));
 2270              		.loc 1 1294 0 is_stmt 1
 2271 0012 012C     		cmp	r4, #1
 2272 0014 02D9     		bls	.L194
 2273              		.loc 1 1294 0 is_stmt 0 discriminator 1
 2274 0016 0020     		movs	r0, #0
 2275 0018 FFF7FEFF 		bl	CyHalt
 2276              	.LVL215:
 2277              	.L194:
1295:Generated_Source\PSoC4/CyDMA.c ****     CYASSERT(0u == (transferMode & (uint32)~CYDMA_TRANSFER_MODE));
 2278              		.loc 1 1295 0 is_stmt 1
 2279 001c AB00     		lsls	r3, r5, #2
 2280 001e 02D0     		beq	.L195
 2281              		.loc 1 1295 0 is_stmt 0 discriminator 1
 2282 0020 0020     		movs	r0, #0
 2283 0022 FFF7FEFF 		bl	CyHalt
 2284              	.LVL216:
 2285              	.L195:
1296:Generated_Source\PSoC4/CyDMA.c **** 
1297:Generated_Source\PSoC4/CyDMA.c ****     regValue = CYDMA_DESCR_BASE.descriptor[channel][descriptor].ctl & (uint32)~CYDMA_TRANSFER_MODE;
 2286              		.loc 1 1297 0 is_stmt 1
 2287 0026 7600     		lsls	r6, r6, #1
 2288              	.LVL217:
 2289 0028 3419     		adds	r4, r6, r4
 2290              	.LVL218:
 2291 002a 2401     		lsls	r4, r4, #4
 2292 002c 044B     		ldr	r3, .L196
ARM GAS  C:\Users\haras\AppData\Local\Temp\ccNMvNjF.s 			page 65


 2293 002e 9C46     		mov	ip, r3
 2294 0030 6444     		add	r4, r4, ip
 2295 0032 A268     		ldr	r2, [r4, #8]
 2296 0034 9200     		lsls	r2, r2, #2
 2297 0036 9208     		lsrs	r2, r2, #2
 2298              	.LVL219:
1298:Generated_Source\PSoC4/CyDMA.c ****     CYDMA_DESCR_BASE.descriptor[channel][descriptor].ctl = regValue | transferMode;
 2299              		.loc 1 1298 0
 2300 0038 2A43     		orrs	r2, r5
 2301              	.LVL220:
 2302 003a A260     		str	r2, [r4, #8]
1299:Generated_Source\PSoC4/CyDMA.c **** }
 2303              		.loc 1 1299 0
 2304              		@ sp needed
 2305              	.LVL221:
 2306 003c 70BD     		pop	{r4, r5, r6, pc}
 2307              	.L197:
 2308 003e C046     		.align	2
 2309              	.L196:
 2310 0040 00181040 		.word	1074796544
 2311              		.cfi_endproc
 2312              	.LFE44:
 2313              		.size	CyDmaSetTransferMode, .-CyDmaSetTransferMode
 2314              		.section	.text.CyDmaGetTransferMode,"ax",%progbits
 2315              		.align	2
 2316              		.global	CyDmaGetTransferMode
 2317              		.code	16
 2318              		.thumb_func
 2319              		.type	CyDmaGetTransferMode, %function
 2320              	CyDmaGetTransferMode:
 2321              	.LFB45:
1300:Generated_Source\PSoC4/CyDMA.c **** 
1301:Generated_Source\PSoC4/CyDMA.c **** 
1302:Generated_Source\PSoC4/CyDMA.c **** /*******************************************************************************
1303:Generated_Source\PSoC4/CyDMA.c **** * Function Name: CyDmaGetTransferMode
1304:Generated_Source\PSoC4/CyDMA.c **** ********************************************************************************
1305:Generated_Source\PSoC4/CyDMA.c **** *
1306:Generated_Source\PSoC4/CyDMA.c **** * Summary:
1307:Generated_Source\PSoC4/CyDMA.c **** *  Returns the transfer mode for the specified descriptor as set by 
1308:Generated_Source\PSoC4/CyDMA.c **** *  CyDmaSetTransferMode() or CyDmaSetConfiguration.
1309:Generated_Source\PSoC4/CyDMA.c **** *
1310:Generated_Source\PSoC4/CyDMA.c **** * Parameters:
1311:Generated_Source\PSoC4/CyDMA.c **** *  channel:    Channel used by this function.
1312:Generated_Source\PSoC4/CyDMA.c **** *  descriptor: Descriptor (0 or 1) modified by this function.
1313:Generated_Source\PSoC4/CyDMA.c **** *                   
1314:Generated_Source\PSoC4/CyDMA.c **** * Return:
1315:Generated_Source\PSoC4/CyDMA.c **** *  DMA transfer mode settings. Refer to the API bit field definitions in
1316:Generated_Source\PSoC4/CyDMA.c **** *  CyDMA_P4.h or the API description in the DMA channel datasheet for more
1317:Generated_Source\PSoC4/CyDMA.c **** *  information.
1318:Generated_Source\PSoC4/CyDMA.c **** *
1319:Generated_Source\PSoC4/CyDMA.c **** *******************************************************************************/
1320:Generated_Source\PSoC4/CyDMA.c **** uint32 CyDmaGetTransferMode(int32 channel, int32 descriptor)
1321:Generated_Source\PSoC4/CyDMA.c **** {
 2322              		.loc 1 1321 0
 2323              		.cfi_startproc
 2324              		@ args = 0, pretend = 0, frame = 0
 2325              		@ frame_needed = 0, uses_anonymous_args = 0
ARM GAS  C:\Users\haras\AppData\Local\Temp\ccNMvNjF.s 			page 66


 2326              	.LVL222:
 2327 0000 70B5     		push	{r4, r5, r6, lr}
 2328              		.cfi_def_cfa_offset 16
 2329              		.cfi_offset 4, -16
 2330              		.cfi_offset 5, -12
 2331              		.cfi_offset 6, -8
 2332              		.cfi_offset 14, -4
 2333 0002 0500     		movs	r5, r0
 2334 0004 0C00     		movs	r4, r1
1322:Generated_Source\PSoC4/CyDMA.c ****     CYASSERT((channel    >= 0) && (channel    < CYDMA_CH_NR));
 2335              		.loc 1 1322 0
 2336 0006 0728     		cmp	r0, #7
 2337 0008 02D9     		bls	.L199
 2338              		.loc 1 1322 0 is_stmt 0 discriminator 1
 2339 000a 0020     		movs	r0, #0
 2340              	.LVL223:
 2341 000c FFF7FEFF 		bl	CyHalt
 2342              	.LVL224:
 2343              	.L199:
1323:Generated_Source\PSoC4/CyDMA.c ****     CYASSERT((descriptor >= 0) && (descriptor < CYDMA_DESCR_NR));
 2344              		.loc 1 1323 0 is_stmt 1
 2345 0010 012C     		cmp	r4, #1
 2346 0012 02D9     		bls	.L200
 2347              		.loc 1 1323 0 is_stmt 0 discriminator 1
 2348 0014 0020     		movs	r0, #0
 2349 0016 FFF7FEFF 		bl	CyHalt
 2350              	.LVL225:
 2351              	.L200:
1324:Generated_Source\PSoC4/CyDMA.c **** 
1325:Generated_Source\PSoC4/CyDMA.c ****     return (CYDMA_DESCR_BASE.descriptor[channel][descriptor].ctl & CYDMA_TRANSFER_MODE);
 2352              		.loc 1 1325 0 is_stmt 1
 2353 001a 6D00     		lsls	r5, r5, #1
 2354              	.LVL226:
 2355 001c 2C19     		adds	r4, r5, r4
 2356              	.LVL227:
 2357 001e 2401     		lsls	r4, r4, #4
 2358 0020 034B     		ldr	r3, .L201
 2359 0022 9C46     		mov	ip, r3
 2360 0024 6444     		add	r4, r4, ip
 2361 0026 A068     		ldr	r0, [r4, #8]
 2362 0028 800F     		lsrs	r0, r0, #30
 2363 002a 8007     		lsls	r0, r0, #30
1326:Generated_Source\PSoC4/CyDMA.c **** }
 2364              		.loc 1 1326 0
 2365              		@ sp needed
 2366 002c 70BD     		pop	{r4, r5, r6, pc}
 2367              	.L202:
 2368 002e C046     		.align	2
 2369              	.L201:
 2370 0030 00181040 		.word	1074796544
 2371              		.cfi_endproc
 2372              	.LFE45:
 2373              		.size	CyDmaGetTransferMode, .-CyDmaGetTransferMode
 2374              		.section	.text.CyDmaSetPreemptable,"ax",%progbits
 2375              		.align	2
 2376              		.global	CyDmaSetPreemptable
 2377              		.code	16
ARM GAS  C:\Users\haras\AppData\Local\Temp\ccNMvNjF.s 			page 67


 2378              		.thumb_func
 2379              		.type	CyDmaSetPreemptable, %function
 2380              	CyDmaSetPreemptable:
 2381              	.LFB46:
1327:Generated_Source\PSoC4/CyDMA.c **** 
1328:Generated_Source\PSoC4/CyDMA.c **** 
1329:Generated_Source\PSoC4/CyDMA.c **** /*******************************************************************************
1330:Generated_Source\PSoC4/CyDMA.c **** * Function Name: CyDmaSetPreemptable
1331:Generated_Source\PSoC4/CyDMA.c **** ********************************************************************************
1332:Generated_Source\PSoC4/CyDMA.c **** *
1333:Generated_Source\PSoC4/CyDMA.c **** * Summary:
1334:Generated_Source\PSoC4/CyDMA.c **** *  Determines if the descriptor is preemptable.
1335:Generated_Source\PSoC4/CyDMA.c **** *
1336:Generated_Source\PSoC4/CyDMA.c **** * Parameters:
1337:Generated_Source\PSoC4/CyDMA.c **** *  channel:     Channel used by this function.
1338:Generated_Source\PSoC4/CyDMA.c **** *  descriptor:  Descriptor (0 or 1) modified by this function.
1339:Generated_Source\PSoC4/CyDMA.c **** *  preemptable: Descriptor preemption settings. Refer to the API bit fields
1340:Generated_Source\PSoC4/CyDMA.c **** *               definition in CyDMA_P4.h or the API description in the DMA 
1341:Generated_Source\PSoC4/CyDMA.c **** *               channel datasheet for the parameter options.
1342:Generated_Source\PSoC4/CyDMA.c **** *                   
