ARM GAS  C:\Users\haras\AppData\Local\Temp\ccaD9jzh.s 			page 1


   1              		.syntax unified
   2              		.cpu cortex-m0
   3              		.fpu softvfp
   4              		.eabi_attribute 20, 1
   5              		.eabi_attribute 21, 1
   6              		.eabi_attribute 23, 3
   7              		.eabi_attribute 24, 1
   8              		.eabi_attribute 25, 1
   9              		.eabi_attribute 26, 1
  10              		.eabi_attribute 30, 1
  11              		.eabi_attribute 34, 0
  12              		.eabi_attribute 18, 4
  13              		.thumb
  14              		.syntax unified
  15              		.file	"Opamp_1.c"
  16              		.text
  17              	.Ltext0:
  18              		.cfi_sections	.debug_frame
  19              		.section	.text.Opamp_1_Init,"ax",%progbits
  20              		.align	2
  21              		.global	Opamp_1_Init
  22              		.code	16
  23              		.thumb_func
  24              		.type	Opamp_1_Init, %function
  25              	Opamp_1_Init:
  26              	.LFB0:
  27              		.file 1 "Generated_Source\\PSoC4\\Opamp_1.c"
   1:Generated_Source\PSoC4/Opamp_1.c **** /*******************************************************************************
   2:Generated_Source\PSoC4/Opamp_1.c **** * File Name: Opamp_1.c
   3:Generated_Source\PSoC4/Opamp_1.c **** * Version 1.20
   4:Generated_Source\PSoC4/Opamp_1.c **** *
   5:Generated_Source\PSoC4/Opamp_1.c **** * Description:
   6:Generated_Source\PSoC4/Opamp_1.c **** *  This file provides the source code to the API for the Opamp (Analog Buffer)
   7:Generated_Source\PSoC4/Opamp_1.c **** *  Component.
   8:Generated_Source\PSoC4/Opamp_1.c **** *
   9:Generated_Source\PSoC4/Opamp_1.c **** *
  10:Generated_Source\PSoC4/Opamp_1.c **** ********************************************************************************
  11:Generated_Source\PSoC4/Opamp_1.c **** * Copyright 2013-2015, Cypress Semiconductor Corporation.  All rights reserved.
  12:Generated_Source\PSoC4/Opamp_1.c **** * You may use this file only in accordance with the license, terms, conditions,
  13:Generated_Source\PSoC4/Opamp_1.c **** * disclaimers, and limitations in the end user license agreement accompanying
  14:Generated_Source\PSoC4/Opamp_1.c **** * the software package with which this file was provided.
  15:Generated_Source\PSoC4/Opamp_1.c **** *******************************************************************************/
  16:Generated_Source\PSoC4/Opamp_1.c **** 
  17:Generated_Source\PSoC4/Opamp_1.c **** #include "Opamp_1.h"
  18:Generated_Source\PSoC4/Opamp_1.c **** 
  19:Generated_Source\PSoC4/Opamp_1.c **** uint8 Opamp_1_initVar = 0u; /* Defines if component was initialized */
  20:Generated_Source\PSoC4/Opamp_1.c **** static uint32 Opamp_1_internalPower = 0u; /* Defines component Power value */
  21:Generated_Source\PSoC4/Opamp_1.c **** 
  22:Generated_Source\PSoC4/Opamp_1.c **** 
  23:Generated_Source\PSoC4/Opamp_1.c **** /*******************************************************************************
  24:Generated_Source\PSoC4/Opamp_1.c **** * Function Name: Opamp_1_Init
  25:Generated_Source\PSoC4/Opamp_1.c **** ********************************************************************************
  26:Generated_Source\PSoC4/Opamp_1.c **** *
  27:Generated_Source\PSoC4/Opamp_1.c **** * Summary:
  28:Generated_Source\PSoC4/Opamp_1.c **** *  Initializes or restores the component according to the customizer Configure 
  29:Generated_Source\PSoC4/Opamp_1.c **** *  dialog settings. It is not necessary to call Init() because the Start() API 
  30:Generated_Source\PSoC4/Opamp_1.c **** *  calls this function and is the preferred method to begin the component operation.
ARM GAS  C:\Users\haras\AppData\Local\Temp\ccaD9jzh.s 			page 2


  31:Generated_Source\PSoC4/Opamp_1.c **** *
  32:Generated_Source\PSoC4/Opamp_1.c **** * Parameters:
  33:Generated_Source\PSoC4/Opamp_1.c **** *  None
  34:Generated_Source\PSoC4/Opamp_1.c **** *
  35:Generated_Source\PSoC4/Opamp_1.c **** * Return:
  36:Generated_Source\PSoC4/Opamp_1.c **** *  None
  37:Generated_Source\PSoC4/Opamp_1.c **** *
  38:Generated_Source\PSoC4/Opamp_1.c **** *******************************************************************************/
  39:Generated_Source\PSoC4/Opamp_1.c **** void Opamp_1_Init(void)
  40:Generated_Source\PSoC4/Opamp_1.c **** {
  28              		.loc 1 40 0
  29              		.cfi_startproc
  30              		@ args = 0, pretend = 0, frame = 0
  31              		@ frame_needed = 0, uses_anonymous_args = 0
  32              		@ link register save eliminated.
  41:Generated_Source\PSoC4/Opamp_1.c ****     Opamp_1_internalPower = Opamp_1_POWER;
  33              		.loc 1 41 0
  34 0000 0323     		movs	r3, #3
  35 0002 064A     		ldr	r2, .L2
  36 0004 1360     		str	r3, [r2]
  42:Generated_Source\PSoC4/Opamp_1.c ****     Opamp_1_CTB_CTRL_REG = Opamp_1_DEFAULT_CTB_CTRL;
  37              		.loc 1 42 0
  38 0006 8021     		movs	r1, #128
  39 0008 0906     		lsls	r1, r1, #24
  40 000a 054A     		ldr	r2, .L2+4
  41 000c 1160     		str	r1, [r2]
  43:Generated_Source\PSoC4/Opamp_1.c ****     Opamp_1_OA_RES_CTRL_REG = Opamp_1_DEFAULT_OA_RES_CTRL;
  42              		.loc 1 43 0
  43 000e 0421     		movs	r1, #4
  44 0010 044A     		ldr	r2, .L2+8
  45 0012 1160     		str	r1, [r2]
  44:Generated_Source\PSoC4/Opamp_1.c ****     Opamp_1_OA_COMP_TRIM_REG = Opamp_1_DEFAULT_OA_COMP_TRIM_REG;
  46              		.loc 1 44 0
  47 0014 044A     		ldr	r2, .L2+12
  48 0016 1360     		str	r3, [r2]
  45:Generated_Source\PSoC4/Opamp_1.c **** }
  49              		.loc 1 45 0
  50              		@ sp needed
  51 0018 7047     		bx	lr
  52              	.L3:
  53 001a C046     		.align	2
  54              	.L2:
  55 001c 00000000 		.word	.LANCHOR0
  56 0020 00003040 		.word	1076887552
  57 0024 04003040 		.word	1076887556
  58 0028 080F3040 		.word	1076891400
  59              		.cfi_endproc
  60              	.LFE0:
  61              		.size	Opamp_1_Init, .-Opamp_1_Init
  62              		.section	.text.Opamp_1_Enable,"ax",%progbits
  63              		.align	2
  64              		.global	Opamp_1_Enable
  65              		.code	16
  66              		.thumb_func
  67              		.type	Opamp_1_Enable, %function
  68              	Opamp_1_Enable:
  69              	.LFB1:
ARM GAS  C:\Users\haras\AppData\Local\Temp\ccaD9jzh.s 			page 3


  46:Generated_Source\PSoC4/Opamp_1.c **** 
  47:Generated_Source\PSoC4/Opamp_1.c **** 
  48:Generated_Source\PSoC4/Opamp_1.c **** /*******************************************************************************
  49:Generated_Source\PSoC4/Opamp_1.c **** * Function Name: Opamp_1_Enable
  50:Generated_Source\PSoC4/Opamp_1.c **** ********************************************************************************
  51:Generated_Source\PSoC4/Opamp_1.c **** *
  52:Generated_Source\PSoC4/Opamp_1.c **** * Summary:
  53:Generated_Source\PSoC4/Opamp_1.c **** *  Activates the hardware and begins the component operation. It is not necessary to 
  54:Generated_Source\PSoC4/Opamp_1.c **** *  call Enable() because the Start() API calls this function, which is the 
  55:Generated_Source\PSoC4/Opamp_1.c **** *  preferred method to begin the component operation.
  56:Generated_Source\PSoC4/Opamp_1.c **** *
  57:Generated_Source\PSoC4/Opamp_1.c **** * Parameters:
  58:Generated_Source\PSoC4/Opamp_1.c **** *  None
  59:Generated_Source\PSoC4/Opamp_1.c **** *
  60:Generated_Source\PSoC4/Opamp_1.c **** * Return:
  61:Generated_Source\PSoC4/Opamp_1.c **** *  None
  62:Generated_Source\PSoC4/Opamp_1.c **** *
  63:Generated_Source\PSoC4/Opamp_1.c **** *******************************************************************************/
  64:Generated_Source\PSoC4/Opamp_1.c **** void Opamp_1_Enable(void)
  65:Generated_Source\PSoC4/Opamp_1.c **** {
  70              		.loc 1 65 0
  71              		.cfi_startproc
  72              		@ args = 0, pretend = 0, frame = 0
  73              		@ frame_needed = 0, uses_anonymous_args = 0
  74              		@ link register save eliminated.
  66:Generated_Source\PSoC4/Opamp_1.c ****     Opamp_1_OA_RES_CTRL_REG |= Opamp_1_internalPower | \
  75              		.loc 1 66 0
  76 0000 044A     		ldr	r2, .L5
  77 0002 1168     		ldr	r1, [r2]
  78 0004 044B     		ldr	r3, .L5+4
  79 0006 1B68     		ldr	r3, [r3]
  80 0008 0B43     		orrs	r3, r1
  81 000a 8021     		movs	r1, #128
  82 000c 0901     		lsls	r1, r1, #4
  83 000e 0B43     		orrs	r3, r1
  84 0010 1360     		str	r3, [r2]
  67:Generated_Source\PSoC4/Opamp_1.c ****                                         Opamp_1_OA_PUMP_EN;
  68:Generated_Source\PSoC4/Opamp_1.c **** }
  85              		.loc 1 68 0
  86              		@ sp needed
  87 0012 7047     		bx	lr
  88              	.L6:
  89              		.align	2
  90              	.L5:
  91 0014 04003040 		.word	1076887556
  92 0018 00000000 		.word	.LANCHOR0
  93              		.cfi_endproc
  94              	.LFE1:
  95              		.size	Opamp_1_Enable, .-Opamp_1_Enable
  96              		.section	.text.Opamp_1_Start,"ax",%progbits
  97              		.align	2
  98              		.global	Opamp_1_Start
  99              		.code	16
 100              		.thumb_func
 101              		.type	Opamp_1_Start, %function
 102              	Opamp_1_Start:
 103              	.LFB2:
ARM GAS  C:\Users\haras\AppData\Local\Temp\ccaD9jzh.s 			page 4


  69:Generated_Source\PSoC4/Opamp_1.c **** 
  70:Generated_Source\PSoC4/Opamp_1.c **** 
  71:Generated_Source\PSoC4/Opamp_1.c **** /*******************************************************************************
  72:Generated_Source\PSoC4/Opamp_1.c **** * Function Name: Opamp_1_Start
  73:Generated_Source\PSoC4/Opamp_1.c **** ********************************************************************************
  74:Generated_Source\PSoC4/Opamp_1.c **** *
  75:Generated_Source\PSoC4/Opamp_1.c **** * Summary:
  76:Generated_Source\PSoC4/Opamp_1.c **** *  Performs all of the required initialization for the component and enables power 
  77:Generated_Source\PSoC4/Opamp_1.c **** *  to the block. The first time the routine is executed, the Power level, Mode, 
  78:Generated_Source\PSoC4/Opamp_1.c **** *  and Output mode are set. When called to restart the Opamp following a Stop() call, 
  79:Generated_Source\PSoC4/Opamp_1.c **** *  the current component parameter settings are retained.
  80:Generated_Source\PSoC4/Opamp_1.c **** *
  81:Generated_Source\PSoC4/Opamp_1.c **** * Parameters:
  82:Generated_Source\PSoC4/Opamp_1.c **** *  None
  83:Generated_Source\PSoC4/Opamp_1.c **** *
  84:Generated_Source\PSoC4/Opamp_1.c **** * Return:
  85:Generated_Source\PSoC4/Opamp_1.c **** *  None
  86:Generated_Source\PSoC4/Opamp_1.c **** *
  87:Generated_Source\PSoC4/Opamp_1.c **** * Global variables:
  88:Generated_Source\PSoC4/Opamp_1.c **** *  Opamp_1_initVar: Used to check the initial configuration, modified
  89:Generated_Source\PSoC4/Opamp_1.c **** *  when this function is called for the first time.
  90:Generated_Source\PSoC4/Opamp_1.c **** *
  91:Generated_Source\PSoC4/Opamp_1.c **** *******************************************************************************/
  92:Generated_Source\PSoC4/Opamp_1.c **** void Opamp_1_Start(void)
  93:Generated_Source\PSoC4/Opamp_1.c **** {
 104              		.loc 1 93 0
 105              		.cfi_startproc
 106              		@ args = 0, pretend = 0, frame = 0
 107              		@ frame_needed = 0, uses_anonymous_args = 0
 108 0000 10B5     		push	{r4, lr}
 109              		.cfi_def_cfa_offset 8
 110              		.cfi_offset 4, -8
 111              		.cfi_offset 14, -4
  94:Generated_Source\PSoC4/Opamp_1.c ****     if( 0u == Opamp_1_initVar)
 112              		.loc 1 94 0
 113 0002 064B     		ldr	r3, .L9
 114 0004 1B79     		ldrb	r3, [r3, #4]
 115 0006 002B     		cmp	r3, #0
 116 0008 04D1     		bne	.L8
  95:Generated_Source\PSoC4/Opamp_1.c ****     {
  96:Generated_Source\PSoC4/Opamp_1.c ****         Opamp_1_Init();
 117              		.loc 1 96 0
 118 000a FFF7FEFF 		bl	Opamp_1_Init
 119              	.LVL0:
  97:Generated_Source\PSoC4/Opamp_1.c ****         Opamp_1_initVar = 1u;
 120              		.loc 1 97 0
 121 000e 0122     		movs	r2, #1
 122 0010 024B     		ldr	r3, .L9
 123 0012 1A71     		strb	r2, [r3, #4]
 124              	.L8:
  98:Generated_Source\PSoC4/Opamp_1.c ****     }
  99:Generated_Source\PSoC4/Opamp_1.c ****     Opamp_1_Enable();
 125              		.loc 1 99 0
 126 0014 FFF7FEFF 		bl	Opamp_1_Enable
 127              	.LVL1:
 100:Generated_Source\PSoC4/Opamp_1.c **** }
 128              		.loc 1 100 0
ARM GAS  C:\Users\haras\AppData\Local\Temp\ccaD9jzh.s 			page 5


 129              		@ sp needed
 130 0018 10BD     		pop	{r4, pc}
 131              	.L10:
 132 001a C046     		.align	2
 133              	.L9:
 134 001c 00000000 		.word	.LANCHOR0
 135              		.cfi_endproc
 136              	.LFE2:
 137              		.size	Opamp_1_Start, .-Opamp_1_Start
 138              		.section	.text.Opamp_1_Stop,"ax",%progbits
 139              		.align	2
 140              		.global	Opamp_1_Stop
 141              		.code	16
 142              		.thumb_func
 143              		.type	Opamp_1_Stop, %function
 144              	Opamp_1_Stop:
 145              	.LFB3:
 101:Generated_Source\PSoC4/Opamp_1.c **** 
 102:Generated_Source\PSoC4/Opamp_1.c **** 
 103:Generated_Source\PSoC4/Opamp_1.c **** /*******************************************************************************
 104:Generated_Source\PSoC4/Opamp_1.c **** * Function Name: Opamp_1_Stop
 105:Generated_Source\PSoC4/Opamp_1.c **** ********************************************************************************
 106:Generated_Source\PSoC4/Opamp_1.c **** *
 107:Generated_Source\PSoC4/Opamp_1.c **** * Summary:
 108:Generated_Source\PSoC4/Opamp_1.c **** *  Turn off the Opamp block.
 109:Generated_Source\PSoC4/Opamp_1.c **** *
 110:Generated_Source\PSoC4/Opamp_1.c **** * Parameters:
 111:Generated_Source\PSoC4/Opamp_1.c **** *  None
 112:Generated_Source\PSoC4/Opamp_1.c **** *
 113:Generated_Source\PSoC4/Opamp_1.c **** * Return:
 114:Generated_Source\PSoC4/Opamp_1.c **** *  None
 115:Generated_Source\PSoC4/Opamp_1.c **** *
 116:Generated_Source\PSoC4/Opamp_1.c **** *******************************************************************************/
 117:Generated_Source\PSoC4/Opamp_1.c **** void Opamp_1_Stop(void)
 118:Generated_Source\PSoC4/Opamp_1.c **** {
 146              		.loc 1 118 0
 147              		.cfi_startproc
 148              		@ args = 0, pretend = 0, frame = 0
 149              		@ frame_needed = 0, uses_anonymous_args = 0
 150              		@ link register save eliminated.
 119:Generated_Source\PSoC4/Opamp_1.c ****     Opamp_1_OA_RES_CTRL_REG &= ((uint32)~(Opamp_1_OA_PWR_MODE_MASK | \
 151              		.loc 1 119 0
 152 0000 024A     		ldr	r2, .L12
 153 0002 1168     		ldr	r1, [r2]
 154 0004 024B     		ldr	r3, .L12+4
 155 0006 0B40     		ands	r3, r1
 156 0008 1360     		str	r3, [r2]
 120:Generated_Source\PSoC4/Opamp_1.c ****                                                    Opamp_1_OA_PUMP_EN));
 121:Generated_Source\PSoC4/Opamp_1.c **** }
 157              		.loc 1 121 0
 158              		@ sp needed
 159 000a 7047     		bx	lr
 160              	.L13:
 161              		.align	2
 162              	.L12:
 163 000c 04003040 		.word	1076887556
 164 0010 FCF7FFFF 		.word	-2052
ARM GAS  C:\Users\haras\AppData\Local\Temp\ccaD9jzh.s 			page 6


 165              		.cfi_endproc
 166              	.LFE3:
 167              		.size	Opamp_1_Stop, .-Opamp_1_Stop
 168              		.section	.text.Opamp_1_SetPower,"ax",%progbits
 169              		.align	2
 170              		.global	Opamp_1_SetPower
 171              		.code	16
 172              		.thumb_func
 173              		.type	Opamp_1_SetPower, %function
 174              	Opamp_1_SetPower:
 175              	.LFB4:
 122:Generated_Source\PSoC4/Opamp_1.c **** 
 123:Generated_Source\PSoC4/Opamp_1.c **** 
 124:Generated_Source\PSoC4/Opamp_1.c **** /*******************************************************************************
 125:Generated_Source\PSoC4/Opamp_1.c **** * Function Name: Opamp_1_SetPower
 126:Generated_Source\PSoC4/Opamp_1.c **** ********************************************************************************
 127:Generated_Source\PSoC4/Opamp_1.c **** *
 128:Generated_Source\PSoC4/Opamp_1.c **** * Summary:
 129:Generated_Source\PSoC4/Opamp_1.c **** *  Sets the Opamp to one of the three power levels.
 130:Generated_Source\PSoC4/Opamp_1.c **** *
 131:Generated_Source\PSoC4/Opamp_1.c **** * Parameters:
 132:Generated_Source\PSoC4/Opamp_1.c **** *  power: power levels.
 133:Generated_Source\PSoC4/Opamp_1.c **** *   Opamp_1_LOW_POWER - Lowest active power
 134:Generated_Source\PSoC4/Opamp_1.c **** *   Opamp_1_MED_POWER - Medium power
 135:Generated_Source\PSoC4/Opamp_1.c **** *   Opamp_1_HIGH_POWER - Highest active power
 136:Generated_Source\PSoC4/Opamp_1.c **** *
 137:Generated_Source\PSoC4/Opamp_1.c **** * Return:
 138:Generated_Source\PSoC4/Opamp_1.c **** *  None
 139:Generated_Source\PSoC4/Opamp_1.c **** *
 140:Generated_Source\PSoC4/Opamp_1.c **** **********************************************************************************/
 141:Generated_Source\PSoC4/Opamp_1.c **** void Opamp_1_SetPower(uint32 power)
 142:Generated_Source\PSoC4/Opamp_1.c **** {
 176              		.loc 1 142 0
 177              		.cfi_startproc
 178              		@ args = 0, pretend = 0, frame = 0
 179              		@ frame_needed = 0, uses_anonymous_args = 0
 180              		@ link register save eliminated.
 181              	.LVL2:
 143:Generated_Source\PSoC4/Opamp_1.c ****     uint32 tmp;
 144:Generated_Source\PSoC4/Opamp_1.c ****     
 145:Generated_Source\PSoC4/Opamp_1.c ****     Opamp_1_internalPower = Opamp_1_GET_OA_PWR_MODE(power);
 182              		.loc 1 145 0
 183 0000 0321     		movs	r1, #3
 184 0002 0840     		ands	r0, r1
 185              	.LVL3:
 186 0004 034B     		ldr	r3, .L15
 187 0006 1860     		str	r0, [r3]
 146:Generated_Source\PSoC4/Opamp_1.c ****     tmp = Opamp_1_OA_RES_CTRL_REG & \
 188              		.loc 1 146 0
 189 0008 034A     		ldr	r2, .L15+4
 190 000a 1368     		ldr	r3, [r2]
 191 000c 8B43     		bics	r3, r1
 192              	.LVL4:
 147:Generated_Source\PSoC4/Opamp_1.c ****            (uint32)~Opamp_1_OA_PWR_MODE_MASK;
 148:Generated_Source\PSoC4/Opamp_1.c ****     Opamp_1_OA_RES_CTRL_REG = tmp | Opamp_1_internalPower;
 193              		.loc 1 148 0
 194 000e 1843     		orrs	r0, r3
ARM GAS  C:\Users\haras\AppData\Local\Temp\ccaD9jzh.s 			page 7


 195 0010 1060     		str	r0, [r2]
 149:Generated_Source\PSoC4/Opamp_1.c **** }
 196              		.loc 1 149 0
 197              		@ sp needed
 198 0012 7047     		bx	lr
 199              	.L16:
 200              		.align	2
 201              	.L15:
 202 0014 00000000 		.word	.LANCHOR0
 203 0018 04003040 		.word	1076887556
 204              		.cfi_endproc
 205              	.LFE4:
 206              		.size	Opamp_1_SetPower, .-Opamp_1_SetPower
 207              		.section	.text.Opamp_1_PumpControl,"ax",%progbits
 208              		.align	2
 209              		.global	Opamp_1_PumpControl
 210              		.code	16
 211              		.thumb_func
 212              		.type	Opamp_1_PumpControl, %function
 213              	Opamp_1_PumpControl:
 214              	.LFB5:
 150:Generated_Source\PSoC4/Opamp_1.c **** 
 151:Generated_Source\PSoC4/Opamp_1.c **** 
 152:Generated_Source\PSoC4/Opamp_1.c **** /*******************************************************************************
 153:Generated_Source\PSoC4/Opamp_1.c **** * Function Name: Opamp_1_PumpControl
 154:Generated_Source\PSoC4/Opamp_1.c **** ********************************************************************************
 155:Generated_Source\PSoC4/Opamp_1.c **** *
 156:Generated_Source\PSoC4/Opamp_1.c **** * Summary:
 157:Generated_Source\PSoC4/Opamp_1.c **** *  Allows the user to turn the Opamp's boost pump on or off. By Default the Start() 
 158:Generated_Source\PSoC4/Opamp_1.c **** *  function turns on the pump. Use this API to turn it off. The boost must be 
 159:Generated_Source\PSoC4/Opamp_1.c **** *  turned on when the supply is less than 2.7 volts and off if the supply is more 
 160:Generated_Source\PSoC4/Opamp_1.c **** *  than 4 volts.
 161:Generated_Source\PSoC4/Opamp_1.c **** *
 162:Generated_Source\PSoC4/Opamp_1.c **** * Parameters:
 163:Generated_Source\PSoC4/Opamp_1.c **** *  onOff: Control the pump.
 164:Generated_Source\PSoC4/Opamp_1.c **** *   Opamp_1_PUMP_OFF - Turn off the pump
 165:Generated_Source\PSoC4/Opamp_1.c **** *   Opamp_1_PUMP_ON - Turn on the pump
 166:Generated_Source\PSoC4/Opamp_1.c **** *
 167:Generated_Source\PSoC4/Opamp_1.c **** * Return:
 168:Generated_Source\PSoC4/Opamp_1.c **** *  None
 169:Generated_Source\PSoC4/Opamp_1.c **** *
 170:Generated_Source\PSoC4/Opamp_1.c **** **********************************************************************************/
 171:Generated_Source\PSoC4/Opamp_1.c **** void Opamp_1_PumpControl(uint32 onOff)
 172:Generated_Source\PSoC4/Opamp_1.c **** {
 215              		.loc 1 172 0
 216              		.cfi_startproc
 217              		@ args = 0, pretend = 0, frame = 0
 218              		@ frame_needed = 0, uses_anonymous_args = 0
 219              		@ link register save eliminated.
 220              	.LVL5:
 173:Generated_Source\PSoC4/Opamp_1.c ****     
 174:Generated_Source\PSoC4/Opamp_1.c ****     if(0u != onOff)
 221              		.loc 1 174 0
 222 0000 0028     		cmp	r0, #0
 223 0002 06D0     		beq	.L18
 175:Generated_Source\PSoC4/Opamp_1.c ****     {
 176:Generated_Source\PSoC4/Opamp_1.c ****         Opamp_1_OA_RES_CTRL |= Opamp_1_OA_PUMP_EN;    
ARM GAS  C:\Users\haras\AppData\Local\Temp\ccaD9jzh.s 			page 8


 224              		.loc 1 176 0
 225 0004 064A     		ldr	r2, .L20
 226 0006 1368     		ldr	r3, [r2]
 227 0008 8021     		movs	r1, #128
 228 000a 0901     		lsls	r1, r1, #4
 229 000c 0B43     		orrs	r3, r1
 230 000e 1360     		str	r3, [r2]
 231 0010 04E0     		b	.L17
 232              	.L18:
 177:Generated_Source\PSoC4/Opamp_1.c ****     }
 178:Generated_Source\PSoC4/Opamp_1.c ****     else
 179:Generated_Source\PSoC4/Opamp_1.c ****     {
 180:Generated_Source\PSoC4/Opamp_1.c ****         Opamp_1_OA_RES_CTRL &= (uint32)~Opamp_1_OA_PUMP_EN;
 233              		.loc 1 180 0
 234 0012 034A     		ldr	r2, .L20
 235 0014 1168     		ldr	r1, [r2]
 236 0016 034B     		ldr	r3, .L20+4
 237 0018 0B40     		ands	r3, r1
 238 001a 1360     		str	r3, [r2]
 239              	.L17:
 181:Generated_Source\PSoC4/Opamp_1.c ****     }
 182:Generated_Source\PSoC4/Opamp_1.c **** }
 240              		.loc 1 182 0
 241              		@ sp needed
 242 001c 7047     		bx	lr
 243              	.L21:
 244 001e C046     		.align	2
 245              	.L20:
 246 0020 04003040 		.word	1076887556
 247 0024 FFF7FFFF 		.word	-2049
 248              		.cfi_endproc
 249              	.LFE5:
 250              		.size	Opamp_1_PumpControl, .-Opamp_1_PumpControl
 251              		.global	Opamp_1_initVar
 252              		.bss
 253              		.align	2
 254              		.set	.LANCHOR0,. + 0
 255              		.type	Opamp_1_internalPower, %object
 256              		.size	Opamp_1_internalPower, 4
 257              	Opamp_1_internalPower:
 258 0000 00000000 		.space	4
 259              		.type	Opamp_1_initVar, %object
 260              		.size	Opamp_1_initVar, 1
 261              	Opamp_1_initVar:
 262 0004 00       		.space	1
 263              		.text
 264              	.Letext0:
 265              		.file 2 "Generated_Source\\PSoC4\\cytypes.h"
