:400000000080002011000000AD060000AD06000010B500F053FBC04670B51222354B1A6000F04AFE344801F043FB012000F064FE302000F0B3FC314A314B1A60314D802376
:40004000DB052B60304A116802230B4313602F4A2F4B1A6000222F4B1A602F4A13680824A3431360FA20C00000F04AFD2B4800F08BFCC72212022A4B1A602A4B2A4A1A60F6
:40008000F0210901294A1160294A1A60E8214901284A1160284A1A6082221206274B1A608022D202264B1A604222264B1A604023254A1360254A1360254A1360254A1360EF
:4000C0004122254B1A602549082000F025FC082000F016FC224A234B1A60234B2B60234B1C60224B1B681B07FBD401221F4B1A6070BDC04630001040001BB70006000080B8
:4001000004010B400C020B4078002E402D3E00007C002E4064F02E406CF02E40DC050000080301400000014042FF00800003014040FF00800403014041FF008008010B40C1
:4001400000010B402C0101402801014024010140200101401C01014018010140510E0000CB0C000008020B400500004010020B4010B572B60022314B1A6000240FE030481E
:400180006200131959000B00411889881A5AC31858880004104300F083FA0134E4B2012CEDD927490C3127481C3000F021FA264A264B1A60264A274B1A6099231B04264ABD
:4001C0001360264A1360264A1360264A13600D23254A1360254A1360254A136025490B783C22934314221343DBB20B70224A117816230B43DBB213700522204B1A60204A52
:40020000204B1A607D22204B1A60C32252031F4B1A602D231E4A13603D211E4A11601E491E4A11601E4A1360183B1E4A13601E4A1360FFF7F1FE00F0F5F910BD6CF02E4057
:40024000B037000030380000080800EE00000240000008080001024000500F4010500F4020500F4030500F4000200140042001400820014001700F4000700F4000000440CE
:400280008601D8000800044000010440080104401801044000020440302000000802044018020440000304401803044010B5064C2378002B07D1054B002B02D0044800E08E
:4002C00000BF0123237010BD6801002000000000AC370000084B10B5002B03D00749084800E000BF07480368002B00D110BD064B002BFBD09847F9E7000000006C010020E4
:40030000AC370000C00000200000000010B562B600F058F800F080F800F03EF910BDC04610B5FFF7F3FFFEE710B5174A0021022000F08AFC154C22000021022000F09AFCBE
:400340000021022000F066FC114A0021012000F07BFC220050320021012000F08BFC0021012000F057FC0B4A0021002000F06CFC2200A0320021002000F07CFC0021002036
:4003800000F048FC10BDC04680013A408401002084013A4088013A4070B5074D702400232B5578220549064803F0EEF9FFF7BCFF01232B5570BDC046040200208401002081
:4003C000E402002010B5152000F09AFA0D4C21000D4800F0A7FD210050310C4800F0D4FD2100A0310A4800F001FE0A49022000F0EFFB00F0D1F900F003FA00F035FA00F027
:4004000067FA10BD8401002080013A4084013A4088013A409903000010B5FFF785FF01F031F900F069FE10BD10B502F0EBFE064A064B02F0E3F80022054B01F0B3FD01F0C0
:400440004BFA013880B210BD9D8026C2868727400070A74010B502280CD002D8012805D014E003280AD004280CD00FE000F06CFE80B20CE000F0E2FE80B208E000F058FFF3
:4004800080B204E000F0CEFF80B200E0002010BD10B502280CD002D8012805D013E003280AD004280CD00EE0080000F045FE0AE0080000F0BBFE06E0080000F031FF02E013
:4004C000080000F0A7FF10BD30B583B0002408E025000134E4B22000FFF7BCFF6D006B46E852032CF4D900232DE0180059006A468A5A1D4C095B8A4203D1E2180021117218
:400500001FE08A420BD25C00174D2C19A489121994B20A1CA14200D9221C92B20AE05C00114D2C19A489121B92B20C1C914200D2141CA2B241006C460A530B4A1018012244
:4005400002720133DBB2032BCFD9002308E05C1CE4B25B006A46995A2000FFF799FF2300032BF4D903B030BD7802002070B50400080001F091FC074D696901F0CBF901F0D8
:4005800093F9C0B2FFF750FF013C64002C19A08170BDC0467802002010B500F027FE00F09FFE00F017FF00F08FFF012409E064212000FFF7DBFF00212000FFF769FF0134E2
:4005C000E4B2042CF3D9002000F0FCFB01F0ACFC011C8E20C00501F09DF9034B58610349002000F025FC10BD78020020C9040000F0B50025002711E0BB00C658F3B2FF2279
:40060000964308E06A008A181478A419527822700135013BDBB2002BF4D10137062FEBD9F0BDC04610B580231B060F4A136003200E4A10600E490F4A11600F4A0F4C2260DE
:400640000F4C23600F4C20600F4801600F490A600F4A136015230F4A13600F4A136000220E4B1A6010BDC04600003040300030400440200080003040024020008800304025
:400680000000314030003140800031408800314000003A4000033A4040033A40000E3F4010B50A00002103F078F810BD10B503F03FF803680C2B00D1FEE7FEE770B50F4E2F
:4006C0000F4D13E029686B68AC68002202E001C901C30432A242FAD1E868002202E0002102C304328242FAD11035013E002EE9D103F024F8FFF714FEFEE7C046010000004E
:400700009039000010B50E4A136801218B43136000230AE0032B03D89A000A49505800E009489900094A885001332F2BF2D9FFF71FFD034A116801230B43136010BDC0466C
:400740000000104000000000AD060000000000200323064A136080210906054A11600421044A1160044A13607047C046900200200000304004003040080F3040044A1168B7
:40078000044B1B680B43802109010B4313607047040030409002002010B5064B1B79002B04D1FFF7D5FF0122024B1A71FFF7E6FF10BDC046900200200323064A1360802177
:4007C0000906054A11600421044A1160044A13607047C046980200200000314004003140080F3140044A1168044B1B680B43802109010B4313607047040031409802002067
:4008000010B5064B1B79002B04D1FFF7D5FF0122024B1A71FFF7E6FF10BDC046980200200323064A136080210906054A11600421044A1160044A13607047C046A002002064
:400840000000314008003140140F3140044A1168044B1B680B43802109010B431360704708003140A002002010B5064B1B79002B04D1FFF7D5FF0122024B1A71FFF7E6FF6B
:4008800010BDC046A00200200323064A136080210906054A11600421044A1160044A13607047C046A80200200000304008003040140F3040044A1168044B1B680B4380211B
:4008C00009010B431360704708003040A802002010B5064B1B79002B04D1FFF7D5FF0122024B1A71FFF7E6FF10BDC046A8020020024B1B68012018407047C0460C002E40CD
:400900001F2318401E3B8340014A13607047C04600E100E001BE704770B504000D001F2802D90020FFF7F6FF1034A40080239B059C4664442068256070BDC04670B50400CE
:400940000E00032902D90020FFF7E4FF1F2C02D90020FFF7DFFF03252540ED00063500F0B0FEA408A400074B9C46644421680323AB4099430B003100A9401943216000F068
:40098000A4FE70BD00E400E010B5034B1B7B584300F08EFE10BDC046C4000020F0B557464E46C0B483B0040000F08BFE0190E71E2D2F74D83F4B1B78DBB29C4208D83E4B04
:4009C0001B78DBB29A463D4B1B78DBB2994631E03B4B1B78DBB29C4208D83A4B1B78DBB29A46394B1B78DBB2994623E0374B1B78DBB29C4208D8364B1B78DBB29A46354B8F
:400A00001B78DBB2994615E0334B1B78DBB29C4208D8324B1B78DBB29A46314B1B78DBB2994607E02F4B1B78DBB29A462E4B1B78DBB299462D4BDE5D2F2E09D92A2C07D96D
:400A400019222B4B1A60052000F032FE192503E0274B1D683F231D40B54206D9234BDA5D234B1A60052000F023FE1F4B9C4664442378DBB21F4A13601F4B52461A601F4BB8
:400A80004A461A600520FFF77FFFB5420AD2174BDA5D174B1A60052000F00AFE02E00020FFF738FF019800F010FE03B00CBC91469A46F0BD40F3FF0F41F3FF0F42F3FF0FC3
:400AC00043F3FF0F44F3FF0F45F3FF0F46F3FF0F47F3FF0F48F3FF0F49F3FF0F4AF3FF0F4BF3FF0F4CF3FF0F4DF3FF0F683800002CFF0B4028FF0B401CFF0B4020FF0B407B
:400B000010B504000F4A116801230B4313600E4A0E4B1A600E4A1368802109020B431360002809D100200CE00120FFF72DFFFFF7DFFE002804D1013C002CF5D1102000E06A
:400B4000002010BD60F02E400220000078002E4010002E4070B5084B1C68084B1C60002507E0E30703D5AB00054A9B58984764080135002CF5D170BDFC171040F017104064
:400B8000D800002010B50020FFF7C4FE10BDC04610B501001520FFF7BFFE10BD10B5094B1B78002B09D10848FFF7F2FF03211520FFF7C4FE0122034B1A7080221206034B56
:400BC0001A6010BDAD020020550B00000010104070B504000D00072802D90020FFF79AFE024BA400E058E55070BDC046D800002010B50400072802D90020FFF78BFE044AE8
:400C0000A400A358802109060B43A35010BDC0468010104070B505000C00072802D90020FFF778FE012C02D90020FFF773FE6D002C192401034B9C46644480231B06E36060
:400C400070BDC0460018104070B505000C001600072802D90020FFF75DFE012C02D90020FFF758FE6D002C192401014BE65070BD0018104070B505000C001600072802D95A
:400C80000020FFF747FE012C02D90020FFF742FE6D002C192401024B9C466444666070BD00181040034B1868C0231B02184000D00120704700010B4010B50D4B1A68012197
:400CC0008A431A601A68022082431A60094A10683024A043203C204310601068093CA043014311601A68802109060A431A6010BD00F02E4000FF2E4070B51D4B1B6801247E
:400D00001C40002802D0012816D02BE0184B19680122914319601968022081431960154B19682E3081432038014319601968093881430A431A6018E00D4B1A6802218A43E8
:400D40001A600C4A10680725A84301431160116830208143103801431160196801220A431A6002E00020FFF7D5FD200070BDC04600F02E4000FF2E4010B500F0A2FC044AE1
:400D80001368C02109020B43136000F09EFC10BD00010B4010B500F094FC08490A68084B1A408024E40122430A600A6813408022120213430B6000F088FC10BD00010B4092
:400DC000FF3FFFFF10B50400012802D90020FFF7A1FD034B18682401E0400004000C10BD08020B4070B5050000F06BFC0400FFF759FF002803D0FFF7CDFF012100E000213E
:400E000008482840084A1568084B2B40184310601368012901D1FFF7AFFF200000F055FC70BDC0460404040010020B40FBFBFBFF10B5022805D88000044B1B1898699961D1
:400E400003E00020FFF766FD002010BDB002002010B5244B1B685B0715D5234B5B685B070ED5224B596A042001401F4C62688A4362605A6A82435A629B69002B00D0984762
:400E80000420FFF7AFFF174B1B685B0518D5164B5B685B0510D5154B596A8022D2001140114842688A434260596A114A0A405A62DB69002B00D098478020C000FFF792FF4C
:400EC000084B1B685B030CD5074B5B685B0304D5064B1B6A002B00D098478020C002FFF781FF10BD10020B40FC000020B0020020FFFBFFFFC0229205064B9A60064B074A93
:400F00009A6400229A65064A116804230B4313607047C04680101040001810402700610FF817104070B505000C000E4B1B78002B04D1FFF7DFFF01220A4B1A70FFF72EFECC
:400F40002A0000210220FFF77FFE220000210220FFF790FE00210220FFF75CFE0220FFF747FE70BDD8020020C0229205034B5A60034B044A9A6200229A63704780101040C2
:400F8000001810402700610770B505000C000E4B1B78002B04D1FFF7E7FF01220A4B1A70FFF7FCFD2A0000210120FFF74DFE220000210120FFF75EFE00210120FFF72AFE88
:400FC0000120FFF715FE70BDD9020020C0229205034B1A60034B044A9A6000229A61704780101040001810402700610770B505000C000E4B1B78002B04D1FFF7E7FF0122FC
:401000000A4B1A70FFF7CAFD2A0000210020FFF71BFE220000210020FFF72CFE00210020FFF7F8FD0020FFF7E3FD70BDDA020020034A117880235B420B43DBB213707047A1
:4010400070000F40014B18707047C04600000F40014B18707047C04640000F40014B18707047C04620000F40014B18707047C04680000F40014B1878C0B2704760000F409D
:40108000014B1878C0B2704750000F4010B501E0FFF7F6FFFFF7EEFFC306F9D410BDC04610B513490B783F2293430C221343DBB20B70104C227801231343DBB22370C720D1
:4010C000FFF7C0FFC720FFF7C3FF6320FFF7C6FF0020FFF7C9FF00F0F4FA227810231343DBB2237000F0F1FAFFF7D0FF10BDC04670000F4090000F4010B5064B1B78002B7A
:4011000004D1FFF7CDFF0122024B1A70FFF790FF10BDC046DB0200200004000C014B18607047C046080120400004000C014B18607047C046140120400004000C014B1860F5
:401140007047C0460C012040024B18680004000C7047C0460C01204070B504000D0000F0B0FAAC40024B1C6000F0AFFA70BDC0460800204010B500F0A4FA064A1168012345
:401180000B43136000F0A1FA18210120FFF7E4FF10BDC04600002040014B18607047C0463801204010B50D4C8223DB042360236823600020FFF7B0FF236823600C22084BDC
:4011C0001A600120FFF7E8FF3122064B1A600648FFF7AAFF0020FFF7AFFF10BD0001204024012040280120405FEA000010B5064B1B78002B04D1FFF7D5FF0122024B1A70B6
:40120000FFF7B8FF10BDC046DC0200200004000C014B18607047C046480120400004000C014B18607047C046540120400004000C014B18607047C0464C012040024B1868A5
:401240000004000C7047C0464C01204070B504000D0000F036FAAC40024B1C6000F035FA70BDC0460800204010B500F02AFA064A116802230B43136000F027FA182102203B
:40128000FFF7E4FF10BDC04600002040014B18607047C0467801204010B50D4C8223DB042360236823600020FFF7B0FF236823600C22084B1A600120FFF7E8FF3122064B25
:4012C0001A600648FFF7AAFF0020FFF7AFFF10BD4001204064012040680120405FEA000010B5064B1B78002B04D1FFF7D5FF0122024B1A70FFF7B8FF10BDC046DD02002092
:401300000004000C014B18607047C046880120400004000C014B18607047C046940120400004000C014B18607047C0468C012040024B18680004000C7047C0468C012040A8
:4013400070B504000D0000F0BCF9AC40024B1C6000F0BBF970BDC0460800204010B500F0B0F9064A116804230B43136000F0ADF918210420FFF7E4FF10BDC0460000204090
:40138000014B18607047C046B801204010B50D4C8223DB042360236823600020FFF7B0FF236823600C22084B1A600120FFF7E8FF3122064B1A600648FFF7AAFF0020FFF773
:4013C000AFFF10BD80012040A4012040A80120405FEA000010B5064B1B78002B04D1FFF7D5FF0122024B1A70FFF7B8FF10BDC046DE0200200004000C014B18607047C046BC
:40140000C80120400004000C014B18607047C046D40120400004000C014B18607047C046CC012040024B18680004000C7047C046CC01204070B504000D0000F042F9AC40EB
:40144000024B1C6000F041F970BDC0460800204010B500F036F9064A116808230B43136000F033F918210820FFF7E4FF10BDC04600002040014B18607047C046F8012040E2
:4014800010B50D4C8223DB042360236823600020FFF7B0FF236823600C22084B1A600120FFF7E8FF3122064B1A600648FFF7AAFF0020FFF7AFFF10BDC0012040E40120402B
:4014C000E80120405FEA000010B5064B1B78002B04D1FFF7D5FF0122024B1A70FFF7B8FF10BDC046DF02002010B503210F20FFF725FA3E490F20FFF70FFA07223C4B1A6060
:401500003C4B1B68002B01DA3B4900E03B493C4A13680B4313603B4A3B4B1A603B4A3C4B1A6000233B4A13603B4A3C490A603C490A603C4A13603C4A136001223B4B1A6053
:401540003B4A11683B4B0B40802189050B431360002447E03849A2005058DC239B0103400919097B0B4335498C4662441360C30707D52C490A680123A3401B041B0C13432B
:401580000B60A3002C4A9B589B0707D526490A680123A3401B041B0C13430B60A300264A9B589A0502D58020400001E080204001DB0506D443085B421BB26200204953524A
:4015C00003E0630000211E4A99521E4B58431E4B9C4660441D4900F07BF800B2A2001C4BD0500134022CB5D910BDC046A516000020003A4080033A40502E1013502E001352
:4016000000003A408C000A8004003A400000FF0718003A401C003A400200020010003A4014003A4028023A4038023A4018023A4030003A40FEFFFFDF9838000080003A4017
:40164000D403002010270000C409000088130000DC03002010B5094B1B68002B0CDB084B1B68002BFBDB054A1368802109060B4313600A20FFF788F910BDC04600003A4027
:4016800008023A4010B5064B1B78002B04D1FFF72BFF0122024B1A70FFF7DCFF10BDC046E0020020014B1A681A60704710023A400230800803D00138FDD1C046C046C0460C
:4016C0007047EFF3108072B6704780F31088704703460B437FD4002243088B4274D303098B425FD3030A8B4244D3030B8B4228D3030C8B420DD3FF22090212BA030C8B4253
:4017000002D31212090265D0030B8B4219D300E0090AC30B8B4201D3CB03C01A5241830B8B4201D38B03C01A5241430B8B4201D34B03C01A5241030B8B4201D30B03C01AA1
:401740005241C30A8B4201D3CB02C01A5241830A8B4201D38B02C01A5241430A8B4201D34B02C01A5241030A8B4201D30B02C01A5241CDD2C3098B4201D3CB01C01A5241F1
:4017800083098B4201D38B01C01A524143098B4201D34B01C01A524103098B4201D30B01C01A5241C3088B4201D3CB00C01A524183088B4201D38B00C01A524143088B4257
:4017C00001D34B00C01A5241411A00D201465241104670475DE0CA0F00D04942031000D34042534000229C4603098B422DD3030A8B4212D3FC22890112BA030A8B420CD314
:40180000890192118B4208D3890192118B4204D389013AD0921100E08909C3098B4201D3CB01C01A524183098B4201D38B01C01A524143098B4201D34B01C01A52410309DB
:401840008B4201D30B01C01A5241C3088B4201D3CB00C01A524183088B4201D38B00C01A5241D9D243088B4201D34B00C01A5241411A00D20146634652415B10104601D3F2
:401880004042002B00D54942704763465B1000D3404201B5002000F005F802BD0029F8D016E770477047C0469E2110B5C905041C01F058FD002803D1201C00F0CBFA10BDA5
:4018C0009E21201CC90500F03FF900F0C3FA80231B069C466044F2E770B500220C4B04000D0001F005FD002804D12000290001F053FC70BD064B00222000290001F0F8F835
:4019000001F04AFC80231B069C466044F1E7C0460000E041F0B5564644465F464D46F0B444024600C70F83B08846650A360EBA463DD0FF2E22D00023EC00802599469B46CA
:40194000ED0425437F3E43465C025800DB0F640A000E984636D0FF2830D080230021E400DB041C437F38301A0190484642460843724E800030587A4013008746002D44D124
:4019800008239946063B9B46DDE70122FF2000241A406402C305640AD2071C431443200003B03CBC90469946A246AB46F0BD002D20D104239946033B9B46C4E7002C17D144
:4019C000022102E0002C0AD10121321A01924A4643460A435A48920082587B409746200001F0CAFC431F76309C4040420021BAE70321B8E7280001F0BFFC431F9D400023D6
:401A00007630464299469B469DE70C239946093B9B4698E780240022E403FF20B9E70024C2468B465A465346022AAED0032A7DD0012A31D1012200201A400024A9E701221B
:401A4000101A1B2856DD1A4000200024A1E78023DB031D424BD18023DB032B435C02640A3A00FF2095E76D016001854230D2019A0024013A01921B220127290064006D0090
:401A8000002901DBA84201D82D1A3C43013A002AF3D16A1E95412C4301987F300028CEDD620704D00F222240042A00D00434220103D5244A019814408030FE2800DD64E72D
:401AC0000122A401640AC0B21A4062E72C00A9E72D1A1A220124CFE76B02BCD500248023DB031C436402640A4246FF2051E71C42B3D1F4E721002022C140101A8440621E3D
:401B000094410C43620704D00F222240042A00D00434620104D5012201201A40002438E70122A401640A1A40002032E78023DB031C436402640A5246FF202AE7A838000039
:401B4000E8380000FFFFFFF7F8B54A024E0043024400240EC50F9B09360EC90F9209FF2E00D183E001204140A01BA9425CD0002800DC95E0002E1CD1002A00D081E05A07FB
:401B800004D00F221A40042A00D004335A013BD50134FF2C00D191E001209B015B0AE4B205405B02E4055B0AED0723432B431800F8BDFF2CE3D08021C9040A431B2800DD8E
:401BC00090E016002021C640081A8240511E8A4132439B1A5A0115D59B019E09300001F0CBFB0538864084426CDC041B330020200134E340041BA640721E96410024334360
:401C0000BDE70D005A07BCD1DF0801231D40FF2C33D1002F00D190E08022D20313003B435B025B0AFF24BCE700284FDD002E2ED0FF2CA4D08025ED042A431B2800DD97E0B5
:401C400016002025C640281A8240501E824132439B185A01D5D50134FF2C6DD001227B481A405B08034013430D0088E7002A00D07AE777E7031EC5D100257B025B0AE4B23F
:401C80008FE701380028A4D0FF2C97D177E7002A00D174E701380028DAD0FF2CCDD16EE7002821D1601CC0B2012858DD80279E1AFF0437402FD0D61A0D008FE701231D4037
:401CC00000236EE7624B241A334058E7002851D1601CC6B2012E33DDFF282DD09B185B0804004CE7012274E7002C1AD0FF2E1FD08024E404404223431B2800DD96E01D000A
:401D00002024C540201A8340581E83412B43D31A34000D005EE7002E00D05FE700250024ABE7002B44D0C0430028F0D0FF2EE3D11300FF240D0022E70D00FF24002330E762
:401D4000002C5DD1002B7DD0002A00D117E79B185A0100D456E73E4A040013400FE7002C1ED1002B2FD1002A65D013000D0006E701226DE7002C1FD1002B59D0C0430028E0
:401D80000BD0FF2E4FD01B285EDC1D002024C540201A8340581E83412B439B18340058E7002B1CD1002A49D013000D00FF24E6E6130034000D00E2E6FF2E34D08024E4040B
:401DC00040422343DFE7002A00D1D8E68027981AFF04074000D14DE7D31A0D00CFE6FF24002A00D1CBE68020DB08C003034204D0D208024201D113000D00DB00FF24BEE645
:401E0000002B10D0FF24002A00D1B8E68020DB08C003034203D0D208024200D11300DB000D00FF24ABE61300FF24A8E601236EE713003400A3E6002700251EE780270025B5
:401E4000FF03E9E613009AE60123A6E7FFFFFF7DFFFFFFFB4302590A4300C20F1B0E00207E2B0EDD9D2B0DDC802000040143952B0BDC9620C31AD9400B005842002A00D1B6
:401E800018007047034BD018FBE7963B99400B00F3E7C046FFFFFF7F70B5002830D0C317C5185D40C40F280001F066FA9E231B1A962B0DDC9622D21A95406A02520AD8B2D2
:401EC0005202C005520AE40702432243100070BD992B19DC9922D21A9540124A2A40690704D00F210D40042D00D00432510103D50C4B1A409F231B1A9201520AD8B2DFE797
:401F0000002400200022DBE705222E00121AB921D6402A00C91A8A40551EAA4135001543DBE7C046FFFFFFFB70B5041E28D001F023FA9E231B1A962B0ADC9622D21A944024
:401F40006202520AD8B25202520AC005104370BD992B18DC9922D21A9440114A2240610704D00F210C40042C00D00432510103D50B4B1A409F231B1A9201520AD8B2E2E731
:401F800000200022DFE705222500121AB921D5402200C91A8A40541EA2412C001443DCE7FFFFFFFBF8B556465F464D464446F0B40F00FD0FAA4609037C002E005F00450F2D
:401FC000490A7F0D2943C5001803BC46400A570F640DDB0F3843D2009A4500D1AAE06646A61B002E00DCFFE06346002B39D10300134300D0D9E06B0709D00F232B40042BF5
:4020000005D02B1DAB42AD416D4249191D000B0200D482E0CA4B01349C4200D1FEE00A005646C84BED081A405007640552020543120B640D002112030B0D1B056405120B7A
:402040001A436308C04CF60714401C43640064083443280021003CBC90469946A246AB46F8BDB74B9C42C6D080231B041843382E00DDEBE01F2E00DD1EE120239B1B9C466C
:4020800003006746BB40984613004746F3403B436746BA40571EBA4113430200F240EB1A9D42B6411D008A1A7642911B0B0231D54A02560A002E00D1B4E0300001F05CF9DD
:4020C0000300083B1F2B00DDB5E020222900D21AD1409E400A009D4032439C4200DDB1E01C1B631C1F2B00DDD5E0202114002800C91A8C40D8408D400443DA40681E8541A0
:4021000011002543002476E74146314300D134E2310045466B0700D06FE756464807ED08C9080543864B9C4235D00A036405120B640D7FE76346E31A9B46002B00DC8BE05F
:402140006746002F3CD07E4FBC4200D153E780273F0438435B46382B00DCF7E00243501E82410020D2B253194218AB4289411D00494289180B02CDD5714B01349C4200D156
:402180003DE101206F4A6B080A4028401843D507054351082FE72B000B4300D1CBE180231B030B431A03120B44E7013E002E6DD1AE1AB5429B41091A5B42C91A350075E730
:4021C0000700174300D116E701235B429C46E3445B46002B00D0E0E0AA18AA429B4109185B4259181500C5E7002E75D1661C7605760D012E00DCF3E0AE1AB0464545BF41F6
:402200000E1A7F42F61B370200D48FE0551BAA42B641411A76428E1B9A464BE756460022002507E7280001F0A7F820300300083B1F2B00DC49E72A002838824000259C4243
:4022400000DC4DE73F49E41A1140D4E60243501E8241D3B2002222E7002B00D0F3E0631C9C465B055B0D012B00DC9FE0344B9C4500D1C3E0AA180918AA42804140424118DA
:40228000CD075208154349086446B4E62C4B9C4200D0ECE6AFE611001F3CE1400C00202B00D17FE04021CB1A9A4015436A1E95410021254300242DE733000700203BDF4018
:4022C0003B00202E70D04027BE1BB0400243501E824113430022E2E6002C4FD0184CA44500D1ABE08024240476422143382E00DDDFE01F2E00DD43E12027BC1BA1460C00F2
:402300004F46BC40A0462C004746F4403C434F46BD406F1EBD41F1402C43151BAA429241411A5242891A64469A46BFE641464546314300D0BEE6002600240025F2E6C04606
:40234000FF070000FFFF7FFFFFFF0F801F2B59DC2027FF1ABC46070063469F405B46B9461700DF40B8464F4643461F4363469A40531E9A415B463A43D840F4E60C002C4330
:402380005CD0F643002E55D1551BAA42A441411A6442091B9A46644688E6964FBC4200D0D8E628E6002280E700208FE70B002B43002C00D0C2E0002B00D101E1030013431A
:4023C00000D118E6AB18AB42B6410918764271180A0200D409E1884A1D00114064460AE6002C5BD10E002E4300D08AE00100114300D1C2E0010015009A46FCE564460021E6
:4024000000258FE620235B429C46DC4463460700DF405B46BC46202B00D1ACE040235F46DB1B98400243501E8241634613431A00002098E66F4CA44500D057E7010015003B
:4024400064469A46D7E5002C39D10C002C436ED0DB43002B1AD0674CA44568D0382B00DDA4E01F2B00DDAEE020240F00E41AA740B9462F00DF40B846A3464F4644462743B2
:402480005C46A5406C1EA541D9403D43AD1895429B4109185B42591864466BE60C002C4315D1010011437BD0010015009A46514CA1E50D43691E8D410021ECB22DE74D4CBF
:4024C000A44534D0802424045B422143C6E7040014434ED0ED084C072C438025C9082D03294208D0C6082E4205D1D208410711430C009A463100620FC900E50011433D4CB9
:4025000079E50600164300D175E5AE1AB0464545BF410E1A7F42F61B370200D4F4E5551BAA42B641411A7642891B9A4663E50100150064465FE5002200257BE5002B3BD078
:402540000300134315D0ED084B072B438025C9082D03294207D0C4082C4204D141070B002100D2081343C9005A0F1143DD00214C41E5204C3FE5002054E700260025D1E5EB
:4025800034000F00203CE7403C00202E2BD04027BE1BB1400D43691E8D4100212C43BCE6802100260903134C0025BBE50D43691E8D410021EDB269E7010015000D4C1AE5AE
:4025C0000100150017E51C000F00203CE7403C00202B0CD04027FB1A99400D43691E8D410021254352E70021D4E71D0092E50021F3E7C046FF070000FFFF7FFFF0B55F46BF
:4026000056464D464446F0B40D0399464E002B0B87B00700924680469B46760DCC0F002E69D06D4B9E4235D05B468022DD001204430F13432B439B46C3009846674B002704
:402640009C460023664401934A4615035000D20F53462D0B400D914600D176E05E4A90426CD080225B0F120413435C4AED0094461D4353460022DB00604449463618701C84
:402680006140029017430F2F00D9AFE05448BF00C759BF465B461F4300D088E000239B469846023308270193CEE74946022A6AD0032A00D109E2012A00D0BBE111400022B5
:4026C000002300259046CCB200212D030A0D12052D0B1543434A1B0515401D436D00E4076D0825434046290007B03CBC90469946A246AB46F0BD034352D05B46002B00D1FA
:402700008AE1584600F038FE03000B3B1C2B00DD7BE11D22D31A3A0001005D46DA4008398D4013008F402B439B46B8462E4B00279C46002360444642019385E752462A436A
:402740002CD100250023022297E752462A4321D0002D00D154E1280000F00EFE03000B3B1C2B00DD46E11D21CB1A51460200D9405346083A954093400D431B4A9446604406
:402780004042002279E7012400220C40124B0025904699E70025002301226EE703226CE700239B4698460133042701934CE703230C27019348E700238025984600242D0354
:4027C000054B81E75D464346019A6FE75D4643462100019A6AE7C046FF07000001FCFFFF28390000FFFF0F80F30300004246120C91461A0C9446424617044A461B041B0CEA
:402800005A43604690464A4642431000039262461C003F0C7A437C4342440192220C9246019A5244904506D98246802040028046C24450460390100C049048462404240C01
:402840001204121905922A0C2D042D0C68432C00824648467C4350438146200C8046574357444744BA4503D9802040028046C144380C3F04B84648442404240C01900498CA
:40288000A044404404905846000C814658460404200C8246070048465F434C464343604660436446834650464443380C8446E4186444A34203D980235B029C46E3444846DF
:4028C0003F04230C3F0C2404E419574668436F4384464D46504655434243380C814662444A445B44944503D9802040028446654403983F04834604983F0C8446E344C3457D
:40290000804140428246100484460198674484466744A344BC46A345A4419946D44464428742BF41D4458041E144A04699459B417F424042C8440743120CBA18A045A441E7
:402940005F423B0064422343D71843467D19DB0D6D021D435B465A02059B1A43531E9A415B46DB0D1A4343465B021343EA0107D501225C0813402343EA07029E13436D08DF
:40298000574AB218002A4BDD580709D00F201840042805D0181D98429B415B42ED180300E80104D54F4A15408022D200B2184E48824200DDE7E60124DB08680718436D02D7
:4029C000530580462D0B5B0D0C407DE6802259461203114208D0154206D115432D0398462D0B4C46414B6FE65D4615432D032D0B3E4B69E603005546283B9D400023BCE6CC
:402A0000504600F0B9FC2030A8E60300283B9F400023BB46984689E600F0AEFC203073E60124A61A382E07DD00220C4000230025904649E6029EA3E71F2E20DC20222C00B9
:402A40001800921BF040944093400443581E83411C43F540630709D00F232340042B05D023001C1D9C4292415242AD182B021FD5012400220C4001230025904624E61F2047
:402A80002C004042821AD440202E1CD04022961BB5402B43581E83410720234318400025002809D00F2200251A401C00042AD8D1230068076D022D0B0124DB0803439846BB
:402AC0000C40002300E60025E3E780220124120315432D0398462D0B0C40044BF4E5C046FF030000FFFFFFFEFE070000FF070000F0B557464E464546E0B40E001100F20F81
:402B00009246C500420F180337037400400A4E0F7F0A3043CF4E17435A00640D520DDB0FC900B24200D1E5E001267340A61AB446534500D1AFE0002E00DC0DE1002A3AD1A4
:402B400003000B4300D0E4E06B0709D00F232B40042B05D02B1DAB42AD416D427F191D003B0200D488E0BB4B01349C4200D110E13A00B94B51461A4001235007ED085202B6
:402B800064050543120B640D0B400021280012030D0D120B64052D0515436208AF4CDB072C401443640064081C4321001CBC90469946A246F0BDA74B9C42C5D080231B0460
:402BC00018436346382B00DDFDE01F2B00DD30E1624620239B1A02009A40664690460A009940F24046464B1E99413243114363460200DA40691A8D429B410D00BA1A5B4260
:402C0000D71A3B0235D57A02530A98464346002B00D1C4E0404600F0AFFB0300083B1F2B00DDC5E020222900D21A4746D1409F400A009D403A439C4200DDC0E01C1B631C01
:402C40001F2B00DDE4E0202114002800C91AD8408C408D400443DA40681E854117002543002471E7424663461A4300D14CE2674645466B0700D069E7012351467807ED082A
:402C8000FA080B40054373498C4238D012036405120B640D79E7002E00DC9AE0002A47D06C4A944200D14FE78022120410436246382A00DC08E10143481E81410022C9B246
:402CC0004919D219A942BF410D007F42BF183A0200D442E15F4A0134944200D14EE101205D4A69083A4028400843D507054357089A4629E706000E4300D017E714E72900EE
:402D0000114300D1F9E1802109030A431203120B3BE701235B429846C4446346002B72D1691A8D429B413F1A5B42FF1A0D0068E702000A4300D107E7012252429046C4444C
:402D40006246002A00D0E6E06918A942B6413F187642F7190D00BAE7002E00D080E0621C5205520D012A00DCF9E06A1A91464D45B6413A1A7642921B9046120200D499E075
:402D80004D1BA9428941C71B49427A1A90469A463CE752460123002513400022F5E6280000F0EAFA20300300083B1F2B00DC39E72A002838824000259C4200DC3EE7264F4E
:402DC000E41A1740C0E60143481E81410022C9B210E7002E00D0F1E0621C94465205520D012A00DCA0E01B4A944500D1C5E06918A94292413F185242D2194908D5070D432E
:402E000057086446A0E6134B9C4200D0D9E69BE611001F3CE1400C00202B00D180E04021CB1A9A4015436A1E95410027254300241FE763460200203BDA406346202B71D0BE
:402E4000402366469B1B98400143481E814111430022CFE6FF070000FFFF7FFFFFFF0F80002C48D0CA4CA24200D1A2E07442A1468024240427434C46382C00DDDBE01F2CD2
:402E800000DD44E14E462024A41B3E00A640A246B0464C462E00E640B4464646644626435446A5406C1EA54134002C434D46EF400D1B28E04A4643464D461A4300D0A5E610
:402EC000002300240025DEE61F2A5ADC66462022921B060096409146B04662460E00D640424616434A4691404A1E9141020060463143C240E4E63C002C435AD0F443A146BC
:402F0000002C52D14D1BA9428941C71B49427F1A14009A4675E69E4A944200D0C7E613E600227FE700208FE7002C00D0C8E03B002B4300D10FE103000B4300D104E66918E3
:402F4000A9429B413F185B42DF193B0200D41AE1904B0D001F406446F6E59A4689E63A002A43002C5CD1002A75D102000A4300D1CAE007000D009A46E6E56446002200258D
:402F800081E662460600203AD6406246B046202A00D1B7E040226646921B904001434246481E8141114300228AE6794CA24200D061E707000D0014009A46C5E5002C41D126
:402FC0003C002C4378D0F443A146002C20D0704CA24271D04C46382C00DDB2E01F2C00DDBCE02026341BA2463C005646B4404E46A0462C00F440A446444666463443A446F6
:403000005446A54064466E1EB54125434C46E7406D188D4289413F184942CF19140056E6002A2FD102000A4300D184E007000D009A46574C88E53D436F1EBD41ECB200270A
:403040000D1B60E7524CA24236D0744280263604A1463743BEE702000A4300D174E56A1A90464545B6413A1A7642921B9446120200D4F7E54D1BA9428941C71B49427F1AEF
:403080009A4661E502000A433AD0ED087C072C438025FA082D032A4208D0C7082F4205D145072C003A009A46C9080C43670FD200E5001743364C47E507000D00140043E542
:4030C0003A002A4343D002000A4319D0ED087C072C438025FA082D032A4207D0C6082E4204D147073C003200C9080C43D700620FE50017439A46264C26E50022002544E59A
:40310000234C21E5002049E700230025BBE54C463E00203CE6404C46B446202C31D040244E46A61BB7403D436C1EA54164462C4300270D1BE7E6802200231203144C002583
:40314000A1E53D436F1EBD410027EDB260E707000D000F4CF8E407000D00F5E44E463C00203EF440A0464C46202C0ED040244E46A41BA7403D436F1EBD41444600272543B3
:4031800046E70027CFE70D0073E50027F2E7C046FF070000FFFF7FFF0B0330B5134D1A0B4B005B0DC90F0024AB4211DD104CA34210DC8024640322430E4CE41A1F2C0CDDED
:4031C0000D48C31ADA4013005C42002900D11C00200030BD094BCC18FAE7E040084CA44663449A4013000343EEE7C046FE0300001D0400003304000013040000FFFFFF7F97
:40320000EDFBFFFF70B5002830D0C317C4185C40C50F200000F0B0F8174B184A1B1AD21A1F2A18DD164AD21A9440002224035B05240B5B0D0021100024030A0D1205240B45
:403240001443104A1B0514401C436400ED0764082C43210070BD210091400A000B21081AC4405B052403240B5B0DE3E70025002300240022DEE7C0461E0400003304000061
:4032800013040000FFFF0F808446101C62468C46191C634600E0C0461FB500F0DFF9002801D40021C8421FBD10B500F033F94042013010BD10B500F0D1F9002801DB002092
:4032C00010BD012010BDC04610B500F0C7F9002801DD002010BD012010BDC04610B500F059F9002801DC002010BD012010BDC04610B500F04FF9002801DA002010BD0120B6
:4033000010BDC0468446081C6146FFE71FB500F0BDF8002801D40021C8421FBD10B500F049F84042013010BD10B500F0AFF8002801DB002010BD012010BDC04610B500F056
:40334000A5F8002801DD002010BD012010BDC04610B500F057F8002801DC002010BD012010BDC04610B500F04DF8002801DA002010BD012010BDC0461C2101231B049842A7
:4033800001D3000C10391B0A984201D3000A08391B09984201D30009043902A2105C40187047C04604030202010101010000000000000000430270B542004C005D0AC30F49
:4033C0004802120E460A240EC90FFF2A0FD0FF2C11D00120A24200D070BDB542FCD18B420DD0002AF8D12800431E9841F4E70120002DF1D1EBE70120002EEDD1E9E7002076
:40340000EAE7C0464302F0B542005D0AC30F4802440A4800120E000EC90FFF2A1FD0FF2822D0002A09D16E426E4100280FD1002C0DD10020002D09D005E0002801D1002C93
:4034400001D08B4213D0584201231843F0BD002EF7D048424141012049420843F6E7002DDDD002204042F1E7002CDAD0F9E78242E9DC04DBA542E6D80020A542E6D25842BE
:40348000434101205B421843E0E7C0464302F0B542004C005E0AC30F4802120E450A240EC90FFF2A17D0FF2C19D0002A0BD170427041002C17D0002807D048424141012061
:4034C00049420843F0BD002C13D08B4214D0584201231843F6E70220002EF3D1E3E70220002DEFD1E1E7002DE5D10020002EE9D0EDE7002DE9D1EAE7A242E8DC04DBAE42F1
:40350000E5D80020AE42DDD25842434101205B421843D7E7F0B55F4656464D464446F0B41F035C00DB0F9A46194B0E034D00C90F8046360B6D0D8B4691463F0B640D9D42CE
:4035400019D0134B9C421BD00123A54206D018003CBC90469946A246AB46F0BDBE42F6D1C845F4D1D34510D0002DF0D1304303005A1E9341EBE7310001230143E7D1E0E7E4
:403580003A430123002AE2D1DEE70023DFE7C046FF070000F0B55F46444656464D46F0B41F033C0B2C4F0E034D00A3465C008446360B6D0DC90F9046640DDB0FBD422BD01D
:4035C000254FBC422ED0002D0ED130430700814678427841002C17D15F463A4314D14B460020002B0AD006E0002C02D15846024301D099421AD00123484218433CBC904695
:403600009946A246AB46F0BD0028F2D058425841012240421043F1E737000743D0D002204042EBE75F461743CDD0F8E7A542E2DC05DB5E45DFD808D000205E45DED2484272
:403640004841012340421843D8E7C445D3D80020C445F4D3D2E7C046FF070000F0B55F464D4644465646F0B41C03240BA4462F4C0F034D005E00C90F80463F0B6D0D8B464E
:403680009146760DDB0FA54220D0284CA64222D0002D12D1384344424441002E20D0002C0DD05C42634101245B421C4320003CBC90469946A246AB46F0BD002E17D05B4579
:4036C00019D05B465C4201231C43EFE7390002240143EBD1D9E7614602241143E6D1D7E761460A43DBD100240028DFD0E9E761460A43E4D1E5E7B54203DD01225C421443C5
:40370000D4E7B542CDDB6745DBD809D000246745CCD259464C426141012449420C43C5E7C845CED80024C845F3D3BFE7FF070000014B18687047C046640100200E4B70B52D
:4037400000251E000D4CE41AA410A54204D0AB00F35898470135F8E700F008F9084B00251E00084CE41AA410A54204D0AB00F35898470135F8E770BD783900007839000095
:403780007839000080390000002310B59A4203D0CC5CC4540133F9E710BD03008218934202D019700133FAE7704700000000000000300F40000400400F400004800D0E0499
:4037C0000F011208130114012407300832023301340436013F044040410545D14720482349FF4AFF4BFF4DA04F04501852805405580459045A045B045F01604062C0644061
:40380000654066C068C06AC06CC06EC0004009020A101020184019401A14220430023840404048224902500259425A087102C001C20CC404CC01CE08D001D208D60BAE049E
:403840003B04CE40AF04EA400101100101000F4027300F4019310F4001330F4002400F4002410F4002600F40030405060708090A0B0C0E0F101112131415161718191B1CB9
:403880001D1E1F2021222325262728292A2B2E2F303132333435000000000000000000000000000000020400661A00008A190000481A0000201A0000481A0000141A00002F
:4038C000481A0000201A00008A1900008A190000141A0000201A0000CC1A0000CC1A0000CC1A00004E1A00008A1900008A190000341A00001E1A0000341A0000141A00001C
:40390000341A00001E1A00008A1900008A190000141A00001E1A0000CC1A0000CC1A0000CC1A0000D81A0000EC270000AC260000AC260000AA260000C4270000C427000054
:40394000B6270000AA260000C4270000B6270000C4270000AA260000CC270000CC270000CC270000CC29000043000000F8B5C046F8BC08BC9E467047D5020000050700005D
:40398000F8B5C046F8BC08BC9E467047AD020000A0390000C0000020A80000008002000000000000010000000000C05D80BB000030000000006CDC02850B0000850B0000BC
:4039C000850B0000850B0000850B0000850B0000850B0000850B000007000000F0000000040404000000000000000000000000000000000000000000000000000000000064
:403A000000000000683900000000000000000000000000000000000000000000000000000000000000000000000000000000000000000000000000000000000000000000E5
:403A40000000000004010020000000000000000000000000000000000000000000000000000000000000000000000000000000000000000000000000000000000000000021
:403A80000000000000000000000000000000000000000000000000000000000000000000000000000000000000000000000000000000000000000000000000000000000006
:403AC00000000000000000000000000000000000000000000000000000000000000000000000000000000000000000000000000000000000000000000000000000000000C6
:403B00000000000000000000000000000000000000000000000000000000000000000000000000000000000000000000000000000000000000000000000000000000000085
:403B40000000000000000000000000000000000000000000000000000000000000000000000000000000000000000000000000000000000000000000000000000000000045
:020000040003F7
:0200000490303A
:02000000EB8A89
:0200000490402A
:4000000000000000000000000000000000000000000000000000000000000000000000000000000000000000000000000000000000000000000000000000000000000000C0
:400040000000000000000000000000000000000000000000000000000000000000000000000000000000000000000000000000000000000000000000000000000000000080
:0200000490501A
:0C00000000021A1711AA00011A29FD3491
:0200000490600A
:0100000001FE
:00000001FF